{
  "contractName": "CrowdFunding",
  "abi": [
    {
      "inputs": [],
      "payable": false,
      "stateMutability": "nonpayable",
      "type": "constructor"
    },
    {
      "constant": true,
      "inputs": [],
      "name": "organizer",
      "outputs": [
        {
          "internalType": "address",
          "name": "",
          "type": "address"
        }
      ],
      "payable": false,
      "stateMutability": "view",
      "type": "function"
    },
    {
      "constant": true,
      "inputs": [],
      "name": "project_count",
      "outputs": [
        {
          "internalType": "uint256",
          "name": "",
          "type": "uint256"
        }
      ],
      "payable": false,
      "stateMutability": "view",
      "type": "function"
    },
    {
      "constant": true,
      "inputs": [
        {
          "internalType": "uint256",
          "name": "",
          "type": "uint256"
        }
      ],
      "name": "projects",
      "outputs": [
        {
          "internalType": "uint256",
          "name": "project_id",
          "type": "uint256"
        },
        {
          "internalType": "address",
          "name": "initiator",
          "type": "address"
        },
        {
          "internalType": "string",
          "name": "title",
          "type": "string"
        },
        {
          "internalType": "string",
          "name": "description",
          "type": "string"
        },
        {
          "internalType": "uint256",
          "name": "target",
          "type": "uint256"
        },
        {
          "internalType": "uint256",
          "name": "current_amount",
          "type": "uint256"
        },
        {
          "internalType": "uint256",
          "name": "total_amount",
          "type": "uint256"
        },
        {
          "internalType": "uint256",
          "name": "start",
          "type": "uint256"
        },
        {
          "internalType": "uint256",
          "name": "end",
          "type": "uint256"
        },
        {
          "internalType": "uint256",
          "name": "investment_count",
          "type": "uint256"
        },
        {
          "internalType": "uint256",
          "name": "request_count",
          "type": "uint256"
        }
      ],
      "payable": false,
      "stateMutability": "view",
      "type": "function"
    },
    {
      "constant": true,
      "inputs": [
        {
          "internalType": "address",
          "name": "",
          "type": "address"
        },
        {
          "internalType": "uint256",
          "name": "",
          "type": "uint256"
        },
        {
          "internalType": "uint256",
          "name": "",
          "type": "uint256"
        }
      ],
      "name": "relations",
      "outputs": [
        {
          "internalType": "uint256",
          "name": "",
          "type": "uint256"
        }
      ],
      "payable": false,
      "stateMutability": "view",
      "type": "function"
    },
    {
      "constant": false,
      "inputs": [
        {
          "internalType": "string",
          "name": "title",
          "type": "string"
        },
        {
          "internalType": "string",
          "name": "description",
          "type": "string"
        },
        {
          "internalType": "uint256",
          "name": "target",
          "type": "uint256"
        },
        {
          "internalType": "uint256",
          "name": "time",
          "type": "uint256"
        }
      ],
      "name": "create_project",
      "outputs": [],
      "payable": false,
      "stateMutability": "nonpayable",
      "type": "function"
    },
    {
      "constant": false,
      "inputs": [
        {
          "internalType": "uint256",
          "name": "project_id",
          "type": "uint256"
        },
        {
          "internalType": "string",
          "name": "description",
          "type": "string"
        },
        {
          "internalType": "uint256",
          "name": "amount",
          "type": "uint256"
        }
      ],
      "name": "create_request",
      "outputs": [],
      "payable": false,
      "stateMutability": "nonpayable",
      "type": "function"
    },
    {
      "constant": false,
      "inputs": [
        {
          "internalType": "uint256",
          "name": "project_id",
          "type": "uint256"
        }
      ],
      "name": "create_investment",
      "outputs": [],
      "payable": true,
      "stateMutability": "payable",
      "type": "function"
    },
    {
      "constant": false,
      "inputs": [
        {
          "internalType": "uint256",
          "name": "project_id",
          "type": "uint256"
        }
      ],
      "name": "withdraw",
      "outputs": [
        {
          "internalType": "bool",
          "name": "",
          "type": "bool"
        }
      ],
      "payable": false,
      "stateMutability": "nonpayable",
      "type": "function"
    },
    {
      "constant": false,
      "inputs": [
        {
          "internalType": "uint256",
          "name": "project_id",
          "type": "uint256"
        },
        {
          "internalType": "uint256",
          "name": "request_id",
          "type": "uint256"
        }
      ],
      "name": "allow",
      "outputs": [],
      "payable": false,
      "stateMutability": "nonpayable",
      "type": "function"
    },
    {
      "constant": true,
      "inputs": [
        {
          "internalType": "uint256",
          "name": "project_id",
          "type": "uint256"
        },
        {
          "internalType": "uint256",
          "name": "request_id",
          "type": "uint256"
        }
      ],
      "name": "check_support_amount",
      "outputs": [
        {
          "internalType": "bool",
          "name": "",
          "type": "bool"
        }
      ],
      "payable": false,
      "stateMutability": "view",
      "type": "function"
    },
    {
      "constant": true,
      "inputs": [
        {
          "internalType": "uint256",
          "name": "project_id",
          "type": "uint256"
        },
        {
          "internalType": "uint256",
          "name": "request_id",
          "type": "uint256"
        }
      ],
      "name": "support_rate",
      "outputs": [
        {
          "internalType": "uint256",
          "name": "",
          "type": "uint256"
        }
      ],
      "payable": false,
      "stateMutability": "view",
      "type": "function"
    },
    {
      "constant": false,
      "inputs": [
        {
          "internalType": "uint256",
          "name": "project_id",
          "type": "uint256"
        },
        {
          "internalType": "uint256",
          "name": "request_id",
          "type": "uint256"
        }
      ],
      "name": "collect",
      "outputs": [
        {
          "internalType": "bool",
          "name": "",
          "type": "bool"
        }
      ],
      "payable": false,
      "stateMutability": "nonpayable",
      "type": "function"
    },
    {
      "constant": true,
      "inputs": [],
      "name": "get_projects",
      "outputs": [
        {
          "internalType": "uint256[]",
          "name": "",
          "type": "uint256[]"
        },
        {
          "internalType": "uint256[]",
          "name": "",
          "type": "uint256[]"
        }
      ],
      "payable": false,
      "stateMutability": "view",
      "type": "function"
    },
    {
      "constant": true,
      "inputs": [
        {
          "internalType": "uint256",
          "name": "project_id",
          "type": "uint256"
        },
        {
          "internalType": "uint256",
          "name": "investment_id",
          "type": "uint256"
        }
      ],
      "name": "get_investment",
      "outputs": [
        {
          "internalType": "address",
          "name": "",
          "type": "address"
        },
        {
          "internalType": "uint256",
          "name": "",
          "type": "uint256"
        },
        {
          "internalType": "uint256",
          "name": "",
          "type": "uint256"
        }
      ],
      "payable": false,
      "stateMutability": "view",
      "type": "function"
    },
    {
      "constant": true,
      "inputs": [
        {
          "internalType": "uint256",
          "name": "project_id",
          "type": "uint256"
        },
        {
          "internalType": "uint256",
          "name": "request_id",
          "type": "uint256"
        }
      ],
      "name": "get_request",
      "outputs": [
        {
          "internalType": "string",
          "name": "",
          "type": "string"
        },
        {
          "internalType": "uint256",
          "name": "",
          "type": "uint256"
        },
        {
          "internalType": "uint256",
          "name": "",
          "type": "uint256"
        },
        {
          "internalType": "uint256[]",
          "name": "",
          "type": "uint256[]"
        }
      ],
      "payable": false,
      "stateMutability": "view",
      "type": "function"
    }
  ],
  "bytecode": "0x608060405234801561001057600080fd5b50336000806101000a81548173ffffffffffffffffffffffffffffffffffffffff021916908373ffffffffffffffffffffffffffffffffffffffff160217905550600060018190555061197a806100686000396000f3fe6080604052600436106100e75760003560e01c80636d912db21161008a578063cfa6f82711610059578063cfa6f8271461079e578063d6ff91d3146107fb578063e7d0737e1461096e578063ffb559e0146109c7576100e7565b80636d912db21461049d5780637080e8e114610579578063bdbc209a1461062d578063c6fb7c0814610741576100e7565b80634f93d93f116100c65780634f93d93f1461035d57806353b86770146103a25780636079dc831461041b5780636120326514610446576100e7565b806260c6fe146100ec578063107046bd1461017f5780632e1a7d4d1461030a575b600080fd5b3480156100f857600080fd5b5061012f6004803603604081101561010f57600080fd5b8101908080359060200190929190803590602001909291905050506109f5565b604051808473ffffffffffffffffffffffffffffffffffffffff1673ffffffffffffffffffffffffffffffffffffffff168152602001838152602001828152602001935050505060405180910390f35b34801561018b57600080fd5b506101b8600480360360208110156101a257600080fd5b8101908080359060200190929190505050610a5e565b604051808c81526020018b73ffffffffffffffffffffffffffffffffffffffff1673ffffffffffffffffffffffffffffffffffffffff16815260200180602001806020018a815260200189815260200188815260200187815260200186815260200185815260200184815260200183810383528c818151815260200191508051906020019080838360005b8381101561025e578082015181840152602081019050610243565b50505050905090810190601f16801561028b5780820380516001836020036101000a031916815260200191505b5083810382528b818151815260200191508051906020019080838360005b838110156102c45780820151818401526020810190506102a9565b50505050905090810190601f1680156102f15780820380516001836020036101000a031916815260200191505b509d505050505050505050505050505060405180910390f35b34801561031657600080fd5b506103436004803603602081101561032d57600080fd5b8101908080359060200190929190505050610c0d565b604051808215151515815260200191505060405180910390f35b34801561036957600080fd5b506103a06004803603604081101561038057600080fd5b810190808035906020019092919080359060200190929190505050610d6b565b005b3480156103ae57600080fd5b50610405600480360360608110156103c557600080fd5b81019080803573ffffffffffffffffffffffffffffffffffffffff1690602001909291908035906020019092919080359060200190929190505050610ec4565b6040518082815260200191505060405180910390f35b34801561042757600080fd5b50610430610f00565b6040518082815260200191505060405180910390f35b34801561045257600080fd5b5061045b610f06565b604051808273ffffffffffffffffffffffffffffffffffffffff1673ffffffffffffffffffffffffffffffffffffffff16815260200191505060405180910390f35b3480156104a957600080fd5b50610577600480360360608110156104c057600080fd5b8101908080359060200190929190803590602001906401000000008111156104e757600080fd5b8201836020820111156104f957600080fd5b8035906020019184600183028401116401000000008311171561051b57600080fd5b91908080601f016020809104026020016040519081016040528093929190818152602001838380828437600081840152601f19601f82011690508083019250505050505050919291929080359060200190929190505050610f2b565b005b34801561058557600080fd5b5061058e610ff6565b604051808060200180602001838103835285818151815260200191508051906020019060200280838360005b838110156105d55780820151818401526020810190506105ba565b50505050905001838103825284818151815260200191508051906020019060200280838360005b838110156106175780820151818401526020810190506105fc565b5050505090500194505050505060405180910390f35b34801561063957600080fd5b506106706004803603604081101561065057600080fd5b81019080803590602001909291908035906020019092919050505061113f565b604051808060200185815260200184815260200180602001838103835287818151815260200191508051906020019080838360005b838110156106c05780820151818401526020810190506106a5565b50505050905090810190601f1680156106ed5780820380516001836020036101000a031916815260200191505b50838103825284818151815260200191508051906020019060200280838360005b8381101561072957808201518184015260208101905061070e565b50505050905001965050505050505060405180910390f35b34801561074d57600080fd5b506107846004803603604081101561076457600080fd5b810190808035906020019092919080359060200190929190505050611281565b604051808215151515815260200191505060405180910390f35b3480156107aa57600080fd5b506107e1600480360360408110156107c157600080fd5b810190808035906020019092919080359060200190929190505050611324565b604051808215151515815260200191505060405180910390f35b34801561080757600080fd5b5061096c6004803603608081101561081e57600080fd5b810190808035906020019064010000000081111561083b57600080fd5b82018360208201111561084d57600080fd5b8035906020019184600183028401116401000000008311171561086f57600080fd5b91908080601f016020809104026020016040519081016040528093929190818152602001838380828437600081840152601f19601f820116905080830192505050505050509192919290803590602001906401000000008111156108d257600080fd5b8201836020820111156108e457600080fd5b8035906020019184600183028401116401000000008311171561090657600080fd5b91908080601f016020809104026020016040519081016040528093929190818152602001838380828437600081840152601f19601f820116905080830192505050505050509192919290803590602001909291908035906020019092919050505061140f565b005b34801561097a57600080fd5b506109b16004803603604081101561099157600080fd5b810190808035906020019092919080359060200190929190505050611581565b6040518082815260200191505060405180910390f35b6109f3600480360360208110156109dd57600080fd5b810190808035906020019092919050505061162b565b005b60008060008060028660648110610a0857fe5b6101cd0201600a018560648110610a1b57fe5b6004020190508060010160009054906101000a900473ffffffffffffffffffffffffffffffffffffffff1681600201548260030154935093509350509250925092565b60028160648110610a6b57fe5b6101cd02016000915090508060000154908060010160009054906101000a900473ffffffffffffffffffffffffffffffffffffffff1690806002018054600181600116156101000203166002900480601f016020809104026020016040519081016040528092919081815260200182805460018160011615610100020316600290048015610b3a5780601f10610b0f57610100808354040283529160200191610b3a565b820191906000526020600020905b815481529060010190602001808311610b1d57829003601f168201915b505050505090806003018054600181600116156101000203166002900480601f016020809104026020016040519081016040528092919081815260200182805460018160011615610100020316600290048015610bd85780601f10610bad57610100808354040283529160200191610bd8565b820191906000526020600020905b815481529060010190602001808311610bbb57829003601f168201915b5050505050908060040154908060050154908060060154908060070154908060080154908060090154908061019a015490508b565b60008060028360648110610c1d57fe5b6101cd02019050600080905060008090505b8260090154811015610cbb573373ffffffffffffffffffffffffffffffffffffffff1683600a018260648110610c6157fe5b6004020160010160009054906101000a900473ffffffffffffffffffffffffffffffffffffffff1673ffffffffffffffffffffffffffffffffffffffff161415610cae5760019150610cbb565b8080600101915050610c2f565b600083600a018260648110610ccc57fe5b600402016002015490506000811115610d5d57600084600a018360648110610cf057fe5b60040201600201819055503373ffffffffffffffffffffffffffffffffffffffff166108fc829081150290604051600060405180830381858888f19350505050610d5c578084600a018360648110610d4457fe5b60040201600201819055506000945050505050610d66565b5b60019450505050505b919050565b600080905060008090506000809050600060028660648110610d8957fe5b6101cd020190505b3373ffffffffffffffffffffffffffffffffffffffff1681600a018460648110610db757fe5b6004020160010160009054906101000a900473ffffffffffffffffffffffffffffffffffffffff1673ffffffffffffffffffffffffffffffffffffffff1614610e07578280600101935050610d91565b60008161019b0186600a8110610e1957fe5b600502019050600194505b8060030154831015610e79575b8060030154831015610e745783816004018481548110610e4d57fe5b90600052602060002001541415610e675760009450610e74565b8280600101935050610e31565b610e24565b80600401849080600181540180825580915050906001820390600052602060002001600090919290919091505550806003016000815480929190600101919050555050505050505050565b61b4166020528260005260406000208260028110610ede57fe5b018181548110610eea57fe5b9060005260206000200160009250925050505481565b60015481565b6000809054906101000a900473ffffffffffffffffffffffffffffffffffffffff1681565b600060028460648110610f3a57fe5b6101cd0201905060008161019b018261019a0154600a8110610f5857fe5b6005020190508161019a01600081548092919060010191905055816000018190555083816001019080519060200190610f92929190611853565b50828160020181905550600081600301819055506000604051908082528060200260200182016040528015610fd65781602001602082028038833980820191505090505b50816004019080519060200190610fee9291906118d3565b505050505050565b60608061b41660003373ffffffffffffffffffffffffffffffffffffffff1673ffffffffffffffffffffffffffffffffffffffff16815260200190815260200160002060006002811061104557fe5b0161b41660003373ffffffffffffffffffffffffffffffffffffffff1673ffffffffffffffffffffffffffffffffffffffff16815260200190815260200160002060016002811061109257fe5b01818054806020026020016040519081016040528092919081815260200182805480156110de57602002820191906000526020600020905b8154815260200190600101908083116110ca575b505050505091508080548060200260200160405190810160405280929190818152602001828054801561113057602002820191906000526020600020905b81548152602001906001019080831161111c575b50505050509050915091509091565b6060600080606060006002876064811061115557fe5b6101cd020161019b0186600a811061116957fe5b600502019050806001018160020154826003015483600401838054600181600116156101000203166002900480601f0160208091040260200160405190810160405280929190818152602001828054600181600116156101000203166002900480156112165780601f106111eb57610100808354040283529160200191611216565b820191906000526020600020905b8154815290600101906020018083116111f957829003601f168201915b505050505093508080548060200260200160405190810160405280929190818152602001828054801561126857602002820191906000526020600020905b815481526020019060010190808311611254575b5050505050905094509450945094505092959194509250565b6000806000905060008090506000806002876064811061129d57fe5b6101cd0201905060008161019b0187600a81106112b657fe5b6005020190505b806003015484101561130a5781600a018160040185815481106112dc57fe5b9060005260206000200154606481106112f157fe5b60040201600201548501945083806001019450506112bd565b816006015460028602119250829550505050505092915050565b6000806002846064811061133457fe5b6101cd0201905060008161019b0184600a811061134d57fe5b6005020160020154905060008111156114025760008261019b0185600a811061137257fe5b60050201600201819055508082600501600082825403925050819055503373ffffffffffffffffffffffffffffffffffffffff166108fc829081150290604051600060405180830381858888f1935050505061140157808261019b0185600a81106113d957fe5b6005020160020181905550808260050160008282540192505081905550600092505050611409565b5b6001925050505b92915050565b600060026001546064811061142057fe5b6101cd0201905060016000815480929190600101919050558160000181905550338160010160006101000a81548173ffffffffffffffffffffffffffffffffffffffff021916908373ffffffffffffffffffffffffffffffffffffffff1602179055508481600201908051906020019061149b929190611853565b50838160030190805190602001906114b4929190611853565b5082816004018190555060008160050181905550600081600601819055504281600701819055508181600701540181600801819055506000816009018190555060008161019a018190555061b41660003373ffffffffffffffffffffffffffffffffffffffff1673ffffffffffffffffffffffffffffffffffffffff16815260200190815260200160002060006002811061154b57fe5b01816000015490806001815401808255809150509060018203906000526020600020016000909192909190915055505050505050565b6000806000905060008090506000806002876064811061159d57fe5b6101cd0201905060008161019b0187600a81106115b657fe5b6005020190505b806003015484101561160a5781600a018160040185815481106115dc57fe5b9060005260206000200154606481106115f157fe5b60040201600201548501945083806001019450506115bd565b8160060154606486028161161a57fe5b049250829550505050505092915050565b60006002826064811061163a57fe5b6101cd0201905060008090505b816009015481101561170e573373ffffffffffffffffffffffffffffffffffffffff1682600a01826064811061167957fe5b6004020160010160009054906101000a900473ffffffffffffffffffffffffffffffffffffffff1673ffffffffffffffffffffffffffffffffffffffff161415611701573482600a0182606481106116cd57fe5b60040201600201600082825401925050819055504282600a0182606481106116f157fe5b600402016003018190555061170e565b8080600101915050611647565b816009015481141561182f57606482600901541061172b57600080fd5b600082600a0183600901546064811061174057fe5b600402019050826009016000815480929190600101919050558160000181905550338160010160006101000a81548173ffffffffffffffffffffffffffffffffffffffff021916908373ffffffffffffffffffffffffffffffffffffffff16021790555034816002018190555042816003018190555061b41660003373ffffffffffffffffffffffffffffffffffffffff1673ffffffffffffffffffffffffffffffffffffffff16815260200190815260200160002060016002811061180257fe5b01849080600181540180825580915050906001820390600052602060002001600090919290919091505550505b34826006016000828254019250508190555081600601548260050181905550505050565b828054600181600116156101000203166002900490600052602060002090601f016020900481019282601f1061189457805160ff19168380011785556118c2565b828001600101855582156118c2579182015b828111156118c15782518255916020019190600101906118a6565b5b5090506118cf9190611920565b5090565b82805482825590600052602060002090810192821561190f579160200282015b8281111561190e5782518255916020019190600101906118f3565b5b50905061191c9190611920565b5090565b61194291905b8082111561193e576000816000905550600101611926565b5090565b9056fea265627a7a72315820df177a7915e134dbceeb99bc91ec7b69e8d1f437ee0ccfe37828a22c6655388d64736f6c63430005100032",
  "source": "// SPDX-License-Identifier: MIT\r\npragma solidity >=0.4.0 <0.7.5;\r\n\r\ncontract CrowdFunding {\r\n    address public organizer;\r\n\r\n    struct Project {\r\n        uint project_id;\r\n        address initiator;\r\n        string title;\r\n        string description;\r\n        uint target;\r\n        uint current_amount;\r\n        uint total_amount;\r\n        uint start;\r\n        uint end;\r\n        uint investment_count;\r\n        Investment[100] investments;\r\n        uint request_count;\r\n        Request[10] requests;\r\n    }\r\n\r\n    struct Request{\r\n        uint request_id;\r\n        string description;\r\n        uint amount;\r\n        uint support_count;\r\n        uint[] supporters;\r\n    }\r\n\r\n    struct Investment {\r\n        uint investment_id;\r\n        address investor;\r\n        uint amount;\r\n        uint time;\r\n    }\r\n\r\n\r\n    uint public project_count;\r\n    Project[100] public projects;\r\n    mapping(address => uint[][2]) public relations;\r\n\r\n    constructor() public {\r\n        organizer = msg.sender;\r\n        project_count = 0;\r\n    }\r\n\r\n    function create_project(string memory title, string memory description, uint target, uint time) public {\r\n        Project storage project = projects[project_count];\r\n        project.project_id = project_count++;\r\n        project.initiator = msg.sender;\r\n        project.title = title;\r\n        project.description = description;\r\n        project.target = target;\r\n        project.current_amount = 0;\r\n        project.total_amount = 0;\r\n        project.start = block.timestamp;\r\n        project.end = project.start + time;\r\n        project.investment_count = 0;\r\n        project.request_count = 0;\r\n\r\n        relations[msg.sender][0].push(project.project_id);\r\n    }\r\n\r\n    function create_request(uint project_id, string memory description, uint amount) public {\r\n        Project storage project = projects[project_id];\r\n        Request storage req = project.requests[project.request_count];\r\n        req.request_id = project.request_count++;\r\n        req.description = description;\r\n        req.amount = amount;\r\n        req.support_count = 0;\r\n        req.supporters = new uint[](0);\r\n    }\r\n\r\n    function create_investment(uint project_id) public payable{\r\n        Project storage project = projects[project_id];\r\n        uint i = 0;\r\n        while(i < project.investment_count){\r\n            if(project.investments[i].investor == msg.sender){\r\n                project.investments[i].amount += msg.value;\r\n                project.investments[i].time = block.timestamp;\r\n                break;\r\n            }        \r\n            i++;   \r\n        }\r\n        if(i ==  project.investment_count){\r\n            require(project.investment_count < 100);\r\n            Investment storage inv = project.investments[project.investment_count];\r\n            inv.investment_id = project.investment_count++;\r\n            inv.investor = msg.sender;\r\n            inv.amount = msg.value;\r\n            inv.time = block.timestamp;\r\n\r\n            relations[msg.sender][1].push(project_id);\r\n        }\r\n        project.total_amount += msg.value;\r\n        project.current_amount = project.total_amount;\r\n    }\r\n\r\n    function withdraw(uint project_id) public returns(bool){\r\n        Project storage project = projects[project_id];\r\n        bool flag = false;\r\n        uint i = 0;\r\n        while(i < project.investment_count){\r\n            if(project.investments[i].investor == msg.sender){\r\n                flag = true;\r\n                break;\r\n            }\r\n            i++;\r\n        }\r\n        uint amount = project.investments[i].amount;\r\n        if(amount > 0){\r\n            project.investments[i].amount = 0;\r\n            if(!msg.sender.send(amount)){\r\n                project.investments[i].amount = amount;\r\n                return false;\r\n            }\r\n        }\r\n        return true;\r\n    }\r\n\r\n    function allow(uint project_id, uint request_id) public {\r\n        bool flag = false;\r\n        uint i = 0;\r\n        uint j = 0;\r\n        Project storage project = projects[project_id];\r\n        while(project.investments[i].investor != msg.sender){\r\n            i++;\r\n        }\r\n        Request storage req = project.requests[request_id];\r\n        flag = true;\r\n        while(j < req.support_count)\r\n        while(j < req.support_count){\r\n            if(req.supporters[j] == i){\r\n                flag = false;\r\n                break;\r\n            }\r\n            j++;\r\n        }\r\n        req.supporters.push(i);\r\n        req.support_count++;\r\n    }\r\n\r\n    function check_support_amount(uint project_id, uint request_id) public view returns(bool) {\r\n        uint supportAmount = 0;\r\n        uint i = 0;\r\n        bool result;       \r\n        Project storage project = projects[project_id];\r\n        Request storage req = project.requests[request_id];\r\n        while(i < req.support_count){\r\n            supportAmount += project.investments[req.supporters[i]].amount;\r\n            i++;\r\n        }\r\n        result = supportAmount * 2 > project.total_amount;\r\n        return result;\r\n    }\r\n\r\n    function support_rate(uint project_id, uint request_id) public view returns(uint) {\r\n        uint supportAmount = 0;\r\n        uint i = 0;\r\n        uint result;\r\n        Project storage project = projects[project_id];\r\n        Request storage req = project.requests[request_id];\r\n        while(i < req.support_count){\r\n            supportAmount += project.investments[req.supporters[i]].amount;\r\n            i++;\r\n        }\r\n        result = supportAmount * 100 / project.total_amount;\r\n        return result;\r\n    }\r\n\r\n    function collect(uint project_id, uint request_id) public returns(bool){\r\n        Project storage project = projects[project_id];\r\n        uint amount = project.requests[request_id].amount;\r\n        if(amount > 0) {\r\n            project.requests[request_id].amount = 0;\r\n            project.current_amount -= amount;\r\n            if(!msg.sender.send(amount)){\r\n                project.requests[request_id].amount = amount;\r\n                project.current_amount += amount;\r\n                return false;\r\n            }\r\n        }\r\n        return true;\r\n    }\r\n\r\n    function get_projects() public view returns(uint[] memory, uint[] memory){\r\n        return (relations[msg.sender][0], relations[msg.sender][1]);\r\n    }\r\n\r\n    function get_investment(uint project_id, uint investment_id) public view returns(address, uint, uint){\r\n        Investment storage inv = projects[project_id].investments[investment_id];\r\n        return (inv.investor, inv.amount, inv.time);\r\n    }\r\n\r\n    function get_request(uint project_id, uint request_id) public view returns(string memory, uint, uint, uint[] memory){\r\n        Request storage req = projects[project_id].requests[request_id];\r\n        return (req.description, req.amount, req.support_count, req.supporters);\r\n    }\r\n}\r\n",
  "sourcePath": "I:/truffle/contracts/CrowdFunding.sol",
  "compiler": {
    "name": "solc",
    "version": "0.5.16+commit.9c3226ce.Emscripten.clang"
  },
  "schemaVersion": "3.3.3",
  "updatedAt": "2020-12-30T03:58:35.548Z",
  "networkType": "ethereum",
  "devdoc": {
    "methods": {}
  },
  "userdoc": {
    "methods": {}
  }
}