{
  "contractName": "Crowd_fund",
  "abi": [
    {
      "inputs": [],
      "stateMutability": "nonpayable",
      "type": "constructor"
    },
    {
      "anonymous": false,
      "inputs": [
        {
          "indexed": false,
          "internalType": "uint256",
          "name": "num",
          "type": "uint256"
        }
      ],
      "name": "here",
      "type": "event"
    },
    {
      "anonymous": false,
      "inputs": [
        {
          "indexed": false,
          "internalType": "string",
          "name": "name",
          "type": "string"
        },
        {
          "indexed": false,
          "internalType": "uint256",
          "name": "num",
          "type": "uint256"
        }
      ],
      "name": "new_f",
      "type": "event"
    },
    {
      "inputs": [
        {
          "internalType": "uint256",
          "name": "",
          "type": "uint256"
        }
      ],
      "name": "crowdfunds",
      "outputs": [
        {
          "internalType": "string",
          "name": "name",
          "type": "string"
        },
        {
          "internalType": "address payable",
          "name": "raiser",
          "type": "address"
        },
        {
          "internalType": "uint256",
          "name": "investersize",
          "type": "uint256"
        },
        {
          "internalType": "string",
          "name": "description",
          "type": "string"
        },
        {
          "internalType": "uint256",
          "name": "target_amount",
          "type": "uint256"
        },
        {
          "internalType": "uint256",
          "name": "due",
          "type": "uint256"
        },
        {
          "internalType": "uint256",
          "name": "current_amount",
          "type": "uint256"
        },
        {
          "internalType": "uint256",
          "name": "total_amount",
          "type": "uint256"
        },
        {
          "internalType": "bool",
          "name": "isClosed",
          "type": "bool"
        },
        {
          "internalType": "bool",
          "name": "isPassed",
          "type": "bool"
        },
        {
          "internalType": "uint256",
          "name": "proposal_size",
          "type": "uint256"
        }
      ],
      "stateMutability": "view",
      "type": "function",
      "constant": true
    },
    {
      "inputs": [],
      "name": "crowdfunds_count",
      "outputs": [
        {
          "internalType": "uint256",
          "name": "",
          "type": "uint256"
        }
      ],
      "stateMutability": "view",
      "type": "function",
      "constant": true
    },
    {
      "inputs": [],
      "name": "manager",
      "outputs": [
        {
          "internalType": "address payable",
          "name": "",
          "type": "address"
        }
      ],
      "stateMutability": "view",
      "type": "function",
      "constant": true
    },
    {
      "inputs": [],
      "name": "palyer2",
      "outputs": [
        {
          "internalType": "address payable",
          "name": "",
          "type": "address"
        }
      ],
      "stateMutability": "view",
      "type": "function",
      "constant": true
    },
    {
      "inputs": [],
      "name": "player",
      "outputs": [
        {
          "internalType": "address payable",
          "name": "",
          "type": "address"
        }
      ],
      "stateMutability": "view",
      "type": "function",
      "constant": true
    },
    {
      "inputs": [
        {
          "internalType": "uint256",
          "name": "",
          "type": "uint256"
        }
      ],
      "name": "players",
      "outputs": [
        {
          "internalType": "address payable",
          "name": "",
          "type": "address"
        }
      ],
      "stateMutability": "view",
      "type": "function",
      "constant": true
    },
    {
      "inputs": [],
      "name": "round",
      "outputs": [
        {
          "internalType": "uint256",
          "name": "",
          "type": "uint256"
        }
      ],
      "stateMutability": "view",
      "type": "function",
      "constant": true
    },
    {
      "inputs": [],
      "name": "winner",
      "outputs": [
        {
          "internalType": "address payable",
          "name": "",
          "type": "address"
        }
      ],
      "stateMutability": "view",
      "type": "function",
      "constant": true
    },
    {
      "inputs": [],
      "name": "update_state",
      "outputs": [],
      "stateMutability": "nonpayable",
      "type": "function"
    },
    {
      "inputs": [
        {
          "internalType": "string",
          "name": "name",
          "type": "string"
        },
        {
          "internalType": "string",
          "name": "description",
          "type": "string"
        },
        {
          "internalType": "uint256",
          "name": "due",
          "type": "uint256"
        },
        {
          "internalType": "uint256",
          "name": "target_amount",
          "type": "uint256"
        }
      ],
      "name": "new_fund",
      "outputs": [],
      "stateMutability": "nonpayable",
      "type": "function"
    },
    {
      "inputs": [
        {
          "internalType": "string",
          "name": "name",
          "type": "string"
        },
        {
          "internalType": "string",
          "name": "description",
          "type": "string"
        },
        {
          "internalType": "uint256",
          "name": "amount",
          "type": "uint256"
        },
        {
          "internalType": "uint256",
          "name": "fund_index",
          "type": "uint256"
        }
      ],
      "name": "new_proposal",
      "outputs": [],
      "stateMutability": "nonpayable",
      "type": "function"
    },
    {
      "inputs": [
        {
          "internalType": "uint256",
          "name": "fund_index",
          "type": "uint256"
        }
      ],
      "name": "invest",
      "outputs": [],
      "stateMutability": "payable",
      "type": "function",
      "payable": true
    },
    {
      "inputs": [],
      "name": "get_fund_number",
      "outputs": [
        {
          "internalType": "uint256",
          "name": "",
          "type": "uint256"
        }
      ],
      "stateMutability": "view",
      "type": "function",
      "constant": true
    },
    {
      "inputs": [
        {
          "internalType": "uint256",
          "name": "fund_index",
          "type": "uint256"
        }
      ],
      "name": "get_fund_info",
      "outputs": [
        {
          "internalType": "string",
          "name": "",
          "type": "string"
        },
        {
          "internalType": "string",
          "name": "",
          "type": "string"
        },
        {
          "internalType": "uint256",
          "name": "",
          "type": "uint256"
        },
        {
          "internalType": "uint256",
          "name": "",
          "type": "uint256"
        },
        {
          "internalType": "uint256",
          "name": "",
          "type": "uint256"
        },
        {
          "internalType": "uint256",
          "name": "",
          "type": "uint256"
        },
        {
          "internalType": "string",
          "name": "",
          "type": "string"
        },
        {
          "internalType": "string",
          "name": "",
          "type": "string"
        },
        {
          "internalType": "address payable",
          "name": "",
          "type": "address"
        }
      ],
      "stateMutability": "view",
      "type": "function",
      "constant": true
    },
    {
      "inputs": [
        {
          "internalType": "uint256",
          "name": "fund_index",
          "type": "uint256"
        }
      ],
      "name": "get_proposal_number",
      "outputs": [
        {
          "internalType": "uint256",
          "name": "",
          "type": "uint256"
        }
      ],
      "stateMutability": "view",
      "type": "function",
      "constant": true
    },
    {
      "inputs": [
        {
          "internalType": "uint256",
          "name": "fund_index",
          "type": "uint256"
        },
        {
          "internalType": "uint256",
          "name": "proposal_index",
          "type": "uint256"
        }
      ],
      "name": "get_proposal_info",
      "outputs": [
        {
          "internalType": "string",
          "name": "",
          "type": "string"
        },
        {
          "internalType": "string",
          "name": "",
          "type": "string"
        },
        {
          "internalType": "uint256",
          "name": "",
          "type": "uint256"
        },
        {
          "internalType": "uint256",
          "name": "",
          "type": "uint256"
        },
        {
          "internalType": "uint256",
          "name": "",
          "type": "uint256"
        },
        {
          "internalType": "string",
          "name": "",
          "type": "string"
        },
        {
          "internalType": "string",
          "name": "",
          "type": "string"
        }
      ],
      "stateMutability": "view",
      "type": "function",
      "constant": true
    },
    {
      "inputs": [
        {
          "internalType": "uint256",
          "name": "fund_index",
          "type": "uint256"
        }
      ],
      "name": "get_invester_number",
      "outputs": [
        {
          "internalType": "uint256",
          "name": "",
          "type": "uint256"
        }
      ],
      "stateMutability": "view",
      "type": "function",
      "constant": true
    },
    {
      "inputs": [
        {
          "internalType": "uint256",
          "name": "fund_index",
          "type": "uint256"
        }
      ],
      "name": "get_weight",
      "outputs": [
        {
          "internalType": "uint256",
          "name": "",
          "type": "uint256"
        }
      ],
      "stateMutability": "view",
      "type": "function",
      "constant": true
    },
    {
      "inputs": [
        {
          "internalType": "uint256",
          "name": "fund_index",
          "type": "uint256"
        },
        {
          "internalType": "uint256",
          "name": "proposal_index",
          "type": "uint256"
        },
        {
          "internalType": "bool",
          "name": "vote",
          "type": "bool"
        }
      ],
      "name": "vote_for_proposal",
      "outputs": [],
      "stateMutability": "nonpayable",
      "type": "function"
    },
    {
      "inputs": [
        {
          "internalType": "uint256",
          "name": "fund_index",
          "type": "uint256"
        },
        {
          "internalType": "uint256",
          "name": "proposal_index",
          "type": "uint256"
        }
      ],
      "name": "proposal_pass",
      "outputs": [],
      "stateMutability": "nonpayable",
      "type": "function"
    },
    {
      "inputs": [
        {
          "internalType": "uint256",
          "name": "fund_index",
          "type": "uint256"
        },
        {
          "internalType": "uint256",
          "name": "proposal_index",
          "type": "uint256"
        }
      ],
      "name": "is_voted",
      "outputs": [
        {
          "internalType": "bool",
          "name": "",
          "type": "bool"
        }
      ],
      "stateMutability": "view",
      "type": "function",
      "constant": true
    },
    {
      "inputs": [],
      "name": "getBalance",
      "outputs": [
        {
          "internalType": "uint256",
          "name": "",
          "type": "uint256"
        }
      ],
      "stateMutability": "view",
      "type": "function",
      "constant": true
    }
  ],
  "bytecode": "0x60806040526000600760146101000a81548160ff02191690831515021790555034801561002b57600080fd5b5033600460006101000a81548173ffffffffffffffffffffffffffffffffffffffff021916908373ffffffffffffffffffffffffffffffffffffffff1602179055506000600181905550612717806100846000396000f3fe6080604052600436106101355760003560e01c80638bc44773116100ab578063d223dab21161006f578063d223dab21461043f578063d27f7ba514610468578063d6cbdcd81461047f578063dfbf53ae146104bc578063f0ed72d6146104e7578063f71d96cb1461052c57610135565b80638bc44773146103285780638c438e2d146103535780638d9036b1146103905780638e5750a7146103cd578063ac42b1d6146103f857610135565b80632afcf480116100fd5780632afcf4801461021f5780633f814b341461023b578063481c6a751461026457806348db5f891461028f5780635b957422146102ba5780637e8d791c146102fd57610135565b8063056a4c651461013a57806312065fe014610163578063146ca5311461018e57806316c33dbc146101b957806322f85d54146101f6575b600080fd5b34801561014657600080fd5b50610161600480360381019061015c91906120f8565b610569565b005b34801561016f57600080fd5b5061017861074c565b60405161018591906125f0565b60405180910390f35b34801561019a57600080fd5b506101a3610754565b6040516101b091906125f0565b60405180910390f35b3480156101c557600080fd5b506101e060048036038101906101db9190612193565b61075a565b6040516101ed91906125f0565b60405180910390f35b34801561020257600080fd5b5061021d600480360381019061021891906121bc565b610779565b005b61023960048036038101906102349190612193565b61090f565b005b34801561024757600080fd5b50610262600480360381019061025d91906120f8565b610a5b565b005b34801561027057600080fd5b50610279610c13565b604051610286919061236d565b60405180910390f35b34801561029b57600080fd5b506102a4610c39565b6040516102b1919061236d565b60405180910390f35b3480156102c657600080fd5b506102e160048036038101906102dc91906121bc565b610c5f565b6040516102f4979695949392919061245c565b60405180910390f35b34801561030957600080fd5b50610312610fe0565b60405161031f91906125f0565b60405180910390f35b34801561033457600080fd5b5061033d610fea565b60405161034a919061236d565b60405180910390f35b34801561035f57600080fd5b5061037a60048036038101906103759190612193565b611010565b60405161038791906125f0565b60405180910390f35b34801561039c57600080fd5b506103b760048036038101906103b29190612193565b61102f565b6040516103c491906125f0565b60405180910390f35b3480156103d957600080fd5b506103e2611095565b6040516103ef91906125f0565b60405180910390f35b34801561040457600080fd5b5061041f600480360381019061041a9190612193565b61109b565b6040516104369b9a999897969594939291906123a3565b60405180910390f35b34801561044b57600080fd5b50610466600480360381019061046191906121f8565b61125f565b005b34801561047457600080fd5b5061047d6113b5565b005b34801561048b57600080fd5b506104a660048036038101906104a191906121bc565b611479565b6040516104b39190612388565b60405180910390f35b3480156104c857600080fd5b506104d16115ad565b6040516104de919061236d565b60405180910390f35b3480156104f357600080fd5b5061050e60048036038101906105099190612193565b6115d3565b604051610523999897969594939291906124e7565b60405180910390f35b34801561053857600080fd5b50610553600480360381019061054e9190612193565b611a4e565b604051610560919061236d565b60405180910390f35b803373ffffffffffffffffffffffffffffffffffffffff1660008083815260200190815260200160002060010160009054906101000a900473ffffffffffffffffffffffffffffffffffffffff1673ffffffffffffffffffffffffffffffffffffffff161461060d576040517f08c379a0000000000000000000000000000000000000000000000000000000008152600401610604906125b0565b60405180910390fd5b600061061883611a8d565b9050878782600a01600084600b015481526020019081526020016000206000019190610645929190611fd9565b50858582600a01600084600b015481526020019081526020016000206001019190610671929190611fd9565b508381600a01600083600b0154815260200190815260200160002060020181905550600081600a01600083600b0154815260200190815260200160002060040181905550600081600a01600083600b0154815260200190815260200160002060030181905550600081600a01600083600b0154815260200190815260200160002060070160006101000a81548160ff021916908315150217905550600081600a01600083600b015481526020019081526020016000206006018190555080600b01600081548092919060010191905055505050505050505050565b600047905090565b60065481565b6000806000838152602001908152602001600020600b01549050919050565b813373ffffffffffffffffffffffffffffffffffffffff1660008083815260200190815260200160002060010160009054906101000a900473ffffffffffffffffffffffffffffffffffffffff1673ffffffffffffffffffffffffffffffffffffffff161461081d576040517f08c379a0000000000000000000000000000000000000000000000000000000008152600401610814906125b0565b60405180910390fd5b600061082884611a8d565b905060006108368585611afb565b90508060070160009054906101000a900460ff168061085c575061085a8585611be6565b155b1561086657600080fd5b8160010160009054906101000a900473ffffffffffffffffffffffffffffffffffffffff1673ffffffffffffffffffffffffffffffffffffffff166108fc82600201549081150290604051600060405180830381858888f193505050501580156108d4573d6000803e3d6000fd5b508060020154826007016000828254039250508190555060018160070160006101000a81548160ff0219169083151502179055505050505050565b806000808281526020019081526020016000206006015442111561093257600080fd5b600061093d83611a8d565b905034816007016000828254019250508190555034816008016000828254019250508190555061096c83611c34565b610a2057338160020160008360030154815260200190815260200160002060000160006101000a81548173ffffffffffffffffffffffffffffffffffffffff021916908373ffffffffffffffffffffffffffffffffffffffff16021790555034816002016000836003015481526020019081526020016000206001018190555080600301600081548092919060010191905055506000600760146101000a81548160ff021916908315150217905550610a56565b6001600760146101000a81548160ff02191690831515021790555034610a4584611cf8565b600101600082825401925050819055505b505050565b6000806000600154815260200190815260200160002090508686826000019190610a86929190611fd9565b50338160010160006101000a81548173ffffffffffffffffffffffffffffffffffffffff021916908373ffffffffffffffffffffffffffffffffffffffff1602179055508060010160009054906101000a900473ffffffffffffffffffffffffffffffffffffffff16600260006101000a81548173ffffffffffffffffffffffffffffffffffffffff021916908373ffffffffffffffffffffffffffffffffffffffff16021790555033600360006101000a81548173ffffffffffffffffffffffffffffffffffffffff021916908373ffffffffffffffffffffffffffffffffffffffff1602179055508484826004019190610b83929190611fd9565b5082816006018190555081816005018190555060008160090160006101000a81548160ff02191690831515021790555060008160090160016101000a81548160ff021916908315150217905550600081600701819055506000816008018190555060008160030181905550600081600b018190555060016000815480929190600101919050555050505050505050565b600460009054906101000a900473ffffffffffffffffffffffffffffffffffffffff1681565b600260009054906101000a900473ffffffffffffffffffffffffffffffffffffffff1681565b60608060008060006060806000610c768a8a611afb565b9050606080610c848c611c34565b610cc5576040518060400160405280600281526020017f2d2d0000000000000000000000000000000000000000000000000000000000008152509050610d4b565b610ccf8c8c611479565b15610d11576040518060400160405280600581526020017f566f7465640000000000000000000000000000000000000000000000000000008152509050610d4a565b6040518060400160405280600981526020017f4e6f7420766f746564000000000000000000000000000000000000000000000081525090505b5b610d558c8c611be6565b15610dec578260070160009054906101000a900460ff1615610dae576040518060400160405280600c81526020017f5769746864726177616c656400000000000000000000000000000000000000008152509150610de7565b6040518060400160405280600681526020017f506173736564000000000000000000000000000000000000000000000000000081525091505b610e72565b610df68c8c611e27565b15610e38576040518060400160405280600681526020017f4661696c656400000000000000000000000000000000000000000000000000008152509150610e71565b6040518060400160405280600781526020017f4f6e676f696e670000000000000000000000000000000000000000000000000081525091505b5b82600001836001018460020154856004015486600301548686868054600181600116156101000203166002900480601f016020809104026020016040519081016040528092919081815260200182805460018160011615610100020316600290048015610f205780601f10610ef557610100808354040283529160200191610f20565b820191906000526020600020905b815481529060010190602001808311610f0357829003601f168201915b50505050509650858054600181600116156101000203166002900480601f016020809104026020016040519081016040528092919081815260200182805460018160011615610100020316600290048015610fbc5780601f10610f9157610100808354040283529160200191610fbc565b820191906000526020600020905b815481529060010190602001808311610f9f57829003601f168201915b50505050509550995099509950995099509950995050505092959891949750929550565b6000600154905090565b600360009054906101000a900473ffffffffffffffffffffffffffffffffffffffff1681565b6000806000838152602001908152602001600020600301549050919050565b60008161103b81611c34565b61107a576040517f08c379a0000000000000000000000000000000000000000000000000000000008152600401611071906125d0565b60405180910390fd5b600061108584611cf8565b9050806001015492505050919050565b60015481565b6000602052806000526040600020600091509050806000018054600181600116156101000203166002900480601f0160208091040260200160405190810160405280929190818152602001828054600181600116156101000203166002900480156111475780601f1061111c57610100808354040283529160200191611147565b820191906000526020600020905b81548152906001019060200180831161112a57829003601f168201915b5050505050908060010160009054906101000a900473ffffffffffffffffffffffffffffffffffffffff1690806003015490806004018054600181600116156101000203166002900480601f0160208091040260200160405190810160405280929190818152602001828054600181600116156101000203166002900480156112115780601f106111e657610100808354040283529160200191611211565b820191906000526020600020905b8154815290600101906020018083116111f457829003601f168201915b5050505050908060050154908060060154908060070154908060080154908060090160009054906101000a900460ff16908060090160019054906101000a900460ff169080600b015490508b565b8261126981611c34565b6112a8576040517f08c379a000000000000000000000000000000000000000000000000000000000815260040161129f906125d0565b60405180910390fd5b60006112b385611cf8565b905060006112c18686611afb565b90506112cd8686611479565b156112d757600080fd5b338160050160008360060154815260200190815260200160002060000160006101000a81548173ffffffffffffffffffffffffffffffffffffffff021916908373ffffffffffffffffffffffffffffffffffffffff160217905550838160050160008360060154815260200190815260200160002060000160146101000a81548160ff02191690831515021790555080600601600081548092919060010191905055508160010154816004016000828254019250508190555083156113ad57816001015481600301600082825401925050819055505b505050505050565b60005b6001548110156114765760006113cd82611a8d565b90508060090160009054906101000a900460ff161580156113fd57508060090160019054906101000a900460ff16155b8015611410575080600501548160070154105b801561141f5750428160060154105b156114685760018160090160006101000a81548160ff02191690831515021790555060008160090160016101000a81548160ff02191690831515021790555061146782611e7a565b5b5080806001019150506113b8565b50565b60008261148581611c34565b6114c4576040517f08c379a00000000000000000000000000000000000000000000000000000000081526004016114bb906125d0565b60405180910390fd5b60005b600080868152602001908152602001600020600a016000858152602001908152602001600020600601548110156115a057600080868152602001908152602001600020600a016000858152602001908152602001600020600501600082815260200190815260200160002060000160009054906101000a900473ffffffffffffffffffffffffffffffffffffffff1673ffffffffffffffffffffffffffffffffffffffff163373ffffffffffffffffffffffffffffffffffffffff1614156115935760019250506115a6565b80806001019150506114c7565b50600091505b5092915050565b600760009054906101000a900473ffffffffffffffffffffffffffffffffffffffff1681565b606080600080600080606080600060608060006115ef8d611a8d565b90508060090160009054906101000a900460ff16801561161e57508060090160019054906101000a900460ff16155b15611660576040518060400160405280600681526020017f4661696c656400000000000000000000000000000000000000000000000000008152509250611797565b8060090160009054906101000a900460ff16801561168c57508060090160019054906101000a900460ff165b801561169c575060008160070154115b156116de576040518060400160405280600981526020017f53756363656564656400000000000000000000000000000000000000000000008152509250611796565b8060090160009054906101000a900460ff16801561170a57508060090160019054906101000a900460ff165b801561171a575060008160070154145b1561175c576040518060400160405280600981526020017f436f6d706c6574656400000000000000000000000000000000000000000000008152509250611795565b6040518060400160405280600781526020017f4f6e676f696e670000000000000000000000000000000000000000000000000081525092505b5b5b6117a08d611c34565b156117e2576040518060400160405280600881526020017f496e76657374657200000000000000000000000000000000000000000000000081525091506118b1565b8060010160009054906101000a900473ffffffffffffffffffffffffffffffffffffffff1673ffffffffffffffffffffffffffffffffffffffff163373ffffffffffffffffffffffffffffffffffffffff161415611877576040518060400160405280600681526020017f526169736572000000000000000000000000000000000000000000000000000081525091506118b0565b6040518060400160405280600681526020017f4e6f726d616c000000000000000000000000000000000000000000000000000081525091505b5b8060000181600401826005015483600601548460080154856007015488888860010160009054906101000a900473ffffffffffffffffffffffffffffffffffffffff16888054600181600116156101000203166002900480601f0160208091040260200160405190810160405280929190818152602001828054600181600116156101000203166002900480156119895780601f1061195e57610100808354040283529160200191611989565b820191906000526020600020905b81548152906001019060200180831161196c57829003601f168201915b50505050509850878054600181600116156101000203166002900480601f016020809104026020016040519081016040528092919081815260200182805460018160011615610100020316600290048015611a255780601f106119fa57610100808354040283529160200191611a25565b820191906000526020600020905b815481529060010190602001808311611a0857829003601f168201915b505050505097509b509b509b509b509b509b509b509b509b505050509193959799909294969850565b60058181548110611a5e57600080fd5b906000526020600020016000915054906101000a900473ffffffffffffffffffffffffffffffffffffffff1681565b60008160008110158015611aa2575060015481105b611ae1576040517f08c379a0000000000000000000000000000000000000000000000000000000008152600401611ad890612590565b60405180910390fd5b600080848152602001908152602001600020915050919050565b60008260008110158015611b10575060015481105b611b4f576040517f08c379a0000000000000000000000000000000000000000000000000000000008152600401611b4690612590565b60405180910390fd5b838360008110158015611b765750600080838152602001908152602001600020600b015481105b611bb5576040517f08c379a0000000000000000000000000000000000000000000000000000000008152600401611bac90612590565b60405180910390fd5b600080878152602001908152602001600020600a016000868152602001908152602001600020935050505092915050565b600080611bf38484611afb565b90506000611c0085611a8d565b90506002816008015481611c1057fe5b0482600301541115611c2757600192505050611c2e565b6000925050505b92915050565b600080600090505b60008084815260200190815260200160002060030154811015611ced57600080848152602001908152602001600020600201600082815260200190815260200160002060000160009054906101000a900473ffffffffffffffffffffffffffffffffffffffff1673ffffffffffffffffffffffffffffffffffffffff163373ffffffffffffffffffffffffffffffffffffffff161415611ce0576001915050611cf3565b8080600101915050611c3c565b50600090505b919050565b600081611d0481611c34565b611d43576040517f08c379a0000000000000000000000000000000000000000000000000000000008152600401611d3a906125d0565b60405180910390fd5b60005b60008085815260200190815260200160002060030154811015611e1b57600080858152602001908152602001600020600201600082815260200190815260200160002060000160009054906101000a900473ffffffffffffffffffffffffffffffffffffffff1673ffffffffffffffffffffffffffffffffffffffff163373ffffffffffffffffffffffffffffffffffffffff161415611e0e576000808581526020019081526020016000206002016000828152602001908152602001600020925050611e21565b8080600101915050611d46565b50600080fd5b50919050565b600080611e348484611afb565b90506000611e4185611a8d565b90506002816008015481611e5157fe5b04826003015483600401540310611e6d57600192505050611e74565b6000925050505b92915050565b6000611e8582611a8d565b90508060090160009054906101000a900460ff168015611eb457508060090160019054906101000a900460ff16155b611ebd57600080fd5b60005b8160030154811015611f9a5781600201600082815260200190815260200160002060000160009054906101000a900473ffffffffffffffffffffffffffffffffffffffff1673ffffffffffffffffffffffffffffffffffffffff166108fc836002016000848152602001908152602001600020600101549081150290604051600060405180830381858888f19350505050158015611f62573d6000803e3d6000fd5b508160020160008281526020019081526020016000206001015482600701600082825403925050819055508080600101915050611ec0565b5060018160090160006101000a81548160ff02191690831515021790555060008160090160016101000a81548160ff0219169083151502179055505050565b828054600181600116156101000203166002900490600052602060002090601f01602090048101928261200f5760008555612056565b82601f1061202857803560ff1916838001178555612056565b82800160010185558215612056579182015b8281111561205557823582559160200191906001019061203a565b5b5090506120639190612067565b5090565b5b80821115612080576000816000905550600101612068565b5090565b600081359050612093816126b3565b92915050565b60008083601f8401126120ab57600080fd5b8235905067ffffffffffffffff8111156120c457600080fd5b6020830191508360018202830111156120dc57600080fd5b9250929050565b6000813590506120f2816126ca565b92915050565b6000806000806000806080878903121561211157600080fd5b600087013567ffffffffffffffff81111561212b57600080fd5b61213789828a01612099565b9650965050602087013567ffffffffffffffff81111561215657600080fd5b61216289828a01612099565b9450945050604061217589828a016120e3565b925050606061218689828a016120e3565b9150509295509295509295565b6000602082840312156121a557600080fd5b60006121b3848285016120e3565b91505092915050565b600080604083850312156121cf57600080fd5b60006121dd858286016120e3565b92505060206121ee858286016120e3565b9150509250929050565b60008060006060848603121561220d57600080fd5b600061221b868287016120e3565b935050602061222c868287016120e3565b925050604061223d86828701612084565b9150509250925092565b61225081612627565b82525050565b61225f81612639565b82525050565b60006122708261260b565b61227a8185612616565b935061228a81856020860161266f565b612293816126a2565b840191505092915050565b60006122ab601383612616565b91507f496e646578206f7574206f662072616e67652e000000000000000000000000006000830152602082019050919050565b60006122eb601983612616565b91507f4f6e6c79207261697365722063616e2063616c6c2074686973000000000000006000830152602082019050919050565b600061232b601b83612616565b91507f4f6e6c7920696e7665737465722063616e2063616c6c207468697300000000006000830152602082019050919050565b61236781612665565b82525050565b60006020820190506123826000830184612247565b92915050565b600060208201905061239d6000830184612256565b92915050565b60006101608201905081810360008301526123be818e612265565b90506123cd602083018d612247565b6123da604083018c61235e565b81810360608301526123ec818b612265565b90506123fb608083018a61235e565b61240860a083018961235e565b61241560c083018861235e565b61242260e083018761235e565b612430610100830186612256565b61243e610120830185612256565b61244c61014083018461235e565b9c9b505050505050505050505050565b600060e0820190508181036000830152612476818a612265565b9050818103602083015261248a8189612265565b9050612499604083018861235e565b6124a6606083018761235e565b6124b3608083018661235e565b81810360a08301526124c58185612265565b905081810360c08301526124d98184612265565b905098975050505050505050565b6000610120820190508181036000830152612502818c612265565b90508181036020830152612516818b612265565b9050612525604083018a61235e565b612532606083018961235e565b61253f608083018861235e565b61254c60a083018761235e565b81810360c083015261255e8186612265565b905081810360e08301526125728185612265565b9050612582610100830184612247565b9a9950505050505050505050565b600060208201905081810360008301526125a98161229e565b9050919050565b600060208201905081810360008301526125c9816122de565b9050919050565b600060208201905081810360008301526125e98161231e565b9050919050565b6000602082019050612605600083018461235e565b92915050565b600081519050919050565b600082825260208201905092915050565b600061263282612645565b9050919050565b60008115159050919050565b600073ffffffffffffffffffffffffffffffffffffffff82169050919050565b6000819050919050565b60005b8381101561268d578082015181840152602081019050612672565b8381111561269c576000848401525b50505050565b6000601f19601f8301169050919050565b6126bc81612639565b81146126c757600080fd5b50565b6126d381612665565b81146126de57600080fd5b5056fea264697066735822122039d5e715b7399e2aa1e5a563a3986f3845973a2f73ff39c22bd6c578d00be1cf64736f6c63430007040033",
  "immutableReferences": {},
  "source": "// SPDX-License-Identifier: GPL3.0\r\npragma solidity ^0.7.0;\r\npragma experimental ABIEncoderV2;\r\ncontract Crowd_fund {\r\n    \r\n     struct Invester{\r\n        address payable addr;\r\n        uint256 weight;\r\n\r\n    }\r\n    struct Crowdfund{\r\n        string name;\r\n        address payable raiser;\r\n        mapping(uint=>Invester)invester;\r\n        uint investersize;\r\n        //Invester[]  invester ;\r\n        string description;\r\n        uint256 target_amount ;\r\n        uint due;\r\n        uint256 current_amount;\r\n        uint256 total_amount;\r\n        bool isClosed;\r\n        bool isPassed;\r\n        mapping(uint=>Proposal) proposals;\r\n        uint proposal_size;\r\n    }\r\n\r\n    struct Investervote{\r\n        address payable addr;\r\n        bool opinion;\r\n    }\r\n    \r\n\r\n    struct Proposal{\r\n        string title;\r\n        string description;\r\n        uint256 amount;\r\n        uint256 votes;\r\n        uint256 voted;\r\n        mapping(uint=>Investervote) voted_invester;\r\n        uint voted_count;\r\n        bool isClosed;\r\n    }\r\n\r\n   function  getdate() internal view returns(uint){\r\n       uint time=block.timestamp;\r\n        return(time);\r\n   }\r\n\r\n   \r\n    mapping(uint=>Crowdfund) public crowdfunds;\r\n    uint public crowdfunds_count;\r\n    //Crowdfund[] public crowdfunds;\r\n    address payable public player;\r\n    address payable public palyer2;\r\n    address payable public manager;\r\n    address payable[] public players;\r\n    uint256 public round;\r\n    address payable public winner;\r\n    bool isinv=false;\r\n    constructor()  {\r\n        manager = msg.sender;\r\n        crowdfunds_count=0;\r\n    }\r\n\r\n    function update_state() public{\r\n        for(uint i=0;i<crowdfunds_count;i++){\r\n            Crowdfund storage fund=get_fund(i);\r\n            if(!fund.isClosed&&!fund.isPassed&&(fund.current_amount<fund.target_amount)&&fund.due<block.timestamp){\r\n                fund.isClosed=true;\r\n                fund.isPassed=false;\r\n                refund(i);/*call refund*/\r\n                \r\n            }\r\n        }\r\n    }\r\n\r\n    function refund(uint fund_index) internal{\r\n        Crowdfund storage fund=get_fund(fund_index);\r\n        require(fund.isClosed&&(!fund.isPassed));\r\n        for(uint i=0;i<fund.investersize;i++){\r\n            fund.invester[i].addr.transfer(fund.invester[i].weight);\r\n            fund.current_amount-=fund.invester[i].weight;\r\n        } \r\n        fund.isClosed=true;\r\n        fund.isPassed=false;\r\n    }\r\n\r\n    event new_f(string  name,uint num);\r\n    event here(uint num);\r\n    function new_fund(string calldata name, string calldata description,uint due, uint256 target_amount) public {\r\n            //Proposal[] storage prop=strprop[strprop_count];\r\n            //Invester[] storage inv=strinv[strinv_count];\r\n            Crowdfund storage fund=crowdfunds[crowdfunds_count];\r\n            fund.name=name;\r\n            \r\n            fund.raiser=msg.sender;\r\n            player=fund.raiser;\r\n            palyer2=msg.sender;\r\n            fund.description=description;\r\n            fund.due=due;\r\n            fund.target_amount=target_amount;\r\n            fund.isClosed=false;\r\n            fund.isPassed=false;\r\n            fund.current_amount=0;\r\n            fund.total_amount=0;\r\n            fund.investersize=0;\r\n            fund.proposal_size=0;\r\n            \r\n            crowdfunds_count++;\r\n\r\n    }\r\n\r\n    function new_proposal(string calldata name,string calldata description,uint256 amount,uint fund_index)public onlyRaiser(fund_index){\r\n            Crowdfund storage fund=get_fund(fund_index);\r\n            \r\n            fund.proposals[fund.proposal_size].title=name;\r\n            fund.proposals[fund.proposal_size].description=description;\r\n            fund.proposals[fund.proposal_size].amount=amount;\r\n            fund.proposals[fund.proposal_size].voted=0;\r\n            fund.proposals[fund.proposal_size].votes=0;\r\n            fund.proposals[fund.proposal_size].isClosed=false;\r\n            fund.proposals[fund.proposal_size].voted_count=0;\r\n            fund.proposal_size++;\r\n            //push(Proposal({title:name,description:description,amount:amount,voted:0,votes:0,isClosed:false}));\r\n    }\r\n\r\n    function invest(uint fund_index) public payable fund_available(fund_index){\r\n        Crowdfund storage fund=get_fund(fund_index);\r\n        fund.current_amount+=msg.value;\r\n        fund.total_amount+=msg.value;\r\n        if(!isInvester(fund_index)){\r\n            fund.invester[fund.investersize].addr=msg.sender;\r\n            fund.invester[fund.investersize].weight=msg.value;\r\n            fund.investersize++;\r\n            isinv=false;\r\n            //push(Invester({addr:msg.sender,weight:msg.value}));\r\n        }else{\r\n            isinv=true;\r\n            get_invester(fund_index).weight+=msg.value;\r\n        }\r\n    }\r\n\r\n    function get_fund_number()public view returns(uint){\r\n        return crowdfunds_count;\r\n    }\r\n\r\n    function get_fund_info(uint fund_index)public view returns(string memory,string memory,uint256,uint,uint256,uint256,string memory,string memory,address payable){\r\n        string memory status;\r\n        string memory role;\r\n\r\n        Crowdfund storage fund=get_fund(fund_index);\r\n        \r\n        if(fund.isClosed&&(!fund.isPassed)){\r\n            status=\"Failed\";\r\n        }else if(fund.isClosed&&fund.isPassed&&fund.current_amount>0){\r\n            status=\"Succeeded\";\r\n        }else if(fund.isClosed&&fund.isPassed&&fund.current_amount==0){\r\n            status=\"Completed\";\r\n        }else {\r\n            status=\"Ongoing\";\r\n        }\r\n        if(isInvester(fund_index)){\r\n            role=\"Invester\";\r\n        }else if(msg.sender==fund.raiser){\r\n            role=\"Raiser\";\r\n        }else{\r\n            role=\"Normal\";\r\n        }\r\n        return(fund.name,fund.description,fund.target_amount,fund.due,fund.total_amount,fund.current_amount,status,role,fund.raiser);\r\n    }\r\n\r\n    function get_proposal_number(uint fund_index) public view returns(uint) {\r\n        return crowdfunds[fund_index].proposal_size;\r\n    }\r\n\r\n    function get_proposal_info(uint fund_index,uint proposal_index) public view returns(string memory,string memory,uint256,uint256,uint256,string memory,string memory) {\r\n        Proposal storage prop=get_proposal(fund_index, proposal_index);\r\n        string memory status;\r\n        string memory opinion;\r\n        \r\n        if(!isInvester(fund_index)){\r\n            opinion=\"--\";\r\n        }else if(is_voted(fund_index, proposal_index)){\r\n            opinion=\"Voted\";\r\n        }else{\r\n            opinion=\"Not voted\";\r\n        }\r\n        if(is_proposal_pass(fund_index,proposal_index)){\r\n            if(prop.isClosed){\r\n                status=\"Withdrawaled\";\r\n            }else{\r\n                status=\"Passed\";\r\n                }\r\n        }else if(is_proposal_failed(fund_index,proposal_index)){\r\n            status=\"Failed\";\r\n        }else{\r\n            status=\"Ongoing\";\r\n        }\r\n        //test[test_num]=status;\r\n        return(prop.title,prop.description,prop.amount,prop.voted,prop.votes,status,opinion);\r\n    }\r\n\r\n    function get_invester_number(uint fund_index) public view returns(uint){\r\n        return crowdfunds[fund_index].investersize;\r\n    }\r\n\r\n    function get_weight(uint fund_index) public view onlyInvester(fund_index) returns(uint256){\r\n            Invester storage inv=get_invester(fund_index);\r\n            return inv.weight;\r\n    }\r\n\r\n    function isInvester(uint fund_index) internal view returns (bool){\r\n        for (uint index = 0; index < crowdfunds[fund_index].investersize; index++) {\r\n            if(msg.sender==crowdfunds[fund_index].invester[index].addr) {\r\n                return true;   \r\n            }\r\n        }\r\n        return false;\r\n    }\r\n\r\n    modifier fund_available(uint fund_index){\r\n        require(block.timestamp<=crowdfunds[fund_index].due);\r\n        _;\r\n    }\r\n\r\n    modifier onlyInvester(uint fund_index) {\r\n        require(\r\n            isInvester(fund_index),\"Only invester can call this\"\r\n        );\r\n    _;\r\n    }\r\n\r\n    modifier onlyRaiser(uint fund_index){\r\n        require(crowdfunds[fund_index].raiser==msg.sender,\"Only raiser can call this\");\r\n        _;\r\n    }\r\n\r\n    modifier noRaiser(uint fund_index){\r\n        require(!(crowdfunds[fund_index].raiser==msg.sender),\"Only raiser can NOT call this\");\r\n        _;\r\n    }\r\n\r\n    function get_invester(uint fund_index) internal view onlyInvester(fund_index) returns(Invester storage){\r\n        for (uint index = 0; index < crowdfunds[fund_index].investersize; index++) {\r\n            if(msg.sender==crowdfunds[fund_index].invester[index].addr) {\r\n                return crowdfunds[fund_index].invester[index];   \r\n            }\r\n        }\r\n        revert();\r\n    }\r\n\r\n    modifier inrange_fund(uint fund_index){\r\n        require(fund_index>=0&&fund_index<crowdfunds_count,\"Index out of range.\");\r\n        _;\r\n    }\r\n\r\n    modifier inrange_proposal(uint fund_index,uint proposal_index){\r\n        require(proposal_index>=0&&proposal_index<crowdfunds[fund_index].proposal_size,\"Index out of range.\");\r\n        _;\r\n    }\r\n\r\n    function get_fund(uint fund_index) internal view inrange_fund(fund_index) returns(Crowdfund storage){\r\n        return crowdfunds[fund_index];\r\n    }\r\n\r\n    function get_proposal(uint fund_index,uint proposal_index) internal view inrange_fund(fund_index) inrange_proposal(fund_index,proposal_index) returns(Proposal storage){\r\n        return crowdfunds[fund_index].proposals[proposal_index];\r\n    }\r\n\r\n\r\n    function vote_for_proposal(uint fund_index,uint proposal_index,bool vote) public onlyInvester(fund_index) {\r\n            Invester storage invester=get_invester(fund_index);\r\n            Proposal storage prop=get_proposal(fund_index, proposal_index);\r\n            if(is_voted(fund_index, proposal_index))\r\n                revert();\r\n            prop.voted_invester[prop.voted_count].addr=msg.sender;\r\n            prop.voted_invester[prop.voted_count].opinion=vote;\r\n            prop.voted_count++;\r\n            //prop.invester_opinion.push(vote);\r\n            prop.voted+=invester.weight;\r\n            if(vote){\r\n                prop.votes+=invester.weight;\r\n            }\r\n            \r\n    }\r\n\r\n    function proposal_pass(uint fund_index,uint proposal_index) public onlyRaiser(fund_index)  {\r\n        Crowdfund storage fund=get_fund(fund_index);\r\n        Proposal storage prop=get_proposal(fund_index, proposal_index);\r\n        if(prop.isClosed||(!is_proposal_pass(fund_index,proposal_index)))\r\n            revert();\r\n        \r\n        fund.raiser.transfer(prop.amount);\r\n        fund.current_amount-=prop.amount;\r\n        prop.isClosed=true;\r\n\r\n    }\r\n\r\n    function is_proposal_failed(uint fund_index,uint proposal_index) internal view returns(bool){\r\n        Proposal storage prop=get_proposal(fund_index, proposal_index);\r\n        Crowdfund storage fund=get_fund(fund_index);\r\n        if(prop.voted-prop.votes>=fund.total_amount/2){//\r\n            \r\n            return true;\r\n        }else{\r\n            return false;\r\n        }\r\n    }\r\n\r\n    function is_proposal_pass(uint fund_index,uint proposal_index) internal view returns(bool) {\r\n        Proposal storage prop=get_proposal(fund_index, proposal_index);\r\n        Crowdfund storage fund=get_fund(fund_index);\r\n        if(prop.votes>fund.total_amount/2){\r\n            return true;\r\n        }else{\r\n            return false;\r\n        }\r\n\r\n    }\r\n\r\n    function is_voted(uint fund_index,uint proposal_index) public view onlyInvester(fund_index) returns(bool){\r\n        for(uint i=0;i<crowdfunds[fund_index].proposals[proposal_index].voted_count;i++){\r\n                if(msg.sender==crowdfunds[fund_index].proposals[proposal_index].voted_invester[i].addr){//see if the invester has already voted\r\n                    return true;\r\n                }\r\n            }\r\n            return false;\r\n    }\r\n    /*\r\n    //1.1ETH\r\n    function play() public payable {\r\n        require(msg.value == 0.1 ether);\r\n        //2.\r\n        players.push(msg.sender);\r\n    }*/\r\n\r\n    modifier onlyManager{\r\n        require(msg.sender == manager);\r\n        _;\r\n    }\r\n/*\r\n    function getPlayersCount() public view returns (uint256){\r\n        return players.length;\r\n    }\r\n\r\n    function draw() public onlyManager {\r\n        //\r\n        bytes memory v1 = abi.encodePacked(block.timestamp, block.difficulty, players.length);\r\n        bytes32 v2 = keccak256(v1);\r\n        uint256 v3 = uint256(v2);\r\n        uint256 index = v3 % players.length;\r\n        //\r\n        winner = players[index];\r\n        //\r\n        uint256 money = address(this).balance * 90 / 100;\r\n        uint256 money2 = address(this).balance - money;\r\n        winner.transfer(money);\r\n        manager.transfer(money2);\r\n        //\r\n        round++;\r\n        delete players;\r\n    }\r\n\r\n    function refund() public onlyManager {\r\n        for (uint256 i = 0; i < players.length; i++) {\r\n            players[i].transfer(0.1 ether);\r\n        }\r\n        round++;\r\n        delete players;\r\n    }\r\n    \r\n    function getPlayers() public view returns(address payable[] memory){\r\n        return players;\r\n    }\r\n*/\r\n    function getBalance() public view returns (uint256){\r\n        return address(this).balance;\r\n    }\r\n\r\n}",
  "sourcePath": "H:/GIT/crowdfunding-contract/contracts/Crowd_fund.sol",
  "compiler": {
    "name": "solc",
    "version": "0.7.4+commit.3f05b770.Emscripten.clang"
  },
  "schemaVersion": "3.3.3",
  "updatedAt": "2021-01-17T06:16:14.902Z",
  "networkType": "ethereum",
  "devdoc": {
    "kind": "dev",
    "methods": {},
    "version": 1
  },
  "userdoc": {
    "kind": "user",
    "methods": {},
    "version": 1
  }
}