{
  "contractName": "Crowdfunding",
  "abi": [
    {
      "inputs": [
        {
          "internalType": "string",
          "name": "_projAbstract",
          "type": "string"
        },
        {
          "internalType": "string",
          "name": "_projectDescription",
          "type": "string"
        },
        {
          "internalType": "uint256",
          "name": "_startTime",
          "type": "uint256"
        },
        {
          "internalType": "uint256",
          "name": "_endTime",
          "type": "uint256"
        },
        {
          "internalType": "uint256",
          "name": "_riseAmount",
          "type": "uint256"
        }
      ],
      "payable": false,
      "stateMutability": "nonpayable",
      "type": "constructor"
    },
    {
      "constant": true,
      "inputs": [],
      "name": "owner",
      "outputs": [
        {
          "internalType": "address",
          "name": "",
          "type": "address"
        }
      ],
      "payable": false,
      "stateMutability": "view",
      "type": "function"
    },
    {
      "constant": false,
      "inputs": [
        {
          "internalType": "uint256",
          "name": "amount",
          "type": "uint256"
        },
        {
          "internalType": "address",
          "name": "addr",
          "type": "address"
        }
      ],
      "name": "Parcipate",
      "outputs": [],
      "payable": true,
      "stateMutability": "payable",
      "type": "function"
    },
    {
      "constant": true,
      "inputs": [],
      "name": "ProjectStatus",
      "outputs": [
        {
          "internalType": "bool",
          "name": "",
          "type": "bool"
        }
      ],
      "payable": false,
      "stateMutability": "view",
      "type": "function"
    }
  ],
  "bytecode": "0x60806040526000600760006101000a81548160ff02191690831515021790555034801561002b57600080fd5b506040516105d83803806105d8833981810160405260a081101561004e57600080fd5b810190808051604051939291908464010000000082111561006e57600080fd5b8382019150602082018581111561008457600080fd5b82518660018202830111640100000000821117156100a157600080fd5b8083526020830192505050908051906020019080838360005b838110156100d55780820151818401526020810190506100ba565b50505050905090810190601f1680156101025780820380516001836020036101000a031916815260200191505b506040526020018051604051939291908464010000000082111561012557600080fd5b8382019150602082018581111561013b57600080fd5b825186600182028301116401000000008211171561015857600080fd5b8083526020830192505050908051906020019080838360005b8381101561018c578082015181840152602081019050610171565b50505050905090810190601f1680156101b95780820380516001836020036101000a031916815260200191505b50604052602001805190602001909291908051906020019092919080519060200190929190505050336000806101000a81548173ffffffffffffffffffffffffffffffffffffffff021916908373ffffffffffffffffffffffffffffffffffffffff160217905550846001908051906020019061023792919061026e565b50836002908051906020019061024e92919061026e565b508260038190555081600481905550806005819055505050505050610313565b828054600181600116156101000203166002900490600052602060002090601f016020900481019282601f106102af57805160ff19168380011785556102dd565b828001600101855582156102dd579182015b828111156102dc5782518255916020019190600101906102c1565b5b5090506102ea91906102ee565b5090565b61031091905b8082111561030c5760008160009055506001016102f4565b5090565b90565b6102b6806103226000396000f3fe6080604052600436106100345760003560e01c80638da5cb5b146100395780639ec5866214610090578063f87dd472146100de575b600080fd5b34801561004557600080fd5b5061004e61010d565b604051808273ffffffffffffffffffffffffffffffffffffffff1673ffffffffffffffffffffffffffffffffffffffff16815260200191505060405180910390f35b6100dc600480360360408110156100a657600080fd5b8101908080359060200190929190803573ffffffffffffffffffffffffffffffffffffffff169060200190929190505050610132565b005b3480156100ea57600080fd5b506100f361023a565b604051808215151515815260200191505060405180910390f35b6000809054906101000a900473ffffffffffffffffffffffffffffffffffffffff1681565b61013a610251565b82816020018181525050826006600082825401925050819055506005546006541061017b576001600760006101000a81548160ff0219169083151502179055505b81816000019073ffffffffffffffffffffffffffffffffffffffff16908173ffffffffffffffffffffffffffffffffffffffff16815250506008819080600181540180825580915050906001820390600052602060002090600202016000909192909190915060008201518160000160006101000a81548173ffffffffffffffffffffffffffffffffffffffff021916908373ffffffffffffffffffffffffffffffffffffffff16021790555060208201518160010155505050505050565b6000600760009054906101000a900460ff16905090565b6040518060400160405280600073ffffffffffffffffffffffffffffffffffffffff16815260200160008152509056fea265627a7a72315820ce03aee13bc363f477d5e7a14cc44114ebdd553332e2428d0deeec3d9523628364736f6c63430005100032",
  "source": "// SPDX-License-Identifier: MIT\npragma solidity >=0.4.22 <0.9.0;\n\ncontract Crowdfunding {\n    address public owner;\n    string projectAbstract;\n    string projectDescription;\n    uint startTime;\n    uint endTime;\n    uint riseAmount;\n    uint currentAmount;\n    bool isFinished = false;\n    Participant[] participants;\n\n    struct Participant {\n        address userAddress;\n        uint amount;\n    }\n\n    // struct Voter {\n    //     uint weight;\n    //     bool voted;\n    //     uint proposal;\n    // }\n\n    // struct Proposal {\n    //     string name;\n    //     uint voteCount;\n    // }\n\n    constructor(string memory _projAbstract, string memory _projectDescription, uint _startTime,\n                uint _endTime, uint _riseAmount) public {\n        owner = msg.sender;\n        projectAbstract = _projAbstract;\n        projectDescription = _projectDescription;\n        startTime = _startTime;\n        endTime = _endTime;\n        riseAmount = _riseAmount;\n    }\n\n    function Parcipate(uint amount, address addr) public payable {\n        Participant memory part;\n        part.amount = amount;\n        currentAmount += amount;\n        if(currentAmount >= riseAmount) {\n            isFinished = true;\n        }\n        part.userAddress = addr;\n        participants.push(part);\n    }\n\n    function ProjectStatus() public view returns(bool) {\n        return isFinished;\n    }\n}",
  "sourcePath": "/home/leslie/blockchainCourse/guozejun/finalwork/contracts/Crowdfunding.sol",
  "compiler": {
    "name": "solc",
    "version": "0.5.16+commit.9c3226ce.Emscripten.clang"
  },
  "schemaVersion": "3.3.3",
  "updatedAt": "2021-01-06T13:08:58.244Z",
  "networkType": "ethereum",
  "devdoc": {
    "methods": {}
  },
  "userdoc": {
    "methods": {}
  }
}