{
  "contractName": "Crowdfunding",
  "abi": [
    {
      "inputs": [
        {
          "internalType": "string",
          "name": "_projAbstract",
          "type": "string"
        },
        {
          "internalType": "string",
          "name": "_projectDescription",
          "type": "string"
        },
        {
          "internalType": "uint256",
          "name": "_startTime",
          "type": "uint256"
        },
        {
          "internalType": "uint256",
          "name": "_endTime",
          "type": "uint256"
        },
        {
          "internalType": "uint256",
          "name": "_riseAmount",
          "type": "uint256"
        }
      ],
      "payable": false,
      "stateMutability": "nonpayable",
      "type": "constructor"
    },
    {
      "constant": true,
      "inputs": [],
      "name": "owner",
      "outputs": [
        {
          "internalType": "address",
          "name": "",
          "type": "address"
        }
      ],
      "payable": false,
      "stateMutability": "view",
      "type": "function"
    },
    {
      "constant": false,
      "inputs": [
        {
          "internalType": "uint256",
          "name": "amount",
          "type": "uint256"
        },
        {
          "internalType": "address",
          "name": "addr",
          "type": "address"
        }
      ],
      "name": "Parcipate",
      "outputs": [],
      "payable": true,
      "stateMutability": "payable",
      "type": "function"
    },
    {
      "constant": true,
      "inputs": [],
      "name": "ProjectStatus",
      "outputs": [
        {
          "internalType": "bool",
          "name": "",
          "type": "bool"
        }
      ],
      "payable": false,
      "stateMutability": "view",
      "type": "function"
    },
    {
      "constant": true,
      "inputs": [],
      "name": "GetProjectInfo",
      "outputs": [
        {
          "internalType": "address",
          "name": "",
          "type": "address"
        },
        {
          "internalType": "string",
          "name": "",
          "type": "string"
        },
        {
          "internalType": "string",
          "name": "",
          "type": "string"
        },
        {
          "internalType": "uint256",
          "name": "",
          "type": "uint256"
        },
        {
          "internalType": "uint256",
          "name": "",
          "type": "uint256"
        },
        {
          "internalType": "uint256",
          "name": "",
          "type": "uint256"
        },
        {
          "internalType": "uint256",
          "name": "",
          "type": "uint256"
        },
        {
          "internalType": "bool",
          "name": "",
          "type": "bool"
        },
        {
          "internalType": "address[]",
          "name": "",
          "type": "address[]"
        },
        {
          "internalType": "uint256[]",
          "name": "",
          "type": "uint256[]"
        }
      ],
      "payable": false,
      "stateMutability": "view",
      "type": "function"
    }
  ],
  "bytecode": "0x60806040526000600760006101000a81548160ff02191690831515021790555034801561002b57600080fd5b506040516109e63803806109e6833981810160405260a081101561004e57600080fd5b810190808051604051939291908464010000000082111561006e57600080fd5b8382019150602082018581111561008457600080fd5b82518660018202830111640100000000821117156100a157600080fd5b8083526020830192505050908051906020019080838360005b838110156100d55780820151818401526020810190506100ba565b50505050905090810190601f1680156101025780820380516001836020036101000a031916815260200191505b506040526020018051604051939291908464010000000082111561012557600080fd5b8382019150602082018581111561013b57600080fd5b825186600182028301116401000000008211171561015857600080fd5b8083526020830192505050908051906020019080838360005b8381101561018c578082015181840152602081019050610171565b50505050905090810190601f1680156101b95780820380516001836020036101000a031916815260200191505b50604052602001805190602001909291908051906020019092919080519060200190929190505050336000806101000a81548173ffffffffffffffffffffffffffffffffffffffff021916908373ffffffffffffffffffffffffffffffffffffffff160217905550846001908051906020019061023792919061026e565b50836002908051906020019061024e92919061026e565b508260038190555081600481905550806005819055505050505050610313565b828054600181600116156101000203166002900490600052602060002090601f016020900481019282601f106102af57805160ff19168380011785556102dd565b828001600101855582156102dd579182015b828111156102dc5782518255916020019190600101906102c1565b5b5090506102ea91906102ee565b5090565b61031091905b8082111561030c5760008160009055506001016102f4565b5090565b90565b6106c4806103226000396000f3fe60806040526004361061003f5760003560e01c80633958e032146100445780638da5cb5b1461022a5780639ec5866214610281578063f87dd472146102cf575b600080fd5b34801561005057600080fd5b506100596102fe565b604051808b73ffffffffffffffffffffffffffffffffffffffff1673ffffffffffffffffffffffffffffffffffffffff16815260200180602001806020018a815260200189815260200188815260200187815260200186151515158152602001806020018060200185810385528e818151815260200191508051906020019080838360005b838110156100f95780820151818401526020810190506100de565b50505050905090810190601f1680156101265780820380516001836020036101000a031916815260200191505b5085810384528d818151815260200191508051906020019080838360005b8381101561015f578082015181840152602081019050610144565b50505050905090810190601f16801561018c5780820380516001836020036101000a031916815260200191505b50858103835287818151815260200191508051906020019060200280838360005b838110156101c85780820151818401526020810190506101ad565b50505050905001858103825286818151815260200191508051906020019060200280838360005b8381101561020a5780820151818401526020810190506101ef565b505050509050019e50505050505050505050505050505060405180910390f35b34801561023657600080fd5b5061023f610586565b604051808273ffffffffffffffffffffffffffffffffffffffff1673ffffffffffffffffffffffffffffffffffffffff16815260200191505060405180910390f35b6102cd6004803603604081101561029757600080fd5b8101908080359060200190929190803573ffffffffffffffffffffffffffffffffffffffff1690602001909291905050506105ab565b005b3480156102db57600080fd5b506102e4610678565b604051808215151515815260200191505060405180910390f35b600060608060008060008060006060806000809054906101000a900473ffffffffffffffffffffffffffffffffffffffff1660016002600354600454600554600654600760009054906101000a900460ff1660086009888054600181600116156101000203166002900480601f0160208091040260200160405190810160405280929190818152602001828054600181600116156101000203166002900480156103e95780601f106103be576101008083540402835291602001916103e9565b820191906000526020600020905b8154815290600101906020018083116103cc57829003601f168201915b50505050509850878054600181600116156101000203166002900480601f0160208091040260200160405190810160405280929190818152602001828054600181600116156101000203166002900480156104855780601f1061045a57610100808354040283529160200191610485565b820191906000526020600020905b81548152906001019060200180831161046857829003601f168201915b505050505097508180548060200260200160405190810160405280929190818152602001828054801561050d57602002820191906000526020600020905b8160009054906101000a900473ffffffffffffffffffffffffffffffffffffffff1673ffffffffffffffffffffffffffffffffffffffff16815260200190600101908083116104c3575b505050505091508080548060200260200160405190810160405280929190818152602001828054801561055f57602002820191906000526020600020905b81548152602001906001019080831161054b575b50505050509050995099509950995099509950995099509950995090919293949596979899565b6000809054906101000a900473ffffffffffffffffffffffffffffffffffffffff1681565b60088190806001815401808255809150509060018203906000526020600020016000909192909190916101000a81548173ffffffffffffffffffffffffffffffffffffffff021916908373ffffffffffffffffffffffffffffffffffffffff1602179055505060098290806001815401808255809150509060018203906000526020600020016000909192909190915055508160066000828254019250508190555060055460065410610674576001600760006101000a81548160ff0219169083151502179055505b5050565b6000600760009054906101000a900460ff1690509056fea265627a7a72315820d9df93879829d90769bbd625bef0cd13b4627ca77d8a4dc154455265d5430c9464736f6c63430005100032",
  "source": "// SPDX-License-Identifier: MIT\npragma solidity >=0.4.22 <0.9.0;\n\ncontract Crowdfunding {\n    address public owner;\n    string projectAbstract;\n    string projectDescription;\n    uint startTime;\n    uint endTime;\n    uint riseAmount;\n    uint currentAmount;\n    bool isFinished = false;\n    address[] participants;\n    uint[] amounts;\n\n    constructor(string memory _projAbstract, string memory _projectDescription, uint _startTime,\n                uint _endTime, uint _riseAmount) public {\n        owner = msg.sender;\n        projectAbstract = _projAbstract;\n        projectDescription = _projectDescription;\n        startTime = _startTime;\n        endTime = _endTime;\n        riseAmount = _riseAmount;\n    }\n\n    function Parcipate(uint amount, address addr) public payable {\n        participants.push(addr);\n        amounts.push(amount);\n        currentAmount += amount;\n        if(currentAmount >= riseAmount) {\n            isFinished = true;\n        }\n    }\n\n    function ProjectStatus() public view returns(bool) {\n        return isFinished;\n    }\n\n    function GetProjectInfo() \n    public view returns(address, string memory, string memory, uint, uint, uint, uint, bool, address[] memory, uint[] memory) {\n        return (owner,projectAbstract,projectDescription,startTime,\n        endTime,riseAmount,currentAmount,isFinished,participants,amounts);\n    }\n}",
  "sourcePath": "/home/leslie/blockchainCourse/guozejun/finalwork/contracts/Crowdfunding.sol",
  "compiler": {
    "name": "solc",
    "version": "0.5.16+commit.9c3226ce.Emscripten.clang"
  },
  "schemaVersion": "3.3.3",
  "updatedAt": "2021-01-06T18:48:16.490Z",
  "devdoc": {
    "methods": {}
  },
  "userdoc": {
    "methods": {}
  }
}