{
  "contractName": "Funding",
  "abi": [
    {
      "inputs": [],
      "payable": false,
      "stateMutability": "nonpayable",
      "type": "constructor"
    },
    {
      "constant": true,
      "inputs": [
        {
          "internalType": "uint256",
          "name": "",
          "type": "uint256"
        }
      ],
      "name": "donators",
      "outputs": [
        {
          "internalType": "address payable",
          "name": "",
          "type": "address"
        }
      ],
      "payable": false,
      "stateMutability": "view",
      "type": "function"
    },
    {
      "constant": true,
      "inputs": [],
      "name": "starter",
      "outputs": [
        {
          "internalType": "address payable",
          "name": "",
          "type": "address"
        }
      ],
      "payable": false,
      "stateMutability": "view",
      "type": "function"
    },
    {
      "constant": true,
      "inputs": [
        {
          "internalType": "uint256",
          "name": "",
          "type": "uint256"
        }
      ],
      "name": "voted",
      "outputs": [
        {
          "internalType": "bool",
          "name": "",
          "type": "bool"
        }
      ],
      "payable": false,
      "stateMutability": "view",
      "type": "function"
    },
    {
      "constant": false,
      "inputs": [
        {
          "internalType": "address payable",
          "name": "_starter",
          "type": "address"
        },
        {
          "internalType": "string",
          "name": "_projectName",
          "type": "string"
        },
        {
          "internalType": "string",
          "name": "_details",
          "type": "string"
        },
        {
          "internalType": "uint256",
          "name": "_raiseTime",
          "type": "uint256"
        },
        {
          "internalType": "uint256",
          "name": "_goalAmount",
          "type": "uint256"
        }
      ],
      "name": "init",
      "outputs": [],
      "payable": true,
      "stateMutability": "payable",
      "type": "function"
    },
    {
      "constant": false,
      "inputs": [
        {
          "internalType": "string",
          "name": "str",
          "type": "string"
        }
      ],
      "name": "update",
      "outputs": [
        {
          "internalType": "string",
          "name": "res",
          "type": "string"
        }
      ],
      "payable": false,
      "stateMutability": "nonpayable",
      "type": "function"
    },
    {
      "constant": false,
      "inputs": [],
      "name": "donate",
      "outputs": [],
      "payable": true,
      "stateMutability": "payable",
      "type": "function"
    },
    {
      "constant": false,
      "inputs": [
        {
          "internalType": "string",
          "name": "_details",
          "type": "string"
        },
        {
          "internalType": "uint256",
          "name": "_need",
          "type": "uint256"
        }
      ],
      "name": "newProposal",
      "outputs": [],
      "payable": false,
      "stateMutability": "nonpayable",
      "type": "function"
    },
    {
      "constant": false,
      "inputs": [
        {
          "internalType": "address",
          "name": "from",
          "type": "address"
        },
        {
          "internalType": "uint256",
          "name": "approve",
          "type": "uint256"
        }
      ],
      "name": "vote",
      "outputs": [],
      "payable": true,
      "stateMutability": "payable",
      "type": "function"
    },
    {
      "constant": true,
      "inputs": [],
      "name": "checkDDL",
      "outputs": [
        {
          "internalType": "bool",
          "name": "",
          "type": "bool"
        }
      ],
      "payable": false,
      "stateMutability": "view",
      "type": "function"
    },
    {
      "constant": true,
      "inputs": [
        {
          "internalType": "address",
          "name": "addr",
          "type": "address"
        }
      ],
      "name": "isDonator",
      "outputs": [
        {
          "internalType": "bool",
          "name": "isdonator",
          "type": "bool"
        }
      ],
      "payable": false,
      "stateMutability": "view",
      "type": "function"
    },
    {
      "constant": true,
      "inputs": [],
      "name": "isGoalReached",
      "outputs": [
        {
          "internalType": "bool",
          "name": "reached",
          "type": "bool"
        }
      ],
      "payable": false,
      "stateMutability": "view",
      "type": "function"
    },
    {
      "constant": true,
      "inputs": [],
      "name": "getRemainingTime",
      "outputs": [
        {
          "internalType": "uint256",
          "name": "",
          "type": "uint256"
        }
      ],
      "payable": false,
      "stateMutability": "view",
      "type": "function"
    },
    {
      "constant": true,
      "inputs": [],
      "name": "getName",
      "outputs": [
        {
          "internalType": "string",
          "name": "",
          "type": "string"
        }
      ],
      "payable": false,
      "stateMutability": "view",
      "type": "function"
    },
    {
      "constant": true,
      "inputs": [],
      "name": "getDDL",
      "outputs": [
        {
          "internalType": "uint256",
          "name": "",
          "type": "uint256"
        }
      ],
      "payable": false,
      "stateMutability": "view",
      "type": "function"
    },
    {
      "constant": true,
      "inputs": [],
      "name": "getGoal",
      "outputs": [
        {
          "internalType": "uint256",
          "name": "",
          "type": "uint256"
        }
      ],
      "payable": false,
      "stateMutability": "view",
      "type": "function"
    },
    {
      "constant": true,
      "inputs": [],
      "name": "getBalance",
      "outputs": [
        {
          "internalType": "uint256",
          "name": "",
          "type": "uint256"
        }
      ],
      "payable": false,
      "stateMutability": "view",
      "type": "function"
    },
    {
      "constant": true,
      "inputs": [],
      "name": "getStarter",
      "outputs": [
        {
          "internalType": "address",
          "name": "",
          "type": "address"
        }
      ],
      "payable": false,
      "stateMutability": "view",
      "type": "function"
    },
    {
      "constant": true,
      "inputs": [],
      "name": "getProposal",
      "outputs": [
        {
          "internalType": "string",
          "name": "",
          "type": "string"
        }
      ],
      "payable": false,
      "stateMutability": "view",
      "type": "function"
    },
    {
      "constant": true,
      "inputs": [],
      "name": "getNeed",
      "outputs": [
        {
          "internalType": "uint256",
          "name": "",
          "type": "uint256"
        }
      ],
      "payable": false,
      "stateMutability": "view",
      "type": "function"
    },
    {
      "constant": true,
      "inputs": [],
      "name": "getDetails",
      "outputs": [
        {
          "internalType": "string",
          "name": "",
          "type": "string"
        }
      ],
      "payable": false,
      "stateMutability": "view",
      "type": "function"
    },
    {
      "constant": true,
      "inputs": [],
      "name": "getNumDonators",
      "outputs": [
        {
          "internalType": "uint256",
          "name": "",
          "type": "uint256"
        }
      ],
      "payable": false,
      "stateMutability": "view",
      "type": "function"
    },
    {
      "constant": true,
      "inputs": [
        {
          "internalType": "uint256",
          "name": "index",
          "type": "uint256"
        }
      ],
      "name": "getDonatorAddress",
      "outputs": [
        {
          "internalType": "address",
          "name": "",
          "type": "address"
        }
      ],
      "payable": false,
      "stateMutability": "view",
      "type": "function"
    },
    {
      "constant": true,
      "inputs": [],
      "name": "getVoteState",
      "outputs": [
        {
          "internalType": "uint256",
          "name": "",
          "type": "uint256"
        }
      ],
      "payable": false,
      "stateMutability": "view",
      "type": "function"
    },
    {
      "constant": true,
      "inputs": [],
      "name": "getAddress",
      "outputs": [
        {
          "internalType": "address",
          "name": "",
          "type": "address"
        }
      ],
      "payable": false,
      "stateMutability": "view",
      "type": "function"
    },
    {
      "constant": false,
      "inputs": [],
      "name": "setTime",
      "outputs": [],
      "payable": false,
      "stateMutability": "nonpayable",
      "type": "function"
    },
    {
      "constant": false,
      "inputs": [],
      "name": "postpone",
      "outputs": [],
      "payable": false,
      "stateMutability": "nonpayable",
      "type": "function"
    }
  ],
  "bytecode": "0x60806040523480156200001157600080fd5b5033600560006101000a81548173ffffffffffffffffffffffffffffffffffffffff021916908373ffffffffffffffffffffffffffffffffffffffff1602179055506040518060400160405280600481526020017f4e6f6e650000000000000000000000000000000000000000000000000000000081525060079080519060200190620000a092919062000116565b506040518060400160405280600481526020017f4e6f6e650000000000000000000000000000000000000000000000000000000081525060089080519060200190620000ee92919062000116565b50603c4201600981905550670de0b6b3a7640000600a819055506000600b81905550620001c5565b828054600181600116156101000203166002900490600052602060002090601f016020900481019282601f106200015957805160ff19168380011785556200018a565b828001600101855582156200018a579182015b82811115620001895782518255916020019190600101906200016c565b5b5090506200019991906200019d565b5090565b620001c291905b80821115620001be576000816000905550600101620001a4565b5090565b90565b611ab380620001d56000396000f3fe6080604052600436106101815760003560e01c8063b97a7d24116100d1578063e7caed911161008a578063f5a8492f11610064578063f5a8492f14610a0a578063fb4e27e514610a61578063fbbf93a014610adc578063fbf9af0114610b6c57610181565b8063e7caed91146109be578063ed88c68e146109d5578063efb98bcf146109df57610181565b8063b97a7d241461070c578063b9e2bea014610737578063d009c53f146107c7578063d3eb6f61146107f2578063d9276a4914610821578063e49db9b31461083857610181565b80634eb90fc81161013e5780638fbb38ff116101185780638fbb38ff146105e8578063ab9c7fa41461063b578063ac62f56614610666578063ad1d6eb1146106e157610181565b80634eb90fc8146105025780635f74bbde1461056b5780636c85c506146105b957610181565b806312065fe01461018657806315c17d3e146101b157806317d7de7c146102085780631dd28c551461029857806338cc48311461036a5780633d7403a3146103c1575b600080fd5b34801561019257600080fd5b5061019b610b97565b6040518082815260200191505060405180910390f35b3480156101bd57600080fd5b506101c6610b9f565b604051808273ffffffffffffffffffffffffffffffffffffffff1673ffffffffffffffffffffffffffffffffffffffff16815260200191505060405180910390f35b34801561021457600080fd5b5061021d610bc9565b6040518080602001828103825283818151815260200191508051906020019080838360005b8381101561025d578082015181840152602081019050610242565b50505050905090810190601f16801561028a5780820380516001836020036101000a031916815260200191505b509250505060405180910390f35b3480156102a457600080fd5b50610368600480360360408110156102bb57600080fd5b81019080803590602001906401000000008111156102d857600080fd5b8201836020820111156102ea57600080fd5b8035906020019184600183028401116401000000008311171561030c57600080fd5b91908080601f016020809104026020016040519081016040528093929190818152602001838380828437600081840152601f19601f82011690508083019250505050505050919291929080359060200190929190505050610c6b565b005b34801561037657600080fd5b5061037f610e17565b604051808273ffffffffffffffffffffffffffffffffffffffff1673ffffffffffffffffffffffffffffffffffffffff16815260200191505060405180910390f35b3480156103cd57600080fd5b50610487600480360360208110156103e457600080fd5b810190808035906020019064010000000081111561040157600080fd5b82018360208201111561041357600080fd5b8035906020019184600183028401116401000000008311171561043557600080fd5b91908080601f016020809104026020016040519081016040528093929190818152602001838380828437600081840152601f19601f820116905080830192505050505050509192919290505050610e1f565b6040518080602001828103825283818151815260200191508051906020019080838360005b838110156104c75780820151818401526020810190506104ac565b50505050905090810190601f1680156104f45780820380516001836020036101000a031916815260200191505b509250505060405180910390f35b34801561050e57600080fd5b506105516004803603602081101561052557600080fd5b81019080803573ffffffffffffffffffffffffffffffffffffffff169060200190929190505050610f0e565b604051808215151515815260200191505060405180910390f35b6105b76004803603604081101561058157600080fd5b81019080803573ffffffffffffffffffffffffffffffffffffffff16906020019092919080359060200190929190505050610fad565b005b3480156105c557600080fd5b506105ce6112c0565b604051808215151515815260200191505060405180910390f35b3480156105f457600080fd5b506106216004803603602081101561060b57600080fd5b81019080803590602001909291905050506112cd565b604051808215151515815260200191505060405180910390f35b34801561064757600080fd5b506106506112fe565b6040518082815260200191505060405180910390f35b34801561067257600080fd5b5061069f6004803603602081101561068957600080fd5b8101908080359060200190929190505050611308565b604051808273ffffffffffffffffffffffffffffffffffffffff1673ffffffffffffffffffffffffffffffffffffffff16815260200191505060405180910390f35b3480156106ed57600080fd5b506106f6611344565b6040518082815260200191505060405180910390f35b34801561071857600080fd5b5061072161134e565b6040518082815260200191505060405180910390f35b34801561074357600080fd5b5061074c611358565b6040518080602001828103825283818151815260200191508051906020019080838360005b8381101561078c578082015181840152602081019050610771565b50505050905090810190601f1680156107b95780820380516001836020036101000a031916815260200191505b509250505060405180910390f35b3480156107d357600080fd5b506107dc6113fa565b6040518082815260200191505060405180910390f35b3480156107fe57600080fd5b50610807611404565b604051808215151515815260200191505060405180910390f35b34801561082d57600080fd5b50610836611411565b005b6109bc600480360360a081101561084e57600080fd5b81019080803573ffffffffffffffffffffffffffffffffffffffff1690602001909291908035906020019064010000000081111561088b57600080fd5b82018360208201111561089d57600080fd5b803590602001918460018302840111640100000000831117156108bf57600080fd5b91908080601f016020809104026020016040519081016040528093929190818152602001838380828437600081840152601f19601f8201169050808301925050505050505091929192908035906020019064010000000081111561092257600080fd5b82018360208201111561093457600080fd5b8035906020019184600183028401116401000000008311171561095657600080fd5b91908080601f016020809104026020016040519081016040528093929190818152602001838380828437600081840152601f19601f820116905080830192505050505050509192919290803590602001909291908035906020019092919050505061141d565b005b3480156109ca57600080fd5b506109d36114a3565b005b6109dd6114b6565b005b3480156109eb57600080fd5b506109f46117dd565b6040518082815260200191505060405180910390f35b348015610a1657600080fd5b50610a1f6117fd565b604051808273ffffffffffffffffffffffffffffffffffffffff1673ffffffffffffffffffffffffffffffffffffffff16815260200191505060405180910390f35b348015610a6d57600080fd5b50610a9a60048036036020811015610a8457600080fd5b8101908080359060200190929190505050611823565b604051808273ffffffffffffffffffffffffffffffffffffffff1673ffffffffffffffffffffffffffffffffffffffff16815260200191505060405180910390f35b348015610ae857600080fd5b50610af16118db565b6040518080602001828103825283818151815260200191508051906020019080838360005b83811015610b31578082015181840152602081019050610b16565b50505050905090810190601f168015610b5e5780820380516001836020036101000a031916815260200191505b509250505060405180910390f35b348015610b7857600080fd5b50610b8161197d565b6040518082815260200191505060405180910390f35b600047905090565b6000600560009054906101000a900473ffffffffffffffffffffffffffffffffffffffff16905090565b606060078054600181600116156101000203166002900480601f016020809104026020016040519081016040528092919081815260200182805460018160011615610100020316600290048015610c615780601f10610c3657610100808354040283529160200191610c61565b820191906000526020600020905b815481529060010190602001808311610c4457829003601f168201915b5050505050905090565b600560009054906101000a900473ffffffffffffffffffffffffffffffffffffffff1673ffffffffffffffffffffffffffffffffffffffff163373ffffffffffffffffffffffffffffffffffffffff1614610d11576040517f08c379a0000000000000000000000000000000000000000000000000000000008152600401808060200182810382526021815260200180611a2d6021913960400191505060405180910390fd5b47811115610d87576040517f08c379a00000000000000000000000000000000000000000000000000000000081526004018080602001828103825260168152602001807f42616c616e6365206973206e6f7420656e6f756768210000000000000000000081525060200191505060405180910390fd5b8160009080519060200190610d9d929190611987565b508060018190555060006002819055506000600381905550600060048190555060008090505b600b54811015610e12576000600f8281548110610ddc57fe5b90600052602060002090602091828204019190066101000a81548160ff0219169083151502179055508080600101915050610dc3565b505050565b600030905090565b6060600560009054906101000a900473ffffffffffffffffffffffffffffffffffffffff1673ffffffffffffffffffffffffffffffffffffffff163373ffffffffffffffffffffffffffffffffffffffff161415610e93578160089080519060200190610e8d929190611987565b50610ed0565b6040518060400160405280600881526020017f72656a65637465640000000000000000000000000000000000000000000000008152509050610f09565b6040518060400160405280600881526020017f616363657074656400000000000000000000000000000000000000000000000081525090505b919050565b600080600090505b600b54811015610fa2578273ffffffffffffffffffffffffffffffffffffffff16600c8281548110610f4457fe5b9060005260206000200160009054906101000a900473ffffffffffffffffffffffffffffffffffffffff1673ffffffffffffffffffffffffffffffffffffffff161415610f95576001915050610fa8565b8080600101915050610f16565b50600090505b919050565b610fb682610f0e565b61100b576040517f08c379a0000000000000000000000000000000000000000000000000000000008152600401808060200182810382526031815260200180611a4e6031913960400191505060405180910390fd5b600f600d60008473ffffffffffffffffffffffffffffffffffffffff1673ffffffffffffffffffffffffffffffffffffffff168152602001908152602001600020548154811061105757fe5b90600052602060002090602091828204019190069054906101000a900460ff16156110ea576040517f08c379a000000000000000000000000000000000000000000000000000000000815260040180806020018281038252600f8152602001807f596f75206861766520766f74656421000000000000000000000000000000000081525060200191505060405180910390fd5b600181141561114757600e60003373ffffffffffffffffffffffffffffffffffffffff1673ffffffffffffffffffffffffffffffffffffffff168152602001908152602001600020546002600082825401925050819055506111a1565b60028114156111a057600e60003373ffffffffffffffffffffffffffffffffffffffff1673ffffffffffffffffffffffffffffffffffffffff168152602001908152602001600020546003600082825401925050819055505b5b6001600f600d60008573ffffffffffffffffffffffffffffffffffffffff1673ffffffffffffffffffffffffffffffffffffffff16815260200190815260200160002054815481106111ef57fe5b90600052602060002090602091828204019190066101000a81548160ff021916908315150217905550600a54600280540211156112a457600560009054906101000a900473ffffffffffffffffffffffffffffffffffffffff1673ffffffffffffffffffffffffffffffffffffffff166108fc670de0b6b3a7640000600154029081150290604051600060405180830381858888f1935050505015801561129a573d6000803e3d6000fd5b5060016004819055505b600a5460026003540211156112bc5760026004819055505b5050565b6000600954421015905090565b600f81815481106112da57fe5b9060005260206000209060209182820401919006915054906101000a900460ff1681565b6000600454905090565b600c818154811061131557fe5b906000526020600020016000915054906101000a900473ffffffffffffffffffffffffffffffffffffffff1681565b6000600154905090565b6000600a54905090565b606060008054600181600116156101000203166002900480601f0160208091040260200160405190810160405280929190818152602001828054600181600116156101000203166002900480156113f05780601f106113c5576101008083540402835291602001916113f0565b820191906000526020600020905b8154815290600101906020018083116113d357829003601f168201915b5050505050905090565b6000600b54905090565b6000600a54471015905090565b600f4201600981905550565b84600560006101000a81548173ffffffffffffffffffffffffffffffffffffffff021916908373ffffffffffffffffffffffffffffffffffffffff1602179055508360079080519060200190611474929190611987565b50826008908051906020019061148b929190611987565b5081420160098190555080600a819055505050505050565b600f600960008282540192505081905550565b60095442111561152e576040517f08c379a00000000000000000000000000000000000000000000000000000000081526004018080602001828103825260158152602001807f546869732066756e64696e67206973206f76657221000000000000000000000081525060200191505060405180910390fd5b600034116115a4576040517f08c379a000000000000000000000000000000000000000000000000000000000815260040180806020018281038252601d8152602001807f506c65617365206174206c656173742073656e6420612070656e6e792100000081525060200191505060405180910390fd5b60006001905060008090505b600b54811015611688573373ffffffffffffffffffffffffffffffffffffffff16600c82815481106115de57fe5b9060005260206000200160009054906101000a900473ffffffffffffffffffffffffffffffffffffffff1673ffffffffffffffffffffffffffffffffffffffff16141561167b5734600e60003373ffffffffffffffffffffffffffffffffffffffff1673ffffffffffffffffffffffffffffffffffffffff1681526020019081526020016000206000828254019250508190555060009150611688565b80806001019150506115b0565b5080156117da57600c3390806001815401808255809150509060018203906000526020600020016000909192909190916101000a81548173ffffffffffffffffffffffffffffffffffffffff021916908373ffffffffffffffffffffffffffffffffffffffff16021790555050600b54600d60003373ffffffffffffffffffffffffffffffffffffffff1673ffffffffffffffffffffffffffffffffffffffff1681526020019081526020016000208190555034600e60003373ffffffffffffffffffffffffffffffffffffffff1673ffffffffffffffffffffffffffffffffffffffff16815260200190815260200160002081905550600b60008154809291906001019190505550600f6000908060018154018082558091505090600182039060005260206000209060209182820401919006909192909190916101000a81548160ff021916908315150217905550505b50565b60004260095411156117f557426009540390506117fa565b600090505b90565b600560009054906101000a900473ffffffffffffffffffffffffffffffffffffffff1681565b6000600b54821061189c576040517f08c379a00000000000000000000000000000000000000000000000000000000081526004018080602001828103825260198152602001807f57726f6e6720696e64657820666f7220646f6e61746f7273210000000000000081525060200191505060405180910390fd5b600c82815481106118a957fe5b9060005260206000200160009054906101000a900473ffffffffffffffffffffffffffffffffffffffff169050919050565b606060088054600181600116156101000203166002900480601f0160208091040260200160405190810160405280929190818152602001828054600181600116156101000203166002900480156119735780601f1061194857610100808354040283529160200191611973565b820191906000526020600020905b81548152906001019060200180831161195657829003601f168201915b5050505050905090565b6000600954905090565b828054600181600116156101000203166002900490600052602060002090601f016020900481019282601f106119c857805160ff19168380011785556119f6565b828001600101855582156119f6579182015b828111156119f55782518255916020019190600101906119da565b5b509050611a039190611a07565b5090565b611a2991905b80821115611a25576000816000905550600101611a0d565b5090565b9056fe7468652070726f706f736572206d75737420626520746865207374617274657221596f75207368616c6c206e6f7420766f7465206265636175736520796f7520617265206e6f74206120646f6e61746f7221a265627a7a72315820db53c749306c6d226471a60f51947bc7870ae7f1049ecf3c5a7b685c8a9b8b0364736f6c63430005100032",
  "source": "// SPDX-License-Identifier: MIT\r\npragma solidity >=0.4.22 <0.8.0;\r\n\r\ncontract Funding{\r\n    //Proposal\r\n    string proposal;\r\n    uint need;\r\n    // the weight of the approve/disapprove\r\n    uint approved;\r\n    uint against;   \r\n        \r\n    uint voteState; // 0-- ongoint/not start  1-- approved 2-- rejected\r\n        \r\n    // project detail\r\n    address payable public starter;\r\n    address self;\r\n    string projectName;\r\n    string details;\r\n    uint deadLine;\r\n\r\n    // current state \r\n    uint goalAmount;\r\n    uint numDonators;\r\n    \r\n    // mapping\r\n    address payable[] public donators;\r\n    mapping(address => uint) dID;\r\n    mapping(address => uint) dAmount;\r\n    bool[] public voted ;\r\n    \r\n    constructor() public {\r\n        starter = msg.sender;\r\n        projectName = \"None\";\r\n        details = \"None\";\r\n        deadLine = block.timestamp + 1 minutes;\r\n        goalAmount = 1 ether;\r\n        numDonators = 0;\r\n    }\r\n    \r\n    // initialization\r\n    function init (\r\n        address payable _starter,\r\n        string memory  _projectName,\r\n        string memory _details,\r\n        uint _raiseTime,\r\n        uint _goalAmount\r\n    ) payable public  {\r\n        starter = _starter;\r\n        projectName = _projectName;\r\n        details = _details;\r\n        deadLine = block.timestamp + _raiseTime;\r\n        goalAmount = _goalAmount;\r\n    }\r\n    \r\n    function update(string memory str) public returns(string memory res){\r\n        if(msg.sender == starter){\r\n            details = str;\r\n        }\r\n        else{\r\n            return 'rejected';\r\n        }\r\n        return 'accepted';\r\n    }\r\n\r\n    function donate() public payable{\r\n        require(block.timestamp <= deadLine,\"This funding is over!\" );// If the funding is over, reject.\r\n        require(msg.value > 0,\"Please at least send a penny!\");// If not sending anything, reject\r\n        // require(msg.value + address(this).balance <= goalAmount,\"Exceed the goal!\");\r\n\r\n        bool flag = true; // Whether the donator has donated\r\n        for(uint i = 0;i<numDonators ;i++){\r\n            // If exists, add the donate amount.\r\n            if(donators[i] == msg.sender){\r\n                dAmount[msg.sender] += msg.value;\r\n                flag = false;\r\n                break;\r\n            }\r\n        }\r\n        if(flag){\r\n            // If a new donator, add it to the list\r\n            donators.push(msg.sender);\r\n            dID[msg.sender] = numDonators;\r\n            dAmount[msg.sender] = msg.value;\r\n            numDonators++;\r\n            voted.push(false);\r\n        }\r\n        // raisedAmount += msg.value;\r\n    }\r\n\r\n    // \"this is a proposal\", 2000\r\n    function newProposal(string memory _details,uint _need) public{\r\n        require(msg.sender == starter, \"the proposer must be the starter!\");\r\n        require(_need<=address(this).balance,\"Balance is not enough!\");\r\n        \r\n        proposal = _details;\r\n        need = _need;\r\n        // the weight of the approve/disapprove\r\n        approved = 0;\r\n        against = 0;\r\n        voteState = 0;\r\n        \r\n        //Iniialize the vote result\r\n        for(uint i = 0;i<numDonators;i++){\r\n            voted[i] = false;   \r\n        }\r\n        \r\n    }\r\n    \r\n    // \r\n    function vote(address from, uint approve) payable public{\r\n        // check if the voter is a donator\r\n        require(isDonator(from),\"You shall not vote because you are not a donator!\");\r\n        require(!voted[dID[from]],\"You have voted!\");\r\n        \r\n        // The donated amount of the voter as weight is added to the approve side.\r\n        if(approve == 1 ){\r\n            approved += dAmount[msg.sender];\r\n        }else if(approve == 2){\r\n            against += dAmount[msg.sender];\r\n        }\r\n        // sign as voted\r\n        voted[dID[from]] = true;\r\n        \r\n        // check if the vote is over\r\n        if(approved*2 > goalAmount ){\r\n            starter.transfer( need * 1 ether);    \r\n            voteState = 1;\r\n        }\r\n        // proposal rejected\r\n        if(against *2 > goalAmount ){ \r\n            voteState = 2;\r\n        }\r\n    }\r\n    \r\n    \r\n\r\n\r\n    function checkDDL() view public returns(bool) {return(block.timestamp >= deadLine);}\r\n\r\n    function isDonator(address addr) view public returns (bool isdonator){\r\n        for(uint i = 0;i<numDonators;i++){\r\n            if(donators[i] == addr) return true;\r\n        }\r\n        return false;\r\n    }\r\n\r\n    function isGoalReached() public view returns (bool reached){\r\n        return (address(this).balance >= goalAmount);\r\n    }\r\n    \r\n    function getRemainingTime() view public returns(uint){\r\n        if(deadLine > block.timestamp)\r\n        return (deadLine - block.timestamp);\r\n        else return 0;\r\n    }\r\n    \r\n    function getName() view public returns (string memory){return projectName;}\r\n    \r\n    function getDDL() view public returns (uint){return deadLine;}\r\n    \r\n    function getGoal()view public returns (uint) {return goalAmount;}\r\n    \r\n    function getBalance() view public returns (uint) {return address(this).balance;}\r\n\r\n    function getStarter()view public returns(address){return starter;}\r\n    \r\n    function getProposal() view public returns(string memory) {return proposal;}\r\n    \r\n    function getNeed() view public returns (uint){return need;}\r\n    \r\n    function getDetails() view public returns (string memory) {return details;}\r\n\r\n    function getNumDonators() view public returns (uint){return numDonators;}\r\n\r\n    function getDonatorAddress(uint index) view public returns (address){require(index<numDonators,\"Wrong index for donators!\");return donators[index];}\r\n\r\n    function getVoteState() view public returns (uint){return voteState;}\r\n\r\n    function getAddress() view public returns(address) {return address(this);}\r\n\r\n    function setTime() public {\r\n        deadLine = block.timestamp + 15;\r\n    }\r\n\r\n    function postpone()public{\r\n        deadLine += 15;\r\n    }\r\n    // function refund() public payable {\r\n    //     // when the fund is over and the goal is not reached, refund is acceptable\r\n    //     require(block.timestamp >= deadLine,\"The funding is not over yet!\");\r\n    //     require(!isGoalReached(),\"The goal is reached!\");\r\n    //     for(uint i = 0;i< numDonators ;i++){\r\n    //         donatorAddress[i].transfer(donators[donatorAddress[i]].donatedAmount);\r\n    //     }\r\n    // }\r\n}",
  "sourcePath": "C:\\Users\\Eternal\\blockchainCourse\\chengshizhuo\\finalWork\\contracts\\Funding.sol",
  "compiler": {
    "name": "solc",
    "version": "0.5.16+commit.9c3226ce.Emscripten.clang"
  },
  "schemaVersion": "3.3.3",
  "updatedAt": "2021-01-14T09:54:15.800Z",
  "devdoc": {
    "methods": {}
  },
  "userdoc": {
    "methods": {}
  }
}