{
  "contractName": "FundingFactory",
  "abi": [
    {
      "constant": true,
      "inputs": [
        {
          "name": "",
          "type": "address"
        },
        {
          "name": "",
          "type": "uint256"
        }
      ],
      "name": "createdFundings",
      "outputs": [
        {
          "name": "",
          "type": "address"
        }
      ],
      "payable": false,
      "stateMutability": "view",
      "type": "function"
    },
    {
      "constant": true,
      "inputs": [],
      "name": "manager",
      "outputs": [
        {
          "name": "",
          "type": "address"
        }
      ],
      "payable": false,
      "stateMutability": "view",
      "type": "function"
    },
    {
      "inputs": [],
      "payable": false,
      "stateMutability": "nonpayable",
      "type": "constructor"
    },
    {
      "constant": false,
      "inputs": [
        {
          "name": "_projectName",
          "type": "string"
        },
        {
          "name": "_targetMoney",
          "type": "uint256"
        },
        {
          "name": "_duration",
          "type": "uint256"
        },
        {
          "name": "_creator",
          "type": "address"
        }
      ],
      "name": "createFunding",
      "outputs": [],
      "payable": false,
      "stateMutability": "nonpayable",
      "type": "function"
    },
    {
      "constant": true,
      "inputs": [],
      "name": "getAllFundings",
      "outputs": [
        {
          "name": "",
          "type": "address[]"
        }
      ],
      "payable": false,
      "stateMutability": "view",
      "type": "function"
    },
    {
      "constant": true,
      "inputs": [
        {
          "name": "user",
          "type": "address"
        }
      ],
      "name": "getCreatedFundings",
      "outputs": [
        {
          "name": "",
          "type": "address[]"
        }
      ],
      "payable": false,
      "stateMutability": "view",
      "type": "function"
    },
    {
      "constant": true,
      "inputs": [
        {
          "name": "user",
          "type": "address"
        }
      ],
      "name": "getRelatedFundings",
      "outputs": [
        {
          "name": "",
          "type": "address[]"
        }
      ],
      "payable": false,
      "stateMutability": "view",
      "type": "function"
    },
    {
      "constant": false,
      "inputs": [
        {
          "name": "funding",
          "type": "address"
        }
      ],
      "name": "deleteFunding",
      "outputs": [],
      "payable": false,
      "stateMutability": "nonpayable",
      "type": "function"
    }
  ],
  "bytecode": "0x608060405261000c6100bb565b604051809103906000f080158015610028573d6000803e3d6000fd5b50600360006101000a81548173ffffffffffffffffffffffffffffffffffffffff021916908373ffffffffffffffffffffffffffffffffffffffff16021790555034801561007557600080fd5b50336000806101000a81548173ffffffffffffffffffffffffffffffffffffffff021916908373ffffffffffffffffffffffffffffffffffffffff1602179055506100cb565b60405161030a806127bf83390190565b6126e5806100da6000396000f300608060405260043610610083576000357c0100000000000000000000000000000000000000000000000000000000900463ffffffff16806306a4d75f14610088578063481c6a751461011557806363a1a76f1461016c57806372a3143c14610209578063833cd5ab14610275578063ac7f2c831461030d578063ba87f76c14610350575b600080fd5b34801561009457600080fd5b506100d3600480360381019080803573ffffffffffffffffffffffffffffffffffffffff169060200190929190803590602001909291905050506103e8565b604051808273ffffffffffffffffffffffffffffffffffffffff1673ffffffffffffffffffffffffffffffffffffffff16815260200191505060405180910390f35b34801561012157600080fd5b5061012a610435565b604051808273ffffffffffffffffffffffffffffffffffffffff1673ffffffffffffffffffffffffffffffffffffffff16815260200191505060405180910390f35b34801561017857600080fd5b50610207600480360381019080803590602001908201803590602001908080601f01602080910402602001604051908101604052809392919081815260200183838082843782019150505050505091929192908035906020019092919080359060200190929190803573ffffffffffffffffffffffffffffffffffffffff16906020019092919050505061045a565b005b34801561021557600080fd5b5061021e61076d565b6040518080602001828103825283818151815260200191508051906020019060200280838360005b83811015610261578082015181840152602081019050610246565b505050509050019250505060405180910390f35b34801561028157600080fd5b506102b6600480360381019080803573ffffffffffffffffffffffffffffffffffffffff1690602001909291905050506107fb565b6040518080602001828103825283818151815260200191508051906020019060200280838360005b838110156102f95780820151818401526020810190506102de565b505050509050019250505060405180910390f35b34801561031957600080fd5b5061034e600480360381019080803573ffffffffffffffffffffffffffffffffffffffff169060200190929190505050610952565b005b34801561035c57600080fd5b50610391600480360381019080803573ffffffffffffffffffffffffffffffffffffffff169060200190929190505050610a95565b6040518080602001828103825283818151815260200191508051906020019060200280838360005b838110156103d45780820151818401526020810190506103b9565b505050509050019250505060405180910390f35b60026020528160005260406000208181548110151561040357fe5b906000526020600020016000915091509054906101000a900473ffffffffffffffffffffffffffffffffffffffff1681565b6000809054906101000a900473ffffffffffffffffffffffffffffffffffffffff1681565b600084848484600360009054906101000a900473ffffffffffffffffffffffffffffffffffffffff1661048b610b62565b80806020018681526020018581526020018473ffffffffffffffffffffffffffffffffffffffff1673ffffffffffffffffffffffffffffffffffffffff1681526020018373ffffffffffffffffffffffffffffffffffffffff1673ffffffffffffffffffffffffffffffffffffffff168152602001828103825287818151815260200191508051906020019080838360005b8381101561053857808201518184015260208101905061051d565b50505050905090810190601f1680156105655780820380516001836020036101000a031916815260200191505b509650505050505050604051809103906000f08015801561058a573d6000803e3d6000fd5b50905060018190806001815401808255809150509060018203906000526020600020016000909192909190916101000a81548173ffffffffffffffffffffffffffffffffffffffff021916908373ffffffffffffffffffffffffffffffffffffffff160217905550506000600260008473ffffffffffffffffffffffffffffffffffffffff1673ffffffffffffffffffffffffffffffffffffffff1681526020019081526020016000208054905014156106c357600a60405190808252806020026020018201604052801561066e5781602001602082028038833980820191505090505b50600260008473ffffffffffffffffffffffffffffffffffffffff1673ffffffffffffffffffffffffffffffffffffffff16815260200190815260200160002090805190602001906106c1929190610b72565b505b600260008373ffffffffffffffffffffffffffffffffffffffff1673ffffffffffffffffffffffffffffffffffffffff1681526020019081526020016000208190806001815401808255809150509060018203906000526020600020016000909192909190916101000a81548173ffffffffffffffffffffffffffffffffffffffff021916908373ffffffffffffffffffffffffffffffffffffffff160217905550505050505050565b606060018054806020026020016040519081016040528092919081815260200182805480156107f157602002820191906000526020600020905b8160009054906101000a900473ffffffffffffffffffffffffffffffffffffffff1673ffffffffffffffffffffffffffffffffffffffff16815260200190600101908083116107a7575b5050505050905090565b6060600360009054906101000a900473ffffffffffffffffffffffffffffffffffffffff1673ffffffffffffffffffffffffffffffffffffffff1663ad0a4f32836040518263ffffffff167c0100000000000000000000000000000000000000000000000000000000028152600401808273ffffffffffffffffffffffffffffffffffffffff1673ffffffffffffffffffffffffffffffffffffffff168152602001915050600060405180830381600087803b1580156108ba57600080fd5b505af11580156108ce573d6000803e3d6000fd5b505050506040513d6000823e3d601f19601f8201168201806040525060208110156108f857600080fd5b81019080805164010000000081111561091057600080fd5b8281019050602081018481111561092657600080fd5b815185602082028301116401000000008211171561094357600080fd5b50509291905050509050919050565b60008090505b600180549050811015610a91578173ffffffffffffffffffffffffffffffffffffffff1660018281548110151561098b57fe5b9060005260206000200160009054906101000a900473ffffffffffffffffffffffffffffffffffffffff1673ffffffffffffffffffffffffffffffffffffffff161415610a84576001808080549050038154811015156109e757fe5b9060005260206000200160009054906101000a900473ffffffffffffffffffffffffffffffffffffffff16600182815481101515610a2157fe5b9060005260206000200160006101000a81548173ffffffffffffffffffffffffffffffffffffffff021916908373ffffffffffffffffffffffffffffffffffffffff1602179055506001808054905003600181610a7e9190610bfc565b50610a91565b8080600101915050610958565b5050565b6060600260008373ffffffffffffffffffffffffffffffffffffffff1673ffffffffffffffffffffffffffffffffffffffff168152602001908152602001600020805480602002602001604051908101604052809291908181526020018280548015610b5657602002820191906000526020600020905b8160009054906101000a900473ffffffffffffffffffffffffffffffffffffffff1673ffffffffffffffffffffffffffffffffffffffff1681526020019060010190808311610b0c575b50505050509050919050565b604051611a2980610c9183390190565b828054828255906000526020600020908101928215610beb579160200282015b82811115610bea5782518260006101000a81548173ffffffffffffffffffffffffffffffffffffffff021916908373ffffffffffffffffffffffffffffffffffffffff16021790555091602001919060010190610b92565b5b509050610bf89190610c28565b5090565b815481835581811115610c2357818360005260206000209182019101610c229190610c6b565b5b505050565b610c6891905b80821115610c6457600081816101000a81549073ffffffffffffffffffffffffffffffffffffffff021916905550600101610c2e565b5090565b90565b610c8d91905b80821115610c89576000816000905550600101610c71565b5090565b90560060806040523480156200001157600080fd5b5060405162001a2938038062001a298339810180604052810190808051820192919060200180519060200190929190805190602001909291908051906020019092919080519060200190929190505050816000806101000a81548173ffffffffffffffffffffffffffffffffffffffff021916908373ffffffffffffffffffffffffffffffffffffffff1602179055508460019080519060200190620000b99291906200011e565b508360038190555082420160048190555080600860006101000a81548173ffffffffffffffffffffffffffffffffffffffff021916908373ffffffffffffffffffffffffffffffffffffffff16021790555060006009819055505050505050620001cd565b828054600181600116156101000203166002900490600052602060002090601f016020900481019282601f106200016157805160ff191683800117855562000192565b8280016001018555821562000192579182015b828111156200019157825182559160200191906001019062000174565b5b509050620001a19190620001a5565b5090565b620001ca91905b80821115620001c6576000816000905550600101620001ac565b5090565b90565b61184c80620001dd6000396000f30060806040526004361061011d576000357c0100000000000000000000000000000000000000000000000000000000900463ffffffff16806302d05d3f1461012257806306fdde031461017957806312065fe01461020957806312f188ab146102345780631b16bb5c1461025f5780632be51d82146102f25780633197cbb61461035e5780633d103b97146103895780633feb5f2b146103c957806340ac99931461043657806356c9493f1461052457806379f96c5714610565578063955d14cd14610592578063ae42e260146105bd578063cc58b5ef146105d4578063d24992a214610601578063d4b8399214610618578063d7d1bbdb14610643578063d7e64c0014610670578063e09974b91461069b578063e735afb2146106c6575b600080fd5b34801561012e57600080fd5b506101376106f1565b604051808273ffffffffffffffffffffffffffffffffffffffff1673ffffffffffffffffffffffffffffffffffffffff16815260200191505060405180910390f35b34801561018557600080fd5b5061018e610716565b6040518080602001828103825283818151815260200191508051906020019080838360005b838110156101ce5780820151818401526020810190506101b3565b50505050905090810190601f1680156101fb5780820380516001836020036101000a031916815260200191505b509250505060405180910390f35b34801561021557600080fd5b5061021e6107b4565b6040518082815260200191505060405180910390f35b34801561024057600080fd5b506102496107d3565b6040518082815260200191505060405180910390f35b34801561026b57600080fd5b506102f0600480360381019080803590602001908201803590602001908080601f0160208091040260200160405190810160405280939291908181526020018383808284378201915050505050509192919290803573ffffffffffffffffffffffffffffffffffffffff169060200190929190803590602001909291905050506107dd565b005b3480156102fe57600080fd5b506103076108f2565b6040518080602001828103825283818151815260200191508051906020019060200280838360005b8381101561034a57808201518184015260208101905061032f565b505050509050019250505060405180910390f35b34801561036a57600080fd5b50610373610980565b6040518082815260200191505060405180910390f35b6103c760048036038101908080359060200190929190803573ffffffffffffffffffffffffffffffffffffffff169060200190929190505050610986565b005b3480156103d557600080fd5b506103f460048036038101908080359060200190929190505050610c7c565b604051808273ffffffffffffffffffffffffffffffffffffffff1673ffffffffffffffffffffffffffffffffffffffff16815260200191505060405180910390f35b34801561044257600080fd5b5061046160048036038101908080359060200190929190505050610cba565b60405180806020018673ffffffffffffffffffffffffffffffffffffffff1673ffffffffffffffffffffffffffffffffffffffff168152602001858152602001848152602001838152602001828103825287818151815260200191508051906020019080838360005b838110156104e55780820151818401526020810190506104ca565b50505050905090810190601f1680156105125780820380516001836020036101000a031916815260200191505b50965050505050505060405180910390f35b34801561053057600080fd5b5061054f60048036038101908080359060200190929190505050610db7565b6040518082815260200191505060405180910390f35b34801561057157600080fd5b5061059060048036038101908080359060200190929190505050610dda565b005b34801561059e57600080fd5b506105a7610f12565b6040518082815260200191505060405180910390f35b3480156105c957600080fd5b506105d2610f1e565b005b3480156105e057600080fd5b506105ff6004803603810190808035906020019092919050505061112f565b005b34801561060d57600080fd5b50610616611274565b005b34801561062457600080fd5b5061062d611498565b6040518082815260200191505060405180910390f35b34801561064f57600080fd5b5061066e6004803603810190808035906020019092919050505061149e565b005b34801561067c57600080fd5b50610685611626565b6040518082815260200191505060405180910390f35b3480156106a757600080fd5b506106b0611633565b6040518082815260200191505060405180910390f35b3480156106d257600080fd5b506106db611639565b6040518082815260200191505060405180910390f35b6000809054906101000a900473ffffffffffffffffffffffffffffffffffffffff1681565b60018054600181600116156101000203166002900480601f0160208091040260200160405190810160405280929190818152602001828054600181600116156101000203166002900480156107ac5780601f10610781576101008083540402835291602001916107ac565b820191906000526020600020905b81548152906001019060200180831161078f57829003601f168201915b505050505081565b60003073ffffffffffffffffffffffffffffffffffffffff1631905090565b6000600954905090565b6107e56116dd565b60a0604051908101604052808581526020018473ffffffffffffffffffffffffffffffffffffffff1681526020018381526020016000815260200160008152509050600960008154809291906001019190505550600a81908060018154018082558091505090600182039060005260206000209060060201600090919290919091506000820151816000019080519060200190610883929190611723565b5060208201518160010160006101000a81548173ffffffffffffffffffffffffffffffffffffffff021916908373ffffffffffffffffffffffffffffffffffffffff16021790555060408201518160020155606082015181600301556080820151816004015550505050505050565b6060600580548060200260200160405190810160405280929190818152602001828054801561097657602002820191906000526020600020905b8160009054906101000a900473ffffffffffffffffffffffffffffffffffffffff1673ffffffffffffffffffffffffffffffffffffffff168152602001906001019080831161092c575b5050505050905090565b60045481565b6004544210151561099657600080fd5b6000821115156109a557600080fd5b6003548260025401111515156109ba57600080fd5b6000809054906101000a900473ffffffffffffffffffffffffffffffffffffffff1673ffffffffffffffffffffffffffffffffffffffff168173ffffffffffffffffffffffffffffffffffffffff1614151515610a1657600080fd5b60001515600760008373ffffffffffffffffffffffffffffffffffffffff1673ffffffffffffffffffffffffffffffffffffffff16815260200190815260200160002060009054906101000a900460ff161515141515610a7557600080fd5b60058190806001815401808255809150509060018203906000526020600020016000909192909190916101000a81548173ffffffffffffffffffffffffffffffffffffffff021916908373ffffffffffffffffffffffffffffffffffffffff1602179055505060068290806001815401808255809150509060018203906000526020600020016000909192909190915055506001600760008373ffffffffffffffffffffffffffffffffffffffff1673ffffffffffffffffffffffffffffffffffffffff16815260200190815260200160002060006101000a81548160ff021916908315150217905550600860009054906101000a900473ffffffffffffffffffffffffffffffffffffffff1673ffffffffffffffffffffffffffffffffffffffff16630b59d31982306040518363ffffffff167c0100000000000000000000000000000000000000000000000000000000028152600401808373ffffffffffffffffffffffffffffffffffffffff1673ffffffffffffffffffffffffffffffffffffffff1681526020018273ffffffffffffffffffffffffffffffffffffffff1673ffffffffffffffffffffffffffffffffffffffff16815260200192505050600060405180830381600087803b158015610c5057600080fd5b505af1158015610c64573d6000803e3d6000fd5b50505050816002600082825401925050819055505050565b600581815481101515610c8b57fe5b906000526020600020016000915054906101000a900473ffffffffffffffffffffffffffffffffffffffff1681565b600a81815481101515610cc957fe5b9060005260206000209060060201600091509050806000018054600181600116156101000203166002900480601f016020809104026020016040519081016040528092919081815260200182805460018160011615610100020316600290048015610d755780601f10610d4a57610100808354040283529160200191610d75565b820191906000526020600020905b815481529060010190602001808311610d5857829003601f168201915b5050505050908060010160009054906101000a900473ffffffffffffffffffffffffffffffffffffffff16908060020154908060030154908060040154905085565b600681815481101515610dc657fe5b906000526020600020016000915090505481565b6000600760003373ffffffffffffffffffffffffffffffffffffffff1673ffffffffffffffffffffffffffffffffffffffff16815260200190815260200160002060009054906101000a900460ff161515610e3457600080fd5b600a82815481101515610e4357fe5b90600052602060002090600602019050600015158160050160003373ffffffffffffffffffffffffffffffffffffffff1673ffffffffffffffffffffffffffffffffffffffff16815260200190815260200160002060009054906101000a900460ff161515141515610eb457600080fd5b60018160050160003373ffffffffffffffffffffffffffffffffffffffff1673ffffffffffffffffffffffffffffffffffffffff16815260200190815260200160002060006101000a81548160ff0219169083151502179055505050565b60004260045403905090565b600080600091505b60058054905082101561109357600060076000600585815481101515610f4857fe5b9060005260206000200160009054906101000a900473ffffffffffffffffffffffffffffffffffffffff1673ffffffffffffffffffffffffffffffffffffffff1673ffffffffffffffffffffffffffffffffffffffff16815260200190815260200160002060006101000a81548160ff021916908315150217905550600582815481101515610fd357fe5b9060005260206000200160009054906101000a900473ffffffffffffffffffffffffffffffffffffffff1673ffffffffffffffffffffffffffffffffffffffff166108fc60068481548110151561102657fe5b90600052602060002001549081150290604051600060405180830381858888f1935050505015801561105c573d6000803e3d6000fd5b5060068281548110151561106c57fe5b90600052602060002001546002600082825403925050819055508180600101925050610f26565b600090505b60058054905081101561110b576005818154811015156110b457fe5b9060005260206000200160006101000a81549073ffffffffffffffffffffffffffffffffffffffff02191690556006818154811015156110f057fe5b90600052602060002001600090558080600101915050611098565b600060058161111a91906117a3565b50600060068161112a91906117cf565b505050565b6001600a8281548110151561114057fe5b90600052602060002090600602016004015414151561115e57600080fd5b600a8181548110151561116d57fe5b9060005260206000209060060201600201543073ffffffffffffffffffffffffffffffffffffffff1631101515156111a457600080fd5b600a818154811015156111b357fe5b906000526020600020906006020160010160009054906101000a900473ffffffffffffffffffffffffffffffffffffffff1673ffffffffffffffffffffffffffffffffffffffff166108fc600a8381548110151561120d57fe5b9060005260206000209060060201600201549081150290604051600060405180830381858888f1935050505015801561124a573d6000803e3d6000fd5b506002600a8281548110151561125c57fe5b90600052602060002090600602016004018190555050565b6000806112803361163f565b915060058281548110151561129157fe5b9060005260206000200160009054906101000a900473ffffffffffffffffffffffffffffffffffffffff1673ffffffffffffffffffffffffffffffffffffffff166108fc6006848154811015156112e457fe5b90600052602060002001549081150290604051600060405180830381858888f1935050505015801561131a573d6000803e3d6000fd5b506000600760003373ffffffffffffffffffffffffffffffffffffffff1673ffffffffffffffffffffffffffffffffffffffff16815260200190815260200160002060006101000a81548160ff0219169083151502179055508190505b6001600580549050038110156114625760056001820181548110151561139957fe5b9060005260206000200160009054906101000a900473ffffffffffffffffffffffffffffffffffffffff166005828154811015156113d357fe5b9060005260206000200160006101000a81548173ffffffffffffffffffffffffffffffffffffffff021916908373ffffffffffffffffffffffffffffffffffffffff16021790555060066001820181548110151561142d57fe5b906000526020600020015460068281548110151561144757fe5b90600052602060002001819055508080600101915050611377565b600160058181805490500391508161147a91906117a3565b50600160068181805490500391508161149391906117cf565b505050565b60035481565b6000600760003373ffffffffffffffffffffffffffffffffffffffff1673ffffffffffffffffffffffffffffffffffffffff16815260200190815260200160002060009054906101000a900460ff1615156114f857600080fd5b600a8281548110151561150757fe5b90600052602060002090600602019050600015158160050160003373ffffffffffffffffffffffffffffffffffffffff1673ffffffffffffffffffffffffffffffffffffffff16815260200190815260200160002060009054906101000a900460ff16151514151561157857600080fd5b60066115833361163f565b81548110151561158f57fe5b9060005260206000200154816003016000828254019250508190555060018160050160003373ffffffffffffffffffffffffffffffffffffffff1673ffffffffffffffffffffffffffffffffffffffff16815260200190815260200160002060006101000a81548160ff021916908315150217905550600354600282600301540210151561162257600181600401819055505b5050565b6000600580549050905090565b60095481565b60025481565b600080600090505b6005805490508110156116d6578273ffffffffffffffffffffffffffffffffffffffff1660058281548110151561167a57fe5b9060005260206000200160009054906101000a900473ffffffffffffffffffffffffffffffffffffffff1673ffffffffffffffffffffffffffffffffffffffff1614156116c9578091506116d7565b8080600101915050611647565b5b50919050565b60a06040519081016040528060608152602001600073ffffffffffffffffffffffffffffffffffffffff1681526020016000815260200160008152602001600081525090565b828054600181600116156101000203166002900490600052602060002090601f016020900481019282601f1061176457805160ff1916838001178555611792565b82800160010185558215611792579182015b82811115611791578251825591602001919060010190611776565b5b50905061179f91906117fb565b5090565b8154818355818111156117ca578183600052602060002091820191016117c991906117fb565b5b505050565b8154818355818111156117f6578183600052602060002091820191016117f591906117fb565b5b505050565b61181d91905b80821115611819576000816000905550600101611801565b5090565b905600a165627a7a723058205575d22715f9259d3fbf2fe4c6fb19944d1cf4c4a551c4a67e0567dd8af094660029a165627a7a723058206ccc81920746f25703e25c05efe8d0c7a16a3a074121a4c7893653ccbb4b3fdb0029608060405234801561001057600080fd5b506102ea806100206000396000f30060806040526004361061004c576000357c0100000000000000000000000000000000000000000000000000000000900463ffffffff1680630b59d31914610051578063ad0a4f32146100b4575b600080fd5b34801561005d57600080fd5b506100b2600480360381019080803573ffffffffffffffffffffffffffffffffffffffff169060200190929190803573ffffffffffffffffffffffffffffffffffffffff16906020019092919050505061014c565b005b3480156100c057600080fd5b506100f5600480360381019080803573ffffffffffffffffffffffffffffffffffffffff1690602001909291905050506101f2565b6040518080602001828103825283818151815260200191508051906020019060200280838360005b8381101561013857808201518184015260208101905061011d565b505050509050019250505060405180910390f35b6000808373ffffffffffffffffffffffffffffffffffffffff1673ffffffffffffffffffffffffffffffffffffffff1681526020019081526020016000208190806001815401808255809150509060018203906000526020600020016000909192909190916101000a81548173ffffffffffffffffffffffffffffffffffffffff021916908373ffffffffffffffffffffffffffffffffffffffff160217905550505050565b60606000808373ffffffffffffffffffffffffffffffffffffffff1673ffffffffffffffffffffffffffffffffffffffff1681526020019081526020016000208054806020026020016040519081016040528092919081815260200182805480156102b257602002820191906000526020600020905b8160009054906101000a900473ffffffffffffffffffffffffffffffffffffffff1673ffffffffffffffffffffffffffffffffffffffff1681526020019060010190808311610268575b505050505090509190505600a165627a7a723058204990e6f22b802a506d86fcc5269dcfe522a2f2f1264b7ba07a6676162fb6100b0029",
  "source": "// SPDX-License-Identifier: MIT\npragma solidity 0.4.24;\nimport './Funding.sol';\n\ncontract FundingFactory{\n    address public manager;\n    address [] allFundings;\n    //\n    mapping(address=>address[]) public createdFundings;\n    relatedFundings related = new relatedFundings();\n    \n    constructor()public{\n        manager = msg.sender;\n    }\n    \n    function createFunding(string memory _projectName,uint256 _targetMoney,uint256 _duration,address _creator) public{\n        address funding = new Funding(_projectName, _targetMoney, _duration,_creator,related);\n        allFundings.push(funding);\n        if(createdFundings[_creator].length == 0){\n            createdFundings[_creator] = new address[](10);\n        }\n        createdFundings[_creator].push(funding);\n    }\n    \n    function getAllFundings()public view returns(address [] memory){\n        return allFundings;\n    }\n    function getCreatedFundings(address user)public view returns(address [] memory){\n        return createdFundings[user];\n    }\n    function getRelatedFundings(address user)view public returns(address [] memory){\n        return related.getFunding(user);\n    }\n    function deleteFunding(address funding) public {\n        for(uint i = 0;i<allFundings.length;i++){\n            if(allFundings[i] == funding){\n                allFundings[i] = allFundings[allFundings.length-1];\n                allFundings.length = allFundings.length-1;\n                break;\n            }\n        }\n    }\n}\n\n",
  "sourcePath": "C:/Users/cc/Desktop/cmy'files///Dapp/finalWork/CrowdFunding/solidity/contracts/FundingFactory.sol",
  "compiler": {
    "name": "solc",
    "version": "0.4.24+commit.e67f0147.Emscripten.clang"
  },
  "schemaVersion": "3.3.3",
  "updatedAt": "2021-01-12T13:44:22.580Z",
  "networkType": "ethereum",
  "devdoc": {
    "methods": {}
  },
  "userdoc": {
    "methods": {}
  }
}