{
  "contractName": "CrowdFunding",
  "abi": [
    {
      "inputs": [],
      "name": "getFundNum",
      "outputs": [
        {
          "internalType": "uint256",
          "name": "",
          "type": "uint256"
        }
      ],
      "stateMutability": "view",
      "type": "function"
    },
    {
      "inputs": [],
      "name": "getInvNum",
      "outputs": [
        {
          "internalType": "uint256",
          "name": "",
          "type": "uint256"
        }
      ],
      "stateMutability": "nonpayable",
      "type": "function"
    },
    {
      "inputs": [],
      "name": "getSpnNum",
      "outputs": [
        {
          "internalType": "uint256",
          "name": "",
          "type": "uint256"
        }
      ],
      "stateMutability": "nonpayable",
      "type": "function"
    },
    {
      "inputs": [
        {
          "internalType": "uint256",
          "name": "iid",
          "type": "uint256"
        }
      ],
      "name": "getInvest",
      "outputs": [
        {
          "internalType": "uint256",
          "name": "",
          "type": "uint256"
        },
        {
          "internalType": "uint256",
          "name": "",
          "type": "uint256"
        },
        {
          "internalType": "string",
          "name": "",
          "type": "string"
        },
        {
          "internalType": "uint256",
          "name": "",
          "type": "uint256"
        },
        {
          "internalType": "uint256",
          "name": "",
          "type": "uint256"
        },
        {
          "internalType": "uint256",
          "name": "",
          "type": "uint256"
        }
      ],
      "stateMutability": "nonpayable",
      "type": "function"
    },
    {
      "inputs": [
        {
          "internalType": "uint256",
          "name": "sid",
          "type": "uint256"
        }
      ],
      "name": "getSponsor",
      "outputs": [
        {
          "internalType": "uint256",
          "name": "",
          "type": "uint256"
        },
        {
          "internalType": "uint256",
          "name": "",
          "type": "uint256"
        },
        {
          "internalType": "string",
          "name": "",
          "type": "string"
        },
        {
          "internalType": "uint256",
          "name": "",
          "type": "uint256"
        },
        {
          "internalType": "uint256",
          "name": "",
          "type": "uint256"
        },
        {
          "internalType": "uint256",
          "name": "",
          "type": "uint256"
        }
      ],
      "stateMutability": "nonpayable",
      "type": "function"
    },
    {
      "inputs": [],
      "name": "getAvaNum",
      "outputs": [
        {
          "internalType": "uint256",
          "name": "",
          "type": "uint256"
        }
      ],
      "stateMutability": "view",
      "type": "function"
    },
    {
      "inputs": [
        {
          "internalType": "uint256",
          "name": "tid",
          "type": "uint256"
        }
      ],
      "name": "getAva",
      "outputs": [
        {
          "internalType": "uint256",
          "name": "",
          "type": "uint256"
        },
        {
          "internalType": "uint256",
          "name": "",
          "type": "uint256"
        },
        {
          "internalType": "string",
          "name": "",
          "type": "string"
        },
        {
          "internalType": "uint256",
          "name": "",
          "type": "uint256"
        },
        {
          "internalType": "uint256",
          "name": "",
          "type": "uint256"
        },
        {
          "internalType": "uint256",
          "name": "",
          "type": "uint256"
        }
      ],
      "stateMutability": "view",
      "type": "function"
    },
    {
      "inputs": [],
      "name": "getRequestList",
      "outputs": [
        {
          "internalType": "uint256[]",
          "name": "",
          "type": "uint256[]"
        }
      ],
      "stateMutability": "nonpayable",
      "type": "function"
    },
    {
      "inputs": [
        {
          "internalType": "uint256",
          "name": "rid",
          "type": "uint256"
        }
      ],
      "name": "getRequest",
      "outputs": [
        {
          "internalType": "uint256",
          "name": "",
          "type": "uint256"
        },
        {
          "internalType": "uint256",
          "name": "",
          "type": "uint256"
        },
        {
          "internalType": "string",
          "name": "",
          "type": "string"
        },
        {
          "internalType": "uint256",
          "name": "",
          "type": "uint256"
        },
        {
          "internalType": "uint256",
          "name": "",
          "type": "uint256"
        },
        {
          "internalType": "uint256",
          "name": "",
          "type": "uint256"
        }
      ],
      "stateMutability": "view",
      "type": "function"
    },
    {
      "inputs": [
        {
          "internalType": "address",
          "name": "_user",
          "type": "address"
        }
      ],
      "name": "getUserID",
      "outputs": [
        {
          "internalType": "uint256",
          "name": "",
          "type": "uint256"
        }
      ],
      "stateMutability": "nonpayable",
      "type": "function"
    },
    {
      "inputs": [],
      "name": "updateFundState",
      "outputs": [],
      "stateMutability": "nonpayable",
      "type": "function"
    },
    {
      "inputs": [
        {
          "internalType": "string",
          "name": "_introduction",
          "type": "string"
        },
        {
          "internalType": "uint256",
          "name": "_goal",
          "type": "uint256"
        },
        {
          "internalType": "uint256",
          "name": "_ddl",
          "type": "uint256"
        }
      ],
      "name": "createFund",
      "outputs": [],
      "stateMutability": "nonpayable",
      "type": "function"
    },
    {
      "inputs": [
        {
          "internalType": "uint256",
          "name": "fid",
          "type": "uint256"
        }
      ],
      "name": "investFund",
      "outputs": [],
      "stateMutability": "payable",
      "type": "function"
    },
    {
      "inputs": [
        {
          "internalType": "uint256",
          "name": "_fid",
          "type": "uint256"
        },
        {
          "internalType": "string",
          "name": "_introduction",
          "type": "string"
        },
        {
          "internalType": "uint256",
          "name": "_amount",
          "type": "uint256"
        },
        {
          "internalType": "uint256",
          "name": "_ddl",
          "type": "uint256"
        }
      ],
      "name": "createRequest",
      "outputs": [],
      "stateMutability": "nonpayable",
      "type": "function"
    },
    {
      "inputs": [],
      "name": "updateRequestState",
      "outputs": [],
      "stateMutability": "nonpayable",
      "type": "function"
    },
    {
      "inputs": [
        {
          "internalType": "uint256",
          "name": "fid",
          "type": "uint256"
        },
        {
          "internalType": "uint256",
          "name": "reqid",
          "type": "uint256"
        }
      ],
      "name": "agreeRequest",
      "outputs": [],
      "stateMutability": "nonpayable",
      "type": "function"
    },
    {
      "inputs": [
        {
          "internalType": "uint256",
          "name": "fid",
          "type": "uint256"
        },
        {
          "internalType": "uint256",
          "name": "reqid",
          "type": "uint256"
        }
      ],
      "name": "disagreeRequest",
      "outputs": [],
      "stateMutability": "nonpayable",
      "type": "function"
    }
  ],
  "bytecode": "0x608060405234801561001057600080fd5b506132de806100206000396000f3fe6080604052600436106100fe5760003560e01c80636162391c116100955780638fba1833116100645780638fba1833146105a1578063aef5e71414610678578063c58343ef14610754578063e59efadb1461082b578063eb5a1f9714610859576100fe565b80636162391c146104155780636bd7fdab1461045a57806372ca56711461049f5780637ff61bc214610576576100fe565b806332985ec7116100d157806332985ec71461027c57806339d43972146102a7578063491efaa31461037e5780635d2f25b9146103ea576100fe565b80630ce8a3eb146101035780630ef12aa9146101e9578063263c9ae51461024e5780632d15960514610265575b600080fd5b34801561010f57600080fd5b506101e76004803603608081101561012657600080fd5b81019080803590602001909291908035906020019064010000000081111561014d57600080fd5b82018360208201111561015f57600080fd5b8035906020019184600183028401116401000000008311171561018157600080fd5b91908080601f016020809104026020016040519081016040528093929190818152602001838380828437600081840152601f19601f8201169050808301925050505050505091929192908035906020019092919080359060200190929190505050610884565b005b3480156101f557600080fd5b506102386004803603602081101561020c57600080fd5b81019080803573ffffffffffffffffffffffffffffffffffffffff169060200190929190505050610e22565b6040518082815260200191505060405180910390f35b34801561025a57600080fd5b5061026361113a565b005b34801561027157600080fd5b5061027a6113e7565b005b34801561028857600080fd5b506102916114be565b6040518082815260200191505060405180910390f35b3480156102b357600080fd5b506102e0600480360360208110156102ca57600080fd5b81019080803590602001909291905050506114cb565b6040518087815260200186815260200180602001858152602001848152602001838152602001828103825286818151815260200191508051906020019080838360005b8381101561033e578082015181840152602081019050610323565b50505050905090810190601f16801561036b5780820380516001836020036101000a031916815260200191505b5097505050505050505060405180910390f35b34801561038a57600080fd5b50610393611683565b6040518080602001828103825283818151815260200191508051906020019060200280838360005b838110156103d65780820151818401526020810190506103bb565b505050509050019250505060405180910390f35b3480156103f657600080fd5b506103ff6116ff565b6040518082815260200191505060405180910390f35b34801561042157600080fd5b506104586004803603604081101561043857600080fd5b81019080803590602001909291908035906020019092919050505061172f565b005b34801561046657600080fd5b5061049d6004803603604081101561047d57600080fd5b810190808035906020019092919080359060200190929190505050611b02565b005b3480156104ab57600080fd5b506104d8600480360360208110156104c257600080fd5b810190808035906020019092919050505061204e565b6040518087815260200186815260200180602001858152602001848152602001838152602001828103825286818151815260200191508051906020019080838360005b8381101561053657808201518184015260208101905061051b565b50505050905090810190601f1680156105635780820380516001836020036101000a031916815260200191505b5097505050505050505060405180910390f35b34801561058257600080fd5b5061058b6122ce565b6040518082815260200191505060405180910390f35b3480156105ad57600080fd5b506105da600480360360208110156105c457600080fd5b8101908080359060200190929190505050612350565b6040518087815260200186815260200180602001858152602001848152602001838152602001828103825286818151815260200191508051906020019080838360005b8381101561063857808201518184015260208101905061061d565b50505050905090810190601f1680156106655780820380516001836020036101000a031916815260200191505b5097505050505050505060405180910390f35b34801561068457600080fd5b506107526004803603606081101561069b57600080fd5b81019080803590602001906401000000008111156106b857600080fd5b8201836020820111156106ca57600080fd5b803590602001918460018302840111640100000000831117156106ec57600080fd5b91908080601f016020809104026020016040519081016040528093929190818152602001838380828437600081840152601f19601f8201169050808301925050505050505091929192908035906020019092919080359060200190929190505050612557565b005b34801561076057600080fd5b5061078d6004803603602081101561077757600080fd5b810190808035906020019092919050505061283d565b6040518087815260200186815260200180602001858152602001848152602001838152602001828103825286818151815260200191508051906020019080838360005b838110156107eb5780820151818401526020810190506107d0565b50505050905090810190601f1680156108185780820380516001836020036101000a031916815260200191505b5097505050505050505060405180910390f35b6108576004803603602081101561084157600080fd5b8101908080359060200190929190505050612a4e565b005b34801561086557600080fd5b5061086e612f87565b6040518082815260200191505060405180910390f35b83600180549050116108fe576040517f08c379a00000000000000000000000000000000000000000000000000000000081526004018080602001828103825260118152602001807f46756e6420496e646578204572726f722100000000000000000000000000000081525060200191505060405180910390fd5b428111610973576040517f08c379a000000000000000000000000000000000000000000000000000000000815260040180806020018281038252600e8152602001807f44444c20746f6f206561726c792100000000000000000000000000000000000081525060200191505060405180910390fd5b61097b61113a565b61098433610e22565b6001858154811061099157fe5b90600052602060002090600902016006015414610a16576040517f08c379a00000000000000000000000000000000000000000000000000000000081526004018080602001828103825260188152602001807f596f75277265206e6f742066756e642073706f6e736f7221000000000000000081525060200191505060405180910390fd5b600280811115610a2257fe5b60018581548110610a2f57fe5b906000526020600020906009020160010160009054906101000a900460ff166002811115610a5957fe5b14610acc576040517f08c379a00000000000000000000000000000000000000000000000000000000081526004018080602001828103825260118152602001807f46756e64206e6f7420737563636573732100000000000000000000000000000081525060200191505060405180910390fd5b8160018581548110610ada57fe5b9060005260206000209060090201600401541015610b60576040517f08c379a00000000000000000000000000000000000000000000000000000000081526004018080602001828103825260118152602001807f5265717565737420746f6f206d7563682100000000000000000000000000000081525060200191505060405180910390fd5b610b68612fb7565b6040518060e0016040528060006002811115610b8057fe5b81526020018681526020018581526020018481526020016000815260200183815260200160018781548110610bb157fe5b906000526020600020906009020160070180549050604051908082528060200260200182016040528015610bf45781602001602082028038833980820191505090505b50815250905060008090505b8160c0015151811015610ceb5760008260c001518281518110610c1f57fe5b60200260200101906002811115610c3257fe5b90816002811115610c3f57fe5b815250506000600260018881548110610c5457fe5b90600052602060002090600902016007018381548110610c7057fe5b906000526020600020015481548110610c8557fe5b90600052602060002090600502016002015481548110610ca157fe5b906000526020600020906004020160030160038054905090806001815401808255809150506001900390600052602060002001600090919091909150558080600101915050610c00565b5060018581548110610cf957fe5b90600052602060002090600902016008016003805490509080600181540180825580915050600190039060005260206000200160009091909190915055600381908060018154018082558091505060019003906000526020600020906007020160009091909190915060008201518160000160006101000a81548160ff02191690836002811115610d8657fe5b0217905550602082015181600101556040820151816002019080519060200190610db1929190612fff565b50606082015181600301556080820151816004015560a0820151816005015560c0820151816006019080519060200190610dec92919061307f565b5050508260018681548110610dfd57fe5b9060005260206000209060090201600401600082825403925050819055505050505050565b600080600460008473ffffffffffffffffffffffffffffffffffffffff1673ffffffffffffffffffffffffffffffffffffffff1681526020019081526020016000205481548110610e6f57fe5b906000526020600020906004020160000160149054906101000a900460ff1615610eda57600460008373ffffffffffffffffffffffffffffffffffffffff1673ffffffffffffffffffffffffffffffffffffffff168152602001908152602001600020549050611135565b610ee261312e565b6040518060a001604052808473ffffffffffffffffffffffffffffffffffffffff1681526020016001151581526020016000604051908082528060200260200182016040528015610f425781602001602082028038833980820191505090505b5081526020016000604051908082528060200260200182016040528015610f785781602001602082028038833980820191505090505b5081526020016000604051908082528060200260200182016040528015610fae5781602001602082028038833980820191505090505b50815250905060008054905060046000836000015173ffffffffffffffffffffffffffffffffffffffff1673ffffffffffffffffffffffffffffffffffffffff16815260200190815260200160002081905550600081908060018154018082558091505060019003906000526020600020906004020160009091909190915060008201518160000160006101000a81548173ffffffffffffffffffffffffffffffffffffffff021916908373ffffffffffffffffffffffffffffffffffffffff16021790555060208201518160000160146101000a81548160ff02191690831515021790555060408201518160010190805190602001906110b0929190613175565b5060608201518160020190805190602001906110cd929190613175565b5060808201518160030190805190602001906110ea929190613175565b50505060046000826000015173ffffffffffffffffffffffffffffffffffffffff1673ffffffffffffffffffffffffffffffffffffffff168152602001908152602001600020549150505b919050565b60008090505b6001805490508110156113e4576000600281111561115a57fe5b6001828154811061116757fe5b906000526020600020906009020160010160009054906101000a900460ff16600281111561119157fe5b1480156111bb5750600181815481106111a657fe5b90600052602060002090600902016005015442115b156113d75760018082815481106111ce57fe5b906000526020600020906009020160010160006101000a81548160ff021916908360028111156111fa57fe5b021790555060008090505b6001828154811061121257fe5b9060005260206000209060090201600701805490508110156113d557600060026001848154811061123f57fe5b9060005260206000209060090201600701838154811061125b57fe5b90600052602060002001548154811061127057fe5b9060005260206000209060050201600201548154811061128c57fe5b906000526020600020906004020160000160009054906101000a900473ffffffffffffffffffffffffffffffffffffffff1673ffffffffffffffffffffffffffffffffffffffff166108fc6002600185815481106112e657fe5b9060005260206000209060090201600701848154811061130257fe5b90600052602060002001548154811061131757fe5b9060005260206000209060050201600301549081150290604051600060405180830381858888f19350505050158015611354573d6000803e3d6000fd5b50600160026001848154811061136657fe5b9060005260206000209060090201600701838154811061138257fe5b90600052602060002001548154811061139757fe5b906000526020600020906005020160000160006101000a81548160ff021916908360028111156113c357fe5b02179055508080600101915050611205565b505b8080600101915050611140565b50565b60008090505b6003805490508110156114bb576000600281111561140757fe5b6003828154811061141457fe5b906000526020600020906007020160000160009054906101000a900460ff16600281111561143e57fe5b14801561146857506003818154811061145357fe5b90600052602060002090600702016005015442115b156114ae5760016003828154811061147c57fe5b906000526020600020906007020160000160006101000a81548160ff021916908360028111156114a857fe5b02179055505b80806001019150506113ed565b50565b6000600180549050905090565b600080606060008060006114dd6116ff565b87106114e857600080fd5b6000600160006114f733610e22565b8154811061150157fe5b9060005260206000209060040201600201898154811061151d57fe5b90600052602060002001548154811061153257fe5b90600052602060002090600902019050600080600281111561155057fe5b8260010160009054906101000a900460ff16600281111561156d57fe5b146115af5760028081111561157e57fe5b8260010160009054906101000a900460ff16600281111561159b57fe5b146115a75760026115aa565b60015b6115b2565b60005b60ff16905081600001548183600201846003015485600401548660050154838054600181600116156101000203166002900480601f0160208091040260200160405190810160405280929190818152602001828054600181600116156101000203166002900480156116655780601f1061163a57610100808354040283529160200191611665565b820191906000526020600020905b81548152906001019060200180831161164857829003601f168201915b50505050509350975097509750975097509750505091939550919395565b6060600061169033610e22565b8154811061169a57fe5b90600052602060002090600402016003018054806020026020016040519081016040528092919081815260200182805480156116f557602002820191906000526020600020905b8154815260200190600101908083116116e1575b5050505050905090565b60008061170b33610e22565b8154811061171557fe5b906000526020600020906004020160020180549050905090565b60018054905082106117a9576040517f08c379a00000000000000000000000000000000000000000000000000000000081526004018080602001828103825260118152602001807f46756e6420496e646578204572726f722100000000000000000000000000000081525060200191505060405180910390fd5b6003805490508110611823576040517f08c379a00000000000000000000000000000000000000000000000000000000081526004018080602001828103825260148152602001807f5265717565737420496e646578204572726f722100000000000000000000000081525060200191505060405180910390fd5b60028081111561182f57fe5b6001838154811061183c57fe5b906000526020600020906009020160010160009054906101000a900460ff16600281111561186657fe5b146118d9576040517f08c379a00000000000000000000000000000000000000000000000000000000081526004018080602001828103825260118152602001807f46756e64206e6f7420737563636573732100000000000000000000000000000081525060200191505060405180910390fd5b6118e16113e7565b600060028111156118ee57fe5b600382815481106118fb57fe5b906000526020600020906007020160000160009054906101000a900460ff16600281111561192557fe5b14611998576040517f08c379a000000000000000000000000000000000000000000000000000000000815260040180806020018281038252600f8152602001807f5265717565737420636c6f73656421000000000000000000000000000000000081525060200191505060405180910390fd5b60008090505b600183815481106119ab57fe5b906000526020600020906009020160070180549050811015611afd576119d033610e22565b6002600185815481106119df57fe5b906000526020600020906009020160070183815481106119fb57fe5b906000526020600020015481548110611a1057fe5b906000526020600020906005020160020154148015611a8d575060006002811115611a3757fe5b60038381548110611a4457fe5b90600052602060002090600702016006018281548110611a6057fe5b90600052602060002090602091828204019190069054906101000a900460ff166002811115611a8b57fe5b145b15611af057600260038381548110611aa157fe5b90600052602060002090600702016006018281548110611abd57fe5b90600052602060002090602091828204019190066101000a81548160ff02191690836002811115611aea57fe5b02179055505b808060010191505061199e565b505050565b6001805490508210611b7c576040517f08c379a00000000000000000000000000000000000000000000000000000000081526004018080602001828103825260118152602001807f46756e6420496e646578204572726f722100000000000000000000000000000081525060200191505060405180910390fd5b6003805490508110611bf6576040517f08c379a00000000000000000000000000000000000000000000000000000000081526004018080602001828103825260148152602001807f5265717565737420496e646578204572726f722100000000000000000000000081525060200191505060405180910390fd5b600280811115611c0257fe5b60018381548110611c0f57fe5b906000526020600020906009020160010160009054906101000a900460ff166002811115611c3957fe5b14611cac576040517f08c379a00000000000000000000000000000000000000000000000000000000081526004018080602001828103825260118152602001807f46756e64206e6f7420737563636573732100000000000000000000000000000081525060200191505060405180910390fd5b611cb46113e7565b60006002811115611cc157fe5b60038281548110611cce57fe5b906000526020600020906007020160000160009054906101000a900460ff166002811115611cf857fe5b14611d6b576040517f08c379a000000000000000000000000000000000000000000000000000000000815260040180806020018281038252600f8152602001807f5265717565737420636c6f73656421000000000000000000000000000000000081525060200191505060405180910390fd5b60008090505b60018381548110611d7e57fe5b906000526020600020906009020160070180549050811015611ee357611da333610e22565b600260018581548110611db257fe5b90600052602060002090600902016007018381548110611dce57fe5b906000526020600020015481548110611de357fe5b9060005260206000209060050201600201541415611ed657600260018481548110611e0a57fe5b90600052602060002090600902016007018281548110611e2657fe5b906000526020600020015481548110611e3b57fe5b90600052602060002090600502016003015460038381548110611e5a57fe5b906000526020600020906007020160040160008282540192505081905550600160038381548110611e8757fe5b90600052602060002090600702016006018281548110611ea357fe5b90600052602060002090602091828204019190066101000a81548160ff02191690836002811115611ed057fe5b02179055505b8080600101915050611d71565b5060038181548110611ef157fe5b906000526020600020906007020160030154600260038381548110611f1257fe5b906000526020600020906007020160040154021061204a57600260038281548110611f3957fe5b906000526020600020906007020160000160006101000a81548160ff02191690836002811115611f6557fe5b02179055506000600160038381548110611f7b57fe5b90600052602060002090600702016001015481548110611f9757fe5b90600052602060002090600902016006015481548110611fb357fe5b906000526020600020906004020160000160009054906101000a900473ffffffffffffffffffffffffffffffffffffffff1673ffffffffffffffffffffffffffffffffffffffff166108fc6003838154811061200b57fe5b9060005260206000209060070201600301549081150290604051600060405180830381858888f19350505050158015612048573d6000803e3d6000fd5b505b5050565b60008060606000806000612060612f87565b871061206b57600080fd5b600060016002600061207c33610e22565b8154811061208657fe5b90600052602060002090600402016001018a815481106120a257fe5b9060005260206000200154815481106120b757fe5b906000526020600020906005020160010154815481106120d357fe5b9060005260206000209060090201905060008060028111156120f157fe5b8260010160009054906101000a900460ff16600281111561210e57fe5b146121505760028081111561211f57fe5b8260010160009054906101000a900460ff16600281111561213c57fe5b1461214857600261214b565b60015b612153565b60005b60ff1690508160000154818360020184600301546002600061217433610e22565b8154811061217e57fe5b90600052602060002090600402016001018e8154811061219a57fe5b9060005260206000200154815481106121af57fe5b906000526020600020906005020160030154600260006121ce33610e22565b815481106121d857fe5b90600052602060002090600402016001018f815481106121f457fe5b90600052602060002001548154811061220957fe5b906000526020600020906005020160040154838054600181600116156101000203166002900480601f0160208091040260200160405190810160405280929190818152602001828054600181600116156101000203166002900480156122b05780601f10612285576101008083540402835291602001916122b0565b820191906000526020600020905b81548152906001019060200180831161229357829003601f168201915b50505050509350975097509750975097509750505091939550919395565b6000806000905060008090505b60018054905081101561234857600060028111156122f557fe5b6001828154811061230257fe5b906000526020600020906009020160010160009054906101000a900460ff16600281111561232c57fe5b141561233b5781806001019250505b80806001019150506122db565b508091505090565b600080606060008060006123626122ce565b871061236d57600080fd5b600080905060008090505b6001805490508110156123f5576000600281111561239257fe5b6001828154811061239f57fe5b906000526020600020906009020160010160009054906101000a900460ff1660028111156123c957fe5b14156123d85781806001019250505b600189018214156123e8576123f5565b8080600101915050612378565b60006001828154811061240457fe5b90600052602060002090600902019050600080600281111561242257fe5b8260010160009054906101000a900460ff16600281111561243f57fe5b146124815760028081111561245057fe5b8260010160009054906101000a900460ff16600281111561246d57fe5b1461247957600261247c565b60015b612484565b60005b60ff16905081600001548183600201846003015485600401548660050154838054600181600116156101000203166002900480601f0160208091040260200160405190810160405280929190818152602001828054600181600116156101000203166002900480156125375780601f1061250c57610100808354040283529160200191612537565b820191906000526020600020905b81548152906001019060200180831161251a57829003601f168201915b505050505093509950995099509950995099505050505091939550919395565b4281116125cc576040517f08c379a000000000000000000000000000000000000000000000000000000000815260040180806020018281038252600e8152602001807f44444c20746f6f206561726c792100000000000000000000000000000000000081525060200191505060405180910390fd5b60008211612642576040517f08c379a00000000000000000000000000000000000000000000000000000000081526004018080602001828103825260098152602001807f474f414c203d203021000000000000000000000000000000000000000000000081525060200191505060405180910390fd5b600061264d33610e22565b90506000818154811061265c57fe5b906000526020600020906004020160020160018054905090806001815401808255809150506001900390600052602060002001600090919091909150556126a16131c2565b6040518061012001604052806001805490508152602001600060028111156126c557fe5b81526020018681526020018581526020016000815260200184815260200183815260200160006040519080825280602002602001820160405280156127195781602001602082028038833980820191505090505b508152602001600060405190808252806020026020018201604052801561274f5781602001602082028038833980820191505090505b50815250905060018190806001815401808255809150506001900390600052602060002090600902016000909190919091506000820151816000015560208201518160010160006101000a81548160ff021916908360028111156127af57fe5b021790555060408201518160020190805190602001906127d0929190612fff565b50606082015181600301556080820151816004015560a0820151816005015560c0820151816006015560e0820151816007019080519060200190612815929190613175565b50610100820151816008019080519060200190612833929190613175565b5050505050505050565b60008060606000806000600380549050871061285857600080fd5b600080600281111561286657fe5b6003898154811061287357fe5b906000526020600020906007020160000160009054906101000a900460ff16600281111561289d57fe5b146128f9576002808111156128ae57fe5b600389815481106128bb57fe5b906000526020600020906007020160000160009054906101000a900460ff1660028111156128e557fe5b146128f15760026128f4565b60015b6128fc565b60005b60ff169050806003898154811061290f57fe5b90600052602060002090600702016001015460038a8154811061292e57fe5b906000526020600020906007020160020160038b8154811061294c57fe5b90600052602060002090600702016003015460038c8154811061296b57fe5b90600052602060002090600702016004015460038d8154811061298a57fe5b906000526020600020906007020160050154838054600181600116156101000203166002900480601f016020809104026020016040519081016040528092919081815260200182805460018160011615610100020316600290048015612a315780601f10612a0657610100808354040283529160200191612a31565b820191906000526020600020905b815481529060010190602001808311612a1457829003601f168201915b505050505093509650965096509650965096505091939550919395565b8060018054905011612ac8576040517f08c379a00000000000000000000000000000000000000000000000000000000081526004018080602001828103825260118152602001807f46756e6420496e646578204572726f722100000000000000000000000000000081525060200191505060405180910390fd5b612ad061113a565b60006002811115612add57fe5b60018281548110612aea57fe5b906000526020600020906009020160010160009054906101000a900460ff166002811115612b1457fe5b14612b87576040517f08c379a00000000000000000000000000000000000000000000000000000000081526004018080602001828103825260148152602001807f46756e6420616c726561647920636c6f7365642100000000000000000000000081525060200191505060405180910390fd5b612b8f613219565b6040518060a0016040528060006002811115612ba757fe5b8152602001838152602001612bbb33610e22565b815260200134815260200142815250905060018281548110612bd957fe5b90600052602060002090600902016004015460018381548110612bf857fe5b90600052602060002090600902016003015403341115612ce2573373ffffffffffffffffffffffffffffffffffffffff166108fc60018481548110612c3957fe5b90600052602060002090600902016003015460018581548110612c5857fe5b9060005260206000209060090201600401543401039081150290604051600060405180830381858888f19350505050158015612c98573d6000803e3d6000fd5b5060018281548110612ca657fe5b90600052602060002090600902016004015460018381548110612cc557fe5b906000526020600020906009020160030154038160600181815250505b806060015160018381548110612cf457fe5b90600052602060002090600902016004016000828254019250508190555060018281548110612d1f57fe5b90600052602060002090600902016003015460018381548110612d3e57fe5b90600052602060002090600902016004015410612e6857600260018381548110612d6457fe5b906000526020600020906009020160010160006101000a81548160ff02191690836002811115612d9057fe5b0217905550600281600001906002811115612da757fe5b90816002811115612db457fe5b8152505060008090505b60018381548110612dcb57fe5b906000526020600020906009020160070180549050811015612e665760028060018581548110612df757fe5b90600052602060002090600902016007018381548110612e1357fe5b906000526020600020015481548110612e2857fe5b906000526020600020906005020160000160006101000a81548160ff02191690836002811115612e5457fe5b02179055508080600101915050612dbe565b505b60018281548110612e7557fe5b906000526020600020906009020160070160028054905090806001815401808255809150506001900390600052602060002001600090919091909150556000612ebd33610e22565b81548110612ec757fe5b90600052602060002090600402016001016002805490509080600181540180825580915050600190039060005260206000200160009091909190915055600281908060018154018082558091505060019003906000526020600020906005020160009091909190915060008201518160000160006101000a81548160ff02191690836002811115612f5457fe5b02179055506020820151816001015560408201518160020155606082015181600301556080820151816004015550505050565b600080612f9333610e22565b81548110612f9d57fe5b906000526020600020906004020160010180549050905090565b6040518060e0016040528060006002811115612fcf57fe5b81526020016000815260200160608152602001600081526020016000815260200160008152602001606081525090565b828054600181600116156101000203166002900490600052602060002090601f016020900481019282601f1061304057805160ff191683800117855561306e565b8280016001018555821561306e579182015b8281111561306d578251825591602001919060010190613052565b5b50905061307b9190613253565b5090565b82805482825590600052602060002090601f0160209004810192821561311d5791602002820160005b838211156130ee57835183826101000a81548160ff021916908360028111156130cd57fe5b021790555092602001926001016020816000010492830192600103026130a8565b801561311b5782816101000a81549060ff02191690556001016020816000010492830192600103026130ee565b505b50905061312a9190613278565b5090565b6040518060a00160405280600073ffffffffffffffffffffffffffffffffffffffff1681526020016000151581526020016060815260200160608152602001606081525090565b8280548282559060005260206000209081019282156131b1579160200282015b828111156131b0578251825591602001919060010190613195565b5b5090506131be9190613253565b5090565b60405180610120016040528060008152602001600060028111156131e257fe5b8152602001606081526020016000815260200160008152602001600081526020016000815260200160608152602001606081525090565b6040518060a001604052806000600281111561323157fe5b8152602001600081526020016000815260200160008152602001600081525090565b61327591905b80821115613271576000816000905550600101613259565b5090565b90565b6132a591905b808211156132a157600081816101000a81549060ff02191690555060010161327e565b5090565b9056fea2646970667358221220a8752e3d0c300f84511379fee50f4ab724bd392142a1ad09ceda265b6f0a0b0964736f6c63430006020033",
  "source": "// SPDX-License-Identifier: MIT\n\npragma solidity >=0.4.0;\n\ncontract CrowdFunding{\n\t\n\tstruct User{\n\t\taddress payable uaddr;\t// user address\n\t\tbool isUsed;\t\t\t\n\t\tuint[] fidinv;\t\t\t// investment id (as investor)\n\t\tuint[] fidspn;\t\t\t// fund id (as fund sponsor)\n\t\tuint[] ridList;         // request list\n\t}\n\n\tenum FundState {FUND_PENDING, FUND_FAIL, FUND_SUCCESS}\n\n\tstruct Fund{\n\t\tuint fid;\t\t\t\t// fund id (idx in funds)\n\t\tFundState state;\t\t// fund state\n\t\tstring introduction;\t// fund in0troduction\n\t\tuint goalFund;\t\t\t// fund goal\n\t\tuint currentFund;\t\t// fund current money\n\t\tuint ddl;\t\t\t\t// fund ddl\n\t\tuint sponsorid;\t\t\t// fund sponsor\n\t\tuint[] invid;\t\t\t// invest id\n\t\tuint[] reqid;\t\t\t// request id\n\t}\n\n\tenum InvestState {INVEST_PENDING, INVEST_FAIL, INVEST_SUCCESS}\n\n\tstruct Investment{\n\t\tInvestState state;\t// invest state\n\t\tuint fid;\t\t\t// fund id\n\t\tuint investorid;\t// investor id\n\t\tuint amount;\t\t// investment amount\n\t\tuint time;\t\t\t// investment time\n\t}\n\n\tenum RequestState {REQUEST_PENDING, REQUEST_FAIL, REQUEST_SUCCESS}\n\tenum InvestorState {INV_PENDING, INV_AGREE, INV_DISAGREE}\n\n\tstruct Request{\n\t\tRequestState state;\t\t\t// request state\n\t\tuint fid;\t\t\t\t\t// fund id\n\t\tstring introduction;\t\t// request introduction\n\t\tuint amount;\t\t\t\t// request money\n\t\tuint current;\t\t\t\t// request current amount\n\t\tuint ddl;\t\t\t\t\t// request ddl\n\t\tInvestorState[] invstate;\t// investor state\n\t}\n\n\tUser[] private users;\t\t\t\t// users\n\tFund[] private funds;\t\t\t\t// funds stored in struct Fund\n\tInvestment[] private investments;\t// investments \n\tRequest[] private requests;\t\t\t// requests\n\tmapping (address => uint) private UID;\t// user addr to uid\n\n    function getFundNum() public view returns(uint){\n        return funds.length;\n    }\n    \n    function getInvNum() public returns(uint){\n        return users[getUserID(msg.sender)].fidinv.length;\n    }\n    \n    function getSpnNum() public returns(uint){\n        return users[getUserID(msg.sender)].fidspn.length;\n    }\n    \n    function getInvest(uint iid) public returns(uint, uint, string memory, uint, uint, uint){   // fid, fstate, fintro, fgoal, investamt, investtime\n        require(iid < getInvNum());\n        Fund storage f = funds[investments[users[getUserID(msg.sender)].fidinv[iid]].fid];\n        uint state = f.state == FundState.FUND_PENDING ? 0 : (f.state == FundState.FUND_SUCCESS ? 1 : 2);\n        return(f.fid, state, f.introduction, f.goalFund, investments[users[getUserID(msg.sender)].fidinv[iid]].amount, investments[users[getUserID(msg.sender)].fidinv[iid]].time);\n    }\n    \n    function getSponsor(uint sid) public returns(uint, uint, string memory, uint, uint, uint){\n        require(sid < getSpnNum());\n        Fund storage f = funds[users[getUserID(msg.sender)].fidspn[sid]];\n        uint state = f.state == FundState.FUND_PENDING ? 0 : (f.state == FundState.FUND_SUCCESS ? 1 : 2);\n        return(f.fid, state, f.introduction, f.goalFund, f.currentFund, f.ddl);\n    }\n    \n    function getAvaNum() public view returns(uint){\n        uint cnt = 0;\n        for(uint i = 0; i < funds.length; i++) \n            if(funds[i].state == FundState.FUND_PENDING) cnt++;\n        return cnt;\n    }\n    \n    function getAva(uint tid) public view returns(uint, uint, string memory, uint, uint, uint){\n        require(tid < getAvaNum());\n        uint cnt = 0;\n        uint i;\n        for(i = 0; i < funds.length; i++) \n        {\n            if(funds[i].state == FundState.FUND_PENDING) cnt++;\n            if(cnt == tid + 1) break;\n        }\n        Fund storage f = funds[i];\n        uint state = f.state == FundState.FUND_PENDING ? 0 : (f.state == FundState.FUND_SUCCESS ? 1 : 2);\n        return(f.fid, state, f.introduction, f.goalFund, f.currentFund, f.ddl);\n    }\n    \n    function getRequestList() public returns(uint[] memory){\n        return users[getUserID(msg.sender)].ridList;\n    }\n    \n    function getRequest(uint rid) public view returns(uint, uint, string memory, uint, uint, uint){\n        require(rid < requests.length);\n        uint state = requests[rid].state == RequestState.REQUEST_PENDING ? 0 : (requests[rid].state == RequestState.REQUEST_SUCCESS ? 1 : 2);\n        return(state, requests[rid].fid, requests[rid].introduction, requests[rid].amount, requests[rid].current, requests[rid].ddl);\n    }\n    \n\tfunction getUserID (address _user) public returns(uint){\n\t\tif(users[UID[_user]].isUsed) return UID[_user];\n\t\telse{\n\t\t\tUser memory newUser = User(payable(_user), true, new uint[](0), new uint[](0), new uint[](0)); // ?, new uint[], new uint[]\n\t\t\tUID[newUser.uaddr] = users.length;\n\t\t\tusers.push(newUser);\n\t\t\treturn UID[newUser.uaddr];\n\t\t}\n\t}\n\n\tfunction updateFundState() public{\n\t\tfor(uint i = 0; i < funds.length; i++){\n\t\t\tif(funds[i].state == FundState.FUND_PENDING && block.timestamp > funds[i].ddl){\n\t\t\t\tfunds[i].state = FundState.FUND_FAIL;\n\t\t\t\tfor(uint j = 0; j < funds[i].invid.length; j++)  {\n\t\t\t\t\tusers[investments[funds[i].invid[j]].investorid].uaddr.transfer(investments[funds[i].invid[j]].amount);\t// return back the investors' money\n\t\t\t\t\tinvestments[funds[i].invid[j]].state = InvestState.INVEST_FAIL;\n\t\t\t\t}\n\t\t\t}\n\t\t}\n\t}\n\n\tfunction createFund (string memory _introduction, uint _goal, uint _ddl) public{\n\t\trequire(_ddl > block.timestamp, \"DDL too early!\");\n\t\trequire(_goal > 0, \"GOAL = 0!\");\n\t\tuint sponsorid = getUserID(msg.sender);\n\t\tusers[sponsorid].fidspn.push(funds.length);\n\t\tFund memory newFund = Fund(funds.length, FundState.FUND_PENDING, _introduction, _goal, 0, _ddl, sponsorid, new uint[](0), new uint[](0)); // ?, new uint[], new uint[]\n\t\tfunds.push(newFund);\n\t}\n\n\tfunction investFund (uint fid) public payable{\n\t\trequire(funds.length > fid, \"Fund Index Error!\");\n\t\tupdateFundState();\n\t\trequire(funds[fid].state == FundState.FUND_PENDING, \"Fund already closed!\");\n\t\tInvestment memory newInvest = Investment(InvestState.INVEST_PENDING, fid, getUserID(msg.sender), msg.value, block.timestamp);\n\t\tif(msg.value > funds[fid].goalFund - funds[fid].currentFund){\n\t\t\tpayable(msg.sender).transfer(msg.value + funds[fid].currentFund - funds[fid].goalFund);\n\t\t\tnewInvest.amount = funds[fid].goalFund - funds[fid].currentFund;\n\t\t}\n\t\tfunds[fid].currentFund += newInvest.amount;\n\t\tif(funds[fid].currentFund >= funds[fid].goalFund) \n\t\t{\n\t\t\tfunds[fid].state = FundState.FUND_SUCCESS;\t// update fund state\n\t\t\tnewInvest.state = InvestState.INVEST_SUCCESS;\n\t\t\tfor(uint i = 0; i < funds[fid].invid.length; i++) investments[funds[fid].invid[i]].state = InvestState.INVEST_SUCCESS;\n\t\t}\n\t\tfunds[fid].invid.push(investments.length);\n\t\tusers[getUserID(msg.sender)].fidinv.push(investments.length);\n\t\tinvestments.push(newInvest);\n\t}\n\n\tfunction createRequest(uint _fid, string memory _introduction, uint _amount, uint _ddl) public{\n\t\trequire(funds.length > _fid, \"Fund Index Error!\");\n\t\trequire(_ddl > block.timestamp, \"DDL too early!\");\n\t\tupdateFundState();\n\t\trequire(funds[_fid].sponsorid == getUserID(msg.sender), \"You're not fund sponsor!\");\n\t\trequire(funds[_fid].state == FundState.FUND_SUCCESS, \"Fund not success!\");\n\t\trequire(funds[_fid].currentFund >= _amount, \"Request too much!\");\n\t\tRequest memory newRequest = Request(RequestState.REQUEST_PENDING, _fid, _introduction, _amount, 0, _ddl, new InvestorState[](funds[_fid].invid.length));\n\t\tfor(uint i = 0; i < newRequest.invstate.length; i++) \n\t\t{\n\t\t    newRequest.invstate[i] = InvestorState.INV_PENDING;\n\t\t    users[investments[funds[_fid].invid[i]].investorid].ridList.push(requests.length);\n\t\t}\n\t\tfunds[_fid].reqid.push(requests.length);\n\t\trequests.push(newRequest);\n\t\tfunds[_fid].currentFund -= _amount;\n\t}\n\n\tfunction updateRequestState() public{\n\t\tfor(uint i = 0; i < requests.length; i++){\n\t\t\tif(requests[i].state == RequestState.REQUEST_PENDING && block.timestamp > requests[i].ddl){\n\t\t\t\trequests[i].state = RequestState.REQUEST_FAIL;\n\t\t\t}\n\t\t}\n\t}\n\n\tfunction agreeRequest(uint fid, uint reqid) public{\n\t\trequire(fid < funds.length, \"Fund Index Error!\");\n\t\trequire(reqid < requests.length, \"Request Index Error!\");\n\t\trequire(funds[fid].state == FundState.FUND_SUCCESS, \"Fund not success!\");\n\t\tupdateRequestState();\n\t\trequire(requests[reqid].state == RequestState.REQUEST_PENDING, \"Request closed!\");\n\t\tfor(uint i = 0; i < funds[fid].invid.length; i++) \n\t\t{\n\t\t\tif(investments[funds[fid].invid[i]].investorid == getUserID(msg.sender))\n\t\t\t{\n\t\t\t\trequests[reqid].current += investments[funds[fid].invid[i]].amount;\n\t\t\t\trequests[reqid].invstate[i] = InvestorState.INV_AGREE;\t\n\t\t\t}\n\t\t}\n\t\tif(requests[reqid].current * 2 >= requests[reqid].amount)\n\t\t{\n\t\t\trequests[reqid].state = RequestState.REQUEST_SUCCESS;\n\t\t\tusers[funds[requests[reqid].fid].sponsorid].uaddr.transfer(requests[reqid].amount);\n\t\t}\n\t}\n\n\tfunction disagreeRequest(uint fid, uint reqid) public{\n\t\trequire(fid < funds.length, \"Fund Index Error!\");\n\t\trequire(reqid < requests.length, \"Request Index Error!\");\n\t\trequire(funds[fid].state == FundState.FUND_SUCCESS, \"Fund not success!\");\n\t\tupdateRequestState();\n\t\trequire(requests[reqid].state == RequestState.REQUEST_PENDING, \"Request closed!\");\n\t\tfor(uint i = 0; i < funds[fid].invid.length; i++) \n\t\t{\n\t\t\tif(investments[funds[fid].invid[i]].investorid == getUserID(msg.sender) && requests[reqid].invstate[i] == InvestorState.INV_PENDING)\n\t\t\t{\n\t\t\t\trequests[reqid].invstate[i] = InvestorState.INV_DISAGREE;\t\n\t\t\t}\n\t\t}\n\t}\n\n}",
  "sourcePath": "C:/Users/Rivekon/Desktop/crowdfund/contracts/CrowdFunding.sol",
  "compiler": {
    "name": "solc",
    "version": "0.6.2+commit.bacdbe57.Emscripten.clang"
  },
  "schemaVersion": "3.3.3",
  "updatedAt": "2021-01-17T13:55:09.790Z",
  "devdoc": {
    "methods": {}
  },
  "userdoc": {
    "methods": {}
  }
}