{
  "contractName": "Project",
  "abi": [
    {
      "inputs": [
        {
          "internalType": "address payable",
          "name": "projectStarter",
          "type": "address"
        },
        {
          "internalType": "string",
          "name": "projectTitle",
          "type": "string"
        },
        {
          "internalType": "string",
          "name": "projectDesc",
          "type": "string"
        },
        {
          "internalType": "uint256",
          "name": "fundRaisingDeadline",
          "type": "uint256"
        },
        {
          "internalType": "uint256",
          "name": "goalAmount",
          "type": "uint256"
        }
      ],
      "stateMutability": "nonpayable",
      "type": "constructor"
    },
    {
      "anonymous": false,
      "inputs": [
        {
          "indexed": false,
          "internalType": "address",
          "name": "contributor",
          "type": "address"
        },
        {
          "indexed": false,
          "internalType": "uint256",
          "name": "amount",
          "type": "uint256"
        },
        {
          "indexed": false,
          "internalType": "uint256",
          "name": "current",
          "type": "uint256"
        }
      ],
      "name": "FundingReceived",
      "type": "event"
    },
    {
      "anonymous": false,
      "inputs": [
        {
          "indexed": false,
          "internalType": "uint256",
          "name": "index",
          "type": "uint256"
        }
      ],
      "name": "ProposalApproved",
      "type": "event"
    },
    {
      "anonymous": false,
      "inputs": [
        {
          "indexed": false,
          "internalType": "string",
          "name": "des",
          "type": "string"
        },
        {
          "indexed": false,
          "internalType": "uint256",
          "name": "value",
          "type": "uint256"
        }
      ],
      "name": "ProposalCreated",
      "type": "event"
    },
    {
      "anonymous": false,
      "inputs": [
        {
          "indexed": false,
          "internalType": "uint256",
          "name": "index",
          "type": "uint256"
        }
      ],
      "name": "ProposalDeclined",
      "type": "event"
    },
    {
      "anonymous": false,
      "inputs": [
        {
          "indexed": false,
          "internalType": "uint256",
          "name": "index",
          "type": "uint256"
        }
      ],
      "name": "ProposalPaid",
      "type": "event"
    },
    {
      "inputs": [],
      "name": "aimedAmount",
      "outputs": [
        {
          "internalType": "uint256",
          "name": "",
          "type": "uint256"
        }
      ],
      "stateMutability": "view",
      "type": "function"
    },
    {
      "inputs": [
        {
          "internalType": "address",
          "name": "",
          "type": "address"
        }
      ],
      "name": "contributors",
      "outputs": [
        {
          "internalType": "uint256",
          "name": "",
          "type": "uint256"
        }
      ],
      "stateMutability": "view",
      "type": "function"
    },
    {
      "inputs": [],
      "name": "creator",
      "outputs": [
        {
          "internalType": "address payable",
          "name": "",
          "type": "address"
        }
      ],
      "stateMutability": "view",
      "type": "function"
    },
    {
      "inputs": [],
      "name": "currentAmount",
      "outputs": [
        {
          "internalType": "uint256",
          "name": "",
          "type": "uint256"
        }
      ],
      "stateMutability": "view",
      "type": "function"
    },
    {
      "inputs": [],
      "name": "deadline",
      "outputs": [
        {
          "internalType": "uint256",
          "name": "",
          "type": "uint256"
        }
      ],
      "stateMutability": "view",
      "type": "function"
    },
    {
      "inputs": [],
      "name": "description",
      "outputs": [
        {
          "internalType": "string",
          "name": "",
          "type": "string"
        }
      ],
      "stateMutability": "view",
      "type": "function"
    },
    {
      "inputs": [],
      "name": "name",
      "outputs": [
        {
          "internalType": "string",
          "name": "",
          "type": "string"
        }
      ],
      "stateMutability": "view",
      "type": "function"
    },
    {
      "inputs": [
        {
          "internalType": "uint256",
          "name": "",
          "type": "uint256"
        }
      ],
      "name": "proposals",
      "outputs": [
        {
          "internalType": "string",
          "name": "usage",
          "type": "string"
        },
        {
          "internalType": "uint256",
          "name": "approval",
          "type": "uint256"
        },
        {
          "internalType": "uint256",
          "name": "decline",
          "type": "uint256"
        },
        {
          "internalType": "uint256",
          "name": "amount",
          "type": "uint256"
        },
        {
          "internalType": "bool",
          "name": "isPaid",
          "type": "bool"
        },
        {
          "internalType": "enum Project.proposalState",
          "name": "PState",
          "type": "uint8"
        }
      ],
      "stateMutability": "view",
      "type": "function"
    },
    {
      "inputs": [],
      "name": "state",
      "outputs": [
        {
          "internalType": "enum Project.State",
          "name": "",
          "type": "uint8"
        }
      ],
      "stateMutability": "view",
      "type": "function"
    },
    {
      "inputs": [
        {
          "internalType": "string",
          "name": "MoneyUsage",
          "type": "string"
        },
        {
          "internalType": "uint256",
          "name": "Needamount",
          "type": "uint256"
        }
      ],
      "name": "createProposal",
      "outputs": [],
      "stateMutability": "nonpayable",
      "type": "function"
    },
    {
      "inputs": [
        {
          "internalType": "uint256",
          "name": "id",
          "type": "uint256"
        }
      ],
      "name": "approveProposal",
      "outputs": [],
      "stateMutability": "nonpayable",
      "type": "function"
    },
    {
      "inputs": [
        {
          "internalType": "uint256",
          "name": "id",
          "type": "uint256"
        }
      ],
      "name": "declineProposal",
      "outputs": [],
      "stateMutability": "nonpayable",
      "type": "function"
    },
    {
      "inputs": [
        {
          "internalType": "uint256",
          "name": "id",
          "type": "uint256"
        }
      ],
      "name": "checkProposalState",
      "outputs": [],
      "stateMutability": "nonpayable",
      "type": "function"
    },
    {
      "inputs": [],
      "name": "checkState",
      "outputs": [],
      "stateMutability": "nonpayable",
      "type": "function"
    },
    {
      "inputs": [],
      "name": "contribute",
      "outputs": [],
      "stateMutability": "payable",
      "type": "function"
    },
    {
      "inputs": [],
      "name": "getRefund",
      "outputs": [
        {
          "internalType": "bool",
          "name": "",
          "type": "bool"
        }
      ],
      "stateMutability": "nonpayable",
      "type": "function"
    },
    {
      "inputs": [],
      "name": "getDetails",
      "outputs": [
        {
          "internalType": "address payable",
          "name": "projectStarter",
          "type": "address"
        },
        {
          "internalType": "string",
          "name": "projectTitle",
          "type": "string"
        },
        {
          "internalType": "string",
          "name": "projectDesc",
          "type": "string"
        },
        {
          "internalType": "uint256",
          "name": "Deadline",
          "type": "uint256"
        },
        {
          "internalType": "enum Project.State",
          "name": "currentState",
          "type": "uint8"
        },
        {
          "internalType": "uint256",
          "name": "current",
          "type": "uint256"
        },
        {
          "internalType": "uint256",
          "name": "goalAmount",
          "type": "uint256"
        },
        {
          "internalType": "bool",
          "name": "hasCon",
          "type": "bool"
        }
      ],
      "stateMutability": "view",
      "type": "function"
    }
  ],
  "bytecode": "0x60806040526008805460ff191690553480156200001b57600080fd5b506040516200169438038062001694833981810160405260a08110156200004157600080fd5b8151602083018051604051929492938301929190846401000000008211156200006957600080fd5b9083019060208201858111156200007f57600080fd5b82516401000000008111828201881017156200009a57600080fd5b82525081516020918201929091019080838360005b83811015620000c9578181015183820152602001620000af565b50505050905090810190601f168015620000f75780820380516001836020036101000a031916815260200191505b50604052602001805160405193929190846401000000008211156200011b57600080fd5b9083019060208201858111156200013157600080fd5b82516401000000008111828201881017156200014c57600080fd5b82525081516020918201929091019080838360005b838110156200017b57818101518382015260200162000161565b50505050905090810190601f168015620001a95780820380516001836020036101000a031916815260200191505b5060409081526020828101519290910151600080546001600160a01b0319166001600160a01b038a1617905586519294509250620001ed916002918701906200021d565b508251620002039060019060208601906200021d565b5060035560055550506000600481905560065550620002c2565b828054600181600116156101000203166002900490600052602060002090601f016020900481019282601f106200026057805160ff191683800117855562000290565b8280016001018555821562000290579182015b828111156200029057825182559160200191906001019062000273565b506200029e929150620002a2565b5090565b620002bf91905b808211156200029e5760008155600101620002a9565b90565b6113c280620002d26000396000f3fe6080604052600436106100fe5760003560e01c806396dfcbea11610095578063cc48bf1611610064578063cc48bf161461044e578063d7bb99ba14610478578063f164760114610480578063f441b1c814610495578063fbbf93a0146104aa576100fe565b806396dfcbea146103ad57806398951b56146103c2578063b2d5ae44146103ec578063c19d93fb14610415576100fe565b806329dcb0cf116100d157806329dcb0cf146102da57806335facf78146102ef5780634553ff791461036e5780637284e41614610398576100fe565b8063013cf08b1461010357806302d05d3f146101da57806306fdde031461020b5780631f6d494214610295575b600080fd5b34801561010f57600080fd5b5061012d6004803603602081101561012657600080fd5b50356105eb565b60405180806020018781526020018681526020018581526020018415151515815260200183600281111561015d57fe5b60ff168152602001828103825288818151815260200191508051906020019080838360005b8381101561019a578181015183820152602001610182565b50505050905090810190601f1680156101c75780820380516001836020036101000a031916815260200191505b5097505050505050505060405180910390f35b3480156101e657600080fd5b506101ef6106c0565b604080516001600160a01b039092168252519081900360200190f35b34801561021757600080fd5b506102206106cf565b6040805160208082528351818301528351919283929083019185019080838360005b8381101561025a578181015183820152602001610242565b50505050905090810190601f1680156102875780820380516001836020036101000a031916815260200191505b509250505060405180910390f35b3480156102a157600080fd5b506102c8600480360360208110156102b857600080fd5b50356001600160a01b031661075a565b60408051918252519081900360200190f35b3480156102e657600080fd5b506102c861076c565b3480156102fb57600080fd5b5061036c6004803603604081101561031257600080fd5b81019060208101813564010000000081111561032d57600080fd5b82018360208201111561033f57600080fd5b8035906020019184600183028401116401000000008311171561036157600080fd5b919350915035610772565b005b34801561037a57600080fd5b5061036c6004803603602081101561039157600080fd5b503561092f565b3480156103a457600080fd5b50610220610a84565b3480156103b957600080fd5b5061036c610ade565b3480156103ce57600080fd5b5061036c600480360360208110156103e557600080fd5b5035610b19565b3480156103f857600080fd5b50610401610bdd565b604080519115158252519081900360200190f35b34801561042157600080fd5b5061042a610ca9565b6040518082600281111561043a57fe5b60ff16815260200191505060405180910390f35b34801561045a57600080fd5b5061036c6004803603602081101561047157600080fd5b5035610cb2565b61036c610dc0565b34801561048c57600080fd5b506102c8610e85565b3480156104a157600080fd5b506102c8610e8b565b3480156104b657600080fd5b506104bf610e91565b60405180896001600160a01b03166001600160a01b0316815260200180602001806020018881526020018760028111156104f557fe5b60ff1681526020018681526020018581526020018415151515815260200183810383528a818151815260200191508051906020019080838360005b83811015610548578181015183820152602001610530565b50505050905090810190601f1680156105755780820380516001836020036101000a031916815260200191505b5083810382528951815289516020918201918b019080838360005b838110156105a8578181015183820152602001610590565b50505050905090810190601f1680156105d55780820380516001836020036101000a031916815260200191505b509a505050505050505050505060405180910390f35b600a81815481106105f857fe5b60009182526020918290206006919091020180546040805160026001841615610100026000190190931692909204601f8101859004850283018501909152808252919350918391908301828280156106915780601f1061066657610100808354040283529160200191610691565b820191906000526020600020905b81548152906001019060200180831161067457829003601f168201915b505050506001830154600284015460038501546005909501549394919390925060ff8082169161010090041686565b6000546001600160a01b031681565b6002805460408051602060018416156101000260001901909316849004601f810184900484028201840190925281815292918301828280156107525780601f1061072757610100808354040283529160200191610752565b820191906000526020600020905b81548152906001019060200180831161073557829003601f168201915b505050505081565b60096020526000908152604090205481565b60055481565b6000546001600160a01b0316331461078957600080fd5b600454811061079757600080fd5b61079f6112b9565b6040518060c0016040528085858080601f01602080910402602001604051908101604052809392919081815260200183838082843760009201829052509385525050506020820181905260408201819052606082018590526080820181905260a090910152600a805460018101825560009190915281518051929350839260069092027fc65a7bb8d6351c1cf70c95a316cc6a92839c986682d98bc35f958f4883f9d2a80191610857918391602091909101906112fb565b5060208201516001820155604082015160028083019190915560608301516003830155608083015160058301805460ff19169115159190911780825560a08501519261ff0019909116906101009084908111156108b057fe5b0217905550506006805460010190555060408051602081018490528181529081018490527f68a3e694fa578ad362161771d7ccb8d633a72af1e982b64ed1bef4147e91eafb908590859085908060608101858580828437600083820152604051601f909101601f1916909201829003965090945050505050a150505050565b60026003548161093b57fe5b04600a828154811061094957fe5b906000526020600020906006020160010154106109df576001600a828154811061096f57fe5b60009182526020909120600560069092020101805461ff00191661010083600281111561099857fe5b02179055506040805182815290517f28ec9e38ba73636ceb2f6c1574136f83bd46284a3c74734b711bf45e12f8d9299181900360200190a16109d981611014565b50610a81565b6002600354816109eb57fe5b04600a82815481106109f957fe5b90600052602060002090600602016002015410610a81576002600a8281548110610a1f57fe5b60009182526020909120600560069092020101805461ff001916610100836002811115610a4857fe5b02179055506040805182815290517f4cf2797951877f41b38931a68643f9249273f32fd396532213aa4f1222c9d16b9181900360200190a15b50565b60018054604080516020600284861615610100026000190190941693909304601f810184900484028201840190925281815292918301828280156107525780601f1061072757610100808354040283529160200191610752565b60035460045410610afb576008805460ff19166001179055610b13565b600554421115610b13576008805460ff191660021790555b42600755565b6006548110610b2757600080fd5b6000600a8281548110610b3657fe5b906000526020600020906006020160050160019054906101000a900460ff166002811115610b6057fe5b14610b6a57600080fd5b33600090815260096020526040902054600a8054610bae92919084908110610b8e57fe5b90600052602060002090600602016001015461118490919063ffffffff16565b600a8281548110610bbb57fe5b906000526020600020906006020160010181905550610bd981611014565b5050565b600060028060085460ff166002811115610bf357fe5b14610bfd57600080fd5b33600090815260096020526040902054610c1657600080fd5b33600081815260096020526040808220805490839055905190929183156108fc02918491818181858888f115159350610c89925050505733600090815260096020526040902054610c6d908263ffffffff61118416565b336000908152600960205260408120919091559250610ca59050565b600454610c9c908263ffffffff6111e516565b60045560019250505b5090565b60085460ff1681565b6006548110610cc057600080fd5b6001600a8281548110610ccf57fe5b906000526020600020906006020160050160019054906101000a900460ff166002811115610cf957fe5b14610d0357600080fd5b600a8181548110610d1057fe5b600091825260208083203384526004600690930201919091019052604090205460ff1615610d3d57600080fd5b6001600a8281548110610d4c57fe5b6000918252602080832033845260069290920290910160040181526040808320805460ff191694151594909417909355600990522054600a8054610db692919084908110610d9657fe5b90600052602060002090600602016002015461118490919063ffffffff16565b50610a818161092f565b60008060085460ff166002811115610dd457fe5b14610dde57600080fd5b6000546001600160a01b0316331415610df657600080fd5b33600090815260096020526040902054610e16903463ffffffff61118416565b33600090815260096020526040902055600454610e39903463ffffffff61118416565b60048190556040805133815234602082015280820192909252517f5cdc4ab8d637538ead6cc1904d4160343656c8c82bd266635cfd31ac008fffe09181900360600190a1610a81610ade565b60035481565b60045481565b6000805460028054604080516020601f600019600186161561010002019094168590049384018190048102820181019092528281526001600160a01b03909416946060948594919384938493849384939092830182828015610f345780601f10610f0957610100808354040283529160200191610f34565b820191906000526020600020905b815481529060010190602001808311610f1757829003601f168201915b505060018054604080516020601f600260001961010087891615020190951694909404938401819004810282018101909252828152969d5091945092508401905082828015610fc45780601f10610f9957610100808354040283529160200191610fc4565b820191906000526020600020905b815481529060010190602001808311610fa757829003601f168201915b505060055460085460045460035433600090815260096020526040902054979d50929b5060ff90911699509750955050509015159050611005576000611008565b60015b90509091929394959697565b60006001600a838154811061102557fe5b906000526020600020906006020160050160006101000a81548160ff021916908315150217905550611080600a838154811061105d57fe5b9060005260206000209060060201600301546004546111e590919063ffffffff16565b600455600054600a80546001600160a01b03909216916108fc9190859081106110a557fe5b9060005260206000209060060201600301549081150290604051600060405180830381858888f1935050505015611111576040805183815290517f7bce6f355d0e8ae3f4e46a857eeaf919ff6fe6c907b07c47a228371deba0163d9181900360200190a150600161117f565b611144600a838154811061112157fe5b90600052602060002090600602016003015460045461118490919063ffffffff16565b6004819055506000600a838154811061115957fe5b60009182526020822060069190910201600501805460ff19169215159290921790915590505b919050565b6000828201838110156111de576040805162461bcd60e51b815260206004820152601b60248201527f536166654d6174683a206164646974696f6e206f766572666c6f770000000000604482015290519081900360640190fd5b9392505050565b60006111de83836040518060400160405280601e81526020017f536166654d6174683a207375627472616374696f6e206f766572666c6f770000815250600081848411156112b15760405162461bcd60e51b81526004018080602001828103825283818151815260200191508051906020019080838360005b8381101561127657818101518382015260200161125e565b50505050905090810190601f1680156112a35780820380516001836020036101000a031916815260200191505b509250505060405180910390fd5b505050900390565b6040518060c0016040528060608152602001600081526020016000815260200160008152602001600015158152602001600060028111156112f657fe5b905290565b828054600181600116156101000203166002900490600052602060002090601f016020900481019282601f1061133c57805160ff1916838001178555611369565b82800160010185558215611369579182015b8281111561136957825182559160200191906001019061134e565b50610ca5926113899250905b80821115610ca55760008155600101611375565b9056fea26469706673582212200488d74bb57ba992f0cf6e1dd337b8aa2f016db870d34cb38e995b5626c5381f64736f6c63430006000033",
  "source": "pragma solidity 0.6.0;\nimport './SafeMath.sol';\n\ncontract Platform {\n    using SafeMath for uint256;\n\n    // list of the projects\n    Project[] private projects;\n\n    // events here\n    event ProjectStarted(\n        address projectAddress,\n        address projectCreator,\n        string projectName,\n        string projectDescription,\n        uint256 projectDeadline,\n        uint256 aimedGoal\n    );\n\n    // functions here\n    function startProject(\n        string calldata title,\n        string calldata description,\n        uint durationInDays,\n        uint amountToRaise\n    ) external {\n        uint raiseUntil = now.add(durationInDays.mul(1 days));\n        Project newProject = new Project(msg.sender, title, description, raiseUntil, amountToRaise);\n        projects.push(newProject);\n        emit ProjectStarted(\n            address(newProject),\n            msg.sender,\n            title,\n            description,\n            raiseUntil,\n            amountToRaise\n        );\n    }          \n                                             \n    function returnAllProjects() external view returns(Project[] memory){\n        return projects;\n    }\n}\n\n\n\ncontract Project {\n    using SafeMath for uint256;\n    // project state\n    enum State {\n        inProgress,\n        success,\n        failed\n    }\n\n    // proposal state\n    enum proposalState {\n        pending,\n        success,\n        failed\n    }\n    \n    struct Proposal {\n        string usage;\n        uint256 approval;\n        uint256 decline;\n        uint256 amount;\n        mapping (address => bool) voted;\n        bool isPaid;\n        proposalState PState;\n    }\n    \n    \n    address payable public creator;\n    string public description;\n    string public name;\n    uint256 public aimedAmount;\n    uint256 public currentAmount;\n    uint256 public deadline;\n    uint proposalNum;\n    uint finishTime;\n    State  public state = State.inProgress;\n    mapping (address=>uint) public contributors;\n    Proposal[] public proposals;\n\n\n    // constructor\n    constructor\n    (\n        address payable projectStarter,\n        string memory projectTitle,\n        string memory projectDesc,\n        uint fundRaisingDeadline,\n        uint goalAmount\n    ) public {\n        creator = projectStarter;\n        name = projectTitle;\n        description = projectDesc;\n        aimedAmount = goalAmount;\n        deadline = fundRaisingDeadline;\n        currentAmount = 0;\n        proposalNum = 0;\n    }\n\n    // events\n    event FundingReceived(address contributor, uint amount, uint256 current);\n    event ProposalCreated(string des, uint value);\n    event ProposalApproved(uint index);\n    event ProposalDeclined(uint index);\n    event ProposalPaid(uint index);\n\n\n    // modifier\n    modifier inState(State _state) {\n        require(state==_state);\n        _;\n    }\n\n    modifier isCreator() {\n        require(msg.sender==creator);\n        _;\n    }\n\n    // functions\n    function createProposal(string calldata MoneyUsage, uint256 Needamount) external {\n        require(msg.sender==creator);\n        require(Needamount<currentAmount);\n        Proposal memory p = Proposal({\n            usage: MoneyUsage,\n            approval: 0,\n            decline: 0,\n            amount: Needamount,\n            PState: proposalState.pending,\n            isPaid: false\n        });\n        proposals.push(p);\n        proposalNum++;\n        emit ProposalCreated(MoneyUsage, Needamount);\n    }\n    \n    function approveProposal(uint id) external {\n        require(id<proposalNum);\n        require(proposals[id].PState==proposalState.pending);\n        //require(proposals[id].voted[msg.sender]==false);\n        //proposals[id].voted[msg.sender] = true;\n        proposals[id].approval = proposals[id].approval.add(contributors[msg.sender]);\n        payout(id);\n    }\n    \n    function declineProposal(uint id) external {\n        require(id<proposalNum);\n        require(proposals[id].PState==proposalState.success);\n        require(proposals[id].voted[msg.sender]==false);\n        proposals[id].voted[msg.sender] = true;\n        proposals[id].decline.add(contributors[msg.sender]);\n        checkProposalState(id);\n    }\n    \n    function payout(uint id) internal returns (bool) {\n        proposals[id].isPaid = true;\n        currentAmount = currentAmount.sub(proposals[id].amount);\n        if (creator.send(proposals[id].amount)) {\n            emit ProposalPaid(id);\n            return true;\n        } else {\n            currentAmount = currentAmount.add(proposals[id].amount);\n            proposals[id].isPaid = false;\n            return false;\n        }\n    }\n    \n    \n    function checkProposalState(uint id) public {\n        if (proposals[id].approval >= aimedAmount/2) {\n            proposals[id].PState = proposalState.success;\n            emit ProposalApproved(id);\n            payout(id);\n        } else if (proposals[id].decline >= aimedAmount/2) {\n            proposals[id].PState = proposalState.failed;\n            emit ProposalDeclined(id);\n        }\n    }\n    \n    function checkState() public {\n        if (currentAmount>=aimedAmount) {\n            state = State.success;\n        } else if (now > deadline) {\n            state = State.failed;\n        }\n        finishTime = now;\n    }\n\n    function contribute() external inState(State.inProgress) payable {\n        require(msg.sender!=creator);\n        contributors[msg.sender] = contributors[msg.sender].add(msg.value);\n        currentAmount = currentAmount.add(msg.value);\n        emit FundingReceived(msg.sender, msg.value, currentAmount);\n        checkState();\n    }\n\n    function getRefund() public inState(State.failed) returns (bool) {\n        require(contributors[msg.sender]>0);\n\n        uint refundAmount = contributors[msg.sender];\n        contributors[msg.sender] = 0;\n\n        if (msg.sender.send(refundAmount)==false) {\n            contributors[msg.sender] = contributors[msg.sender].add(refundAmount);\n            return false;\n        } else {\n            currentAmount = currentAmount.sub(refundAmount);\n        }\n\n        return true;\n    }\n\n    function getDetails() public view returns \n    (\n        address payable projectStarter,\n        string memory projectTitle,\n        string memory projectDesc,\n        uint256 Deadline,\n        State currentState,\n        uint256 current,\n        uint256 goalAmount,\n        bool hasCon\n    ) {\n        projectStarter = creator;\n        projectTitle = name;\n        projectDesc = description;\n        Deadline = deadline;\n        currentState = state;\n        current= currentAmount;\n        goalAmount = aimedAmount;\n        hasCon = contributors[msg.sender] > 0 ? true: false;\n    }\n}\n",
  "sourcePath": "/Users/123/Coding/crowdfunding/ethereum/contracts/Platform.sol",
  "compiler": {
    "name": "solc",
    "version": "0.6.0+commit.26b70077.Emscripten.clang"
  },
  "schemaVersion": "3.3.3",
  "updatedAt": "2021-01-14T09:23:31.952Z",
  "devdoc": {
    "methods": {}
  },
  "userdoc": {
    "methods": {}
  }
}