{
  "contractName": "CrowdFundings",
  "abi": [
    {
      "anonymous": false,
      "inputs": [
        {
          "indexed": false,
          "internalType": "uint256",
          "name": "info",
          "type": "uint256"
        }
      ],
      "name": "debug",
      "type": "event"
    },
    {
      "anonymous": false,
      "inputs": [
        {
          "indexed": true,
          "internalType": "address",
          "name": "initiator",
          "type": "address"
        },
        {
          "indexed": true,
          "internalType": "uint256",
          "name": "projectID",
          "type": "uint256"
        }
      ],
      "name": "projectCreated",
      "type": "event"
    },
    {
      "anonymous": false,
      "inputs": [
        {
          "indexed": true,
          "internalType": "address",
          "name": "investor",
          "type": "address"
        },
        {
          "indexed": true,
          "internalType": "uint256",
          "name": "projectID",
          "type": "uint256"
        },
        {
          "indexed": false,
          "internalType": "uint256",
          "name": "amount",
          "type": "uint256"
        }
      ],
      "name": "projectInvested",
      "type": "event"
    },
    {
      "anonymous": false,
      "inputs": [
        {
          "indexed": true,
          "internalType": "address",
          "name": "initiator",
          "type": "address"
        },
        {
          "indexed": true,
          "internalType": "uint256",
          "name": "projectID",
          "type": "uint256"
        },
        {
          "indexed": true,
          "internalType": "uint256",
          "name": "proposalID",
          "type": "uint256"
        },
        {
          "indexed": false,
          "internalType": "address",
          "name": "to",
          "type": "address"
        },
        {
          "indexed": false,
          "internalType": "uint256",
          "name": "amount",
          "type": "uint256"
        }
      ],
      "name": "proposalApproved",
      "type": "event"
    },
    {
      "anonymous": false,
      "inputs": [
        {
          "indexed": true,
          "internalType": "address",
          "name": "initiator",
          "type": "address"
        },
        {
          "indexed": true,
          "internalType": "uint256",
          "name": "projectID",
          "type": "uint256"
        },
        {
          "indexed": true,
          "internalType": "uint256",
          "name": "proposalID",
          "type": "uint256"
        },
        {
          "indexed": false,
          "internalType": "address",
          "name": "to",
          "type": "address"
        },
        {
          "indexed": false,
          "internalType": "uint256",
          "name": "amount",
          "type": "uint256"
        }
      ],
      "name": "proposalFinished",
      "type": "event"
    },
    {
      "anonymous": false,
      "inputs": [
        {
          "indexed": true,
          "internalType": "address",
          "name": "initiator",
          "type": "address"
        },
        {
          "indexed": true,
          "internalType": "uint256",
          "name": "projectID",
          "type": "uint256"
        },
        {
          "indexed": true,
          "internalType": "uint256",
          "name": "proposalID",
          "type": "uint256"
        },
        {
          "indexed": false,
          "internalType": "uint256",
          "name": "amount",
          "type": "uint256"
        }
      ],
      "name": "proposalRaised",
      "type": "event"
    },
    {
      "inputs": [
        {
          "internalType": "uint256",
          "name": "",
          "type": "uint256"
        }
      ],
      "name": "projects",
      "outputs": [
        {
          "internalType": "contract CrowdFundingProject",
          "name": "",
          "type": "address"
        }
      ],
      "stateMutability": "view",
      "type": "function",
      "constant": true
    },
    {
      "inputs": [
        {
          "internalType": "uint256",
          "name": "",
          "type": "uint256"
        }
      ],
      "name": "proposals",
      "outputs": [
        {
          "internalType": "contract Proposal",
          "name": "",
          "type": "address"
        }
      ],
      "stateMutability": "view",
      "type": "function",
      "constant": true
    },
    {
      "inputs": [
        {
          "internalType": "uint256",
          "name": "_target",
          "type": "uint256"
        },
        {
          "internalType": "string",
          "name": "_title",
          "type": "string"
        },
        {
          "internalType": "string",
          "name": "_des",
          "type": "string"
        },
        {
          "internalType": "uint256",
          "name": "_interval",
          "type": "uint256"
        }
      ],
      "name": "createProject",
      "outputs": [],
      "stateMutability": "nonpayable",
      "type": "function"
    },
    {
      "inputs": [
        {
          "internalType": "uint256",
          "name": "projID",
          "type": "uint256"
        }
      ],
      "name": "investProject",
      "outputs": [],
      "stateMutability": "payable",
      "type": "function",
      "payable": true
    },
    {
      "inputs": [
        {
          "internalType": "uint256",
          "name": "projID",
          "type": "uint256"
        }
      ],
      "name": "getBalanceOfProject",
      "outputs": [
        {
          "internalType": "uint256",
          "name": "",
          "type": "uint256"
        }
      ],
      "stateMutability": "view",
      "type": "function",
      "constant": true
    },
    {
      "inputs": [],
      "name": "getAllProjects",
      "outputs": [
        {
          "internalType": "contract CrowdFundingProject[]",
          "name": "",
          "type": "address[]"
        }
      ],
      "stateMutability": "view",
      "type": "function",
      "constant": true
    },
    {
      "inputs": [
        {
          "internalType": "address payable",
          "name": "to",
          "type": "address"
        },
        {
          "internalType": "uint256",
          "name": "projID",
          "type": "uint256"
        },
        {
          "internalType": "uint256",
          "name": "amount",
          "type": "uint256"
        },
        {
          "internalType": "string",
          "name": "title",
          "type": "string"
        },
        {
          "internalType": "string",
          "name": "description",
          "type": "string"
        }
      ],
      "name": "raiseProposal",
      "outputs": [],
      "stateMutability": "nonpayable",
      "type": "function"
    },
    {
      "inputs": [
        {
          "internalType": "uint256",
          "name": "propID",
          "type": "uint256"
        }
      ],
      "name": "voteForProposal",
      "outputs": [],
      "stateMutability": "nonpayable",
      "type": "function"
    },
    {
      "inputs": [
        {
          "internalType": "uint256",
          "name": "propID",
          "type": "uint256"
        }
      ],
      "name": "transferForProposal",
      "outputs": [],
      "stateMutability": "payable",
      "type": "function",
      "payable": true
    }
  ],
  "bytecode": "0x608060405234801561001057600080fd5b5061441f806100206000396000f3fe608060405260043610620000925760003560e01c80636426b24e11620000615780636426b24e146200019157806380d0382914620001bf57806389898ef514620001ef578063938f1813146200021d578063b3a4faa2146200023d5762000092565b8063013cf08b1462000097578063045c6ce014620000db578063074179dc1462000109578063107046bd146200014d575b600080fd5b348015620000a457600080fd5b50620000c36004803603810190620000bd919062001c92565b6200025d565b604051620000d29190620021d0565b60405180910390f35b348015620000e857600080fd5b5062000107600480360381019062000101919062001c92565b6200029d565b005b3480156200011657600080fd5b506200013560048036038101906200012f919062001c92565b62000806565b60405162000144919062002297565b60405180910390f35b3480156200015a57600080fd5b5062000179600480360381019062000173919062001c92565b620008f5565b604051620001889190620021b3565b60405180910390f35b3480156200019e57600080fd5b50620001bd6004803603810190620001b7919062001ba9565b62000935565b005b348015620001cc57600080fd5b50620001d762000cdd565b604051620001e6919062002172565b60405180910390f35b348015620001fc57600080fd5b506200021b600480360381019062000215919062001cea565b62000d6d565b005b6200023b600480360381019062000235919062001c92565b62000e7f565b005b6200025b600480360381019062000255919062001c92565b62001849565b005b600181815481106200026e57600080fd5b906000526020600020016000915054906101000a900473ffffffffffffffffffffffffffffffffffffffff1681565b600060018281548110620002da577f4e487b7100000000000000000000000000000000000000000000000000000000600052603260045260246000fd5b9060005260206000200160009054906101000a900473ffffffffffffffffffffffffffffffffffffffff1690506000808273ffffffffffffffffffffffffffffffffffffffff16639c30ea516040518163ffffffff1660e01b815260040160206040518083038186803b1580156200035157600080fd5b505afa15801562000366573d6000803e3d6000fd5b505050506040513d601f19601f820116820180604052508101906200038c919062001cbe565b81548110620003c4577f4e487b7100000000000000000000000000000000000000000000000000000000600052603260045260246000fd5b9060005260206000200160009054906101000a900473ffffffffffffffffffffffffffffffffffffffff16905060008273ffffffffffffffffffffffffffffffffffffffff16634560a15d338473ffffffffffffffffffffffffffffffffffffffff166396b98862336040518263ffffffff1660e01b81526004016200044b91906200203f565b60206040518083038186803b1580156200046457600080fd5b505afa15801562000479573d6000803e3d6000fd5b505050506040513d601f19601f820116820180604052508101906200049f919062001cbe565b8573ffffffffffffffffffffffffffffffffffffffff1663953b8fb86040518163ffffffff1660e01b815260040160206040518083038186803b158015620004e657600080fd5b505afa158015620004fb573d6000803e3d6000fd5b505050506040513d601f19601f8201168201806040525081019062000521919062001cbe565b6040518463ffffffff1660e01b8152600401620005419392919062002135565b602060405180830381600087803b1580156200055c57600080fd5b505af115801562000571573d6000803e3d6000fd5b505050506040513d601f19601f8201168201806040525081019062000597919062001c66565b90506001151581151514156200080057838273ffffffffffffffffffffffffffffffffffffffff16639c30ea516040518163ffffffff1660e01b815260040160206040518083038186803b158015620005ef57600080fd5b505afa15801562000604573d6000803e3d6000fd5b505050506040513d601f19601f820116820180604052508101906200062a919062001cbe565b8373ffffffffffffffffffffffffffffffffffffffff16635c39fcc16040518163ffffffff1660e01b815260040160206040518083038186803b1580156200067157600080fd5b505afa15801562000686573d6000803e3d6000fd5b505050506040513d601f19601f82011682018060405250810190620006ac919062001b7d565b73ffffffffffffffffffffffffffffffffffffffff167fe236f3dba82f27cef8b106f29a79d0d358b14ace15a53569970c3b073ccaa8758673ffffffffffffffffffffffffffffffffffffffff1663131519816040518163ffffffff1660e01b815260040160206040518083038186803b1580156200072a57600080fd5b505afa1580156200073f573d6000803e3d6000fd5b505050506040513d601f19601f8201168201806040525081019062000765919062001b7d565b8773ffffffffffffffffffffffffffffffffffffffff1663aa8c217c6040518163ffffffff1660e01b815260040160206040518083038186803b158015620007ac57600080fd5b505afa158015620007c1573d6000803e3d6000fd5b505050506040513d601f19601f82011682018060405250810190620007e7919062001cbe565b604051620007f79291906200205c565b60405180910390a45b50505050565b600080828154811062000842577f4e487b7100000000000000000000000000000000000000000000000000000000600052603260045260246000fd5b9060005260206000200160009054906101000a900473ffffffffffffffffffffffffffffffffffffffff1673ffffffffffffffffffffffffffffffffffffffff1663b69ef8a86040518163ffffffff1660e01b815260040160206040518083038186803b158015620008b357600080fd5b505afa158015620008c8573d6000803e3d6000fd5b505050506040513d601f19601f82011682018060405250810190620008ee919062001cbe565b9050919050565b600081815481106200090657600080fd5b906000526020600020016000915054906101000a900473ffffffffffffffffffffffffffffffffffffffff1681565b600115156000878154811062000974577f4e487b7100000000000000000000000000000000000000000000000000000000600052603260045260246000fd5b9060005260206000200160009054906101000a900473ffffffffffffffffffffffffffffffffffffffff1673ffffffffffffffffffffffffffffffffffffffff166347535d7b6040518163ffffffff1660e01b815260040160206040518083038186803b158015620009e557600080fd5b505afa158015620009fa573d6000803e3d6000fd5b505050506040513d601f19601f8201168201806040525081019062000a20919062001c66565b15151462000a65576040517f08c379a000000000000000000000000000000000000000000000000000000000815260040162000a5c90620021ed565b60405180910390fd5b3373ffffffffffffffffffffffffffffffffffffffff166000878154811062000ab7577f4e487b7100000000000000000000000000000000000000000000000000000000600052603260045260246000fd5b9060005260206000200160009054906101000a900473ffffffffffffffffffffffffffffffffffffffff1673ffffffffffffffffffffffffffffffffffffffff16635c39fcc16040518163ffffffff1660e01b815260040160206040518083038186803b15801562000b2857600080fd5b505afa15801562000b3d573d6000803e3d6000fd5b505050506040513d601f19601f8201168201806040525081019062000b63919062001b7d565b73ffffffffffffffffffffffffffffffffffffffff161462000bbc576040517f08c379a000000000000000000000000000000000000000000000000000000000815260040162000bb39062002275565b60405180910390fd5b60008760018054905088888888888860405162000bd99062001aa1565b62000bec98979695949392919062002089565b604051809103906000f08015801562000c09573d6000803e3d6000fd5b5090506001819080600181540180825580915050600190039060005260206000200160009091909190916101000a81548173ffffffffffffffffffffffffffffffffffffffff021916908373ffffffffffffffffffffffffffffffffffffffff1602179055506001808054905062000c8291906200237d565b873373ffffffffffffffffffffffffffffffffffffffff167fad599cfe9d680fad26cedc321f8f92b6e3dae1c88a64d1242766487ec977545d8960405162000ccb919062002297565b60405180910390a45050505050505050565b6060600080548060200260200160405190810160405280929190818152602001828054801562000d6357602002820191906000526020600020905b8160009054906101000a900473ffffffffffffffffffffffffffffffffffffffff1673ffffffffffffffffffffffffffffffffffffffff168152602001906001019080831162000d18575b5050505050905090565b600080805490503388888888888860405162000d899062001aaf565b62000d9c989796959493929190620022b4565b604051809103906000f08015801562000db9573d6000803e3d6000fd5b5090506000819080600181540180825580915050600190039060005260206000200160009091909190916101000a81548173ffffffffffffffffffffffffffffffffffffffff021916908373ffffffffffffffffffffffffffffffffffffffff160217905550600160008054905062000e3391906200237d565b3373ffffffffffffffffffffffffffffffffffffffff167fa175ba4c2d4faa174fa933f9200abefdd3c9cc7d3928ec6ccd6aafde3015c01260405160405180910390a350505050505050565b6001818154811062000eba577f4e487b7100000000000000000000000000000000000000000000000000000000600052603260045260246000fd5b9060005260206000200160009054906101000a900473ffffffffffffffffffffffffffffffffffffffff1673ffffffffffffffffffffffffffffffffffffffff16637b3529626040518163ffffffff1660e01b815260040160206040518083038186803b15801562000f2b57600080fd5b505afa15801562000f40573d6000803e3d6000fd5b505050506040513d601f19601f8201168201806040525081019062000f66919062001c66565b1562000fa9576040517f08c379a000000000000000000000000000000000000000000000000000000000815260040162000fa0906200220f565b60405180910390fd5b6001818154811062000fe4577f4e487b7100000000000000000000000000000000000000000000000000000000600052603260045260246000fd5b9060005260206000200160009054906101000a900473ffffffffffffffffffffffffffffffffffffffff1673ffffffffffffffffffffffffffffffffffffffff1663aa8c217c6040518163ffffffff1660e01b815260040160206040518083038186803b1580156200105557600080fd5b505afa1580156200106a573d6000803e3d6000fd5b505050506040513d601f19601f8201168201806040525081019062001090919062001cbe565b3414620010d4576040517f08c379a0000000000000000000000000000000000000000000000000000000008152600401620010cb9062002231565b60405180910390fd5b600181815481106200110f577f4e487b7100000000000000000000000000000000000000000000000000000000600052603260045260246000fd5b9060005260206000200160009054906101000a900473ffffffffffffffffffffffffffffffffffffffff1673ffffffffffffffffffffffffffffffffffffffff166328f371aa6040518163ffffffff1660e01b815260040160206040518083038186803b1580156200118057600080fd5b505afa15801562001195573d6000803e3d6000fd5b505050506040513d601f19601f82011682018060405250810190620011bb919062001c66565b620011fd576040517f08c379a0000000000000000000000000000000000000000000000000000000008152600401620011f49062002253565b60405180910390fd5b6001818154811062001238577f4e487b7100000000000000000000000000000000000000000000000000000000600052603260045260246000fd5b9060005260206000200160009054906101000a900473ffffffffffffffffffffffffffffffffffffffff1673ffffffffffffffffffffffffffffffffffffffff1663131519816040518163ffffffff1660e01b815260040160206040518083038186803b158015620012a957600080fd5b505afa158015620012be573d6000803e3d6000fd5b505050506040513d601f19601f82011682018060405250810190620012e4919062001b7d565b73ffffffffffffffffffffffffffffffffffffffff166108fc349081150290604051600060405180830381858888f193505050501580156200132a573d6000803e3d6000fd5b5060006001828154811062001368577f4e487b7100000000000000000000000000000000000000000000000000000000600052603260045260246000fd5b9060005260206000200160009054906101000a900473ffffffffffffffffffffffffffffffffffffffff1690506000808273ffffffffffffffffffffffffffffffffffffffff16639c30ea516040518163ffffffff1660e01b815260040160206040518083038186803b158015620013df57600080fd5b505afa158015620013f4573d6000803e3d6000fd5b505050506040513d601f19601f820116820180604052508101906200141a919062001cbe565b8154811062001452577f4e487b7100000000000000000000000000000000000000000000000000000000600052603260045260246000fd5b9060005260206000200160009054906101000a900473ffffffffffffffffffffffffffffffffffffffff1690508173ffffffffffffffffffffffffffffffffffffffff16638b1ed8e960016040518263ffffffff1660e01b8152600401620014bb919062002196565b600060405180830381600087803b158015620014d657600080fd5b505af1158015620014eb573d6000803e3d6000fd5b505050508073ffffffffffffffffffffffffffffffffffffffff1663fb1669ca348373ffffffffffffffffffffffffffffffffffffffff1663b69ef8a86040518163ffffffff1660e01b815260040160206040518083038186803b1580156200155357600080fd5b505afa15801562001568573d6000803e3d6000fd5b505050506040513d601f19601f820116820180604052508101906200158e919062001cbe565b6200159a91906200237d565b6040518263ffffffff1660e01b8152600401620015b8919062002297565b600060405180830381600087803b158015620015d357600080fd5b505af1158015620015e8573d6000803e3d6000fd5b50505050828173ffffffffffffffffffffffffffffffffffffffff16639c30ea516040518163ffffffff1660e01b815260040160206040518083038186803b1580156200163457600080fd5b505afa15801562001649573d6000803e3d6000fd5b505050506040513d601f19601f820116820180604052508101906200166f919062001cbe565b8273ffffffffffffffffffffffffffffffffffffffff16635c39fcc16040518163ffffffff1660e01b815260040160206040518083038186803b158015620016b657600080fd5b505afa158015620016cb573d6000803e3d6000fd5b505050506040513d601f19601f82011682018060405250810190620016f1919062001b7d565b73ffffffffffffffffffffffffffffffffffffffff167fe593771a8347131048ea04eb12729eabf754dd4a703ebe86c238a36fab819c538573ffffffffffffffffffffffffffffffffffffffff1663131519816040518163ffffffff1660e01b815260040160206040518083038186803b1580156200176f57600080fd5b505afa15801562001784573d6000803e3d6000fd5b505050506040513d601f19601f82011682018060405250810190620017aa919062001b7d565b8673ffffffffffffffffffffffffffffffffffffffff1663aa8c217c6040518163ffffffff1660e01b815260040160206040518083038186803b158015620017f157600080fd5b505afa15801562001806573d6000803e3d6000fd5b505050506040513d601f19601f820116820180604052508101906200182c919062001cbe565b6040516200183c9291906200205c565b60405180910390a4505050565b6000818154811062001884577f4e487b7100000000000000000000000000000000000000000000000000000000600052603260045260246000fd5b9060005260206000200160009054906101000a900473ffffffffffffffffffffffffffffffffffffffff1673ffffffffffffffffffffffffffffffffffffffff16635c39fcc16040518163ffffffff1660e01b815260040160206040518083038186803b158015620018f557600080fd5b505afa1580156200190a573d6000803e3d6000fd5b505050506040513d601f19601f8201168201806040525081019062001930919062001b7d565b73ffffffffffffffffffffffffffffffffffffffff166108fc349081150290604051600060405180830381858888f1935050505015801562001976573d6000803e3d6000fd5b5060008181548110620019b2577f4e487b7100000000000000000000000000000000000000000000000000000000600052603260045260246000fd5b9060005260206000200160009054906101000a900473ffffffffffffffffffffffffffffffffffffffff1673ffffffffffffffffffffffffffffffffffffffff1663b9b8c24633346040518363ffffffff1660e01b815260040162001a1992919062002108565b600060405180830381600087803b15801562001a3457600080fd5b505af115801562001a49573d6000803e3d6000fd5b50505050803373ffffffffffffffffffffffffffffffffffffffff167f86b13d3e4633165ee656f5dee6e15b308e929b9e64cf116fcee576b344c48a243460405162001a96919062002297565b60405180910390a350565b610e0b806200254083390190565b61109f806200334b83390190565b60008135905062001ace81620024f1565b92915050565b60008151905062001ae581620024f1565b92915050565b60008151905062001afc816200250b565b92915050565b60008083601f84011262001b1557600080fd5b8235905067ffffffffffffffff81111562001b2f57600080fd5b60208301915083600182028301111562001b4857600080fd5b9250929050565b60008135905062001b608162002525565b92915050565b60008151905062001b778162002525565b92915050565b60006020828403121562001b9057600080fd5b600062001ba08482850162001ad4565b91505092915050565b600080600080600080600060a0888a03121562001bc557600080fd5b600062001bd58a828b0162001abd565b975050602062001be88a828b0162001b4f565b965050604062001bfb8a828b0162001b4f565b955050606088013567ffffffffffffffff81111562001c1957600080fd5b62001c278a828b0162001b02565b9450945050608088013567ffffffffffffffff81111562001c4757600080fd5b62001c558a828b0162001b02565b925092505092959891949750929550565b60006020828403121562001c7957600080fd5b600062001c898482850162001aeb565b91505092915050565b60006020828403121562001ca557600080fd5b600062001cb58482850162001b4f565b91505092915050565b60006020828403121562001cd157600080fd5b600062001ce18482850162001b66565b91505092915050565b6000806000806000806080878903121562001d0457600080fd5b600062001d1489828a0162001b4f565b965050602087013567ffffffffffffffff81111562001d3257600080fd5b62001d4089828a0162001b02565b9550955050604087013567ffffffffffffffff81111562001d6057600080fd5b62001d6e89828a0162001b02565b9350935050606062001d8389828a0162001b4f565b9150509295509295509295565b600062001d9e838362001e58565b60208301905092915050565b62001db58162002416565b82525050565b62001dc681620023cc565b82525050565b62001dd781620023b8565b82525050565b600062001dea8262002343565b62001df681856200235b565b935062001e038362002333565b8060005b8381101562001e3a57815162001e1e888262001d90565b975062001e2b836200234e565b92505060018101905062001e07565b5085935050505092915050565b62001e5281620023e0565b82525050565b62001e63816200242a565b82525050565b62001e74816200242a565b82525050565b62001e858162002452565b82525050565b600062001e9983856200236c565b935062001ea8838584620024a2565b62001eb383620024e0565b840190509392505050565b600062001ecd6015836200236c565b91507f5468652050726f6a65637420697320636c6f73656400000000000000000000006000830152602082019050919050565b600062001f0f6019836200236c565b91507f546869732070726f706f73616c2069732066696e6973686564000000000000006000830152602082019050919050565b600062001f516012836200236c565b91507f496e636f6e73697374656e742076616c756500000000000000000000000000006000830152602082019050919050565b600062001f936014836200236c565b91507f556e617070726f766564207472616e736665722e0000000000000000000000006000830152602082019050919050565b600062001fd56023836200236c565b91507f546865206d73672e73656e646572206973206e6f742074686520696e6974696160008301527f746f7200000000000000000000000000000000000000000000000000000000006020830152604082019050919050565b62002039816200240c565b82525050565b600060208201905062002056600083018462001dcc565b92915050565b600060408201905062002073600083018562001daa565b6200208260208301846200202e565b9392505050565b600060c082019050620020a0600083018b62001dbb565b620020af602083018a6200202e565b620020be60408301896200202e565b620020cd60608301886200202e565b8181036080830152620020e281868862001e8b565b905081810360a0830152620020f981848662001e8b565b90509998505050505050505050565b60006040820190506200211f600083018562001dcc565b6200212e60208301846200202e565b9392505050565b60006060820190506200214c600083018662001dcc565b6200215b60208301856200202e565b6200216a60408301846200202e565b949350505050565b600060208201905081810360008301526200218e818462001ddd565b905092915050565b6000602082019050620021ad600083018462001e47565b92915050565b6000602082019050620021ca600083018462001e69565b92915050565b6000602082019050620021e7600083018462001e7a565b92915050565b60006020820190508181036000830152620022088162001ebe565b9050919050565b600060208201905081810360008301526200222a8162001f00565b9050919050565b600060208201905081810360008301526200224c8162001f42565b9050919050565b600060208201905081810360008301526200226e8162001f84565b9050919050565b60006020820190508181036000830152620022908162001fc6565b9050919050565b6000602082019050620022ae60008301846200202e565b92915050565b600060c082019050620022cb600083018b6200202e565b620022da602083018a62001dbb565b620022e960408301896200202e565b8181036060830152620022fe81878962001e8b565b905081810360808301526200231581858762001e8b565b90506200232660a08301846200202e565b9998505050505050505050565b6000819050602082019050919050565b600081519050919050565b6000602082019050919050565b600082825260208201905092915050565b600082825260208201905092915050565b60006200238a826200240c565b915062002397836200240c565b925082821015620023ad57620023ac620024b1565b5b828203905092915050565b6000620023c582620023ec565b9050919050565b6000620023d982620023ec565b9050919050565b60008115159050919050565b600073ffffffffffffffffffffffffffffffffffffffff82169050919050565b6000819050919050565b600062002423826200247a565b9050919050565b600062002437826200243e565b9050919050565b60006200244b82620023ec565b9050919050565b60006200245f8262002466565b9050919050565b60006200247382620023ec565b9050919050565b600062002487826200248e565b9050919050565b60006200249b82620023ec565b9050919050565b82818337600083830152505050565b7f4e487b7100000000000000000000000000000000000000000000000000000000600052601160045260246000fd5b6000601f19601f8301169050919050565b620024fc81620023cc565b81146200250857600080fd5b50565b6200251681620023e0565b81146200252257600080fd5b50565b62002530816200240c565b81146200253c57600080fd5b5056fe60806040523480156200001157600080fd5b5060405162000e0b38038062000e0b833981810160405281019062000037919062000257565b60008060006101000a81548160ff02191690831515021790555060008060016101000a81548160ff02191690831515021790555084600181905550836002819055508260038190555060006004819055508160059080519060200190620000a092919062000107565b508060069080519060200190620000b992919062000107565b5085600760006101000a81548173ffffffffffffffffffffffffffffffffffffffff021916908373ffffffffffffffffffffffffffffffffffffffff160217905550505050505050620004c2565b8280546200011590620003fa565b90600052602060002090601f01602090048101928262000139576000855562000185565b82601f106200015457805160ff191683800117855562000185565b8280016001018555821562000185579182015b828111156200018457825182559160200191906001019062000167565b5b50905062000194919062000198565b5090565b5b80821115620001b357600081600090555060010162000199565b5090565b6000620001ce620001c88462000353565b6200031f565b905082815260208101848484011115620001e757600080fd5b620001f4848285620003c4565b509392505050565b6000815190506200020d816200048e565b92915050565b600082601f8301126200022557600080fd5b815162000237848260208601620001b7565b91505092915050565b6000815190506200025181620004a8565b92915050565b60008060008060008060c087890312156200027157600080fd5b60006200028189828a01620001fc565b96505060206200029489828a0162000240565b9550506040620002a789828a0162000240565b9450506060620002ba89828a0162000240565b935050608087015167ffffffffffffffff811115620002d857600080fd5b620002e689828a0162000213565b92505060a087015167ffffffffffffffff8111156200030457600080fd5b6200031289828a0162000213565b9150509295509295509295565b6000604051905081810181811067ffffffffffffffff821117156200034957620003486200045f565b5b8060405250919050565b600067ffffffffffffffff8211156200037157620003706200045f565b5b601f19601f8301169050602081019050919050565b600062000393826200039a565b9050919050565b600073ffffffffffffffffffffffffffffffffffffffff82169050919050565b6000819050919050565b60005b83811015620003e4578082015181840152602081019050620003c7565b83811115620003f4576000848401525b50505050565b600060028204905060018216806200041357607f821691505b602082108114156200042a576200042962000430565b5b50919050565b7f4e487b7100000000000000000000000000000000000000000000000000000000600052602260045260246000fd5b7f4e487b7100000000000000000000000000000000000000000000000000000000600052604160045260246000fd5b620004998162000386565b8114620004a557600080fd5b50565b620004b381620003ba565b8114620004bf57600080fd5b50565b61093980620004d26000396000f3fe608060405234801561001057600080fd5b50600436106100b45760003560e01c80637284e416116100715780637284e4161461017f5780637b3529621461019d5780638b1ed8e9146101bb5780639c30ea51146101d7578063aa8c217c146101f5578063f8993a0414610213576100b4565b80630eab7d59146100b957806313151981146100d757806328f371aa146100f5578063371fa854146101135780634560a15d146101315780634a79d50c14610161575b600080fd5b6100c1610231565b6040516100ce91906106a9565b60405180910390f35b6100df610237565b6040516100ec9190610651565b60405180910390f35b6100fd61025d565b60405161010a919061066c565b60405180910390f35b61011b610270565b60405161012891906106a9565b60405180910390f35b61014b60048036038101906101469190610573565b610276565b604051610158919061066c565b60405180910390f35b61016961038b565b6040516101769190610687565b60405180910390f35b610187610419565b6040516101949190610687565b60405180910390f35b6101a56104a7565b6040516101b2919061066c565b60405180910390f35b6101d560048036038101906101d091906105c2565b6104b8565b005b6101df6104d4565b6040516101ec91906106a9565b60405180910390f35b6101fd6104da565b60405161020a91906106a9565b60405180910390f35b61021b6104e0565b604051610228919061066c565b60405180910390f35b60045481565b600760009054906101000a900473ffffffffffffffffffffffffffffffffffffffff1681565b600060019054906101000a900460ff1681565b60015481565b6000801515600860008673ffffffffffffffffffffffffffffffffffffffff1673ffffffffffffffffffffffffffffffffffffffff16815260200190815260200160002060009054906101000a900460ff161515146102d457600080fd5b6001600860008673ffffffffffffffffffffffffffffffffffffffff1673ffffffffffffffffffffffffffffffffffffffff16815260200190815260200160002060006101000a81548160ff021916908315150217905550826004600082825461033e91906106e0565b925050819055508160026004546103559190610736565b111561037f576001600060016101000a81548160ff02191690831515021790555060019050610384565b600090505b9392505050565b600580546103989061081d565b80601f01602080910402602001604051908101604052809291908181526020018280546103c49061081d565b80156104115780601f106103e657610100808354040283529160200191610411565b820191906000526020600020905b8154815290600101906020018083116103f457829003601f168201915b505050505081565b600680546104269061081d565b80601f01602080910402602001604051908101604052809291908181526020018280546104529061081d565b801561049f5780601f106104745761010080835404028352916020019161049f565b820191906000526020600020905b81548152906001019060200180831161048257829003601f168201915b505050505081565b60008054906101000a900460ff1681565b806000806101000a81548160ff02191690831515021790555050565b60025481565b60035481565b6000600860003373ffffffffffffffffffffffffffffffffffffffff1673ffffffffffffffffffffffffffffffffffffffff16815260200190815260200160002060009054906101000a900460ff16905090565b600081359050610543816108be565b92915050565b600081359050610558816108d5565b92915050565b60008135905061056d816108ec565b92915050565b60008060006060848603121561058857600080fd5b600061059686828701610534565b93505060206105a78682870161055e565b92505060406105b88682870161055e565b9150509250925092565b6000602082840312156105d457600080fd5b60006105e284828501610549565b91505092915050565b6105f4816107a2565b82525050565b610603816107b4565b82525050565b6000610614826106c4565b61061e81856106cf565b935061062e8185602086016107ea565b610637816108ad565b840191505092915050565b61064b816107e0565b82525050565b600060208201905061066660008301846105eb565b92915050565b600060208201905061068160008301846105fa565b92915050565b600060208201905081810360008301526106a18184610609565b905092915050565b60006020820190506106be6000830184610642565b92915050565b600081519050919050565b600082825260208201905092915050565b60006106eb826107e0565b91506106f6836107e0565b9250827fffffffffffffffffffffffffffffffffffffffffffffffffffffffffffffffff0382111561072b5761072a61084f565b5b828201905092915050565b6000610741826107e0565b915061074c836107e0565b9250817fffffffffffffffffffffffffffffffffffffffffffffffffffffffffffffffff04831182151516156107855761078461084f565b5b828202905092915050565b600061079b826107c0565b9050919050565b60006107ad826107c0565b9050919050565b60008115159050919050565b600073ffffffffffffffffffffffffffffffffffffffff82169050919050565b6000819050919050565b60005b838110156108085780820151818401526020810190506107ed565b83811115610817576000848401525b50505050565b6000600282049050600182168061083557607f821691505b602082108114156108495761084861087e565b5b50919050565b7f4e487b7100000000000000000000000000000000000000000000000000000000600052601160045260246000fd5b7f4e487b7100000000000000000000000000000000000000000000000000000000600052602260045260246000fd5b6000601f19601f8301169050919050565b6108c781610790565b81146108d257600080fd5b50565b6108de816107b4565b81146108e957600080fd5b50565b6108f5816107e0565b811461090057600080fd5b5056fea2646970667358221220c6aff5b449aa210b58628762003bb8d71e66f2ada4226456e95ca1ae00e6063064736f6c6343000800003360806040523480156200001157600080fd5b506040516200109f3803806200109f83398181016040528101906200003791906200024a565b60016000806101000a81548160ff0219169083151502179055508560018190555084600260006101000a81548173ffffffffffffffffffffffffffffffffffffffff021916908373ffffffffffffffffffffffffffffffffffffffff1602179055508260039080519060200190620000b1929190620000fa565b508160049080519060200190620000ca929190620000fa565b508360058190555060006006819055508042620000e8919062000379565b60078190555050505050505062000541565b82805462000108906200044a565b90600052602060002090601f0160209004810192826200012c576000855562000178565b82601f106200014757805160ff191683800117855562000178565b8280016001018555821562000178579182015b82811115620001775782518255916020019190600101906200015a565b5b5090506200018791906200018b565b5090565b5b80821115620001a65760008160009055506001016200018c565b5090565b6000620001c1620001bb8462000346565b62000312565b905082815260208101848484011115620001da57600080fd5b620001e784828562000414565b509392505050565b60008151905062000200816200050d565b92915050565b600082601f8301126200021857600080fd5b81516200022a848260208601620001aa565b91505092915050565b600081519050620002448162000527565b92915050565b60008060008060008060c087890312156200026457600080fd5b60006200027489828a0162000233565b96505060206200028789828a01620001ef565b95505060406200029a89828a0162000233565b945050606087015167ffffffffffffffff811115620002b857600080fd5b620002c689828a0162000206565b935050608087015167ffffffffffffffff811115620002e457600080fd5b620002f289828a0162000206565b92505060a06200030589828a0162000233565b9150509295509295509295565b6000604051905081810181811067ffffffffffffffff821117156200033c576200033b620004de565b5b8060405250919050565b600067ffffffffffffffff821115620003645762000363620004de565b5b601f19601f8301169050602081019050919050565b600062000386826200040a565b915062000393836200040a565b9250827fffffffffffffffffffffffffffffffffffffffffffffffffffffffffffffffff03821115620003cb57620003ca62000480565b5b828201905092915050565b6000620003e382620003ea565b9050919050565b600073ffffffffffffffffffffffffffffffffffffffff82169050919050565b6000819050919050565b60005b838110156200043457808201518184015260208101905062000417565b8381111562000444576000848401525b50505050565b600060028204905060018216806200046357607f821691505b602082108114156200047a5762000479620004af565b5b50919050565b7f4e487b7100000000000000000000000000000000000000000000000000000000600052601160045260246000fd5b7f4e487b7100000000000000000000000000000000000000000000000000000000600052602260045260246000fd5b7f4e487b7100000000000000000000000000000000000000000000000000000000600052604160045260246000fd5b6200051881620003d6565b81146200052457600080fd5b50565b62000532816200040a565b81146200053e57600080fd5b50565b610b4e80620005516000396000f3fe60806040526004361061009c5760003560e01c8063953b8fb811610064578063953b8fb81461017857806396b98862146101a35780639c30ea51146101e0578063b69ef8a81461020b578063b9b8c24614610236578063fb1669ca146102525761009c565b80633197cbb6146100a157806347535d7b146100cc5780634a79d50c146100f75780635c39fcc1146101225780637284e4161461014d575b600080fd5b3480156100ad57600080fd5b506100b661027b565b6040516100c391906108fb565b60405180910390f35b3480156100d857600080fd5b506100e1610281565b6040516100ee919061085e565b60405180910390f35b34801561010357600080fd5b5061010c610292565b6040516101199190610879565b60405180910390f35b34801561012e57600080fd5b50610137610320565b6040516101449190610843565b60405180910390f35b34801561015957600080fd5b50610162610346565b60405161016f9190610879565b60405180910390f35b34801561018457600080fd5b5061018d6103d4565b60405161019a91906108fb565b60405180910390f35b3480156101af57600080fd5b506101ca60048036038101906101c5919061068f565b6103da565b6040516101d791906108fb565b60405180910390f35b3480156101ec57600080fd5b506101f56103f2565b60405161020291906108fb565b60405180910390f35b34801561021757600080fd5b506102206103f8565b60405161022d91906108fb565b60405180910390f35b610250600480360381019061024b91906106b8565b6103fe565b005b34801561025e57600080fd5b50610279600480360381019061027491906106f4565b61065b565b005b60075481565b60008054906101000a900460ff1681565b6003805461029f90610a49565b80601f01602080910402602001604051908101604052809291908181526020018280546102cb90610a49565b80156103185780601f106102ed57610100808354040283529160200191610318565b820191906000526020600020905b8154815290600101906020018083116102fb57829003601f168201915b505050505081565b600260009054906101000a900473ffffffffffffffffffffffffffffffffffffffff1681565b6004805461035390610a49565b80601f016020809104026020016040519081016040528092919081815260200182805461037f90610a49565b80156103cc5780601f106103a1576101008083540402835291602001916103cc565b820191906000526020600020905b8154815290600101906020018083116103af57829003601f168201915b505050505081565b60055481565b60096020528060005260406000206000915090505481565b60015481565b60065481565b60008054906101000a900460ff1661044b576040517f08c379a0000000000000000000000000000000000000000000000000000000008152600401610442906108bb565b60405180910390fd5b600754421115610490576040517f08c379a0000000000000000000000000000000000000000000000000000000008152600401610487906108bb565b60405180910390fd5b8173ffffffffffffffffffffffffffffffffffffffff16318111156104ea576040517f08c379a00000000000000000000000000000000000000000000000000000000081526004016104e19061089b565b60405180910390fd5b6006546005546104fa9190610988565b81111561053c576040517f08c379a0000000000000000000000000000000000000000000000000000000008152600401610533906108db565b60405180910390fd5b806006600082825461054e9190610932565b925050819055506000600960008473ffffffffffffffffffffffffffffffffffffffff1673ffffffffffffffffffffffffffffffffffffffff168152602001908152602001600020541415610601576008829080600181540180825580915050600190039060005260206000200160009091909190916101000a81548173ffffffffffffffffffffffffffffffffffffffff021916908373ffffffffffffffffffffffffffffffffffffffff1602179055505b80600960008473ffffffffffffffffffffffffffffffffffffffff1673ffffffffffffffffffffffffffffffffffffffff16815260200190815260200160002060008282546106509190610932565b925050819055505050565b8060068190555050565b60008135905061067481610aea565b92915050565b60008135905061068981610b01565b92915050565b6000602082840312156106a157600080fd5b60006106af84828501610665565b91505092915050565b600080604083850312156106cb57600080fd5b60006106d985828601610665565b92505060206106ea8582860161067a565b9150509250929050565b60006020828403121561070657600080fd5b60006107148482850161067a565b91505092915050565b610726816109ce565b82525050565b610735816109e0565b82525050565b600061074682610916565b6107508185610921565b9350610760818560208601610a16565b61076981610ad9565b840191505092915050565b6000610781601483610921565b91507f4574686572206973206e6f7420656e6f7567682e0000000000000000000000006000830152602082019050919050565b60006107c1601883610921565b91507f546869732070726f6a6563742068617320636c6f7365642e00000000000000006000830152602082019050919050565b6000610801601083610921565b91507f546f6f206d756368204574686572732e000000000000000000000000000000006000830152602082019050919050565b61083d81610a0c565b82525050565b6000602082019050610858600083018461071d565b92915050565b6000602082019050610873600083018461072c565b92915050565b60006020820190508181036000830152610893818461073b565b905092915050565b600060208201905081810360008301526108b481610774565b9050919050565b600060208201905081810360008301526108d4816107b4565b9050919050565b600060208201905081810360008301526108f4816107f4565b9050919050565b60006020820190506109106000830184610834565b92915050565b600081519050919050565b600082825260208201905092915050565b600061093d82610a0c565b915061094883610a0c565b9250827fffffffffffffffffffffffffffffffffffffffffffffffffffffffffffffffff0382111561097d5761097c610a7b565b5b828201905092915050565b600061099382610a0c565b915061099e83610a0c565b9250828210156109b1576109b0610a7b565b5b828203905092915050565b60006109c7826109ec565b9050919050565b60006109d9826109ec565b9050919050565b60008115159050919050565b600073ffffffffffffffffffffffffffffffffffffffff82169050919050565b6000819050919050565b60005b83811015610a34578082015181840152602081019050610a19565b83811115610a43576000848401525b50505050565b60006002820490506001821680610a6157607f821691505b60208210811415610a7557610a74610aaa565b5b50919050565b7f4e487b7100000000000000000000000000000000000000000000000000000000600052601160045260246000fd5b7f4e487b7100000000000000000000000000000000000000000000000000000000600052602260045260246000fd5b6000601f19601f8301169050919050565b610af3816109bc565b8114610afe57600080fd5b50565b610b0a81610a0c565b8114610b1557600080fd5b5056fea2646970667358221220ca1d512e74d4a8b5d8a8b5f7267e0be879e6c40d2c61e5b8cd4b4c2a6f08758a64736f6c63430008000033a26469706673582212204caafc2889dc59dc08ddb710341d10c49b9e1a2519e33a2c18b16931e633610364736f6c63430008000033",
  "immutableReferences": {},
  "source": "// SPDX-License-Identifier: MIT\r\npragma solidity >=0.7.4 <0.9.0;\r\n\r\ncontract CrowdFundings {\r\n\r\n    CrowdFundingProject[] public projects;\r\n    Proposal[] public proposals;\r\n\r\n    mapping ( address => uint[] ) investedProjects;\r\n\r\n    event projectCreated (address indexed initiator, uint indexed projectID); // To retreive all the projects created by an account\r\n    event projectInvested (address indexed investor, uint indexed projectID, uint amount); // To retreive all the projects invested by an account\r\n    event proposalRaised (address indexed initiator, uint indexed projectID, uint indexed proposalID, uint amount);\r\n    event proposalApproved (address indexed initiator, uint indexed projectID, uint indexed proposalID, address to, uint amount);\r\n    event proposalFinished (address indexed initiator, uint indexed projectID, uint indexed proposalID, address to, uint amount);\r\n    event debug (uint info);\r\n\r\n    function createProject (uint _target, string calldata _title, string calldata _des, uint _interval) external {\r\n        CrowdFundingProject proj = new CrowdFundingProject(projects.length, payable(msg.sender), _target, _title, _des, _interval);\r\n        projects.push(proj);\r\n        emit projectCreated (msg.sender, projects.length-1);\r\n    }\r\n\r\n    function investProject (uint projID) payable external {\r\n        projects[projID].initiator().transfer(msg.value);\r\n        projects[projID].invest(msg.sender, msg.value);\r\n        emit projectInvested (msg.sender, projID, msg.value);\r\n    }\r\n\r\n    function getBalanceOfProject (uint projID) view external returns (uint) {\r\n        return projects[projID].balance();\r\n    }\r\n\r\n    function getAllProjects () public view returns (CrowdFundingProject[] memory) {\r\n        return projects;\r\n    }\r\n\r\n    function raiseProposal (address payable to, uint projID, uint amount, string calldata title, string calldata description) external {\r\n        require(projects[projID].isOpen() == true, \"The Project is closed\");\r\n        require(projects[projID].initiator() == msg.sender, \"The msg.sender is not the initiator\");\r\n        Proposal prop = new Proposal(to, proposals.length, projID, amount, title, description);\r\n        proposals.push(prop);\r\n        emit proposalRaised(msg.sender, projID, proposals.length-1, amount);\r\n    }\r\n\r\n    // Vote for proposal\r\n    function voteForProposal (uint propID) external {\r\n        Proposal prop = proposals[propID];\r\n        CrowdFundingProject proj = projects[prop.projectID()];\r\n        bool isApproved = prop.voteAndCount(msg.sender, proj.investments(msg.sender), proj.targetAmount());\r\n        if (isApproved == true) emit proposalApproved(proj.initiator(), proj.projectID(), propID, prop.to(), prop.amount());\r\n    }\r\n\r\n    function transferForProposal (uint propID) payable external {\r\n        require(!proposals[propID].isFinished(), \"This proposal is finished\");\r\n        require (msg.value == proposals[propID].amount(), \"Inconsistent value\");\r\n        require (proposals[propID].isApproved(), \"Unapproved transfer.\");\r\n        proposals[propID].to().transfer(msg.value);\r\n        Proposal prop = proposals[propID];\r\n        CrowdFundingProject proj = projects[prop.projectID()];\r\n        prop.setIsFinished(true);\r\n        proj.setBalance(proj.balance()-msg.value);\r\n        emit proposalFinished(proj.initiator(), proj.projectID(), propID, prop.to(), prop.amount());\r\n    }\r\n}\r\n\r\ncontract CrowdFundingProject {\r\n    \r\n    bool public isOpen;\r\n    uint public projectID;\r\n    address payable public initiator;\r\n    string public title;\r\n    string public description;\r\n    uint public targetAmount;\r\n    uint public balance;\r\n    uint public endTime;\r\n    address[] investors;\r\n    mapping ( address => uint ) public investments;\r\n\r\n    constructor (uint _projID, address payable _initiator, uint _target, string memory _title, string memory _des, uint _interval) {\r\n        isOpen = true;\r\n        projectID = _projID;\r\n        initiator = _initiator;\r\n        title = _title;\r\n        description = _des;\r\n        targetAmount = _target;\r\n        balance = 0;\r\n        endTime = block.timestamp + _interval;\r\n    }\r\n\r\n    // Invest the project\r\n    function invest (address investor, uint amount) payable public {\r\n        require (isOpen, \"This project has closed.\");\r\n        require (block.timestamp <= endTime, \"This project has closed.\");\r\n        require (amount <= investor.balance, \"Ether is not enough.\" );\r\n        require (amount <= targetAmount - balance, \"Too much Ethers.\" );\r\n        // initiator.transfer(amount);\r\n        // payable(address(this)).transfer(amount);\r\n        balance += amount;\r\n        if (investments[investor] == 0)  investors.push(investor);\r\n        investments[investor] += amount;\r\n    }\r\n\r\n    function setBalance (uint newBalance) public {\r\n        balance = newBalance;\r\n    }\r\n\r\n}\r\n\r\ncontract Proposal {\r\n\r\n    bool public isFinished;\r\n    bool public isApproved;\r\n    uint public proposalID;\r\n    uint public projectID;\r\n    uint public amount; \r\n    uint public approvalCapital; //The capital that all the approval investors represent\r\n    string public title;\r\n    string public description;\r\n    address payable public to;\r\n    mapping (address => bool) isVoted;\r\n    \r\n    constructor (address payable _to, uint _propID, uint _projID, uint _amount, string memory _title, string memory _des) {\r\n        isFinished = false;\r\n        isApproved = false;       \r\n        proposalID = _propID;\r\n        projectID = _projID;\r\n        amount = _amount;\r\n        approvalCapital = 0;\r\n        title = _title;\r\n        description = _des;\r\n        to = _to;\r\n    }\r\n\r\n    // Vote\r\n    function voteAndCount (address voter, uint capital, uint total) public returns (bool) {\r\n        require (isVoted[voter] == false);\r\n        isVoted[voter] = true;\r\n        approvalCapital += capital;\r\n        if (approvalCapital*2 > total) { isApproved = true; return true;}\r\n        else return false;\r\n    }\r\n\r\n    function setIsFinished (bool value) public {\r\n        isFinished = value;\r\n    }\r\n\r\n    function getIsVoted () external view returns (bool){\r\n        return isVoted[msg.sender];\r\n    }\r\n\r\n}\r\n",
  "sourcePath": "D:/Code/FutureFunding/Backend/contracts/CrowdFundings.sol",
  "compiler": {
    "name": "solc",
    "version": "0.8.0+commit.c7dfd78e.Emscripten.clang"
  },
  "schemaVersion": "3.3.3",
  "updatedAt": "2021-01-12T09:51:07.818Z",
  "networkType": "ethereum",
  "devdoc": {
    "kind": "dev",
    "methods": {},
    "version": 1
  },
  "userdoc": {
    "kind": "user",
    "methods": {},
    "version": 1
  }
}