{
  "contractName": "CrowdFundingProject",
  "abi": [
    {
      "inputs": [
        {
          "internalType": "uint256",
          "name": "_projID",
          "type": "uint256"
        },
        {
          "internalType": "address payable",
          "name": "_initiator",
          "type": "address"
        },
        {
          "internalType": "uint256",
          "name": "_target",
          "type": "uint256"
        },
        {
          "internalType": "string",
          "name": "_title",
          "type": "string"
        },
        {
          "internalType": "string",
          "name": "_des",
          "type": "string"
        },
        {
          "internalType": "uint256",
          "name": "_interval",
          "type": "uint256"
        }
      ],
      "stateMutability": "nonpayable",
      "type": "constructor"
    },
    {
      "inputs": [],
      "name": "balance",
      "outputs": [
        {
          "internalType": "uint256",
          "name": "",
          "type": "uint256"
        }
      ],
      "stateMutability": "view",
      "type": "function"
    },
    {
      "inputs": [],
      "name": "description",
      "outputs": [
        {
          "internalType": "string",
          "name": "",
          "type": "string"
        }
      ],
      "stateMutability": "view",
      "type": "function"
    },
    {
      "inputs": [],
      "name": "endTime",
      "outputs": [
        {
          "internalType": "uint256",
          "name": "",
          "type": "uint256"
        }
      ],
      "stateMutability": "view",
      "type": "function"
    },
    {
      "inputs": [],
      "name": "initiator",
      "outputs": [
        {
          "internalType": "address payable",
          "name": "",
          "type": "address"
        }
      ],
      "stateMutability": "view",
      "type": "function"
    },
    {
      "inputs": [
        {
          "internalType": "address",
          "name": "",
          "type": "address"
        }
      ],
      "name": "investments",
      "outputs": [
        {
          "internalType": "uint256",
          "name": "",
          "type": "uint256"
        }
      ],
      "stateMutability": "view",
      "type": "function"
    },
    {
      "inputs": [],
      "name": "isOpen",
      "outputs": [
        {
          "internalType": "bool",
          "name": "",
          "type": "bool"
        }
      ],
      "stateMutability": "view",
      "type": "function"
    },
    {
      "inputs": [],
      "name": "projectID",
      "outputs": [
        {
          "internalType": "uint256",
          "name": "",
          "type": "uint256"
        }
      ],
      "stateMutability": "view",
      "type": "function"
    },
    {
      "inputs": [],
      "name": "targetAmount",
      "outputs": [
        {
          "internalType": "uint256",
          "name": "",
          "type": "uint256"
        }
      ],
      "stateMutability": "view",
      "type": "function"
    },
    {
      "inputs": [],
      "name": "title",
      "outputs": [
        {
          "internalType": "string",
          "name": "",
          "type": "string"
        }
      ],
      "stateMutability": "view",
      "type": "function"
    },
    {
      "inputs": [
        {
          "internalType": "address",
          "name": "investor",
          "type": "address"
        },
        {
          "internalType": "uint256",
          "name": "amount",
          "type": "uint256"
        }
      ],
      "name": "invest",
      "outputs": [],
      "stateMutability": "payable",
      "type": "function"
    },
    {
      "inputs": [
        {
          "internalType": "uint256",
          "name": "newBalance",
          "type": "uint256"
        }
      ],
      "name": "setBalance",
      "outputs": [],
      "stateMutability": "nonpayable",
      "type": "function"
    }
  ],
  "bytecode": "0x60806040523480156200001157600080fd5b506040516200109f3803806200109f83398181016040528101906200003791906200024a565b60016000806101000a81548160ff0219169083151502179055508560018190555084600260006101000a81548173ffffffffffffffffffffffffffffffffffffffff021916908373ffffffffffffffffffffffffffffffffffffffff1602179055508260039080519060200190620000b1929190620000fa565b508160049080519060200190620000ca929190620000fa565b508360058190555060006006819055508042620000e8919062000379565b60078190555050505050505062000541565b82805462000108906200044a565b90600052602060002090601f0160209004810192826200012c576000855562000178565b82601f106200014757805160ff191683800117855562000178565b8280016001018555821562000178579182015b82811115620001775782518255916020019190600101906200015a565b5b5090506200018791906200018b565b5090565b5b80821115620001a65760008160009055506001016200018c565b5090565b6000620001c1620001bb8462000346565b62000312565b905082815260208101848484011115620001da57600080fd5b620001e784828562000414565b509392505050565b60008151905062000200816200050d565b92915050565b600082601f8301126200021857600080fd5b81516200022a848260208601620001aa565b91505092915050565b600081519050620002448162000527565b92915050565b60008060008060008060c087890312156200026457600080fd5b60006200027489828a0162000233565b96505060206200028789828a01620001ef565b95505060406200029a89828a0162000233565b945050606087015167ffffffffffffffff811115620002b857600080fd5b620002c689828a0162000206565b935050608087015167ffffffffffffffff811115620002e457600080fd5b620002f289828a0162000206565b92505060a06200030589828a0162000233565b9150509295509295509295565b6000604051905081810181811067ffffffffffffffff821117156200033c576200033b620004de565b5b8060405250919050565b600067ffffffffffffffff821115620003645762000363620004de565b5b601f19601f8301169050602081019050919050565b600062000386826200040a565b915062000393836200040a565b9250827fffffffffffffffffffffffffffffffffffffffffffffffffffffffffffffffff03821115620003cb57620003ca62000480565b5b828201905092915050565b6000620003e382620003ea565b9050919050565b600073ffffffffffffffffffffffffffffffffffffffff82169050919050565b6000819050919050565b60005b838110156200043457808201518184015260208101905062000417565b8381111562000444576000848401525b50505050565b600060028204905060018216806200046357607f821691505b602082108114156200047a5762000479620004af565b5b50919050565b7f4e487b7100000000000000000000000000000000000000000000000000000000600052601160045260246000fd5b7f4e487b7100000000000000000000000000000000000000000000000000000000600052602260045260246000fd5b7f4e487b7100000000000000000000000000000000000000000000000000000000600052604160045260246000fd5b6200051881620003d6565b81146200052457600080fd5b50565b62000532816200040a565b81146200053e57600080fd5b50565b610b4e80620005516000396000f3fe60806040526004361061009c5760003560e01c8063953b8fb811610064578063953b8fb81461017857806396b98862146101a35780639c30ea51146101e0578063b69ef8a81461020b578063b9b8c24614610236578063fb1669ca146102525761009c565b80633197cbb6146100a157806347535d7b146100cc5780634a79d50c146100f75780635c39fcc1146101225780637284e4161461014d575b600080fd5b3480156100ad57600080fd5b506100b661027b565b6040516100c391906108fb565b60405180910390f35b3480156100d857600080fd5b506100e1610281565b6040516100ee919061085e565b60405180910390f35b34801561010357600080fd5b5061010c610292565b6040516101199190610879565b60405180910390f35b34801561012e57600080fd5b50610137610320565b6040516101449190610843565b60405180910390f35b34801561015957600080fd5b50610162610346565b60405161016f9190610879565b60405180910390f35b34801561018457600080fd5b5061018d6103d4565b60405161019a91906108fb565b60405180910390f35b3480156101af57600080fd5b506101ca60048036038101906101c5919061068f565b6103da565b6040516101d791906108fb565b60405180910390f35b3480156101ec57600080fd5b506101f56103f2565b60405161020291906108fb565b60405180910390f35b34801561021757600080fd5b506102206103f8565b60405161022d91906108fb565b60405180910390f35b610250600480360381019061024b91906106b8565b6103fe565b005b34801561025e57600080fd5b50610279600480360381019061027491906106f4565b61065b565b005b60075481565b60008054906101000a900460ff1681565b6003805461029f90610a49565b80601f01602080910402602001604051908101604052809291908181526020018280546102cb90610a49565b80156103185780601f106102ed57610100808354040283529160200191610318565b820191906000526020600020905b8154815290600101906020018083116102fb57829003601f168201915b505050505081565b600260009054906101000a900473ffffffffffffffffffffffffffffffffffffffff1681565b6004805461035390610a49565b80601f016020809104026020016040519081016040528092919081815260200182805461037f90610a49565b80156103cc5780601f106103a1576101008083540402835291602001916103cc565b820191906000526020600020905b8154815290600101906020018083116103af57829003601f168201915b505050505081565b60055481565b60096020528060005260406000206000915090505481565b60015481565b60065481565b60008054906101000a900460ff1661044b576040517f08c379a0000000000000000000000000000000000000000000000000000000008152600401610442906108bb565b60405180910390fd5b600754421115610490576040517f08c379a0000000000000000000000000000000000000000000000000000000008152600401610487906108bb565b60405180910390fd5b8173ffffffffffffffffffffffffffffffffffffffff16318111156104ea576040517f08c379a00000000000000000000000000000000000000000000000000000000081526004016104e19061089b565b60405180910390fd5b6006546005546104fa9190610988565b81111561053c576040517f08c379a0000000000000000000000000000000000000000000000000000000008152600401610533906108db565b60405180910390fd5b806006600082825461054e9190610932565b925050819055506000600960008473ffffffffffffffffffffffffffffffffffffffff1673ffffffffffffffffffffffffffffffffffffffff168152602001908152602001600020541415610601576008829080600181540180825580915050600190039060005260206000200160009091909190916101000a81548173ffffffffffffffffffffffffffffffffffffffff021916908373ffffffffffffffffffffffffffffffffffffffff1602179055505b80600960008473ffffffffffffffffffffffffffffffffffffffff1673ffffffffffffffffffffffffffffffffffffffff16815260200190815260200160002060008282546106509190610932565b925050819055505050565b8060068190555050565b60008135905061067481610aea565b92915050565b60008135905061068981610b01565b92915050565b6000602082840312156106a157600080fd5b60006106af84828501610665565b91505092915050565b600080604083850312156106cb57600080fd5b60006106d985828601610665565b92505060206106ea8582860161067a565b9150509250929050565b60006020828403121561070657600080fd5b60006107148482850161067a565b91505092915050565b610726816109ce565b82525050565b610735816109e0565b82525050565b600061074682610916565b6107508185610921565b9350610760818560208601610a16565b61076981610ad9565b840191505092915050565b6000610781601483610921565b91507f4574686572206973206e6f7420656e6f7567682e0000000000000000000000006000830152602082019050919050565b60006107c1601883610921565b91507f546869732070726f6a6563742068617320636c6f7365642e00000000000000006000830152602082019050919050565b6000610801601083610921565b91507f546f6f206d756368204574686572732e000000000000000000000000000000006000830152602082019050919050565b61083d81610a0c565b82525050565b6000602082019050610858600083018461071d565b92915050565b6000602082019050610873600083018461072c565b92915050565b60006020820190508181036000830152610893818461073b565b905092915050565b600060208201905081810360008301526108b481610774565b9050919050565b600060208201905081810360008301526108d4816107b4565b9050919050565b600060208201905081810360008301526108f4816107f4565b9050919050565b60006020820190506109106000830184610834565b92915050565b600081519050919050565b600082825260208201905092915050565b600061093d82610a0c565b915061094883610a0c565b9250827fffffffffffffffffffffffffffffffffffffffffffffffffffffffffffffffff0382111561097d5761097c610a7b565b5b828201905092915050565b600061099382610a0c565b915061099e83610a0c565b9250828210156109b1576109b0610a7b565b5b828203905092915050565b60006109c7826109ec565b9050919050565b60006109d9826109ec565b9050919050565b60008115159050919050565b600073ffffffffffffffffffffffffffffffffffffffff82169050919050565b6000819050919050565b60005b83811015610a34578082015181840152602081019050610a19565b83811115610a43576000848401525b50505050565b60006002820490506001821680610a6157607f821691505b60208210811415610a7557610a74610aaa565b5b50919050565b7f4e487b7100000000000000000000000000000000000000000000000000000000600052601160045260246000fd5b7f4e487b7100000000000000000000000000000000000000000000000000000000600052602260045260246000fd5b6000601f19601f8301169050919050565b610af3816109bc565b8114610afe57600080fd5b50565b610b0a81610a0c565b8114610b1557600080fd5b5056fea2646970667358221220ca1d512e74d4a8b5d8a8b5f7267e0be879e6c40d2c61e5b8cd4b4c2a6f08758a64736f6c63430008000033",
  "immutableReferences": {},
  "source": "// SPDX-License-Identifier: MIT\r\npragma solidity >=0.7.4 <0.9.0;\r\n\r\ncontract CrowdFundings {\r\n\r\n    CrowdFundingProject[] public projects;\r\n    Proposal[] public proposals;\r\n\r\n    mapping ( address => uint[] ) investedProjects;\r\n\r\n    event projectCreated (address indexed initiator, uint indexed projectID); // To retreive all the projects created by an account\r\n    event projectInvested (address indexed investor, uint indexed projectID, uint amount); // To retreive all the projects invested by an account\r\n    event proposalRaised (address indexed initiator, uint indexed projectID, uint indexed proposalID, uint amount);\r\n    event proposalApproved (address indexed initiator, uint indexed projectID, uint indexed proposalID, address to, uint amount);\r\n    event proposalFinished (address indexed initiator, uint indexed projectID, uint indexed proposalID, address to, uint amount);\r\n    event debug (uint info);\r\n\r\n    function createProject (uint _target, string calldata _title, string calldata _des, uint _interval) external {\r\n        CrowdFundingProject proj = new CrowdFundingProject(projects.length, payable(msg.sender), _target, _title, _des, _interval);\r\n        projects.push(proj);\r\n        emit projectCreated (msg.sender, projects.length-1);\r\n    }\r\n\r\n    function investProject (uint projID) payable external {\r\n        projects[projID].initiator().transfer(msg.value);\r\n        projects[projID].invest(msg.sender, msg.value);\r\n        emit projectInvested (msg.sender, projID, msg.value);\r\n    }\r\n\r\n    function getBalanceOfProject (uint projID) view external returns (uint) {\r\n        return projects[projID].balance();\r\n    }\r\n\r\n    function getAllProjects () public view returns (CrowdFundingProject[] memory) {\r\n        return projects;\r\n    }\r\n\r\n    function raiseProposal (address payable to, uint projID, uint amount, string calldata title, string calldata description) external {\r\n        require(projects[projID].isOpen() == true, \"The Project is closed\");\r\n        require(projects[projID].initiator() == msg.sender, \"The msg.sender is not the initiator\");\r\n        Proposal prop = new Proposal(to, proposals.length, projID, amount, title, description);\r\n        proposals.push(prop);\r\n        emit proposalRaised(msg.sender, projID, proposals.length-1, amount);\r\n    }\r\n\r\n    // Vote for proposal\r\n    function voteForProposal (uint propID) external {\r\n        Proposal prop = proposals[propID];\r\n        CrowdFundingProject proj = projects[prop.projectID()];\r\n        bool isApproved = prop.voteAndCount(msg.sender, proj.investments(msg.sender), proj.targetAmount());\r\n        if (isApproved == true) emit proposalApproved(proj.initiator(), proj.projectID(), propID, prop.to(), prop.amount());\r\n    }\r\n\r\n    function transferForProposal (uint propID) payable external {\r\n        require(!proposals[propID].isFinished(), \"This proposal is finished\");\r\n        require (msg.value == proposals[propID].amount(), \"Inconsistent value\");\r\n        require (proposals[propID].isApproved(), \"Unapproved transfer.\");\r\n        proposals[propID].to().transfer(msg.value);\r\n        Proposal prop = proposals[propID];\r\n        CrowdFundingProject proj = projects[prop.projectID()];\r\n        prop.setIsFinished(true);\r\n        proj.setBalance(proj.balance()-msg.value);\r\n        emit proposalFinished(proj.initiator(), proj.projectID(), propID, prop.to(), prop.amount());\r\n    }\r\n}\r\n\r\ncontract CrowdFundingProject {\r\n    \r\n    bool public isOpen;\r\n    uint public projectID;\r\n    address payable public initiator;\r\n    string public title;\r\n    string public description;\r\n    uint public targetAmount;\r\n    uint public balance;\r\n    uint public endTime;\r\n    address[] investors;\r\n    mapping ( address => uint ) public investments;\r\n\r\n    constructor (uint _projID, address payable _initiator, uint _target, string memory _title, string memory _des, uint _interval) {\r\n        isOpen = true;\r\n        projectID = _projID;\r\n        initiator = _initiator;\r\n        title = _title;\r\n        description = _des;\r\n        targetAmount = _target;\r\n        balance = 0;\r\n        endTime = block.timestamp + _interval;\r\n    }\r\n\r\n    // Invest the project\r\n    function invest (address investor, uint amount) payable public {\r\n        require (isOpen, \"This project has closed.\");\r\n        require (block.timestamp <= endTime, \"This project has closed.\");\r\n        require (amount <= investor.balance, \"Ether is not enough.\" );\r\n        require (amount <= targetAmount - balance, \"Too much Ethers.\" );\r\n        // initiator.transfer(amount);\r\n        // payable(address(this)).transfer(amount);\r\n        balance += amount;\r\n        if (investments[investor] == 0)  investors.push(investor);\r\n        investments[investor] += amount;\r\n    }\r\n\r\n    function setBalance (uint newBalance) public {\r\n        balance = newBalance;\r\n    }\r\n\r\n}\r\n\r\ncontract Proposal {\r\n\r\n    bool public isFinished;\r\n    bool public isApproved;\r\n    uint public proposalID;\r\n    uint public projectID;\r\n    uint public amount; \r\n    uint public approvalCapital; //The capital that all the approval investors represent\r\n    string public title;\r\n    string public description;\r\n    address payable public to;\r\n    mapping (address => bool) isVoted;\r\n    \r\n    constructor (address payable _to, uint _propID, uint _projID, uint _amount, string memory _title, string memory _des) {\r\n        isFinished = false;\r\n        isApproved = false;       \r\n        proposalID = _propID;\r\n        projectID = _projID;\r\n        amount = _amount;\r\n        approvalCapital = 0;\r\n        title = _title;\r\n        description = _des;\r\n        to = _to;\r\n    }\r\n\r\n    // Vote\r\n    function voteAndCount (address voter, uint capital, uint total) public returns (bool) {\r\n        require (isVoted[voter] == false);\r\n        isVoted[voter] = true;\r\n        approvalCapital += capital;\r\n        if (approvalCapital*2 > total) { isApproved = true; return true;}\r\n        else return false;\r\n    }\r\n\r\n    function setIsFinished (bool value) public {\r\n        isFinished = value;\r\n    }\r\n\r\n    function getIsVoted () external view returns (bool){\r\n        return isVoted[msg.sender];\r\n    }\r\n\r\n}\r\n",
  "sourcePath": "D:/Code/FutureFunding/Backend/contracts/CrowdFundings.sol",
  "compiler": {
    "name": "solc",
    "version": "0.8.0+commit.c7dfd78e.Emscripten.clang"
  },
  "schemaVersion": "3.3.3",
  "updatedAt": "2021-01-12T09:50:54.094Z",
  "devdoc": {
    "kind": "dev",
    "methods": {},
    "version": 1
  },
  "userdoc": {
    "kind": "user",
    "methods": {},
    "version": 1
  }
}