{
  "contractName": "Proposal",
  "abi": [
    {
      "inputs": [
        {
          "internalType": "address payable",
          "name": "_to",
          "type": "address"
        },
        {
          "internalType": "uint256",
          "name": "_propID",
          "type": "uint256"
        },
        {
          "internalType": "uint256",
          "name": "_projID",
          "type": "uint256"
        },
        {
          "internalType": "uint256",
          "name": "_amount",
          "type": "uint256"
        },
        {
          "internalType": "string",
          "name": "_title",
          "type": "string"
        },
        {
          "internalType": "string",
          "name": "_des",
          "type": "string"
        }
      ],
      "stateMutability": "nonpayable",
      "type": "constructor"
    },
    {
      "inputs": [],
      "name": "amount",
      "outputs": [
        {
          "internalType": "uint256",
          "name": "",
          "type": "uint256"
        }
      ],
      "stateMutability": "view",
      "type": "function"
    },
    {
      "inputs": [],
      "name": "approvalCapital",
      "outputs": [
        {
          "internalType": "uint256",
          "name": "",
          "type": "uint256"
        }
      ],
      "stateMutability": "view",
      "type": "function"
    },
    {
      "inputs": [],
      "name": "description",
      "outputs": [
        {
          "internalType": "string",
          "name": "",
          "type": "string"
        }
      ],
      "stateMutability": "view",
      "type": "function"
    },
    {
      "inputs": [],
      "name": "isApproved",
      "outputs": [
        {
          "internalType": "bool",
          "name": "",
          "type": "bool"
        }
      ],
      "stateMutability": "view",
      "type": "function"
    },
    {
      "inputs": [],
      "name": "isFinished",
      "outputs": [
        {
          "internalType": "bool",
          "name": "",
          "type": "bool"
        }
      ],
      "stateMutability": "view",
      "type": "function"
    },
    {
      "inputs": [],
      "name": "projectID",
      "outputs": [
        {
          "internalType": "uint256",
          "name": "",
          "type": "uint256"
        }
      ],
      "stateMutability": "view",
      "type": "function"
    },
    {
      "inputs": [],
      "name": "proposalID",
      "outputs": [
        {
          "internalType": "uint256",
          "name": "",
          "type": "uint256"
        }
      ],
      "stateMutability": "view",
      "type": "function"
    },
    {
      "inputs": [],
      "name": "title",
      "outputs": [
        {
          "internalType": "string",
          "name": "",
          "type": "string"
        }
      ],
      "stateMutability": "view",
      "type": "function"
    },
    {
      "inputs": [],
      "name": "to",
      "outputs": [
        {
          "internalType": "address payable",
          "name": "",
          "type": "address"
        }
      ],
      "stateMutability": "view",
      "type": "function"
    },
    {
      "inputs": [
        {
          "internalType": "address",
          "name": "voter",
          "type": "address"
        },
        {
          "internalType": "uint256",
          "name": "capital",
          "type": "uint256"
        },
        {
          "internalType": "uint256",
          "name": "total",
          "type": "uint256"
        }
      ],
      "name": "voteAndCount",
      "outputs": [
        {
          "internalType": "bool",
          "name": "",
          "type": "bool"
        }
      ],
      "stateMutability": "nonpayable",
      "type": "function"
    },
    {
      "inputs": [
        {
          "internalType": "bool",
          "name": "value",
          "type": "bool"
        }
      ],
      "name": "setIsFinished",
      "outputs": [],
      "stateMutability": "nonpayable",
      "type": "function"
    },
    {
      "inputs": [],
      "name": "getIsVoted",
      "outputs": [
        {
          "internalType": "bool",
          "name": "",
          "type": "bool"
        }
      ],
      "stateMutability": "view",
      "type": "function"
    }
  ],
  "bytecode": "0x60806040523480156200001157600080fd5b5060405162000e0b38038062000e0b833981810160405281019062000037919062000257565b60008060006101000a81548160ff02191690831515021790555060008060016101000a81548160ff02191690831515021790555084600181905550836002819055508260038190555060006004819055508160059080519060200190620000a092919062000107565b508060069080519060200190620000b992919062000107565b5085600760006101000a81548173ffffffffffffffffffffffffffffffffffffffff021916908373ffffffffffffffffffffffffffffffffffffffff160217905550505050505050620004c2565b8280546200011590620003fa565b90600052602060002090601f01602090048101928262000139576000855562000185565b82601f106200015457805160ff191683800117855562000185565b8280016001018555821562000185579182015b828111156200018457825182559160200191906001019062000167565b5b50905062000194919062000198565b5090565b5b80821115620001b357600081600090555060010162000199565b5090565b6000620001ce620001c88462000353565b6200031f565b905082815260208101848484011115620001e757600080fd5b620001f4848285620003c4565b509392505050565b6000815190506200020d816200048e565b92915050565b600082601f8301126200022557600080fd5b815162000237848260208601620001b7565b91505092915050565b6000815190506200025181620004a8565b92915050565b60008060008060008060c087890312156200027157600080fd5b60006200028189828a01620001fc565b96505060206200029489828a0162000240565b9550506040620002a789828a0162000240565b9450506060620002ba89828a0162000240565b935050608087015167ffffffffffffffff811115620002d857600080fd5b620002e689828a0162000213565b92505060a087015167ffffffffffffffff8111156200030457600080fd5b6200031289828a0162000213565b9150509295509295509295565b6000604051905081810181811067ffffffffffffffff821117156200034957620003486200045f565b5b8060405250919050565b600067ffffffffffffffff8211156200037157620003706200045f565b5b601f19601f8301169050602081019050919050565b600062000393826200039a565b9050919050565b600073ffffffffffffffffffffffffffffffffffffffff82169050919050565b6000819050919050565b60005b83811015620003e4578082015181840152602081019050620003c7565b83811115620003f4576000848401525b50505050565b600060028204905060018216806200041357607f821691505b602082108114156200042a576200042962000430565b5b50919050565b7f4e487b7100000000000000000000000000000000000000000000000000000000600052602260045260246000fd5b7f4e487b7100000000000000000000000000000000000000000000000000000000600052604160045260246000fd5b620004998162000386565b8114620004a557600080fd5b50565b620004b381620003ba565b8114620004bf57600080fd5b50565b61093980620004d26000396000f3fe608060405234801561001057600080fd5b50600436106100b45760003560e01c80637284e416116100715780637284e4161461017f5780637b3529621461019d5780638b1ed8e9146101bb5780639c30ea51146101d7578063aa8c217c146101f5578063f8993a0414610213576100b4565b80630eab7d59146100b957806313151981146100d757806328f371aa146100f5578063371fa854146101135780634560a15d146101315780634a79d50c14610161575b600080fd5b6100c1610231565b6040516100ce91906106a9565b60405180910390f35b6100df610237565b6040516100ec9190610651565b60405180910390f35b6100fd61025d565b60405161010a919061066c565b60405180910390f35b61011b610270565b60405161012891906106a9565b60405180910390f35b61014b60048036038101906101469190610573565b610276565b604051610158919061066c565b60405180910390f35b61016961038b565b6040516101769190610687565b60405180910390f35b610187610419565b6040516101949190610687565b60405180910390f35b6101a56104a7565b6040516101b2919061066c565b60405180910390f35b6101d560048036038101906101d091906105c2565b6104b8565b005b6101df6104d4565b6040516101ec91906106a9565b60405180910390f35b6101fd6104da565b60405161020a91906106a9565b60405180910390f35b61021b6104e0565b604051610228919061066c565b60405180910390f35b60045481565b600760009054906101000a900473ffffffffffffffffffffffffffffffffffffffff1681565b600060019054906101000a900460ff1681565b60015481565b6000801515600860008673ffffffffffffffffffffffffffffffffffffffff1673ffffffffffffffffffffffffffffffffffffffff16815260200190815260200160002060009054906101000a900460ff161515146102d457600080fd5b6001600860008673ffffffffffffffffffffffffffffffffffffffff1673ffffffffffffffffffffffffffffffffffffffff16815260200190815260200160002060006101000a81548160ff021916908315150217905550826004600082825461033e91906106e0565b925050819055508160026004546103559190610736565b111561037f576001600060016101000a81548160ff02191690831515021790555060019050610384565b600090505b9392505050565b600580546103989061081d565b80601f01602080910402602001604051908101604052809291908181526020018280546103c49061081d565b80156104115780601f106103e657610100808354040283529160200191610411565b820191906000526020600020905b8154815290600101906020018083116103f457829003601f168201915b505050505081565b600680546104269061081d565b80601f01602080910402602001604051908101604052809291908181526020018280546104529061081d565b801561049f5780601f106104745761010080835404028352916020019161049f565b820191906000526020600020905b81548152906001019060200180831161048257829003601f168201915b505050505081565b60008054906101000a900460ff1681565b806000806101000a81548160ff02191690831515021790555050565b60025481565b60035481565b6000600860003373ffffffffffffffffffffffffffffffffffffffff1673ffffffffffffffffffffffffffffffffffffffff16815260200190815260200160002060009054906101000a900460ff16905090565b600081359050610543816108be565b92915050565b600081359050610558816108d5565b92915050565b60008135905061056d816108ec565b92915050565b60008060006060848603121561058857600080fd5b600061059686828701610534565b93505060206105a78682870161055e565b92505060406105b88682870161055e565b9150509250925092565b6000602082840312156105d457600080fd5b60006105e284828501610549565b91505092915050565b6105f4816107a2565b82525050565b610603816107b4565b82525050565b6000610614826106c4565b61061e81856106cf565b935061062e8185602086016107ea565b610637816108ad565b840191505092915050565b61064b816107e0565b82525050565b600060208201905061066660008301846105eb565b92915050565b600060208201905061068160008301846105fa565b92915050565b600060208201905081810360008301526106a18184610609565b905092915050565b60006020820190506106be6000830184610642565b92915050565b600081519050919050565b600082825260208201905092915050565b60006106eb826107e0565b91506106f6836107e0565b9250827fffffffffffffffffffffffffffffffffffffffffffffffffffffffffffffffff0382111561072b5761072a61084f565b5b828201905092915050565b6000610741826107e0565b915061074c836107e0565b9250817fffffffffffffffffffffffffffffffffffffffffffffffffffffffffffffffff04831182151516156107855761078461084f565b5b828202905092915050565b600061079b826107c0565b9050919050565b60006107ad826107c0565b9050919050565b60008115159050919050565b600073ffffffffffffffffffffffffffffffffffffffff82169050919050565b6000819050919050565b60005b838110156108085780820151818401526020810190506107ed565b83811115610817576000848401525b50505050565b6000600282049050600182168061083557607f821691505b602082108114156108495761084861087e565b5b50919050565b7f4e487b7100000000000000000000000000000000000000000000000000000000600052601160045260246000fd5b7f4e487b7100000000000000000000000000000000000000000000000000000000600052602260045260246000fd5b6000601f19601f8301169050919050565b6108c781610790565b81146108d257600080fd5b50565b6108de816107b4565b81146108e957600080fd5b50565b6108f5816107e0565b811461090057600080fd5b5056fea2646970667358221220c6aff5b449aa210b58628762003bb8d71e66f2ada4226456e95ca1ae00e6063064736f6c63430008000033",
  "immutableReferences": {},
  "source": "// SPDX-License-Identifier: MIT\r\npragma solidity >=0.7.4 <0.9.0;\r\n\r\ncontract CrowdFundings {\r\n\r\n    CrowdFundingProject[] public projects;\r\n    Proposal[] public proposals;\r\n\r\n    mapping ( address => uint[] ) investedProjects;\r\n\r\n    event projectCreated (address indexed initiator, uint indexed projectID); // To retreive all the projects created by an account\r\n    event projectInvested (address indexed investor, uint indexed projectID, uint amount); // To retreive all the projects invested by an account\r\n    event proposalRaised (address indexed initiator, uint indexed projectID, uint indexed proposalID, uint amount);\r\n    event proposalApproved (address indexed initiator, uint indexed projectID, uint indexed proposalID, address to, uint amount);\r\n    event proposalFinished (address indexed initiator, uint indexed projectID, uint indexed proposalID, address to, uint amount);\r\n    event debug (uint info);\r\n\r\n    function createProject (uint _target, string calldata _title, string calldata _des, uint _interval) external {\r\n        CrowdFundingProject proj = new CrowdFundingProject(projects.length, payable(msg.sender), _target, _title, _des, _interval);\r\n        projects.push(proj);\r\n        emit projectCreated (msg.sender, projects.length-1);\r\n    }\r\n\r\n    function investProject (uint projID) payable external {\r\n        projects[projID].initiator().transfer(msg.value);\r\n        projects[projID].invest(msg.sender, msg.value);\r\n        emit projectInvested (msg.sender, projID, msg.value);\r\n    }\r\n\r\n    function getBalanceOfProject (uint projID) view external returns (uint) {\r\n        return projects[projID].balance();\r\n    }\r\n\r\n    function getAllProjects () public view returns (CrowdFundingProject[] memory) {\r\n        return projects;\r\n    }\r\n\r\n    function raiseProposal (address payable to, uint projID, uint amount, string calldata title, string calldata description) external {\r\n        require(projects[projID].isOpen() == true, \"The Project is closed\");\r\n        require(projects[projID].initiator() == msg.sender, \"The msg.sender is not the initiator\");\r\n        Proposal prop = new Proposal(to, proposals.length, projID, amount, title, description);\r\n        proposals.push(prop);\r\n        emit proposalRaised(msg.sender, projID, proposals.length-1, amount);\r\n    }\r\n\r\n    // Vote for proposal\r\n    function voteForProposal (uint propID) external {\r\n        Proposal prop = proposals[propID];\r\n        CrowdFundingProject proj = projects[prop.projectID()];\r\n        bool isApproved = prop.voteAndCount(msg.sender, proj.investments(msg.sender), proj.targetAmount());\r\n        if (isApproved == true) emit proposalApproved(proj.initiator(), proj.projectID(), propID, prop.to(), prop.amount());\r\n    }\r\n\r\n    function transferForProposal (uint propID) payable external {\r\n        require(!proposals[propID].isFinished(), \"This proposal is finished\");\r\n        require (msg.value == proposals[propID].amount(), \"Inconsistent value\");\r\n        require (proposals[propID].isApproved(), \"Unapproved transfer.\");\r\n        proposals[propID].to().transfer(msg.value);\r\n        Proposal prop = proposals[propID];\r\n        CrowdFundingProject proj = projects[prop.projectID()];\r\n        prop.setIsFinished(true);\r\n        proj.setBalance(proj.balance()-msg.value);\r\n        emit proposalFinished(proj.initiator(), proj.projectID(), propID, prop.to(), prop.amount());\r\n    }\r\n}\r\n\r\ncontract CrowdFundingProject {\r\n    \r\n    bool public isOpen;\r\n    uint public projectID;\r\n    address payable public initiator;\r\n    string public title;\r\n    string public description;\r\n    uint public targetAmount;\r\n    uint public balance;\r\n    uint public endTime;\r\n    address[] investors;\r\n    mapping ( address => uint ) public investments;\r\n\r\n    constructor (uint _projID, address payable _initiator, uint _target, string memory _title, string memory _des, uint _interval) {\r\n        isOpen = true;\r\n        projectID = _projID;\r\n        initiator = _initiator;\r\n        title = _title;\r\n        description = _des;\r\n        targetAmount = _target;\r\n        balance = 0;\r\n        endTime = block.timestamp + _interval;\r\n    }\r\n\r\n    // Invest the project\r\n    function invest (address investor, uint amount) payable public {\r\n        require (isOpen, \"This project has closed.\");\r\n        require (block.timestamp <= endTime, \"This project has closed.\");\r\n        require (amount <= investor.balance, \"Ether is not enough.\" );\r\n        require (amount <= targetAmount - balance, \"Too much Ethers.\" );\r\n        // initiator.transfer(amount);\r\n        // payable(address(this)).transfer(amount);\r\n        balance += amount;\r\n        if (investments[investor] == 0)  investors.push(investor);\r\n        investments[investor] += amount;\r\n    }\r\n\r\n    function setBalance (uint newBalance) public {\r\n        balance = newBalance;\r\n    }\r\n\r\n}\r\n\r\ncontract Proposal {\r\n\r\n    bool public isFinished;\r\n    bool public isApproved;\r\n    uint public proposalID;\r\n    uint public projectID;\r\n    uint public amount; \r\n    uint public approvalCapital; //The capital that all the approval investors represent\r\n    string public title;\r\n    string public description;\r\n    address payable public to;\r\n    mapping (address => bool) isVoted;\r\n    \r\n    constructor (address payable _to, uint _propID, uint _projID, uint _amount, string memory _title, string memory _des) {\r\n        isFinished = false;\r\n        isApproved = false;       \r\n        proposalID = _propID;\r\n        projectID = _projID;\r\n        amount = _amount;\r\n        approvalCapital = 0;\r\n        title = _title;\r\n        description = _des;\r\n        to = _to;\r\n    }\r\n\r\n    // Vote\r\n    function voteAndCount (address voter, uint capital, uint total) public returns (bool) {\r\n        require (isVoted[voter] == false);\r\n        isVoted[voter] = true;\r\n        approvalCapital += capital;\r\n        if (approvalCapital*2 > total) { isApproved = true; return true;}\r\n        else return false;\r\n    }\r\n\r\n    function setIsFinished (bool value) public {\r\n        isFinished = value;\r\n    }\r\n\r\n    function getIsVoted () external view returns (bool){\r\n        return isVoted[msg.sender];\r\n    }\r\n\r\n}\r\n",
  "sourcePath": "D:/Code/FutureFunding/Backend/contracts/CrowdFundings.sol",
  "compiler": {
    "name": "solc",
    "version": "0.8.0+commit.c7dfd78e.Emscripten.clang"
  },
  "schemaVersion": "3.3.3",
  "updatedAt": "2021-01-12T09:50:54.187Z",
  "devdoc": {
    "kind": "dev",
    "methods": {},
    "version": 1
  },
  "userdoc": {
    "kind": "user",
    "methods": {},
    "version": 1
  }
}