{
  "contractName": "ZhongChou",
  "abi": [
    {
      "constant": true,
      "inputs": [
        {
          "name": "",
          "type": "address"
        },
        {
          "name": "",
          "type": "uint256"
        }
      ],
      "name": "createdFundings",
      "outputs": [
        {
          "name": "",
          "type": "address"
        }
      ],
      "payable": false,
      "stateMutability": "view",
      "type": "function"
    },
    {
      "constant": true,
      "inputs": [],
      "name": "manager",
      "outputs": [
        {
          "name": "",
          "type": "address"
        }
      ],
      "payable": false,
      "stateMutability": "view",
      "type": "function"
    },
    {
      "inputs": [],
      "payable": false,
      "stateMutability": "nonpayable",
      "type": "constructor"
    },
    {
      "constant": false,
      "inputs": [
        {
          "name": "_projectName",
          "type": "string"
        },
        {
          "name": "_targetMoney",
          "type": "uint256"
        },
        {
          "name": "_duration",
          "type": "uint256"
        },
        {
          "name": "_creator",
          "type": "address"
        }
      ],
      "name": "createFunding",
      "outputs": [],
      "payable": false,
      "stateMutability": "nonpayable",
      "type": "function"
    },
    {
      "constant": true,
      "inputs": [],
      "name": "getAllFundings",
      "outputs": [
        {
          "name": "",
          "type": "address[]"
        }
      ],
      "payable": false,
      "stateMutability": "view",
      "type": "function"
    },
    {
      "constant": true,
      "inputs": [
        {
          "name": "user",
          "type": "address"
        }
      ],
      "name": "getCreatedFundings",
      "outputs": [
        {
          "name": "",
          "type": "address[]"
        }
      ],
      "payable": false,
      "stateMutability": "view",
      "type": "function"
    },
    {
      "constant": true,
      "inputs": [
        {
          "name": "user",
          "type": "address"
        }
      ],
      "name": "getRelatedFundings",
      "outputs": [
        {
          "name": "",
          "type": "address[]"
        }
      ],
      "payable": false,
      "stateMutability": "view",
      "type": "function"
    },
    {
      "constant": false,
      "inputs": [
        {
          "name": "funding",
          "type": "address"
        }
      ],
      "name": "deleteFunding",
      "outputs": [],
      "payable": false,
      "stateMutability": "nonpayable",
      "type": "function"
    }
  ],
  "bytecode": "0x608060405261000c6100bb565b604051809103906000f080158015610028573d6000803e3d6000fd5b50600360006101000a81548173ffffffffffffffffffffffffffffffffffffffff021916908373ffffffffffffffffffffffffffffffffffffffff16021790555034801561007557600080fd5b50336000806101000a81548173ffffffffffffffffffffffffffffffffffffffff021916908373ffffffffffffffffffffffffffffffffffffffff1602179055506100cb565b6040516107578061322b83390190565b613151806100da6000396000f300608060405260043610610083576000357c0100000000000000000000000000000000000000000000000000000000900463ffffffff16806306a4d75f14610088578063481c6a751461011557806363a1a76f1461016c57806372a3143c14610209578063833cd5ab14610275578063ac7f2c831461030d578063ba87f76c14610350575b600080fd5b34801561009457600080fd5b506100d3600480360381019080803573ffffffffffffffffffffffffffffffffffffffff169060200190929190803590602001909291905050506103e8565b604051808273ffffffffffffffffffffffffffffffffffffffff1673ffffffffffffffffffffffffffffffffffffffff16815260200191505060405180910390f35b34801561012157600080fd5b5061012a610435565b604051808273ffffffffffffffffffffffffffffffffffffffff1673ffffffffffffffffffffffffffffffffffffffff16815260200191505060405180910390f35b34801561017857600080fd5b50610207600480360381019080803590602001908201803590602001908080601f01602080910402602001604051908101604052809392919081815260200183838082843782019150505050505091929192908035906020019092919080359060200190929190803573ffffffffffffffffffffffffffffffffffffffff16906020019092919050505061045a565b005b34801561021557600080fd5b5061021e61076d565b6040518080602001828103825283818151815260200191508051906020019060200280838360005b83811015610261578082015181840152602081019050610246565b505050509050019250505060405180910390f35b34801561028157600080fd5b506102b6600480360381019080803573ffffffffffffffffffffffffffffffffffffffff1690602001909291905050506107fb565b6040518080602001828103825283818151815260200191508051906020019060200280838360005b838110156102f95780820151818401526020810190506102de565b505050509050019250505060405180910390f35b34801561031957600080fd5b5061034e600480360381019080803573ffffffffffffffffffffffffffffffffffffffff169060200190929190505050610952565b005b34801561035c57600080fd5b50610391600480360381019080803573ffffffffffffffffffffffffffffffffffffffff169060200190929190505050610a95565b6040518080602001828103825283818151815260200191508051906020019060200280838360005b838110156103d45780820151818401526020810190506103b9565b505050509050019250505060405180910390f35b60026020528160005260406000208181548110151561040357fe5b906000526020600020016000915091509054906101000a900473ffffffffffffffffffffffffffffffffffffffff1681565b6000809054906101000a900473ffffffffffffffffffffffffffffffffffffffff1681565b600084848484600360009054906101000a900473ffffffffffffffffffffffffffffffffffffffff1661048b610b62565b80806020018681526020018581526020018473ffffffffffffffffffffffffffffffffffffffff1673ffffffffffffffffffffffffffffffffffffffff1681526020018373ffffffffffffffffffffffffffffffffffffffff1673ffffffffffffffffffffffffffffffffffffffff168152602001828103825287818151815260200191508051906020019080838360005b8381101561053857808201518184015260208101905061051d565b50505050905090810190601f1680156105655780820380516001836020036101000a031916815260200191505b509650505050505050604051809103906000f08015801561058a573d6000803e3d6000fd5b50905060018190806001815401808255809150509060018203906000526020600020016000909192909190916101000a81548173ffffffffffffffffffffffffffffffffffffffff021916908373ffffffffffffffffffffffffffffffffffffffff160217905550506000600260008473ffffffffffffffffffffffffffffffffffffffff1673ffffffffffffffffffffffffffffffffffffffff1681526020019081526020016000208054905014156106c357600a60405190808252806020026020018201604052801561066e5781602001602082028038833980820191505090505b50600260008473ffffffffffffffffffffffffffffffffffffffff1673ffffffffffffffffffffffffffffffffffffffff16815260200190815260200160002090805190602001906106c1929190610b72565b505b600260008373ffffffffffffffffffffffffffffffffffffffff1673ffffffffffffffffffffffffffffffffffffffff1681526020019081526020016000208190806001815401808255809150509060018203906000526020600020016000909192909190916101000a81548173ffffffffffffffffffffffffffffffffffffffff021916908373ffffffffffffffffffffffffffffffffffffffff160217905550505050505050565b606060018054806020026020016040519081016040528092919081815260200182805480156107f157602002820191906000526020600020905b8160009054906101000a900473ffffffffffffffffffffffffffffffffffffffff1673ffffffffffffffffffffffffffffffffffffffff16815260200190600101908083116107a7575b5050505050905090565b6060600360009054906101000a900473ffffffffffffffffffffffffffffffffffffffff1673ffffffffffffffffffffffffffffffffffffffff1663ad0a4f32836040518263ffffffff167c0100000000000000000000000000000000000000000000000000000000028152600401808273ffffffffffffffffffffffffffffffffffffffff1673ffffffffffffffffffffffffffffffffffffffff168152602001915050600060405180830381600087803b1580156108ba57600080fd5b505af11580156108ce573d6000803e3d6000fd5b505050506040513d6000823e3d601f19601f8201168201806040525060208110156108f857600080fd5b81019080805164010000000081111561091057600080fd5b8281019050602081018481111561092657600080fd5b815185602082028301116401000000008211171561094357600080fd5b50509291905050509050919050565b60008090505b600180549050811015610a91578173ffffffffffffffffffffffffffffffffffffffff1660018281548110151561098b57fe5b9060005260206000200160009054906101000a900473ffffffffffffffffffffffffffffffffffffffff1673ffffffffffffffffffffffffffffffffffffffff161415610a84576001808080549050038154811015156109e757fe5b9060005260206000200160009054906101000a900473ffffffffffffffffffffffffffffffffffffffff16600182815481101515610a2157fe5b9060005260206000200160006101000a81548173ffffffffffffffffffffffffffffffffffffffff021916908373ffffffffffffffffffffffffffffffffffffffff1602179055506001808054905003600181610a7e9190610bfc565b50610a91565b8080600101915050610958565b5050565b6060600260008373ffffffffffffffffffffffffffffffffffffffff1673ffffffffffffffffffffffffffffffffffffffff168152602001908152602001600020805480602002602001604051908101604052809291908181526020018280548015610b5657602002820191906000526020600020905b8160009054906101000a900473ffffffffffffffffffffffffffffffffffffffff1673ffffffffffffffffffffffffffffffffffffffff1681526020019060010190808311610b0c575b50505050509050919050565b60405161249580610c9183390190565b828054828255906000526020600020908101928215610beb579160200282015b82811115610bea5782518260006101000a81548173ffffffffffffffffffffffffffffffffffffffff021916908373ffffffffffffffffffffffffffffffffffffffff16021790555091602001919060010190610b92565b5b509050610bf89190610c28565b5090565b815481835581811115610c2357818360005260206000209182019101610c229190610c6b565b5b505050565b610c6891905b80821115610c6457600081816101000a81549073ffffffffffffffffffffffffffffffffffffffff021916905550600101610c2e565b5090565b90565b610c8d91905b80821115610c89576000816000905550600101610c71565b5090565b90560060806040523480156200001157600080fd5b5060405162002495380380620024958339810180604052810190808051820192919060200180519060200190929190805190602001909291908051906020019092919080519060200190929190505050816000806101000a81548173ffffffffffffffffffffffffffffffffffffffff021916908373ffffffffffffffffffffffffffffffffffffffff1602179055508460019080519060200190620000b99291906200011e565b508360048190555082420160068190555080600b60006101000a81548173ffffffffffffffffffffffffffffffffffffffff021916908373ffffffffffffffffffffffffffffffffffffffff1602179055506000600c819055505050505050620001cd565b828054600181600116156101000203166002900490600052602060002090601f016020900481019282601f106200016157805160ff191683800117855562000192565b8280016001018555821562000192579182015b828111156200019157825182559160200191906001019062000174565b5b509050620001a19190620001a5565b5090565b620001ca91905b80821115620001c6576000816000905550600101620001ac565b5090565b90565b6122b880620001dd6000396000f30060806040526004361061018b576000357c0100000000000000000000000000000000000000000000000000000000900463ffffffff16806302d05d3f1461019057806306fdde03146101e757806312065fe01461027757806312f188ab146102a257806315a93440146102cd5780631b16bb5c146102fa5780631b5b1a031461038d5780631c49e36a146103b857806326adeb8e146103e35780632be51d82146104765780633197cbb6146104e25780633c2bec601461050d5780633d103b971461053a5780633feb5f2b1461057a57806340ac9993146105e757806356c9493f146106d55780636fc91c411461071657806378e979251461075657806379f96c5714610781578063955d14cd146107ae578063ae42e260146107d9578063bdc8b6af146107f0578063c28ce7621461081b578063c828371e146108ab578063cc58b5ef146108d6578063d24992a214610903578063d4b839921461091a578063d7d1bbdb14610945578063d7e64c0014610972578063e09974b91461099d578063e735afb2146109c8575b600080fd5b34801561019c57600080fd5b506101a56109f3565b604051808273ffffffffffffffffffffffffffffffffffffffff1673ffffffffffffffffffffffffffffffffffffffff16815260200191505060405180910390f35b3480156101f357600080fd5b506101fc610a18565b6040518080602001828103825283818151815260200191508051906020019080838360005b8381101561023c578082015181840152602081019050610221565b50505050905090810190601f1680156102695780820380516001836020036101000a031916815260200191505b509250505060405180910390f35b34801561028357600080fd5b5061028c610ab6565b6040518082815260200191505060405180910390f35b3480156102ae57600080fd5b506102b7610ad5565b6040518082815260200191505060405180910390f35b3480156102d957600080fd5b506102f860048036038101908080359060200190929190505050610adf565b005b34801561030657600080fd5b5061038b600480360381019080803590602001908201803590602001908080601f0160208091040260200160405190810160405280939291908181526020018383808284378201915050505050509192919290803573ffffffffffffffffffffffffffffffffffffffff16906020019092919080359060200190929190505050610c17565b005b34801561039957600080fd5b506103a2610d2c565b6040518082815260200191505060405180910390f35b3480156103c457600080fd5b506103cd610d39565b6040518082815260200191505060405180910390f35b3480156103ef57600080fd5b50610474600480360381019080803590602001908201803590602001908080601f0160208091040260200160405190810160405280939291908181526020018383808284378201915050505050509192919290803573ffffffffffffffffffffffffffffffffffffffff16906020019092919080359060200190929190505050610d58565b005b34801561048257600080fd5b5061048b610e6d565b6040518080602001828103825283818151815260200191508051906020019060200280838360005b838110156104ce5780820151818401526020810190506104b3565b505050509050019250505060405180910390f35b3480156104ee57600080fd5b506104f7610efb565b6040518082815260200191505060405180910390f35b34801561051957600080fd5b5061053860048036038101908080359060200190929190505050610f01565b005b61057860048036038101908080359060200190929190803573ffffffffffffffffffffffffffffffffffffffff169060200190929190505050611046565b005b34801561058657600080fd5b506105a56004803603810190808035906020019092919050505061133c565b604051808273ffffffffffffffffffffffffffffffffffffffff1673ffffffffffffffffffffffffffffffffffffffff16815260200191505060405180910390f35b3480156105f357600080fd5b506106126004803603810190808035906020019092919050505061137a565b60405180806020018673ffffffffffffffffffffffffffffffffffffffff1673ffffffffffffffffffffffffffffffffffffffff168152602001858152602001848152602001838152602001828103825287818151815260200191508051906020019080838360005b8381101561069657808201518184015260208101905061067b565b50505050905090810190601f1680156106c35780820380516001836020036101000a031916815260200191505b50965050505050505060405180910390f35b3480156106e157600080fd5b5061070060048036038101908080359060200190929190505050611477565b6040518082815260200191505060405180910390f35b61075460048036038101908080359060200190929190803573ffffffffffffffffffffffffffffffffffffffff16906020019092919050505061149a565b005b34801561076257600080fd5b5061076b611790565b6040518082815260200191505060405180910390f35b34801561078d57600080fd5b506107ac60048036038101908080359060200190929190505050611796565b005b3480156107ba57600080fd5b506107c36118ce565b6040518082815260200191505060405180910390f35b3480156107e557600080fd5b506107ee6118da565b005b3480156107fc57600080fd5b50610805611aeb565b6040518082815260200191505060405180910390f35b34801561082757600080fd5b50610830611af1565b6040518080602001828103825283818151815260200191508051906020019080838360005b83811015610870578082015181840152602081019050610855565b50505050905090810190601f16801561089d5780820380516001836020036101000a031916815260200191505b509250505060405180910390f35b3480156108b757600080fd5b506108c0611b8f565b6040518082815260200191505060405180910390f35b3480156108e257600080fd5b5061090160048036038101908080359060200190929190505050611b9b565b005b34801561090f57600080fd5b50610918611ce0565b005b34801561092657600080fd5b5061092f611f04565b6040518082815260200191505060405180910390f35b34801561095157600080fd5b5061097060048036038101908080359060200190929190505050611f0a565b005b34801561097e57600080fd5b50610987612092565b6040518082815260200191505060405180910390f35b3480156109a957600080fd5b506109b261209f565b6040518082815260200191505060405180910390f35b3480156109d457600080fd5b506109dd6120a5565b6040518082815260200191505060405180910390f35b6000809054906101000a900473ffffffffffffffffffffffffffffffffffffffff1681565b60018054600181600116156101000203166002900480601f016020809104026020016040519081016040528092919081815260200182805460018160011615610100020316600290048015610aae5780601f10610a8357610100808354040283529160200191610aae565b820191906000526020600020905b815481529060010190602001808311610a9157829003601f168201915b505050505081565b60003073ffffffffffffffffffffffffffffffffffffffff1631905090565b6000600c54905090565b6000600a60003373ffffffffffffffffffffffffffffffffffffffff1673ffffffffffffffffffffffffffffffffffffffff16815260200190815260200160002060009054906101000a900460ff161515610b3957600080fd5b600d82815481101515610b4857fe5b90600052602060002090600602019050600015158160050160003373ffffffffffffffffffffffffffffffffffffffff1673ffffffffffffffffffffffffffffffffffffffff16815260200190815260200160002060009054906101000a900460ff161515141515610bb957600080fd5b60018160050160003373ffffffffffffffffffffffffffffffffffffffff1673ffffffffffffffffffffffffffffffffffffffff16815260200190815260200160002060006101000a81548160ff0219169083151502179055505050565b610c1f612149565b60a0604051908101604052808581526020018473ffffffffffffffffffffffffffffffffffffffff1681526020018381526020016000815260200160008152509050600c60008154809291906001019190505550600d81908060018154018082558091505090600182039060005260206000209060060201600090919290919091506000820151816000019080519060200190610cbd92919061218f565b5060208201518160010160006101000a81548173ffffffffffffffffffffffffffffffffffffffff021916908373ffffffffffffffffffffffffffffffffffffffff16021790555060408201518160020155606082015181600301556080820151816004015550505050505050565b6000600880549050905090565b60003073ffffffffffffffffffffffffffffffffffffffff1631905090565b610d60612149565b60a0604051908101604052808581526020018473ffffffffffffffffffffffffffffffffffffffff1681526020018381526020016000815260200160008152509050600c60008154809291906001019190505550600d81908060018154018082558091505090600182039060005260206000209060060201600090919290919091506000820151816000019080519060200190610dfe92919061218f565b5060208201518160010160006101000a81548173ffffffffffffffffffffffffffffffffffffffff021916908373ffffffffffffffffffffffffffffffffffffffff16021790555060408201518160020155606082015181600301556080820151816004015550505050505050565b60606008805480602002602001604051908101604052809291908181526020018280548015610ef157602002820191906000526020600020905b8160009054906101000a900473ffffffffffffffffffffffffffffffffffffffff1673ffffffffffffffffffffffffffffffffffffffff1681526020019060010190808311610ea7575b5050505050905090565b60065481565b6001600d82815481101515610f1257fe5b906000526020600020906006020160040154141515610f3057600080fd5b600d81815481101515610f3f57fe5b9060005260206000209060060201600201543073ffffffffffffffffffffffffffffffffffffffff163110151515610f7657600080fd5b600d81815481101515610f8557fe5b906000526020600020906006020160010160009054906101000a900473ffffffffffffffffffffffffffffffffffffffff1673ffffffffffffffffffffffffffffffffffffffff166108fc600d83815481101515610fdf57fe5b9060005260206000209060060201600201549081150290604051600060405180830381858888f1935050505015801561101c573d6000803e3d6000fd5b506002600d8281548110151561102e57fe5b90600052602060002090600602016004018190555050565b6006544210151561105657600080fd5b60008211151561106557600080fd5b60045482600354011115151561107a57600080fd5b6000809054906101000a900473ffffffffffffffffffffffffffffffffffffffff1673ffffffffffffffffffffffffffffffffffffffff168173ffffffffffffffffffffffffffffffffffffffff16141515156110d657600080fd5b60001515600a60008373ffffffffffffffffffffffffffffffffffffffff1673ffffffffffffffffffffffffffffffffffffffff16815260200190815260200160002060009054906101000a900460ff16151514151561113557600080fd5b60088190806001815401808255809150509060018203906000526020600020016000909192909190916101000a81548173ffffffffffffffffffffffffffffffffffffffff021916908373ffffffffffffffffffffffffffffffffffffffff1602179055505060098290806001815401808255809150509060018203906000526020600020016000909192909190915055506001600a60008373ffffffffffffffffffffffffffffffffffffffff1673ffffffffffffffffffffffffffffffffffffffff16815260200190815260200160002060006101000a81548160ff021916908315150217905550600b60009054906101000a900473ffffffffffffffffffffffffffffffffffffffff1673ffffffffffffffffffffffffffffffffffffffff16630b59d31982306040518363ffffffff167c0100000000000000000000000000000000000000000000000000000000028152600401808373ffffffffffffffffffffffffffffffffffffffff1673ffffffffffffffffffffffffffffffffffffffff1681526020018273ffffffffffffffffffffffffffffffffffffffff1673ffffffffffffffffffffffffffffffffffffffff16815260200192505050600060405180830381600087803b15801561131057600080fd5b505af1158015611324573d6000803e3d6000fd5b50505050816003600082825401925050819055505050565b60088181548110151561134b57fe5b906000526020600020016000915054906101000a900473ffffffffffffffffffffffffffffffffffffffff1681565b600d8181548110151561138957fe5b9060005260206000209060060201600091509050806000018054600181600116156101000203166002900480601f0160208091040260200160405190810160405280929190818152602001828054600181600116156101000203166002900480156114355780601f1061140a57610100808354040283529160200191611435565b820191906000526020600020905b81548152906001019060200180831161141857829003601f168201915b5050505050908060010160009054906101000a900473ffffffffffffffffffffffffffffffffffffffff16908060020154908060030154908060040154905085565b60098181548110151561148657fe5b906000526020600020016000915090505481565b600654421015156114aa57600080fd5b6000821115156114b957600080fd5b6004548260035401111515156114ce57600080fd5b6000809054906101000a900473ffffffffffffffffffffffffffffffffffffffff1673ffffffffffffffffffffffffffffffffffffffff168173ffffffffffffffffffffffffffffffffffffffff161415151561152a57600080fd5b60001515600a60008373ffffffffffffffffffffffffffffffffffffffff1673ffffffffffffffffffffffffffffffffffffffff16815260200190815260200160002060009054906101000a900460ff16151514151561158957600080fd5b60088190806001815401808255809150509060018203906000526020600020016000909192909190916101000a81548173ffffffffffffffffffffffffffffffffffffffff021916908373ffffffffffffffffffffffffffffffffffffffff1602179055505060098290806001815401808255809150509060018203906000526020600020016000909192909190915055506001600a60008373ffffffffffffffffffffffffffffffffffffffff1673ffffffffffffffffffffffffffffffffffffffff16815260200190815260200160002060006101000a81548160ff021916908315150217905550600b60009054906101000a900473ffffffffffffffffffffffffffffffffffffffff1673ffffffffffffffffffffffffffffffffffffffff16630b59d31982306040518363ffffffff167c0100000000000000000000000000000000000000000000000000000000028152600401808373ffffffffffffffffffffffffffffffffffffffff1673ffffffffffffffffffffffffffffffffffffffff1681526020018273ffffffffffffffffffffffffffffffffffffffff1673ffffffffffffffffffffffffffffffffffffffff16815260200192505050600060405180830381600087803b15801561176457600080fd5b505af1158015611778573d6000803e3d6000fd5b50505050816003600082825401925050819055505050565b60055481565b6000600a60003373ffffffffffffffffffffffffffffffffffffffff1673ffffffffffffffffffffffffffffffffffffffff16815260200190815260200160002060009054906101000a900460ff1615156117f057600080fd5b600d828154811015156117ff57fe5b90600052602060002090600602019050600015158160050160003373ffffffffffffffffffffffffffffffffffffffff1673ffffffffffffffffffffffffffffffffffffffff16815260200190815260200160002060009054906101000a900460ff16151514151561187057600080fd5b60018160050160003373ffffffffffffffffffffffffffffffffffffffff1673ffffffffffffffffffffffffffffffffffffffff16815260200190815260200160002060006101000a81548160ff0219169083151502179055505050565b60004260065403905090565b600080600091505b600880549050821015611a4f576000600a600060088581548110151561190457fe5b9060005260206000200160009054906101000a900473ffffffffffffffffffffffffffffffffffffffff1673ffffffffffffffffffffffffffffffffffffffff1673ffffffffffffffffffffffffffffffffffffffff16815260200190815260200160002060006101000a81548160ff02191690831515021790555060088281548110151561198f57fe5b9060005260206000200160009054906101000a900473ffffffffffffffffffffffffffffffffffffffff1673ffffffffffffffffffffffffffffffffffffffff166108fc6009848154811015156119e257fe5b90600052602060002001549081150290604051600060405180830381858888f19350505050158015611a18573d6000803e3d6000fd5b50600982815481101515611a2857fe5b906000526020600020015460036000828254039250508190555081806001019250506118e2565b600090505b600880549050811015611ac757600881815481101515611a7057fe5b9060005260206000200160006101000a81549073ffffffffffffffffffffffffffffffffffffffff0219169055600981815481101515611aac57fe5b90600052602060002001600090558080600101915050611a54565b6000600881611ad6919061220f565b506000600981611ae6919061223b565b505050565b60075481565b60028054600181600116156101000203166002900480601f016020809104026020016040519081016040528092919081815260200182805460018160011615610100020316600290048015611b875780601f10611b5c57610100808354040283529160200191611b87565b820191906000526020600020905b815481529060010190602001808311611b6a57829003601f168201915b505050505081565b60004260055403905090565b6001600d82815481101515611bac57fe5b906000526020600020906006020160040154141515611bca57600080fd5b600d81815481101515611bd957fe5b9060005260206000209060060201600201543073ffffffffffffffffffffffffffffffffffffffff163110151515611c1057600080fd5b600d81815481101515611c1f57fe5b906000526020600020906006020160010160009054906101000a900473ffffffffffffffffffffffffffffffffffffffff1673ffffffffffffffffffffffffffffffffffffffff166108fc600d83815481101515611c7957fe5b9060005260206000209060060201600201549081150290604051600060405180830381858888f19350505050158015611cb6573d6000803e3d6000fd5b506002600d82815481101515611cc857fe5b90600052602060002090600602016004018190555050565b600080611cec336120ab565b9150600882815481101515611cfd57fe5b9060005260206000200160009054906101000a900473ffffffffffffffffffffffffffffffffffffffff1673ffffffffffffffffffffffffffffffffffffffff166108fc600984815481101515611d5057fe5b90600052602060002001549081150290604051600060405180830381858888f19350505050158015611d86573d6000803e3d6000fd5b506000600a60003373ffffffffffffffffffffffffffffffffffffffff1673ffffffffffffffffffffffffffffffffffffffff16815260200190815260200160002060006101000a81548160ff0219169083151502179055508190505b600160088054905003811015611ece57600860018201815481101515611e0557fe5b9060005260206000200160009054906101000a900473ffffffffffffffffffffffffffffffffffffffff16600882815481101515611e3f57fe5b9060005260206000200160006101000a81548173ffffffffffffffffffffffffffffffffffffffff021916908373ffffffffffffffffffffffffffffffffffffffff160217905550600960018201815481101515611e9957fe5b9060005260206000200154600982815481101515611eb357fe5b90600052602060002001819055508080600101915050611de3565b6001600881818054905003915081611ee6919061220f565b506001600981818054905003915081611eff919061223b565b505050565b60045481565b6000600a60003373ffffffffffffffffffffffffffffffffffffffff1673ffffffffffffffffffffffffffffffffffffffff16815260200190815260200160002060009054906101000a900460ff161515611f6457600080fd5b600d82815481101515611f7357fe5b90600052602060002090600602019050600015158160050160003373ffffffffffffffffffffffffffffffffffffffff1673ffffffffffffffffffffffffffffffffffffffff16815260200190815260200160002060009054906101000a900460ff161515141515611fe457600080fd5b6009611fef336120ab565b815481101515611ffb57fe5b9060005260206000200154816003016000828254019250508190555060018160050160003373ffffffffffffffffffffffffffffffffffffffff1673ffffffffffffffffffffffffffffffffffffffff16815260200190815260200160002060006101000a81548160ff021916908315150217905550600454600282600301540210151561208e57600181600401819055505b5050565b6000600880549050905090565b600c5481565b60035481565b600080600090505b600880549050811015612142578273ffffffffffffffffffffffffffffffffffffffff166008828154811015156120e657fe5b9060005260206000200160009054906101000a900473ffffffffffffffffffffffffffffffffffffffff1673ffffffffffffffffffffffffffffffffffffffff16141561213557809150612143565b80806001019150506120b3565b5b50919050565b60a06040519081016040528060608152602001600073ffffffffffffffffffffffffffffffffffffffff1681526020016000815260200160008152602001600081525090565b828054600181600116156101000203166002900490600052602060002090601f016020900481019282601f106121d057805160ff19168380011785556121fe565b828001600101855582156121fe579182015b828111156121fd5782518255916020019190600101906121e2565b5b50905061220b9190612267565b5090565b815481835581811115612236578183600052602060002091820191016122359190612267565b5b505050565b815481835581811115612262578183600052602060002091820191016122619190612267565b5b505050565b61228991905b8082111561228557600081600090555060010161226d565b5090565b905600a165627a7a72305820311fecd72a067c5a9b68f83fca189380599de26774a24c59ca624a5ba78339ff0029a165627a7a72305820d4cf41853b2bb817c1a18132206ba75a26b041830fa4d3ab2de957bfe7da59d50029608060405234801561001057600080fd5b50610737806100206000396000f30060806040526004361061006d576000357c0100000000000000000000000000000000000000000000000000000000900463ffffffff1680630b59d3191461007257806366b6c0e9146100d55780639fd36ec91461016d578063ad0a4f3214610205578063af125c511461029d575b600080fd5b34801561007e57600080fd5b506100d3600480360381019080803573ffffffffffffffffffffffffffffffffffffffff169060200190929190803573ffffffffffffffffffffffffffffffffffffffff169060200190929190505050610335565b005b3480156100e157600080fd5b50610116600480360381019080803573ffffffffffffffffffffffffffffffffffffffff1690602001909291905050506103db565b6040518080602001828103825283818151815260200191508051906020019060200280838360005b8381101561015957808201518184015260208101905061013e565b505050509050019250505060405180910390f35b34801561017957600080fd5b506101ae600480360381019080803573ffffffffffffffffffffffffffffffffffffffff1690602001909291905050506104a7565b6040518080602001828103825283818151815260200191508051906020019060200280838360005b838110156101f15780820151818401526020810190506101d6565b505050509050019250505060405180910390f35b34801561021157600080fd5b50610246600480360381019080803573ffffffffffffffffffffffffffffffffffffffff169060200190929190505050610573565b6040518080602001828103825283818151815260200191508051906020019060200280838360005b8381101561028957808201518184015260208101905061026e565b505050509050019250505060405180910390f35b3480156102a957600080fd5b506102de600480360381019080803573ffffffffffffffffffffffffffffffffffffffff16906020019092919050505061063f565b6040518080602001828103825283818151815260200191508051906020019060200280838360005b83811015610321578082015181840152602081019050610306565b505050509050019250505060405180910390f35b6000808373ffffffffffffffffffffffffffffffffffffffff1673ffffffffffffffffffffffffffffffffffffffff1681526020019081526020016000208190806001815401808255809150509060018203906000526020600020016000909192909190916101000a81548173ffffffffffffffffffffffffffffffffffffffff021916908373ffffffffffffffffffffffffffffffffffffffff160217905550505050565b60606000808373ffffffffffffffffffffffffffffffffffffffff1673ffffffffffffffffffffffffffffffffffffffff16815260200190815260200160002080548060200260200160405190810160405280929190818152602001828054801561049b57602002820191906000526020600020905b8160009054906101000a900473ffffffffffffffffffffffffffffffffffffffff1673ffffffffffffffffffffffffffffffffffffffff1681526020019060010190808311610451575b50505050509050919050565b60606000808373ffffffffffffffffffffffffffffffffffffffff1673ffffffffffffffffffffffffffffffffffffffff16815260200190815260200160002080548060200260200160405190810160405280929190818152602001828054801561056757602002820191906000526020600020905b8160009054906101000a900473ffffffffffffffffffffffffffffffffffffffff1673ffffffffffffffffffffffffffffffffffffffff168152602001906001019080831161051d575b50505050509050919050565b60606000808373ffffffffffffffffffffffffffffffffffffffff1673ffffffffffffffffffffffffffffffffffffffff16815260200190815260200160002080548060200260200160405190810160405280929190818152602001828054801561063357602002820191906000526020600020905b8160009054906101000a900473ffffffffffffffffffffffffffffffffffffffff1673ffffffffffffffffffffffffffffffffffffffff16815260200190600101908083116105e9575b50505050509050919050565b60606000808373ffffffffffffffffffffffffffffffffffffffff1673ffffffffffffffffffffffffffffffffffffffff1681526020019081526020016000208054806020026020016040519081016040528092919081815260200182805480156106ff57602002820191906000526020600020905b8160009054906101000a900473ffffffffffffffffffffffffffffffffffffffff1673ffffffffffffffffffffffffffffffffffffffff16815260200190600101908083116106b5575b505050505090509190505600a165627a7a723058203d06f48949f91a75b6b716c8ba204db065c3b93c3a06dfa371977479c2d437c20029",
  "source": "pragma solidity 0.4.24;\n//import './Funding.sol';\n//\ncontract Chou{\n    mapping(address => address[]) Fundings;\n    function setFunding(address user,address funding) public {\n        Fundings[user].push(funding);\n    }\n    function getFunding(address user)public view returns(address [] memory ){\n        return Fundings[user];\n    }\n    function getYue(address user)public view returns(address [] memory ){\n        return Fundings[user];\n    }\n    function getaccountcur(address user)public view returns(address [] memory ){\n        return Fundings[user];\n    }\n    function getrequeirelistall(address user)public view returns(address [] memory ){\n        return Fundings[user];\n    }\n}\ncontract ChouQian{\n    address public creator; //\n    string public name; //\n    string public detaileall; //\n    uint public present;  //\n    uint public target;  //\n    uint public startTime;  //\n    uint public endTime; //\n    uint public checkbox;//\n    address [] public investors;  //\n    uint[] public support;  //\n    mapping(address => bool) allInvestors;  //\n    Chou related;//\n    uint public requestNum;\n\n    struct Request{\n        string purpose;\n        address seller;\n        uint cost;\n        uint approvedCount;\n        uint status;   //0-1-2-\n        mapping(address => bool) isVoted;\n    }\n    Request [] public Requests;\n\n    constructor(string memory _name, uint _target, uint _duration,address _creator, Chou _related) public{\n        creator = _creator;\n        name = _name;\n        target = _target;\n        endTime = block.timestamp + _duration;\n        related = _related;\n        requestNum = 0;\n    }\n    //\n    function invest(uint money,address user) public payable{\n        require(block.timestamp < endTime);\n        require(money>0);\n        require(present + money <= target);\n        require(user != creator);\n        require(allInvestors[user] == false);\n        investors.push(user);\n        support.push(money);\n        allInvestors[user] = true;\n        related.setFunding(user,this);\n        present += money;\n    }\n    function joinChou(uint money,address user) public payable{\n        require(block.timestamp < endTime);\n        require(money>0);\n        require(present + money <= target);\n        require(user != creator);\n        require(allInvestors[user] == false);\n        investors.push(user);\n        support.push(money);\n        allInvestors[user] = true;\n        related.setFunding(user,this);\n        present += money;\n    }\n    //\n    function getLastTime() public view returns(uint){\n        return endTime - block.timestamp;\n    }\n    function getStartTime() public view returns(uint){\n        return startTime - block.timestamp;\n    }\n    function investorCount() public view returns(uint){\n        return investors.length;\n    }\n    function investorCurName() public view returns(uint){\n        return investors.length;\n    }\n    function getRequestNum() public view returns(uint){\n        return requestNum;\n    }\n    function get_investors() public view returns(address [] memory){\n        return investors;\n    }\n    function find_user(address target_user) private returns(uint){\n        for(uint i = 0;i<investors.length;i++){\n            if(investors[i] == target_user){\n                return i;\n            }\n        }\n    }\n    //\n    function refund_for_one() public{\n        uint i = find_user(msg.sender);\n        investors[i].transfer(support[i]);\n        allInvestors[msg.sender] = false;\n        for(uint j = i;j<investors.length-1;j++){\n            investors[j] = investors[j+1];\n            support[j] = support[j+1];\n        }\n        investors.length -= 1 ;\n        support.length -= 1;\n    }\n    //\n    function refund_for_all() public{\n        for(uint i = 0;i<investors.length;i++){\n            allInvestors[investors[i]]= false;\n            investors[i].transfer(support[i]);\n            present -=support[i];\n        }\n        for(uint j = 0;j<investors.length;j++){\n            delete investors[j];\n            delete support[j];\n        }\n        investors.length=0;\n        support.length=0;\n    }\n    //\n    function createRequest(string memory _purpose,address _seller, uint _cost) public{\n        Request memory req = Request({\n            purpose: _purpose,\n            seller: _seller,\n            cost: _cost,\n            approvedCount: 0,\n            status: 0\n        });\n        requestNum++;\n        Requests.push(req);\n    }\n    //\n    function createRequestList(string memory _purpose,address _seller, uint _cost) public{\n        Request memory req = Request({\n            purpose: _purpose,\n            seller: _seller,\n            cost: _cost,\n            approvedCount: 0,\n            status: 0\n        });\n        requestNum++;\n        Requests.push(req);\n    }\n    //\n    function approveRequest(uint i) public {\n        require(allInvestors[msg.sender]);\n        Request storage req = Requests[i];\n        require(req.isVoted[msg.sender] == false);\n        req.approvedCount += support[find_user(msg.sender)];\n        req.isVoted[msg.sender] = true;\n        if(req.approvedCount * 2 >= target){\n            req.status = 1;\n        }\n    }\n    //\n    function denyRequest(uint i)public{\n        require(allInvestors[msg.sender]);\n        Request storage req = Requests[i];\n        require(req.isVoted[msg.sender] == false);\n        req.isVoted[msg.sender] = true;\n    }\n    //\n    function RepoRequest(uint i)public{\n        require(allInvestors[msg.sender]);\n        Request storage req = Requests[i];\n        require(req.isVoted[msg.sender] == false);\n        req.isVoted[msg.sender] = true;\n    }\n    //\n    function finishRequest(uint i) public {\n        require(Requests[i].status == 1);\n        require(address(this).balance >= Requests[i].cost);\n        Requests[i].seller.transfer(Requests[i].cost);\n        Requests[i].status = 2;\n    }\n    //\n    function DoRequest(uint i) public {\n        require(Requests[i].status == 1);\n        require(address(this).balance >= Requests[i].cost);\n        Requests[i].seller.transfer(Requests[i].cost);\n        Requests[i].status = 2;\n    }\n    function getBalance() public view returns(uint256){\n        return address(this).balance;\n    }\n    function EarnBalance() public view returns(uint256){\n        return address(this).balance;\n    }\n\n}\n//\ncontract ZhongChou{\n    address public manager;\n    address [] allFundings;\n    mapping(address=>address[]) public createdFundings;\n    Chou related = new Chou();\n    \n    constructor()public{\n        manager = msg.sender;\n    }\n    \n    function createFunding(string memory _projectName,uint256 _targetMoney,uint256 _duration,address _creator) public{\n        address funding = new ChouQian(_projectName, _targetMoney, _duration,_creator,related);\n        allFundings.push(funding);\n        if(createdFundings[_creator].length == 0){\n            createdFundings[_creator] = new address[](10);\n        }\n        createdFundings[_creator].push(funding);\n    }\n    \n    function getAllFundings()public view returns(address [] memory){\n        return allFundings;\n    }\n    function getCreatedFundings(address user)public view returns(address [] memory){\n        return createdFundings[user];\n    }\n    function getRelatedFundings(address user)view public returns(address [] memory){\n        return related.getFunding(user);\n    }\n    function deleteFunding(address funding) public {\n        for(uint i = 0;i<allFundings.length;i++){\n            if(allFundings[i] == funding){\n                allFundings[i] = allFundings[allFundings.length-1];\n                allFundings.length = allFundings.length-1;\n                break;\n            }\n        }\n    }\n}\n\n",
  "sourcePath": "C:/Users/CLQ/Desktop/finalWork/dapp/solidity/contracts/ZhongChou.sol",
  "compiler": {
    "name": "solc",
    "version": "0.4.24+commit.e67f0147.Emscripten.clang"
  },
  "schemaVersion": "3.3.3",
  "updatedAt": "2021-01-12T06:15:04.612Z",
  "networkType": "ethereum",
  "devdoc": {
    "methods": {}
  },
  "userdoc": {
    "methods": {}
  }
}