{
  "contractName": "Crowdfunding",
  "abi": [
    {
      "constant": true,
      "inputs": [
        {
          "internalType": "uint256",
          "name": "",
          "type": "uint256"
        }
      ],
      "name": "globalProjList",
      "outputs": [
        {
          "internalType": "uint256",
          "name": "need",
          "type": "uint256"
        },
        {
          "internalType": "uint256",
          "name": "curFund",
          "type": "uint256"
        },
        {
          "internalType": "uint256",
          "name": "deadLine",
          "type": "uint256"
        },
        {
          "internalType": "uint256",
          "name": "fundListLen",
          "type": "uint256"
        },
        {
          "internalType": "uint256",
          "name": "useListLen",
          "type": "uint256"
        },
        {
          "internalType": "bool",
          "name": "isFinished",
          "type": "bool"
        },
        {
          "internalType": "address payable",
          "name": "caller",
          "type": "address"
        },
        {
          "internalType": "string",
          "name": "name",
          "type": "string"
        },
        {
          "internalType": "string",
          "name": "info",
          "type": "string"
        }
      ],
      "payable": false,
      "stateMutability": "view",
      "type": "function"
    },
    {
      "constant": true,
      "inputs": [],
      "name": "globalProjListLen",
      "outputs": [
        {
          "internalType": "uint256",
          "name": "",
          "type": "uint256"
        }
      ],
      "payable": false,
      "stateMutability": "view",
      "type": "function"
    },
    {
      "constant": false,
      "inputs": [
        {
          "internalType": "address payable",
          "name": "caller",
          "type": "address"
        },
        {
          "internalType": "string",
          "name": "name",
          "type": "string"
        },
        {
          "internalType": "string",
          "name": "info",
          "type": "string"
        },
        {
          "internalType": "uint256",
          "name": "need",
          "type": "uint256"
        },
        {
          "internalType": "uint256",
          "name": "ddl",
          "type": "uint256"
        }
      ],
      "name": "createProject",
      "outputs": [],
      "payable": false,
      "stateMutability": "nonpayable",
      "type": "function"
    },
    {
      "constant": false,
      "inputs": [
        {
          "internalType": "uint256",
          "name": "idx",
          "type": "uint256"
        }
      ],
      "name": "fund",
      "outputs": [],
      "payable": true,
      "stateMutability": "payable",
      "type": "function"
    },
    {
      "constant": true,
      "inputs": [
        {
          "internalType": "address",
          "name": "funder",
          "type": "address"
        },
        {
          "internalType": "uint256",
          "name": "idx",
          "type": "uint256"
        }
      ],
      "name": "getTotFundingOf",
      "outputs": [
        {
          "internalType": "uint256",
          "name": "",
          "type": "uint256"
        }
      ],
      "payable": false,
      "stateMutability": "view",
      "type": "function"
    },
    {
      "constant": false,
      "inputs": [
        {
          "internalType": "uint256",
          "name": "idx",
          "type": "uint256"
        }
      ],
      "name": "withdraw",
      "outputs": [],
      "payable": true,
      "stateMutability": "payable",
      "type": "function"
    },
    {
      "constant": false,
      "inputs": [
        {
          "internalType": "uint256",
          "name": "idx",
          "type": "uint256"
        },
        {
          "internalType": "uint256",
          "name": "money",
          "type": "uint256"
        },
        {
          "internalType": "string",
          "name": "reason",
          "type": "string"
        }
      ],
      "name": "createUse",
      "outputs": [],
      "payable": false,
      "stateMutability": "nonpayable",
      "type": "function"
    },
    {
      "constant": false,
      "inputs": [
        {
          "internalType": "uint256",
          "name": "idx",
          "type": "uint256"
        },
        {
          "internalType": "uint256",
          "name": "uidx",
          "type": "uint256"
        },
        {
          "internalType": "bool",
          "name": "agree",
          "type": "bool"
        }
      ],
      "name": "agreeUse",
      "outputs": [],
      "payable": false,
      "stateMutability": "nonpayable",
      "type": "function"
    },
    {
      "constant": true,
      "inputs": [
        {
          "internalType": "uint256",
          "name": "idx",
          "type": "uint256"
        }
      ],
      "name": "getUseLenOf",
      "outputs": [
        {
          "internalType": "uint256",
          "name": "",
          "type": "uint256"
        }
      ],
      "payable": false,
      "stateMutability": "view",
      "type": "function"
    },
    {
      "constant": true,
      "inputs": [
        {
          "internalType": "address",
          "name": "funder",
          "type": "address"
        },
        {
          "internalType": "uint256",
          "name": "idx",
          "type": "uint256"
        },
        {
          "internalType": "uint256",
          "name": "uidx",
          "type": "uint256"
        }
      ],
      "name": "getUseOf",
      "outputs": [
        {
          "internalType": "string",
          "name": "",
          "type": "string"
        },
        {
          "internalType": "uint256",
          "name": "",
          "type": "uint256"
        },
        {
          "internalType": "uint8",
          "name": "",
          "type": "uint8"
        },
        {
          "internalType": "uint8",
          "name": "",
          "type": "uint8"
        }
      ],
      "payable": false,
      "stateMutability": "view",
      "type": "function"
    }
  ],
  "bytecode": "0x608060405234801561001057600080fd5b506116ac806100206000396000f3fe6080604052600436106100915760003560e01c80635d43fa45116100595780635d43fa451461033f57806371f15536146104d2578063954d729a14610541578063ca1d209d146106c2578063fd6722d3146106f057610091565b80632810053e146100965780632e1a7d4d146101725780633084bf18146101a057806353f6e272146101ef57806357531ea2146102ee575b600080fd5b3480156100a257600080fd5b50610170600480360360608110156100b957600080fd5b810190808035906020019092919080359060200190929190803590602001906401000000008111156100ea57600080fd5b8201836020820111156100fc57600080fd5b8035906020019184600183028401116401000000008311171561011e57600080fd5b91908080601f016020809104026020016040519081016040528093929190818152602001838380828437600081840152601f19601f82011690508083019250505050505050919291929050505061071b565b005b61019e6004803603602081101561018857600080fd5b810190808035906020019092919050505061089f565b005b3480156101ac57600080fd5b506101d9600480360360208110156101c357600080fd5b8101908080359060200190929190505050610a72565b6040518082815260200191505060405180910390f35b3480156101fb57600080fd5b506102526004803603606081101561021257600080fd5b81019080803573ffffffffffffffffffffffffffffffffffffffff1690602001909291908035906020019092919080359060200190929190505050610aad565b60405180806020018581526020018460ff1660ff1681526020018360ff1660ff168152602001828103825286818151815260200191508051906020019080838360005b838110156102b0578082015181840152602081019050610295565b50505050905090810190601f1680156102dd5780820380516001836020036101000a031916815260200191505b509550505050505060405180910390f35b3480156102fa57600080fd5b5061033d6004803603606081101561031157600080fd5b810190808035906020019092919080359060200190929190803515159060200190929190505050610d8b565b005b34801561034b57600080fd5b506104d0600480360360a081101561036257600080fd5b81019080803573ffffffffffffffffffffffffffffffffffffffff1690602001909291908035906020019064010000000081111561039f57600080fd5b8201836020820111156103b157600080fd5b803590602001918460018302840111640100000000831117156103d357600080fd5b91908080601f016020809104026020016040519081016040528093929190818152602001838380828437600081840152601f19601f8201169050808301925050505050505091929192908035906020019064010000000081111561043657600080fd5b82018360208201111561044857600080fd5b8035906020019184600183028401116401000000008311171561046a57600080fd5b91908080601f016020809104026020016040519081016040528093929190818152602001838380828437600081840152601f19601f82011690508083019250505050505050919291929080359060200190929190803590602001909291905050506110ce565b005b3480156104de57600080fd5b5061052b600480360360408110156104f557600080fd5b81019080803573ffffffffffffffffffffffffffffffffffffffff169060200190929190803590602001909291905050506111d9565b6040518082815260200191505060405180910390f35b34801561054d57600080fd5b5061057a6004803603602081101561056457600080fd5b81019080803590602001909291905050506112c7565b604051808a8152602001898152602001888152602001878152602001868152602001851515151581526020018473ffffffffffffffffffffffffffffffffffffffff1673ffffffffffffffffffffffffffffffffffffffff1681526020018060200180602001838103835285818151815260200191508051906020019080838360005b838110156106185780820151818401526020810190506105fd565b50505050905090810190601f1680156106455780820380516001836020036101000a031916815260200191505b50838103825284818151815260200191508051906020019080838360005b8381101561067e578082015181840152602081019050610663565b50505050905090810190601f1680156106ab5780820380516001836020036101000a031916815260200191505b509b50505050505050505050505060405180910390f35b6106ee600480360360208110156106d857600080fd5b8101908080359060200190929190505050611472565b005b3480156106fc57600080fd5b506107056115cc565b6040518082815260200191505060405180910390f35b6001831015801561072e57506001548311155b61073757600080fd5b60008084815260200190815260200160002060050160009054906101000a900460ff1661076357600080fd5b6000821180156107885750600080848152602001908152602001600020600101548211155b61079157600080fd5b60008084815260200190815260200160002060050160019054906101000a900473ffffffffffffffffffffffffffffffffffffffff1673ffffffffffffffffffffffffffffffffffffffff163373ffffffffffffffffffffffffffffffffffffffff16146107fe57600080fd5b6000806000858152602001908152602001600020905060018160040160008282540192505081905550600081600901600083600401548152602001908152602001600020905060008160000160006101000a81548160ff021916908360ff160217905550838160010181905550828160040190805190602001906108839291906115d2565b5060008160020181905550600081600301819055505050505050565b600181101580156108b257506001548111155b6108bb57600080fd5b60008082815260200190815260200160002060050160009054906101000a900460ff16156108e857600080fd5b600080600083815260200190815260200160002090506000600190505b81600301548111610a6d573373ffffffffffffffffffffffffffffffffffffffff1682600801600083815260200190815260200160002060010160009054906101000a900473ffffffffffffffffffffffffffffffffffffffff1673ffffffffffffffffffffffffffffffffffffffff161415610a605781600801600082815260200190815260200160002060010160009054906101000a900473ffffffffffffffffffffffffffffffffffffffff1673ffffffffffffffffffffffffffffffffffffffff166108fc836008016000848152602001908152602001600020600001549081150290604051600060405180830381858888f19350505050158015610a12573d6000803e3d6000fd5b50816008016000828152602001908152602001600020600001548260010160008282540392505081905550600082600801600083815260200190815260200160002060000181905550610a6d565b8080600101915050610905565b505050565b600060018210158015610a8757506001548211155b610a9057600080fd5b600080838152602001908152602001600020600401549050919050565b6060600080600060018610158015610ac757506001548611155b610ad057600080fd5b60018510158015610af65750600080878152602001908152602001600020600401548511155b610aff57600080fd5b600080600088815260200190815260200160002090506000809050600190505b81600301548111610ba8578873ffffffffffffffffffffffffffffffffffffffff1682600801600083815260200190815260200160002060010160009054906101000a900473ffffffffffffffffffffffffffffffffffffffff1673ffffffffffffffffffffffffffffffffffffffff161415610b9b57610ba8565b8080600101915050610b1f565b600082600901600089815260200190815260200160002090506001836003015401821415610c9c578060040181600101548260000160009054906101000a900460ff166000838054600181600116156101000203166002900480601f016020809104026020016040519081016040528092919081815260200182805460018160011615610100020316600290048015610c825780601f10610c5757610100808354040283529160200191610c82565b820191906000526020600020905b815481529060010190602001808311610c6557829003601f168201915b505050505093508090509650965096509650505050610d82565b8060040181600101548260000160009054906101000a900460ff1683600501600086815260200190815260200160002060009054906101000a900460ff16838054600181600116156101000203166002900480601f016020809104026020016040519081016040528092919081815260200182805460018160011615610100020316600290048015610d6f5780601f10610d4457610100808354040283529160200191610d6f565b820191906000526020600020905b815481529060010190602001808311610d5257829003601f168201915b5050505050935096509650965096505050505b93509350935093565b60018310158015610d9e57506001548311155b610da757600080fd5b60018210158015610dcd5750600080848152602001908152602001600020600401548211155b610dd657600080fd5b6000806000858152602001908152602001600020600901600084815260200190815260200160002060000160009054906101000a900460ff1660ff1614610e1c57600080fd5b60008060008581526020019081526020016000209050600081600901600085815260200190815260200160002090506000600190505b826003015481116110c6573373ffffffffffffffffffffffffffffffffffffffff1683600801600083815260200190815260200160002060010160009054906101000a900473ffffffffffffffffffffffffffffffffffffffff1673ffffffffffffffffffffffffffffffffffffffff16148015610f0957506000836009016000878152602001908152602001600020600501600083815260200190815260200160002060009054906101000a900460ff1660ff16145b156110b9578315610f7257826008016000828152602001908152602001600020600001548260020160008282540192505081905550600182600501600083815260200190815260200160002060006101000a81548160ff021916908360ff160217905550610fcc565b826008016000828152602001908152602001600020600001548260030160008282540192505081905550600282600501600083815260200190815260200160002060006101000a81548160ff021916908360ff1602179055505b82600001548260020154600202106110865760018260000160006101000a81548160ff021916908360ff160217905550816001015483600101600082825403925050819055508260050160019054906101000a900473ffffffffffffffffffffffffffffffffffffffff1673ffffffffffffffffffffffffffffffffffffffff166108fc83600101549081150290604051600060405180830381858888f19350505050158015611080573d6000803e3d6000fd5b506110b8565b82600001548260030154600202106110b75760028260000160006101000a81548160ff021916908360ff1602179055505b5b5b8080600101915050610e52565b505050505050565b600082116110db57600080fd5b4281116110e757600080fd5b6001806000828254019250508190555060008060006001548152602001908152602001600020905082816000018190555060008160010181905550818160020181905550600081600301819055506000816004018190555060008160050160006101000a81548160ff021916908315150217905550858160050160016101000a81548173ffffffffffffffffffffffffffffffffffffffff021916908373ffffffffffffffffffffffffffffffffffffffff160217905550848160060190805190602001906111b79291906115d2565b50838160070190805190602001906111d09291906115d2565b50505050505050565b6000600182101580156111ee57506001548211155b6111f757600080fd5b6000809050600080600085815260200190815260200160002090506000600190505b816003015481116112bb578573ffffffffffffffffffffffffffffffffffffffff1682600801600083815260200190815260200160002060010160009054906101000a900473ffffffffffffffffffffffffffffffffffffffff1673ffffffffffffffffffffffffffffffffffffffff1614156112ae5781600801600082815260200190815260200160002060000154830192505b8080600101915050611219565b50819250505092915050565b60006020528060005260406000206000915090508060000154908060010154908060020154908060030154908060040154908060050160009054906101000a900460ff16908060050160019054906101000a900473ffffffffffffffffffffffffffffffffffffffff1690806006018054600181600116156101000203166002900480601f0160208091040260200160405190810160405280929190818152602001828054600181600116156101000203166002900480156113ca5780601f1061139f576101008083540402835291602001916113ca565b820191906000526020600020905b8154815290600101906020018083116113ad57829003601f168201915b505050505090806007018054600181600116156101000203166002900480601f0160208091040260200160405190810160405280929190818152602001828054600181600116156101000203166002900480156114685780601f1061143d57610100808354040283529160200191611468565b820191906000526020600020905b81548152906001019060200180831161144b57829003601f168201915b5050505050905089565b6001811015801561148557506001548111155b61148e57600080fd5b6000341161149b57600080fd5b6000808281526020019081526020016000206002015442106114bc57600080fd5b60008082815260200190815260200160002060050160009054906101000a900460ff16156114e957600080fd5b60008060008381526020019081526020016000209050348160010160008282540192505081905550600181600301600082825401925050819055506000816008016000836003015481526020019081526020016000209050338160010160006101000a81548173ffffffffffffffffffffffffffffffffffffffff021916908373ffffffffffffffffffffffffffffffffffffffff16021790555034816000018190555081600001548260010154106115c75760018260050160006101000a81548160ff021916908315150217905550816001015482600001819055505b505050565b60015481565b828054600181600116156101000203166002900490600052602060002090601f016020900481019282601f1061161357805160ff1916838001178555611641565b82800160010185558215611641579182015b82811115611640578251825591602001919060010190611625565b5b50905061164e9190611652565b5090565b61167491905b80821115611670576000816000905550600101611658565b5090565b9056fea265627a7a72315820062f345dcb8a62ee7c92195a9b1e7075d8bbc0c01bbe15e8c102cb252354914e64736f6c63430005100032",
  "source": "// SPDX-License-Identifier: MIT\r\npragma solidity >=0.4.22 <0.9.0;\r\n\r\ncontract Crowdfunding {\r\n    // 投资记录\r\n    struct Fund {\r\n        uint256 money; // 投资数额\r\n        address payable funderAddr; // 投资人地址\r\n    }\r\n\r\n    // 使用记录\r\n    struct Use {\r\n        uint8 status; // 0:待定 1:通过 2:否决\r\n        uint256 money; // 提取数额\r\n        uint256 agreeMoney; // 初始值0，同意票将增加其值\r\n        uint256 disagreeMoney; // 初始值0，否定票将增加其值\r\n        string reason; // 使用资金申请理由\r\n        // key: Project.fundList.idx\r\n        // val: 0: 未表决 1: 同意 2: 不同意\r\n        mapping(uint256 => uint8) agreeList;\r\n    }\r\n    // 众筹项目\r\n    struct Project {\r\n        uint256 need; // 需要筹集的总金额，若筹款成功且筹款大于原始need，need将被更新\r\n        uint256 curFund; // 当前筹集的金额\r\n        uint256 deadLine; // 项目结束时间\r\n        uint256 fundListLen; // 出资记录数\r\n        uint256 useListLen; // 使用记录数\r\n        bool isFinished; // true表示众筹已完成，false表示未完成\r\n        address payable caller; // 项目召集发起人\r\n        string name; // 项目名称\r\n        string info; // 项目简介\r\n        mapping(uint256 => Fund) fundList;\r\n        mapping(uint256 => Use) useList;\r\n    }\r\n\r\n    mapping(uint256 => Project) public globalProjList;\r\n    uint256 public globalProjListLen; // 众筹项目总数量\r\n\r\n    function createProject(\r\n        address payable caller,\r\n        string memory name,\r\n        string memory info,\r\n        uint256 need,\r\n        uint256 ddl\r\n    ) public {\r\n        // 约束条件：申请钱数大于0\r\n        require(need > 0);\r\n        // 约束条件：截止日期在未来\r\n        require(ddl > block.timestamp);\r\n\r\n        globalProjListLen += 1;\r\n        Project storage p = globalProjList[globalProjListLen];\r\n        p.need = need;\r\n        p.curFund = 0;\r\n        p.deadLine = ddl;\r\n        p.fundListLen = 0;\r\n        p.useListLen = 0;\r\n        p.isFinished = false;\r\n        p.caller = caller;\r\n        p.name = name;\r\n        p.info = info;\r\n    }\r\n\r\n    function fund(uint256 idx) public payable {\r\n        // 约束条件：idx合法，该众筹项目存在\r\n        require(idx >= 1 && idx <= globalProjListLen);\r\n        // 约束条件：投资必须大于0，允许超额\r\n        require(msg.value > 0);\r\n        // 约束条件：项目必须未截止\r\n        require(block.timestamp < globalProjList[idx].deadLine);\r\n        // 约束条件：项目必须未完成\r\n        require(!globalProjList[idx].isFinished);\r\n\r\n        Project storage p = globalProjList[idx];\r\n        p.curFund += msg.value;\r\n        p.fundListLen += 1;\r\n        Fund storage f = p.fundList[p.fundListLen];\r\n        f.funderAddr = msg.sender;\r\n        f.money = msg.value;\r\n\r\n        // 判断是否完成筹资\r\n        if (p.curFund >= p.need) {\r\n            p.isFinished = true;\r\n            p.need = p.curFund; // 更新need为历史最大值，即最终成功筹款数额\r\n        }\r\n    }\r\n\r\n    function getTotFundingOf(address funder, uint256 idx)\r\n        public\r\n        view\r\n        returns (uint256)\r\n    {\r\n        // 约束条件：idx合法，该众筹项目存在\r\n        require(idx >= 1 && idx <= globalProjListLen);\r\n\r\n        uint256 myFunding = 0;\r\n        Project storage p = globalProjList[idx];\r\n        for (uint256 i = 1; i <= p.fundListLen; i++) {\r\n            if (p.fundList[i].funderAddr == funder)\r\n                myFunding += p.fundList[i].money;\r\n        }\r\n        return myFunding;\r\n    }\r\n\r\n    function withdraw(uint256 idx) public payable {\r\n        // 约束条件：idx合法，该众筹项目存在\r\n        require(idx >= 1 && idx <= globalProjListLen);\r\n        // 约束条件：项目必须未完成\r\n        require(!globalProjList[idx].isFinished);\r\n\r\n        Project storage p = globalProjList[idx];\r\n        for (uint256 i = 1; i <= p.fundListLen; i++) {\r\n            if (p.fundList[i].funderAddr == msg.sender) {\r\n                p.fundList[i].funderAddr.transfer(p.fundList[i].money);\r\n                p.curFund -= p.fundList[i].money;\r\n                p.fundList[i].money = 0;\r\n                break;\r\n            }\r\n        }\r\n    }\r\n\r\n    function createUse(\r\n        uint256 idx,\r\n        uint256 money,\r\n        string memory reason\r\n    ) public {\r\n        // 约束条件：idx合法\r\n        require(idx >= 1 && idx <= globalProjListLen);\r\n        // 约束条件：项目已完成\r\n        require(globalProjList[idx].isFinished);\r\n        // 约束条件：申请金额大于0，小于等于余额\r\n        require(money > 0 && money <= globalProjList[idx].curFund);\r\n        // 约束条件：申请人是发起人\r\n        require(msg.sender == globalProjList[idx].caller);\r\n\r\n        Project storage p = globalProjList[idx];\r\n        p.useListLen += 1;\r\n        Use storage u = p.useList[p.useListLen];\r\n        u.status = 0;\r\n        u.money = money;\r\n        u.reason = reason;\r\n        u.agreeMoney = 0;\r\n        u.disagreeMoney = 0;\r\n    }\r\n\r\n    function agreeUse(\r\n        uint256 idx,\r\n        uint256 uidx,\r\n        bool agree\r\n    ) public {\r\n        // 约束条件：idx合法\r\n        require(idx >= 1 && idx <= globalProjListLen);\r\n        // 约束条件：uidx合法\r\n        require(uidx >= 1 && uidx <= globalProjList[idx].useListLen);\r\n        // 约束条件：使用请求待定\r\n        require(globalProjList[idx].useList[uidx].status == 0);\r\n\r\n        Project storage p = globalProjList[idx];\r\n        Use storage u = p.useList[uidx];\r\n        for (uint256 fidx = 1; fidx <= p.fundListLen; fidx++) {\r\n            // 资助 并且 未表决者才能投票\r\n            if (\r\n                p.fundList[fidx].funderAddr == msg.sender &&\r\n                p.useList[uidx].agreeList[fidx] == 0\r\n            ) {\r\n                if (agree) {\r\n                    u.agreeMoney += p.fundList[fidx].money;\r\n                    u.agreeList[fidx] = 1;\r\n                } else {\r\n                    u.disagreeMoney += p.fundList[fidx].money;\r\n                    u.agreeList[fidx] = 2;\r\n                }\r\n\r\n                // 检查是否已经半数（资金）通过 或 半数否决\r\n                if (2 * u.agreeMoney >= p.need) {\r\n                    u.status = 1;\r\n                    // 若通过则转钱\r\n                    p.curFund -= u.money;\r\n                    p.caller.transfer(u.money);\r\n                } else if (2*u.disagreeMoney >= p.need) {\r\n                    u.status = 2;\r\n                }\r\n            }\r\n        }\r\n    }\r\n\r\n    function getUseLenOf(uint256 idx) public view returns (uint256) {\r\n        // 约束条件：idx合法，该众筹项目存在\r\n        require(idx >= 1 && idx <= globalProjListLen);\r\n        return globalProjList[idx].useListLen;\r\n    }\r\n\r\n    function getUseOf(\r\n        address funder,\r\n        uint256 idx,\r\n        uint256 uidx\r\n    )\r\n        public\r\n        view\r\n        returns (\r\n            string memory,\r\n            uint256,\r\n            uint8,\r\n            uint8\r\n        )\r\n    {\r\n        // 约束条件：idx合法，该众筹项目存在\r\n        require(idx >= 1 && idx <= globalProjListLen);\r\n        // 约束条件：uidx合法\r\n        require(uidx >= 1 && uidx <= globalProjList[idx].useListLen);\r\n\r\n        Project storage p = globalProjList[idx];\r\n        // 找到funder的一个fund\r\n        uint256 fidx = 0;\r\n        for (fidx = 1; fidx <= p.fundListLen; fidx++) {\r\n            if (p.fundList[fidx].funderAddr == funder) break;\r\n        }\r\n\r\n        Use storage u = p.useList[uidx];\r\n        if (fidx == p.fundListLen + 1) {\r\n            // funder不是资助者，即funder有可能是发起人，也返回信息\r\n            return (u.reason, u.money, u.status, 0);\r\n        } else {\r\n            return (u.reason, u.money, u.status, u.agreeList[fidx]);\r\n        }\r\n    }\r\n}\r\n",
  "sourcePath": "D:/Work/repos/blockchainCourse/xukeyue/finalWork/contracts/CrowdFunding.sol",
  "compiler": {
    "name": "solc",
    "version": "0.5.16+commit.9c3226ce.Emscripten.clang"
  },
  "schemaVersion": "3.3.3",
  "updatedAt": "2021-01-13T12:34:58.921Z",
  "networkType": "ethereum",
  "devdoc": {
    "methods": {}
  },
  "userdoc": {
    "methods": {}
  }
}