{
  "contractName": "Adoption",
  "abi": [
    {
      "constant": true,
      "inputs": [
        {
          "name": "",
          "type": "uint256"
        }
      ],
      "name": "adopters",
      "outputs": [
        {
          "name": "",
          "type": "address"
        }
      ],
      "payable": false,
      "stateMutability": "view",
      "type": "function"
    },
    {
      "constant": true,
      "inputs": [
        {
          "name": "",
          "type": "uint256"
        }
      ],
      "name": "volume",
      "outputs": [
        {
          "name": "",
          "type": "uint256"
        }
      ],
      "payable": false,
      "stateMutability": "view",
      "type": "function"
    },
    {
      "constant": true,
      "inputs": [
        {
          "name": "",
          "type": "uint256"
        }
      ],
      "name": "thelike",
      "outputs": [
        {
          "name": "",
          "type": "uint256"
        }
      ],
      "payable": false,
      "stateMutability": "view",
      "type": "function"
    },
    {
      "constant": false,
      "inputs": [
        {
          "name": "petId",
          "type": "uint256"
        }
      ],
      "name": "adopt",
      "outputs": [
        {
          "name": "",
          "type": "uint256"
        }
      ],
      "payable": false,
      "stateMutability": "nonpayable",
      "type": "function"
    },
    {
      "constant": true,
      "inputs": [],
      "name": "getAdopters",
      "outputs": [
        {
          "name": "",
          "type": "address[16]"
        }
      ],
      "payable": false,
      "stateMutability": "view",
      "type": "function"
    },
    {
      "constant": true,
      "inputs": [],
      "name": "getVolume",
      "outputs": [
        {
          "name": "",
          "type": "uint256[16]"
        }
      ],
      "payable": false,
      "stateMutability": "view",
      "type": "function"
    }
  ],
  "bytecode": "0x608060405261020060405190810160405280600060ff168152602001600060ff168152602001600060ff168152602001600060ff168152602001600060ff168152602001600060ff168152602001600060ff168152602001600060ff168152602001600060ff168152602001600060ff168152602001600060ff168152602001600060ff168152602001600060ff168152602001600060ff168152602001600060ff168152602001600060ff1681525060109060106100bf92919061018e565b5061020060405190810160405280600060ff168152602001600060ff168152602001600060ff168152602001600060ff168152602001600060ff168152602001600060ff168152602001600060ff168152602001600060ff168152602001600060ff168152602001600060ff168152602001600060ff168152602001600060ff168152602001600060ff168152602001600060ff168152602001600060ff168152602001600060ff16815250602090601061017b92919061018e565b5034801561018857600080fd5b506101f8565b82601081019282156101c2579160200282015b828111156101c1578251829060ff169055916020019190600101906101a1565b5b5090506101cf91906101d3565b5090565b6101f591905b808211156101f15760008160009055506001016101d9565b5090565b90565b610490806102076000396000f300608060405260043610610078576000357c0100000000000000000000000000000000000000000000000000000000900463ffffffff1680633de4eb171461007d57806343ae80d3146100d05780638588b2c51461013d578063a38f57421461017e578063c67bbc24146101bf578063fcea83ea14610212575b600080fd5b34801561008957600080fd5b50610092610253565b6040518082601060200280838360005b838110156100bd5780820151818401526020810190506100a2565b5050505090500191505060405180910390f35b3480156100dc57600080fd5b506100fb600480360381019080803590602001909291905050506102d4565b604051808273ffffffffffffffffffffffffffffffffffffffff1673ffffffffffffffffffffffffffffffffffffffff16815260200191505060405180910390f35b34801561014957600080fd5b5061016860048036038101908080359060200190929190505050610309565b6040518082815260200191505060405180910390f35b34801561018a57600080fd5b506101a96004803603810190808035906020019092919050505061039e565b6040518082815260200191505060405180910390f35b3480156101cb57600080fd5b506101d46103b8565b6040518082601060200280838360005b838110156101ff5780820151818401526020810190506101e4565b5050505090500191505060405180910390f35b34801561021e57600080fd5b5061023d60048036038101908080359060200190929190505050610402565b6040518082815260200191505060405180910390f35b61025b61041c565b60006010806020026040519081016040528092919082601080156102ca576020028201915b8160009054906101000a900473ffffffffffffffffffffffffffffffffffffffff1673ffffffffffffffffffffffffffffffffffffffff1681526020019060010190808311610280575b5050505050905090565b6000816010811015156102e357fe5b016000915054906101000a900473ffffffffffffffffffffffffffffffffffffffff1681565b600080821015801561031c5750600f8211155b151561032757600080fd5b3360008360108110151561033757fe5b0160006101000a81548173ffffffffffffffffffffffffffffffffffffffff021916908373ffffffffffffffffffffffffffffffffffffffff16021790555060108260108110151561038557fe5b0160008154809291906001019190505550819050919050565b6010816010811015156103ad57fe5b016000915090505481565b6103c0610440565b601080806020026040519081016040528092919082601080156103f8576020028201915b8154815260200190600101908083116103e4575b5050505050905090565b60208160108110151561041157fe5b016000915090505481565b61020060405190810160405280601090602082028038833980820191505090505090565b610200604051908101604052806010906020820280388339808201915050905050905600a165627a7a72305820471bac0b0c9f715bd21605d58b309984321d954ad9ac731ecc26eef511798c270029",
  "source": "pragma solidity ^0.4.24;\n\ncontract Adoption {\n\n  address[16] public adopters;  // 保存购买者的地址\n  uint[16] public volume = [0,0,0,0,0,0,0,0,0,0,0,0,0,0,0,0];\n  uint[16] public thelike = [0,0,0,0,0,0,0,0,0,0,0,0,0,0,0,0];\n  // 购买众筹产品\n  function adopt(uint petId) public returns (uint) {\n    require(petId >= 0 && petId <= 15);  // 确保id在数组长度内\n\n    adopters[petId] = msg.sender;        // 保存调用者地址 \n    volume[petId]++;\n    return petId;\n  }\n\n\n\n  // 返回购买者\n  function getAdopters() public view returns (address[16]) {\n    return adopters;\n  }\n\n  function getVolume() public view returns (uint[16]) {\n    return volume;\n  }\n\n}",
  "sourcePath": "D:/ZJU大三上/区块链/众筹Dapp/crowd-funding-dapp/contracts/Adoption.sol",
  "compiler": {
    "name": "solc",
    "version": "0.4.24+commit.e67f0147.Emscripten.clang"
  },
  "schemaVersion": "3.3.3",
  "updatedAt": "2021-01-11T17:46:22.082Z",
  "networkType": "ethereum",
  "devdoc": {
    "methods": {}
  },
  "userdoc": {
    "methods": {}
  }
}