{
  "contractName": "Like",
  "abi": [
    {
      "constant": true,
      "inputs": [
        {
          "name": "",
          "type": "uint256"
        }
      ],
      "name": "adopters",
      "outputs": [
        {
          "name": "",
          "type": "address"
        }
      ],
      "payable": false,
      "stateMutability": "view",
      "type": "function"
    },
    {
      "constant": false,
      "inputs": [
        {
          "name": "petId",
          "type": "uint256"
        }
      ],
      "name": "thelike",
      "outputs": [
        {
          "name": "",
          "type": "uint256"
        }
      ],
      "payable": false,
      "stateMutability": "nonpayable",
      "type": "function"
    },
    {
      "constant": true,
      "inputs": [],
      "name": "getlike",
      "outputs": [
        {
          "name": "",
          "type": "uint256[16]"
        }
      ],
      "payable": false,
      "stateMutability": "view",
      "type": "function"
    },
    {
      "constant": true,
      "inputs": [],
      "name": "getAdopters",
      "outputs": [
        {
          "name": "",
          "type": "address[16]"
        }
      ],
      "payable": false,
      "stateMutability": "view",
      "type": "function"
    }
  ],
  "bytecode": "0x608060405261020060405190810160405280600060ff168152602001600060ff168152602001600060ff168152602001600060ff168152602001600060ff168152602001600060ff168152602001600060ff168152602001600060ff168152602001600060ff168152602001600060ff168152602001600060ff168152602001600060ff168152602001600060ff168152602001600060ff168152602001600060ff168152602001600060ff1681525060109060106100bf9291906100d2565b503480156100cc57600080fd5b5061013c565b8260108101928215610106579160200282015b82811115610105578251829060ff169055916020019190600101906100e5565b5b5090506101139190610117565b5090565b61013991905b8082111561013557600081600090555060010161011d565b5090565b90565b6103c48061014b6000396000f300608060405260043610610062576000357c0100000000000000000000000000000000000000000000000000000000900463ffffffff1680633de4eb171461006757806343ae80d3146100ba578063b43b773a14610127578063fcea83ea1461017a575b600080fd5b34801561007357600080fd5b5061007c6101bb565b6040518082601060200280838360005b838110156100a757808201518184015260208101905061008c565b5050505090500191505060405180910390f35b3480156100c657600080fd5b506100e56004803603810190808035906020019092919050505061023c565b604051808273ffffffffffffffffffffffffffffffffffffffff1673ffffffffffffffffffffffffffffffffffffffff16815260200191505060405180910390f35b34801561013357600080fd5b5061013c610271565b6040518082601060200280838360005b8381101561016757808201518184015260208101905061014c565b5050505090500191505060405180910390f35b34801561018657600080fd5b506101a5600480360381019080803590602001909291905050506102bb565b6040518082815260200191505060405180910390f35b6101c3610350565b6000601080602002604051908101604052809291908260108015610232576020028201915b8160009054906101000a900473ffffffffffffffffffffffffffffffffffffffff1673ffffffffffffffffffffffffffffffffffffffff16815260200190600101908083116101e8575b5050505050905090565b60008160108110151561024b57fe5b016000915054906101000a900473ffffffffffffffffffffffffffffffffffffffff1681565b610279610374565b601080806020026040519081016040528092919082601080156102b1576020028201915b81548152602001906001019080831161029d575b5050505050905090565b60008082101580156102ce5750600f8211155b15156102d957600080fd5b336000836010811015156102e957fe5b0160006101000a81548173ffffffffffffffffffffffffffffffffffffffff021916908373ffffffffffffffffffffffffffffffffffffffff16021790555060108260108110151561033757fe5b0160008154809291906001019190505550819050919050565b61020060405190810160405280601090602082028038833980820191505090505090565b610200604051908101604052806010906020820280388339808201915050905050905600a165627a7a72305820ad1cef025a9e63f4dafbd3050beffe8599cd285c1a005de503148ecafd8a8f700029",
  "source": "pragma solidity ^0.4.24;\n\ncontract Like {\n\n  address[16] public adopters;  // 保存支持者的地址\n  uint[16] public thelike = [0,0,0,0,0,0,0,0,0,0,0,0,0,0,0,0];\n  // 支持众筹产品\n\n\n  function thelike(uint petId) public returns (uint) {\n    require(petId >= 0 && petId <= 15);  // 确保id在数组长度内\n\n    adopters[petId] = msg.sender;        // 保存调用者地址 \n    thelike[petId]++;\n    return petId;\n  }\n\n  function getlike() public view returns (uint[16]) {\n    return thelike;\n  }\n\n\n  // 返回领养者\n  function getAdopters() public view returns (address[16]) {\n    return adopters;\n  }\n\n\n}",
  "sourcePath": "D:/ZJU大三上/区块链/众筹Dapp/crowd-funding-dapp/contracts/Like.sol",
  "compiler": {
    "name": "solc",
    "version": "0.4.24+commit.e67f0147.Emscripten.clang"
  },
  "schemaVersion": "3.3.3",
  "updatedAt": "2021-01-11T17:46:22.085Z",
  "networkType": "ethereum",
  "devdoc": {
    "methods": {}
  },
  "userdoc": {
    "methods": {}
  }
}