{
  "contractName": "cf",
  "abi": [
    {
      "constant": true,
      "inputs": [],
      "name": "numProjects",
      "outputs": [
        {
          "internalType": "uint256",
          "name": "",
          "type": "uint256"
        }
      ],
      "payable": false,
      "stateMutability": "view",
      "type": "function"
    },
    {
      "constant": true,
      "inputs": [
        {
          "internalType": "uint256",
          "name": "",
          "type": "uint256"
        }
      ],
      "name": "projects",
      "outputs": [
        {
          "internalType": "address payable",
          "name": "initiator",
          "type": "address"
        },
        {
          "internalType": "string",
          "name": "title",
          "type": "string"
        },
        {
          "internalType": "string",
          "name": "projectDescription",
          "type": "string"
        },
        {
          "internalType": "uint256",
          "name": "intentionAmount",
          "type": "uint256"
        },
        {
          "internalType": "uint256",
          "name": "endTime",
          "type": "uint256"
        },
        {
          "internalType": "bool",
          "name": "success",
          "type": "bool"
        },
        {
          "internalType": "uint256",
          "name": "EthSponsored",
          "type": "uint256"
        },
        {
          "internalType": "uint256",
          "name": "numSponsors",
          "type": "uint256"
        },
        {
          "internalType": "uint256",
          "name": "numBills",
          "type": "uint256"
        }
      ],
      "payable": false,
      "stateMutability": "view",
      "type": "function"
    },
    {
      "constant": false,
      "inputs": [
        {
          "internalType": "address payable",
          "name": "initiator",
          "type": "address"
        },
        {
          "internalType": "string",
          "name": "title",
          "type": "string"
        },
        {
          "internalType": "string",
          "name": "projectDescription",
          "type": "string"
        },
        {
          "internalType": "uint256",
          "name": "intention",
          "type": "uint256"
        },
        {
          "internalType": "uint256",
          "name": "endTime",
          "type": "uint256"
        }
      ],
      "name": "newProject",
      "outputs": [
        {
          "internalType": "uint256",
          "name": "",
          "type": "uint256"
        }
      ],
      "payable": false,
      "stateMutability": "nonpayable",
      "type": "function"
    },
    {
      "constant": false,
      "inputs": [
        {
          "internalType": "uint256",
          "name": "ID",
          "type": "uint256"
        }
      ],
      "name": "sponsorship",
      "outputs": [],
      "payable": true,
      "stateMutability": "payable",
      "type": "function"
    },
    {
      "constant": false,
      "inputs": [
        {
          "internalType": "uint256",
          "name": "ID",
          "type": "uint256"
        },
        {
          "internalType": "uint256",
          "name": "intention",
          "type": "uint256"
        },
        {
          "internalType": "string",
          "name": "billDescription",
          "type": "string"
        }
      ],
      "name": "newBill",
      "outputs": [],
      "payable": false,
      "stateMutability": "nonpayable",
      "type": "function"
    },
    {
      "constant": false,
      "inputs": [
        {
          "internalType": "uint256",
          "name": "ID",
          "type": "uint256"
        },
        {
          "internalType": "uint256",
          "name": "useID",
          "type": "uint256"
        },
        {
          "internalType": "bool",
          "name": "agree",
          "type": "bool"
        }
      ],
      "name": "approveBill",
      "outputs": [],
      "payable": false,
      "stateMutability": "nonpayable",
      "type": "function"
    },
    {
      "constant": false,
      "inputs": [
        {
          "internalType": "uint256",
          "name": "ID",
          "type": "uint256"
        },
        {
          "internalType": "uint256",
          "name": "useID",
          "type": "uint256"
        }
      ],
      "name": "checkBill",
      "outputs": [],
      "payable": false,
      "stateMutability": "nonpayable",
      "type": "function"
    },
    {
      "constant": true,
      "inputs": [
        {
          "internalType": "uint256",
          "name": "ID",
          "type": "uint256"
        }
      ],
      "name": "getBillLength",
      "outputs": [
        {
          "internalType": "uint256",
          "name": "",
          "type": "uint256"
        }
      ],
      "payable": false,
      "stateMutability": "view",
      "type": "function"
    },
    {
      "constant": true,
      "inputs": [
        {
          "internalType": "uint256",
          "name": "ID",
          "type": "uint256"
        },
        {
          "internalType": "uint256",
          "name": "useID",
          "type": "uint256"
        },
        {
          "internalType": "address",
          "name": "addr",
          "type": "address"
        }
      ],
      "name": "getBill",
      "outputs": [
        {
          "internalType": "string",
          "name": "",
          "type": "string"
        },
        {
          "internalType": "uint256",
          "name": "",
          "type": "uint256"
        },
        {
          "internalType": "uint256",
          "name": "",
          "type": "uint256"
        },
        {
          "internalType": "uint256",
          "name": "",
          "type": "uint256"
        },
        {
          "internalType": "bool",
          "name": "",
          "type": "bool"
        },
        {
          "internalType": "uint256",
          "name": "",
          "type": "uint256"
        }
      ],
      "payable": false,
      "stateMutability": "view",
      "type": "function"
    },
    {
      "constant": true,
      "inputs": [],
      "name": "getBalance",
      "outputs": [
        {
          "internalType": "uint256",
          "name": "",
          "type": "uint256"
        }
      ],
      "payable": false,
      "stateMutability": "view",
      "type": "function"
    },
    {
      "constant": true,
      "inputs": [
        {
          "internalType": "address",
          "name": "addr",
          "type": "address"
        },
        {
          "internalType": "uint256",
          "name": "ID",
          "type": "uint256"
        }
      ],
      "name": "getMyProjects",
      "outputs": [
        {
          "internalType": "uint256",
          "name": "",
          "type": "uint256"
        }
      ],
      "payable": false,
      "stateMutability": "view",
      "type": "function"
    }
  ],
  "bytecode": "0x608060405234801561001057600080fd5b50611889806100206000396000f3fe60806040526004361061009c5760003560e01c80636ccd4ccb116100645780636ccd4ccb14610338578063934968ed1461037d578063c8b9ff0314610482578063d7b8604d146104d1578063dd681645146104ff578063eef8ee94146106a65761009c565b80630487f7b4146100a15780630d63a6ea14610110578063107046bd1461016157806312065fe0146102e25780635a067baa1461030d575b600080fd5b3480156100ad57600080fd5b506100fa600480360360408110156100c457600080fd5b81019080803573ffffffffffffffffffffffffffffffffffffffff16906020019092919080359060200190929190505050610782565b6040518082815260200191505060405180910390f35b34801561011c57600080fd5b5061015f6004803603606081101561013357600080fd5b810190808035906020019092919080359060200190929190803515159060200190929190505050610873565b005b34801561016d57600080fd5b5061019a6004803603602081101561018457600080fd5b8101908080359060200190929190505050610c6a565b604051808a73ffffffffffffffffffffffffffffffffffffffff1673ffffffffffffffffffffffffffffffffffffffff16815260200180602001806020018981526020018881526020018715151515815260200186815260200185815260200184815260200183810383528b818151815260200191508051906020019080838360005b8381101561023857808201518184015260208101905061021d565b50505050905090810190601f1680156102655780820380516001836020036101000a031916815260200191505b5083810382528a818151815260200191508051906020019080838360005b8381101561029e578082015181840152602081019050610283565b50505050905090810190601f1680156102cb5780820380516001836020036101000a031916815260200191505b509b50505050505050505050505060405180910390f35b3480156102ee57600080fd5b506102f7610e15565b6040518082815260200191505060405180910390f35b34801561031957600080fd5b50610322610e1d565b6040518082815260200191505060405180910390f35b34801561034457600080fd5b5061037b6004803603604081101561035b57600080fd5b810190808035906020019092919080359060200190929190505050610e23565b005b34801561038957600080fd5b506103e0600480360360608110156103a057600080fd5b810190808035906020019092919080359060200190929190803573ffffffffffffffffffffffffffffffffffffffff1690602001909291905050506110b8565b604051808060200187815260200186815260200185815260200184151515158152602001838152602001828103825288818151815260200191508051906020019080838360005b83811015610442578082015181840152602081019050610427565b50505050905090810190601f16801561046f5780820380516001836020036101000a031916815260200191505b5097505050505050505060405180910390f35b34801561048e57600080fd5b506104bb600480360360208110156104a557600080fd5b810190808035906020019092919050505061130c565b6040518082815260200191505060405180910390f35b6104fd600480360360208110156104e757600080fd5b8101908080359060200190929190505050611347565b005b34801561050b57600080fd5b50610690600480360360a081101561052257600080fd5b81019080803573ffffffffffffffffffffffffffffffffffffffff1690602001909291908035906020019064010000000081111561055f57600080fd5b82018360208201111561057157600080fd5b8035906020019184600183028401116401000000008311171561059357600080fd5b91908080601f016020809104026020016040519081016040528093929190818152602001838380828437600081840152601f19601f820116905080830192505050505050509192919290803590602001906401000000008111156105f657600080fd5b82018360208201111561060857600080fd5b8035906020019184600183028401116401000000008311171561062a57600080fd5b91908080601f016020809104026020016040519081016040528093929190818152602001838380828437600081840152601f19601f82011690508083019250505050505050919291929080359060200190929190803590602001909291905050506114c4565b6040518082815260200191505060405180910390f35b3480156106b257600080fd5b50610780600480360360608110156106c957600080fd5b810190808035906020019092919080359060200190929190803590602001906401000000008111156106fa57600080fd5b82018360208201111561070c57600080fd5b8035906020019184600183028401116401000000008311171561072e57600080fd5b91908080601f016020809104026020016040519081016040528093929190818152602001838380828437600081840152601f19601f8201169050808301925050505050505091929192905050506115c7565b005b600080600090506000600190505b60016000858152602001908152602001600020600701548111610868578473ffffffffffffffffffffffffffffffffffffffff1660016000868152602001908152602001600020600901600083815260200190815260200160002060000160009054906101000a900473ffffffffffffffffffffffffffffffffffffffff1673ffffffffffffffffffffffffffffffffffffffff16141561085b5760016000858152602001908152602001600020600901600082815260200190815260200160002060010154820191505b8080600101915050610790565b508091505092915050565b6000548311158015610886575060018310155b61088f57600080fd5b600160008481526020019081526020016000206008015482111580156108b6575060018210155b6108bf57600080fd5b6000151560016000858152602001908152602001600020600a01600084815260200190815260200160002060040160009054906101000a900460ff1615151461090757600080fd5b6000600190505b60016000858152602001908152602001600020600701548111610c5a573373ffffffffffffffffffffffffffffffffffffffff1660016000868152602001908152602001600020600901600083815260200190815260200160002060000160009054906101000a900473ffffffffffffffffffffffffffffffffffffffff1673ffffffffffffffffffffffffffffffffffffffff161415610c4d576001806000868152602001908152602001600020600a0160008581526020019081526020016000206005016000838152602001908152602001600020541415610a53576001600085815260200190815260200160002060090160008281526020019081526020016000206001015460016000868152602001908152602001600020600a01600085815260200190815260200160002060020160008282540392505081905550610afb565b600260016000868152602001908152602001600020600a0160008581526020019081526020016000206005016000838152602001908152602001600020541415610afa576001600085815260200190815260200160002060090160008281526020019081526020016000206001015460016000868152602001908152602001600020600a016000858152602001908152602001600020600301600082825403925050819055505b5b8115610ba8576001600085815260200190815260200160002060090160008281526020019081526020016000206001015460016000868152602001908152602001600020600a016000858152602001908152602001600020600201600082825401925050819055506001806000868152602001908152602001600020600a016000858152602001908152602001600020600501600083815260200190815260200160002081905550610c4c565b6001600085815260200190815260200160002060090160008281526020019081526020016000206001015460016000868152602001908152602001600020600a01600085815260200190815260200160002060030160008282540192505081905550600260016000868152602001908152602001600020600a0160008581526020019081526020016000206005016000838152602001908152602001600020819055505b5b808060010191505061090e565b50610c658383610e23565b505050565b60016020528060005260406000206000915090508060000160009054906101000a900473ffffffffffffffffffffffffffffffffffffffff1690806001018054600181600116156101000203166002900480601f016020809104026020016040519081016040528092919081815260200182805460018160011615610100020316600290048015610d3c5780601f10610d1157610100808354040283529160200191610d3c565b820191906000526020600020905b815481529060010190602001808311610d1f57829003601f168201915b505050505090806002018054600181600116156101000203166002900480601f016020809104026020016040519081016040528092919081815260200182805460018160011615610100020316600290048015610dda5780601f10610daf57610100808354040283529160200191610dda565b820191906000526020600020905b815481529060010190602001808311610dbd57829003601f168201915b5050505050908060030154908060040154908060050160009054906101000a900460ff16908060060154908060070154908060080154905089565b600047905090565b60005481565b6000548211158015610e36575060018210155b610e3f57600080fd5b6000151560016000848152602001908152602001600020600a01600083815260200190815260200160002060040160009054906101000a900460ff16151514610e8757600080fd5b6002600160008481526020019081526020016000206003015481610ea757fe5b0460016000848152602001908152602001600020600a0160008381526020019081526020016000206002015410610fc2576001806000848152602001908152602001600020600a01600083815260200190815260200160002060040160006101000a81548160ff0219169083151502179055506001600083815260200190815260200160002060000160009054906101000a900473ffffffffffffffffffffffffffffffffffffffff1673ffffffffffffffffffffffffffffffffffffffff166108fc60016000858152602001908152602001600020600a016000848152602001908152602001600020600101549081150290604051600060405180830381858888f19350505050158015610fc0573d6000803e3d6000fd5b505b6002600160008481526020019081526020016000206003015481610fe257fe5b0460016000848152602001908152602001600020600a0160008381526020019081526020016000206003015411156110b45760016000838152602001908152602001600020600a0160008281526020019081526020016000206001015460016000848152602001908152602001600020600601540160016000848152602001908152602001600020600601819055506001806000848152602001908152602001600020600a01600083815260200190815260200160002060040160006101000a81548160ff0219169083151502179055505b5050565b60606000806000806000805489111580156110d4575060018910155b6110dd57600080fd5b600160008a8152602001908152602001600020600801548811158015611104575060018810155b61110d57600080fd5b6000600160008b8152602001908152602001600020600a0160008a8152602001908152602001600020905060008090506000600190505b600160008d815260200190815260200160002060070154811161122f578973ffffffffffffffffffffffffffffffffffffffff16600160008e8152602001908152602001600020600901600083815260200190815260200160002060000160009054906101000a900473ffffffffffffffffffffffffffffffffffffffff1673ffffffffffffffffffffffffffffffffffffffff16141561122257600160008d8152602001908152602001600020600a0160008c8152602001908152602001600020600501600082815260200190815260200160002054915061122f565b8080600101915050611144565b50816000018260010154836002015484600301548560040160009054906101000a900460ff1685858054600181600116156101000203166002900480601f0160208091040260200160405190810160405280929190818152602001828054600181600116156101000203166002900480156112eb5780601f106112c0576101008083540402835291602001916112eb565b820191906000526020600020905b8154815290600101906020018083116112ce57829003601f168201915b50505050509550975097509750975097509750505093975093979195509350565b600080548211158015611320575060018210155b61132957600080fd5b60016000838152602001908152602001600020600801549050919050565b600034118015611385575060016000828152602001908152602001600020600601546001600083815260200190815260200160002060030154033411155b61138e57600080fd5b426001600083815260200190815260200160002060040154116113b057600080fd5b600015156001600083815260200190815260200160002060050160009054906101000a900460ff161515146113e457600080fd5b600060016000838152602001908152602001600020905034816006016000828254019250508190555060018160070154018160070181905550338160090160008360070154815260200190815260200160002060000160006101000a81548173ffffffffffffffffffffffffffffffffffffffff021916908373ffffffffffffffffffffffffffffffffffffffff1602179055503481600901600083600701548152602001908152602001600020600101819055508060030154816006015410158160050160006101000a81548160ff0219169083151502179055505050565b60004282116114d257600080fd5b600160005401600081905550600060016000805481526020019081526020016000209050868160000160006101000a81548173ffffffffffffffffffffffffffffffffffffffff021916908373ffffffffffffffffffffffffffffffffffffffff160217905550858160010190805190602001906115519291906117af565b508481600201908051906020019061156a9291906117af565b5083816003018190555082816004018190555060008160050160006101000a81548160ff02191690831515021790555060008160060181905550600081600701819055506000816008018190555060005491505095945050505050565b60005483111580156115da575060018310155b6115e357600080fd5b600115156001600085815260200190815260200160002060050160009054906101000a900460ff1615151461161757600080fd5b600160008481526020019081526020016000206006015482111561163a57600080fd5b6001600084815260200190815260200160002060000160009054906101000a900473ffffffffffffffffffffffffffffffffffffffff1673ffffffffffffffffffffffffffffffffffffffff163373ffffffffffffffffffffffffffffffffffffffff16146116a857600080fd5b6000600160008581526020019081526020016000209050600181600801540181600801819055508181600a0160008360080154815260200190815260200160002060000190805190602001906116ff9291906117af565b508281600a0160008360080154815260200190815260200160002060010181905550600081600a0160008360080154815260200190815260200160002060020181905550600081600a0160008360080154815260200190815260200160002060030181905550600081600a0160008360080154815260200190815260200160002060040160006101000a81548160ff02191690831515021790555082816006015403816006018190555050505050565b828054600181600116156101000203166002900490600052602060002090601f016020900481019282601f106117f057805160ff191683800117855561181e565b8280016001018555821561181e579182015b8281111561181d578251825591602001919060010190611802565b5b50905061182b919061182f565b5090565b61185191905b8082111561184d576000816000905550600101611835565b5090565b9056fea265627a7a72315820d04f3d047b79fe993dae58572d8d94774649377977eff18dbbcb801d3bd2a93464736f6c63430005100032",
  "source": "pragma solidity ^0.5.16;\r\n\r\ncontract cf {\r\n    // 投资人结构定义\r\n    struct Sponsor {\r\n        address payable addr;                   // addr of sponsor\r\n        uint EthSponsored;                        // amount sponsored\r\n    }\r\n\r\n    // 资金使用请求结构定义\r\n    struct Bill {\r\n        string billDescription;                 // description of the bill\r\n        uint intention;                         // amount of the bill\r\n        uint agreeAmount;                       // wight of sponsors who's agreed\r\n        uint disagreeAmount;                    // wight of sponsors who's disagreed\r\n        bool expire;                            // if the bill has expired\r\n        mapping(uint => uint) agree;            // state of the bill, 0 means to be determined, 1 for approved ,2 for rejected\r\n    }\r\n\r\n    // 众筹项目的结构定义\r\n    struct Project {\r\n        address payable initiator;\r\n        string title;\r\n        string projectDescription;\r\n        uint intentionAmount;                         // intended amount of eth\r\n        uint endTime;\r\n\r\n        bool success;\r\n\r\n        uint EthSponsored;                        // current amount of eth raised\r\n        uint numSponsors;\r\n        uint numBills;\r\n        mapping(uint => Sponsor) sponsors;      // dic of all sponsors\r\n        mapping(uint => Bill) bills;            // dic of all bills\r\n    }\r\n\r\n    uint public numProjects;                    // num of projects\r\n    mapping(uint => Project) public projects;   // dic of all projects\r\n\r\n    /**\r\n     * 发起众筹项目\r\n     * @param initiator 发起人\r\n     * @param title 项目标题\r\n     * @param projectDescription 项目简介\r\n     * @param intention 目标金额\r\n     * @param endTime 结束时间\r\n     */\r\n    function newProject(address payable initiator, string memory title, string memory projectDescription, uint intention, uint endTime) public returns (uint) {\r\n        require(endTime > block.timestamp);\r\n\r\n        numProjects = numProjects + 1;\r\n        Project storage f = projects[numProjects];\r\n        f.initiator = initiator;\r\n        f.title = title;\r\n        f.projectDescription = projectDescription;\r\n        f.intentionAmount = intention;\r\n        f.endTime = endTime;\r\n        f.success = false;\r\n        f.EthSponsored = 0;\r\n        f.numSponsors = 0;\r\n        f.numBills = 0;\r\n\r\n        return numProjects;\r\n    }\r\n\r\n    function sponsorship(uint ID) public payable {\r\n        // 贡献的钱必须大于0，不能超过差额\r\n        require(msg.value > 0 && msg.value <= projects[ID].intentionAmount - projects[ID].EthSponsored);\r\n        // 时间上必须还没结束\r\n        require(projects[ID].endTime > block.timestamp);\r\n        // 必须是未完成的众筹\r\n        require(projects[ID].success == false);\r\n\r\n        Project storage f = projects[ID];\r\n        f.EthSponsored += msg.value;\r\n        f.numSponsors = f.numSponsors + 1;\r\n        f.sponsors[f.numSponsors].addr = msg.sender;\r\n        f.sponsors[f.numSponsors].EthSponsored = msg.value;\r\n        // 考虑本项目是否达成目标\r\n        f.success = f.EthSponsored >= f.intentionAmount;\r\n    }\r\n\r\n\r\n    function newBill(uint ID, uint intention, string memory billDescription) public {\r\n        require(ID <= numProjects && ID >= 1);\r\n        require(projects[ID].success == true);\r\n        require(intention <= projects[ID].EthSponsored);\r\n        require(msg.sender == projects[ID].initiator);\r\n\r\n        Project storage f = projects[ID];\r\n        f.numBills = f.numBills + 1;\r\n        f.bills[f.numBills].billDescription = billDescription;\r\n        f.bills[f.numBills].intention = intention;\r\n        f.bills[f.numBills].agreeAmount = 0;\r\n        f.bills[f.numBills].disagreeAmount = 0;\r\n        f.bills[f.numBills].expire = false;\r\n        f.EthSponsored = f.EthSponsored - intention;\r\n    }\r\n\r\n\r\n    function approveBill(uint ID, uint useID, bool agree) public {\r\n        require(ID <= numProjects && ID >= 1);\r\n        require(useID <= projects[ID].numBills && useID >= 1);\r\n        require(projects[ID].bills[useID].expire == false);\r\n\r\n        for (uint i = 1; i <= projects[ID].numSponsors; i++)\r\n            if (projects[ID].sponsors[i].addr == msg.sender) {\r\n                if (projects[ID].bills[useID].agree[i] == 1) {\r\n                    projects[ID].bills[useID].agreeAmount -= projects[ID].sponsors[i].EthSponsored;\r\n                } else if (projects[ID].bills[useID].agree[i] == 2) {\r\n                    projects[ID].bills[useID].disagreeAmount -= projects[ID].sponsors[i].EthSponsored;\r\n                }\r\n                if (agree) {\r\n                    projects[ID].bills[useID].agreeAmount += projects[ID].sponsors[i].EthSponsored;\r\n                    projects[ID].bills[useID].agree[i] = 1;\r\n                }\r\n                else {\r\n                    projects[ID].bills[useID].disagreeAmount += projects[ID].sponsors[i].EthSponsored;\r\n                    projects[ID].bills[useID].agree[i] = 2;\r\n                }\r\n            }\r\n        checkBill(ID, useID);\r\n    }\r\n\r\n\r\n    function checkBill(uint ID, uint useID) public {\r\n        require(ID <= numProjects && ID >= 1);\r\n        require(projects[ID].bills[useID].expire == false);\r\n\r\n        if (projects[ID].bills[useID].agreeAmount >= projects[ID].intentionAmount / 2) {\r\n            projects[ID].bills[useID].expire = true;\r\n            projects[ID].initiator.transfer(projects[ID].bills[useID].intention);\r\n        }\r\n        if (projects[ID].bills[useID].disagreeAmount > projects[ID].intentionAmount / 2) {\r\n            projects[ID].EthSponsored = projects[ID].EthSponsored + projects[ID].bills[useID].intention;\r\n            projects[ID].bills[useID].expire = true;\r\n        }\r\n    }\r\n\r\n\r\n    function getBillLength(uint ID) public view returns (uint) {\r\n        require(ID <= numProjects && ID >= 1);\r\n        return projects[ID].numBills;\r\n    }\r\n\r\n\r\n    function getBill(uint ID, uint useID, address addr) public view returns (string memory, uint, uint, uint, bool, uint) {\r\n        require(ID <= numProjects && ID >= 1);\r\n        require(useID <= projects[ID].numBills && useID >= 1);\r\n\r\n        Bill storage u = projects[ID].bills[useID];\r\n        uint agree = 0;\r\n        for (uint i = 1; i <= projects[ID].numSponsors; i++)\r\n            if (projects[ID].sponsors[i].addr == addr) {\r\n                agree = projects[ID].bills[useID].agree[i];\r\n                break;\r\n            }\r\n        return (u.billDescription, u.intention, u.agreeAmount, u.disagreeAmount, u.expire, agree);\r\n    }\r\n\r\n\r\n    function getBalance() public view returns (uint) {\r\n        return address(this).balance;\r\n    }\r\n\r\n\r\n    function getMyProjects(address addr, uint ID) public view returns (uint) {\r\n        uint res = 0;\r\n        for (uint i = 1; i <= projects[ID].numSponsors; i++) {\r\n            if (projects[ID].sponsors[i].addr == addr)\r\n                res += projects[ID].sponsors[i].EthSponsored;\r\n        }\r\n        return res;\r\n    }\r\n\r\n\r\n}\r\n",
  "sourcePath": "C:/Users/Neo/WebstormProjects/CF/contracts/cf.sol",
  "compiler": {
    "name": "solc",
    "version": "0.5.16+commit.9c3226ce.Emscripten.clang"
  },
  "schemaVersion": "3.3.3",
  "updatedAt": "2021-01-15T04:28:11.406Z",
  "devdoc": {
    "methods": {
      "newProject(address,string,string,uint256,uint256)": {
        "params": {
          "endTime": "结束时间",
          "initiator": "发起人",
          "intention": "目标金额",
          "projectDescription": "项目简介",
          "title": "项目标题"
        }
      }
    }
  },
  "userdoc": {
    "methods": {
      "newProject(address,string,string,uint256,uint256)": {
        "notice": "发起众筹项目"
      }
    }
  }
}