{
  "contractName": "Crowdfunding",
  "abi": [
    {
      "constant": true,
      "inputs": [
        {
          "internalType": "uint256",
          "name": "",
          "type": "uint256"
        }
      ],
      "name": "projects",
      "outputs": [
        {
          "internalType": "string",
          "name": "title",
          "type": "string"
        },
        {
          "internalType": "string",
          "name": "introduction",
          "type": "string"
        },
        {
          "internalType": "address payable",
          "name": "initiator",
          "type": "address"
        },
        {
          "internalType": "uint256",
          "name": "fundersAmount",
          "type": "uint256"
        },
        {
          "internalType": "uint256",
          "name": "endTime",
          "type": "uint256"
        },
        {
          "internalType": "uint256",
          "name": "target",
          "type": "uint256"
        },
        {
          "internalType": "uint256",
          "name": "raised",
          "type": "uint256"
        },
        {
          "internalType": "bool",
          "name": "isSuccess",
          "type": "bool"
        },
        {
          "internalType": "uint256",
          "name": "withdrawalsAmount",
          "type": "uint256"
        }
      ],
      "payable": false,
      "stateMutability": "view",
      "type": "function"
    },
    {
      "constant": true,
      "inputs": [],
      "name": "projectsAmount",
      "outputs": [
        {
          "internalType": "uint256",
          "name": "",
          "type": "uint256"
        }
      ],
      "payable": false,
      "stateMutability": "view",
      "type": "function"
    },
    {
      "constant": false,
      "inputs": [
        {
          "internalType": "string",
          "name": "title",
          "type": "string"
        },
        {
          "internalType": "string",
          "name": "introduction",
          "type": "string"
        },
        {
          "internalType": "address payable",
          "name": "initiator",
          "type": "address"
        },
        {
          "internalType": "uint256",
          "name": "endTime",
          "type": "uint256"
        },
        {
          "internalType": "uint256",
          "name": "target",
          "type": "uint256"
        }
      ],
      "name": "launch",
      "outputs": [
        {
          "internalType": "uint256",
          "name": "",
          "type": "uint256"
        }
      ],
      "payable": false,
      "stateMutability": "nonpayable",
      "type": "function"
    },
    {
      "constant": false,
      "inputs": [
        {
          "internalType": "uint256",
          "name": "projectIdentity",
          "type": "uint256"
        }
      ],
      "name": "fund",
      "outputs": [],
      "payable": true,
      "stateMutability": "payable",
      "type": "function"
    },
    {
      "constant": false,
      "inputs": [
        {
          "internalType": "uint256",
          "name": "projectIdentity",
          "type": "uint256"
        }
      ],
      "name": "refund",
      "outputs": [],
      "payable": true,
      "stateMutability": "payable",
      "type": "function"
    },
    {
      "constant": false,
      "inputs": [
        {
          "internalType": "uint256",
          "name": "projectIdentity",
          "type": "uint256"
        },
        {
          "internalType": "string",
          "name": "purpose",
          "type": "string"
        },
        {
          "internalType": "uint256",
          "name": "amount",
          "type": "uint256"
        }
      ],
      "name": "requestWithdrawal",
      "outputs": [],
      "payable": false,
      "stateMutability": "nonpayable",
      "type": "function"
    },
    {
      "constant": false,
      "inputs": [
        {
          "internalType": "uint256",
          "name": "projectIdentity",
          "type": "uint256"
        },
        {
          "internalType": "uint256",
          "name": "withdrawalIdentity",
          "type": "uint256"
        }
      ],
      "name": "checkHalfAgreed",
      "outputs": [],
      "payable": false,
      "stateMutability": "nonpayable",
      "type": "function"
    },
    {
      "constant": false,
      "inputs": [
        {
          "internalType": "uint256",
          "name": "projectIdentity",
          "type": "uint256"
        },
        {
          "internalType": "uint256",
          "name": "withdrawalIdentity",
          "type": "uint256"
        },
        {
          "internalType": "bool",
          "name": "isAgree",
          "type": "bool"
        }
      ],
      "name": "vote",
      "outputs": [],
      "payable": false,
      "stateMutability": "nonpayable",
      "type": "function"
    },
    {
      "constant": true,
      "inputs": [
        {
          "internalType": "uint256",
          "name": "projectIdentity",
          "type": "uint256"
        }
      ],
      "name": "getWithdrawalsAmount",
      "outputs": [
        {
          "internalType": "uint256",
          "name": "",
          "type": "uint256"
        }
      ],
      "payable": false,
      "stateMutability": "view",
      "type": "function"
    },
    {
      "constant": true,
      "inputs": [
        {
          "internalType": "uint256",
          "name": "projectIdentity",
          "type": "uint256"
        },
        {
          "internalType": "uint256",
          "name": "withdrawalIdentity",
          "type": "uint256"
        },
        {
          "internalType": "address",
          "name": "identity",
          "type": "address"
        }
      ],
      "name": "getMyWithdrawalVote",
      "outputs": [
        {
          "internalType": "string",
          "name": "",
          "type": "string"
        },
        {
          "internalType": "uint256",
          "name": "",
          "type": "uint256"
        },
        {
          "internalType": "uint256",
          "name": "",
          "type": "uint256"
        },
        {
          "internalType": "uint256",
          "name": "",
          "type": "uint256"
        },
        {
          "internalType": "bool",
          "name": "",
          "type": "bool"
        },
        {
          "internalType": "uint256",
          "name": "",
          "type": "uint256"
        }
      ],
      "payable": false,
      "stateMutability": "view",
      "type": "function"
    },
    {
      "constant": true,
      "inputs": [],
      "name": "getBalance",
      "outputs": [
        {
          "internalType": "uint256",
          "name": "",
          "type": "uint256"
        }
      ],
      "payable": false,
      "stateMutability": "view",
      "type": "function"
    },
    {
      "constant": true,
      "inputs": [
        {
          "internalType": "address",
          "name": "identity",
          "type": "address"
        },
        {
          "internalType": "uint256",
          "name": "projectIdentity",
          "type": "uint256"
        }
      ],
      "name": "getMyFund",
      "outputs": [
        {
          "internalType": "uint256",
          "name": "",
          "type": "uint256"
        }
      ],
      "payable": false,
      "stateMutability": "view",
      "type": "function"
    }
  ],
  "bytecode": "0x608060405234801561001057600080fd5b50612469806100206000396000f3fe6080604052600436106100a75760003560e01c80636a18ff7a116100645780636a18ff7a146104205780639cdd991314610471578063ca1d209d1461049c578063e9e185f5146104ca578063ee5361161461050f578063f3ee06bf146106b6576100a7565b806307e0e5ae146100ac578063107046bd1461011b57806312065fe01461029c578063278ecde1146102c7578063562c2ee9146102f55780635e35a355146103d1575b600080fd5b3480156100b857600080fd5b50610105600480360360408110156100cf57600080fd5b81019080803573ffffffffffffffffffffffffffffffffffffffff169060200190929190803590602001909291905050506107bb565b6040518082815260200191505060405180910390f35b34801561012757600080fd5b506101546004803603602081101561013e57600080fd5b81019080803590602001909291905050506108ae565b6040518080602001806020018a73ffffffffffffffffffffffffffffffffffffffff1673ffffffffffffffffffffffffffffffffffffffff1681526020018981526020018881526020018781526020018681526020018515151515815260200184815260200183810383528c818151815260200191508051906020019080838360005b838110156101f25780820151818401526020810190506101d7565b50505050905090810190601f16801561021f5780820380516001836020036101000a031916815260200191505b5083810382528b818151815260200191508051906020019080838360005b8381101561025857808201518184015260208101905061023d565b50505050905090810190601f1680156102855780820380516001836020036101000a031916815260200191505b509b50505050505050505050505060405180910390f35b3480156102a857600080fd5b506102b1610a59565b6040518082815260200191505060405180910390f35b6102f3600480360360208110156102dd57600080fd5b8101908080359060200190929190505050610a61565b005b34801561030157600080fd5b506103cf6004803603606081101561031857600080fd5b81019080803590602001909291908035906020019064010000000081111561033f57600080fd5b82018360208201111561035157600080fd5b8035906020019184600183028401116401000000008311171561037357600080fd5b91908080601f016020809104026020016040519081016040528093929190818152602001838380828437600081840152601f19601f82011690508083019250505050505050919291929080359060200190929190505050610d26565b005b3480156103dd57600080fd5b5061040a600480360360208110156103f457600080fd5b81019080803590602001909291905050506110b1565b6040518082815260200191505060405180910390f35b34801561042c57600080fd5b5061046f6004803603606081101561044357600080fd5b810190808035906020019092919080359060200190929190803515159060200190929190505050611155565b005b34801561047d57600080fd5b5061048661181d565b6040518082815260200191505060405180910390f35b6104c8600480360360208110156104b257600080fd5b8101908080359060200190929190505050611823565b005b3480156104d657600080fd5b5061050d600480360360408110156104ed57600080fd5b810190808035906020019092919080359060200190929190505050611bba565b005b34801561051b57600080fd5b506106a0600480360360a081101561053257600080fd5b810190808035906020019064010000000081111561054f57600080fd5b82018360208201111561056157600080fd5b8035906020019184600183028401116401000000008311171561058357600080fd5b91908080601f016020809104026020016040519081016040528093929190818152602001838380828437600081840152601f19601f820116905080830192505050505050509192919290803590602001906401000000008111156105e657600080fd5b8201836020820111156105f857600080fd5b8035906020019184600183028401116401000000008311171561061a57600080fd5b91908080601f016020809104026020016040519081016040528093929190818152602001838380828437600081840152601f19601f820116905080830192505050505050509192919290803573ffffffffffffffffffffffffffffffffffffffff1690602001909291908035906020019092919080359060200190929190505050611ef9565b6040518082815260200191505060405180910390f35b3480156106c257600080fd5b50610719600480360360608110156106d957600080fd5b810190808035906020019092919080359060200190929190803573ffffffffffffffffffffffffffffffffffffffff169060200190929190505050612069565b604051808060200187815260200186815260200185815260200184151515158152602001838152602001828103825288818151815260200191508051906020019080838360005b8381101561077b578082015181840152602081019050610760565b50505050905090810190601f1680156107a85780820380516001836020036101000a031916815260200191505b5097505050505050505060405180910390f35b600080600090506000600190505b600160008581526020019081526020016000206004015481116108a3578473ffffffffffffffffffffffffffffffffffffffff1660016000868152602001908152602001600020600301600083815260200190815260200160002060000160009054906101000a900473ffffffffffffffffffffffffffffffffffffffff1673ffffffffffffffffffffffffffffffffffffffff161415610896576001600085815260200190815260200160002060030160008281526020019081526020016000206001015491506108a3565b80806001019150506107c9565b508091505092915050565b6001602052806000526040600020600091509050806000018054600181600116156101000203166002900480601f01602080910402602001604051908101604052809291908181526020018280546001816001161561010002031660029004801561095a5780601f1061092f5761010080835404028352916020019161095a565b820191906000526020600020905b81548152906001019060200180831161093d57829003601f168201915b505050505090806001018054600181600116156101000203166002900480601f0160208091040260200160405190810160405280929190818152602001828054600181600116156101000203166002900480156109f85780601f106109cd576101008083540402835291602001916109f8565b820191906000526020600020905b8154815290600101906020018083116109db57829003601f168201915b5050505050908060020160009054906101000a900473ffffffffffffffffffffffffffffffffffffffff16908060040154908060050154908060060154908060070154908060080160009054906101000a900460ff169080600a0154905089565b600047905090565b6000548111158015610a74575060018110155b610ae6576040517f08c379a00000000000000000000000000000000000000000000000000000000081526004018080602001828103825260188152602001807f496c6c6567616c2070726f6a656374206964656e74697479000000000000000081525060200191505060405180910390fd5b42600160008381526020019081526020016000206005015411158015610b2d57506001600082815260200190815260200160002060080160009054906101000a900460ff16155b610b9f576040517f08c379a000000000000000000000000000000000000000000000000000000000815260040180806020018281038252601a8152602001807f5468652070726f6a65637420686173206e6f74206661696c656400000000000081525060200191505060405180910390fd5b60006001600083815260200190815260200160002090506000600190505b81600401548111610d21573373ffffffffffffffffffffffffffffffffffffffff1682600301600083815260200190815260200160002060000160009054906101000a900473ffffffffffffffffffffffffffffffffffffffff1673ffffffffffffffffffffffffffffffffffffffff161415610d145781600301600082815260200190815260200160002060000160009054906101000a900473ffffffffffffffffffffffffffffffffffffffff1673ffffffffffffffffffffffffffffffffffffffff166108fc836003016000848152602001908152602001600020600101549081150290604051600060405180830381858888f19350505050158015610cca573d6000803e3d6000fd5b506000826003016000838152602001908152602001600020600101819055508160030160008281526020019081526020016000206001015482600701600082825403925050819055505b8080600101915050610bbd565b505050565b6000548311158015610d39575060018310155b610dab576040517f08c379a00000000000000000000000000000000000000000000000000000000081526004018080602001828103825260188152602001807f496c6c6567616c2070726f6a656374206964656e74697479000000000000000081525060200191505060405180910390fd5b6001600084815260200190815260200160002060080160009054906101000a900460ff16610e41576040517f08c379a000000000000000000000000000000000000000000000000000000000815260040180806020018281038252601d8152602001807f5468652070726f6a65637420686173206e6f742073756363656564656400000081525060200191505060405180910390fd5b6001600084815260200190815260200160002060070154811115610ecd576040517f08c379a000000000000000000000000000000000000000000000000000000000815260040180806020018281038252601a8152602001807f526169736564206d6f6e6579206973206e6f7420656e6f75676800000000000081525060200191505060405180910390fd5b6001600084815260200190815260200160002060020160009054906101000a900473ffffffffffffffffffffffffffffffffffffffff1673ffffffffffffffffffffffffffffffffffffffff163373ffffffffffffffffffffffffffffffffffffffff1614610fa4576040517f08c379a000000000000000000000000000000000000000000000000000000000815260040180806020018281038252601f8152602001807f57697468647261776572206973206e6f742074686520696e69746961746f720081525060200191505060405180910390fd5b6000600160008581526020019081526020016000209050600181600a01600082825401925050819055508181600701600082825403925050819055508281600901600083600a01548152602001908152602001600020600001908051906020019061101092919061238f565b508181600901600083600a0154815260200190815260200160002060010181905550600081600901600083600a0154815260200190815260200160002060020181905550600081600901600083600a0154815260200190815260200160002060030181905550600081600901600083600a0154815260200190815260200160002060050160006101000a81548160ff02191690831515021790555050505050565b6000805482111580156110c5575060018210155b611137576040517f08c379a00000000000000000000000000000000000000000000000000000000081526004018080602001828103825260188152602001807f496c6c6567616c2070726f6a656374206964656e74697479000000000000000081525060200191505060405180910390fd5b60016000838152602001908152602001600020600a01549050919050565b6000548311158015611168575060018310155b6111da576040517f08c379a00000000000000000000000000000000000000000000000000000000081526004018080602001828103825260188152602001807f496c6c6567616c2070726f6a656374206964656e74697479000000000000000081525060200191505060405180910390fd5b60016000848152602001908152602001600020600a01548211158015611201575060018210155b611273576040517f08c379a000000000000000000000000000000000000000000000000000000000815260040180806020018281038252601b8152602001807f496c6c6567616c207769746864726177616c206964656e74697479000000000081525060200191505060405180910390fd5b60016000848152602001908152602001600020600901600083815260200190815260200160002060050160009054906101000a900460ff161561131e576040517f08c379a000000000000000000000000000000000000000000000000000000000815260040180806020018281038252601c8152602001807f5769746864726177616c207265717565737420697320636c6f7365640000000081525060200191505060405180910390fd5b6000600190505b6001600085815260200190815260200160002060040154811161180d573373ffffffffffffffffffffffffffffffffffffffff1660016000868152602001908152602001600020600301600083815260200190815260200160002060000160009054906101000a900473ffffffffffffffffffffffffffffffffffffffff1673ffffffffffffffffffffffffffffffffffffffff161415611800576000600160008681526020019081526020016000206009016000858152602001908152602001600020600401600083815260200190815260200160002054141561155a5781156114b157600160008581526020019081526020016000206003016000828152602001908152602001600020600101546001600086815260200190815260200160002060090160008581526020019081526020016000206002016000828254019250508190555060018060008681526020019081526020016000206009016000858152602001908152602001600020600401600083815260200190815260200160002081905550611555565b600160008581526020019081526020016000206003016000828152602001908152602001600020600101546001600086815260200190815260200160002060090160008581526020019081526020016000206003016000828254019250508190555060026001600086815260200190815260200160002060090160008581526020019081526020016000206004016000838152602001908152602001600020819055505b6117ff565b6001806000868152602001908152602001600020600901600085815260200190815260200160002060040160008381526020019081526020016000205414156116ad57816116a8576001600085815260200190815260200160002060030160008281526020019081526020016000206001015460016000868152602001908152602001600020600901600085815260200190815260200160002060020160008282540392505081905550600160008581526020019081526020016000206003016000828152602001908152602001600020600101546001600086815260200190815260200160002060090160008581526020019081526020016000206003016000828254019250508190555060026001600086815260200190815260200160002060090160008581526020019081526020016000206004016000838152602001908152602001600020819055505b6117fe565b600260016000868152602001908152602001600020600901600085815260200190815260200160002060040160008381526020019081526020016000205414156117fd5781156117fc5760016000858152602001908152602001600020600301600082815260200190815260200160002060010154600160008681526020019081526020016000206009016000858152602001908152602001600020600301600082825403925050819055506001600085815260200190815260200160002060030160008281526020019081526020016000206001015460016000868152602001908152602001600020600901600085815260200190815260200160002060020160008282540192505081905550600180600086815260200190815260200160002060090160008581526020019081526020016000206004016000838152602001908152602001600020819055505b5b5b5b5b8080600101915050611325565b506118188383611bba565b505050565b60005481565b6000548111158015611836575060018110155b6118a8576040517f08c379a00000000000000000000000000000000000000000000000000000000081526004018080602001828103825260188152602001807f496c6c6567616c2070726f6a656374206964656e74697479000000000000000081525060200191505060405180910390fd5b4260016000838152602001908152602001600020600501541180156118ee57506001600082815260200190815260200160002060080160009054906101000a900460ff16155b611960576040517f08c379a00000000000000000000000000000000000000000000000000000000081526004018080602001828103825260158152602001807f5468652070726f6a65637420697320636c6f736564000000000000000000000081525060200191505060405180910390fd5b60003411801561199e575060016000828152602001908152602001600020600701546001600083815260200190815260200160002060060154033411155b611a10576040517f08c379a000000000000000000000000000000000000000000000000000000000815260040180806020018281038252601b8152602001807f46756e6420616d6f756e74206973206f7574206f662072616e6765000000000081525060200191505060405180910390fd5b600060016000838152602001908152602001600020905034816007016000828254019250508190555060008090506000600190505b82600401548111611af8573373ffffffffffffffffffffffffffffffffffffffff1683600301600083815260200190815260200160002060000160009054906101000a900473ffffffffffffffffffffffffffffffffffffffff1673ffffffffffffffffffffffffffffffffffffffff161415611aeb57348360030160008381526020019081526020016000206001016000828254019250508190555060019150611af8565b8080600101915050611a45565b5080611b8e5760018260040160008282540192505081905550338260030160008460040154815260200190815260200160002060000160006101000a81548173ffffffffffffffffffffffffffffffffffffffff021916908373ffffffffffffffffffffffffffffffffffffffff1602179055503482600301600084600401548152602001908152602001600020600101819055505b8160060154826007015410158260080160006101000a81548160ff021916908315150217905550505050565b6000548211158015611bcd575060018210155b611c3f576040517f08c379a00000000000000000000000000000000000000000000000000000000081526004018080602001828103825260188152602001807f496c6c6567616c2070726f6a656374206964656e74697479000000000000000081525060200191505060405180910390fd5b60016000838152602001908152602001600020600a01548111158015611c66575060018110155b611cd8576040517f08c379a000000000000000000000000000000000000000000000000000000000815260040180806020018281038252601b8152602001807f496c6c6567616c207769746864726177616c206964656e74697479000000000081525060200191505060405180910390fd5b6002600160008481526020019081526020016000206006015481611cf857fe5b046001600084815260200190815260200160002060090160008381526020019081526020016000206002015410611e13576001806000848152602001908152602001600020600901600083815260200190815260200160002060050160006101000a81548160ff0219169083151502179055506001600083815260200190815260200160002060020160009054906101000a900473ffffffffffffffffffffffffffffffffffffffff1673ffffffffffffffffffffffffffffffffffffffff166108fc600160008581526020019081526020016000206009016000848152602001908152602001600020600101549081150290604051600060405180830381858888f19350505050158015611e11573d6000803e3d6000fd5b505b6002600160008481526020019081526020016000206006015481611e3357fe5b046001600084815260200190815260200160002060090160008381526020019081526020016000206003015410611ef5576001600083815260200190815260200160002060090160008281526020019081526020016000206001015460016000848152602001908152602001600020600701600082825401925050819055506001806000848152602001908152602001600020600901600083815260200190815260200160002060050160006101000a81548160ff0219169083151502179055505b5050565b6000428311611f70576040517f08c379a000000000000000000000000000000000000000000000000000000000815260040180806020018281038252601c8152602001807f456e642074696d65206265666f72652063757272656e742074696d650000000081525060200191505060405180910390fd5b6001600080828254019250508190555060006001600080548152602001908152602001600020905086816000019080519060200190611fb092919061238f565b5085816001019080519060200190611fc992919061238f565b50848160020160006101000a81548173ffffffffffffffffffffffffffffffffffffffff021916908373ffffffffffffffffffffffffffffffffffffffff160217905550600081600401819055508381600501819055508281600601819055506000816007018190555060008160080160006101000a81548160ff021916908315150217905550600081600a018190555060005491505095945050505050565b6060600080600080600080548911158015612085575060018910155b6120f7576040517f08c379a00000000000000000000000000000000000000000000000000000000081526004018080602001828103825260188152602001807f496c6c6567616c2070726f6a656374206964656e74697479000000000000000081525060200191505060405180910390fd5b600160008a8152602001908152602001600020600a0154881115801561211e575060018810155b612190576040517f08c379a000000000000000000000000000000000000000000000000000000000815260040180806020018281038252601b8152602001807f496c6c6567616c207769746864726177616c206964656e74697479000000000081525060200191505060405180910390fd5b6000600160008b815260200190815260200160002060090160008a8152602001908152602001600020905060008090506000600190505b600160008d81526020019081526020016000206004015481116122b2578973ffffffffffffffffffffffffffffffffffffffff16600160008e8152602001908152602001600020600301600083815260200190815260200160002060000160009054906101000a900473ffffffffffffffffffffffffffffffffffffffff1673ffffffffffffffffffffffffffffffffffffffff1614156122a557600160008d815260200190815260200160002060090160008c815260200190815260200160002060040160008281526020019081526020016000205491506122b2565b80806001019150506121c7565b50816000018260010154836002015484600301548560050160009054906101000a900460ff1685858054600181600116156101000203166002900480601f01602080910402602001604051908101604052809291908181526020018280546001816001161561010002031660029004801561236e5780601f106123435761010080835404028352916020019161236e565b820191906000526020600020905b81548152906001019060200180831161235157829003601f168201915b50505050509550975097509750975097509750505093975093979195509350565b828054600181600116156101000203166002900490600052602060002090601f016020900481019282601f106123d057805160ff19168380011785556123fe565b828001600101855582156123fe579182015b828111156123fd5782518255916020019190600101906123e2565b5b50905061240b919061240f565b5090565b61243191905b8082111561242d576000816000905550600101612415565b5090565b9056fea265627a7a72315820f201d117a25d2bd4af44b92a6888c8013d76bc59a266497c456686d2fdaa498a64736f6c63430005100032",
  "source": "// SPDX-License-Identifier: MIT\npragma solidity >=0.4.22 <0.9.0;\n\ncontract Crowdfunding {\n\n    uint public projectsAmount; // \n    \n    // \n    struct Funder {\n        address payable identity;   // \n        uint amount;    // \n    }\n\n    // \n    struct Withdrawal {\n        string purpose; // \n        uint amount;    // \n        uint agree; // \n        uint disagree;  // \n        mapping(uint => uint) votes;    // 012\n        bool isEnd; // \n    }\n\n    // \n    struct Project {\n        string title;   // \n        string introduction;    // \n        address payable initiator;  // \n        mapping(uint => Funder) funders;    // \n        uint fundersAmount; // \n        uint endTime;   // \n        uint target;    // \n        uint raised;    // \n        bool isSuccess; // \n        mapping(uint => Withdrawal) withdrawals;  // \n        uint withdrawalsAmount; // \n    }\n\n    mapping(uint => Project) public projects;   // \n\n    //  \n    function launch(string memory title, string memory introduction, address payable initiator, uint endTime, uint target) public returns(uint) {\n        require(endTime > block.timestamp, \"End time before current time\"); // \n        projectsAmount += 1;\n        Project storage fundProject = projects[projectsAmount];\n        fundProject.title = title;\n        fundProject.introduction = introduction;\n        fundProject.initiator = initiator;\n        fundProject.fundersAmount = 0;\n        fundProject.endTime = endTime;\n        fundProject.target = target;\n        fundProject.raised = 0;\n        fundProject.isSuccess = false;\n        fundProject.withdrawalsAmount = 0;\n        return projectsAmount;\n    }\n\n    // \n    function fund(uint projectIdentity) public payable {\n        require(projectIdentity <= projectsAmount && projectIdentity >= 1, \"Illegal project identity\"); // \n        require(projects[projectIdentity].endTime > block.timestamp && !projects[projectIdentity].isSuccess, \"The project is closed\");  // \n        require(msg.value > 0 && msg.value <= projects[projectIdentity].target - projects[projectIdentity].raised, \"Fund amount is out of range\"); // 0\n        Project storage fundProject = projects[projectIdentity];\n        fundProject.raised += msg.value;\n        // \n        bool hasFunded = false;\n        for(uint i = 1; i <= fundProject.fundersAmount; i++) {\n            // \n            if(fundProject.funders[i].identity == /*payable(*/msg.sender)/*)*/ {\n                fundProject.funders[i].amount += msg.value;\n                hasFunded = true;\n                break;\n            }\n        }\n        // \n        if(!hasFunded) {\n            fundProject.fundersAmount += 1;\n            fundProject.funders[fundProject.fundersAmount].identity = /*payable(*/msg.sender/*)*/;  // 0.8.00.8.0\n            fundProject.funders[fundProject.fundersAmount].amount = msg.value;\n        }       \n        fundProject.isSuccess = fundProject.raised >= fundProject.target;\n    }\n\n    // \n    function refund(uint projectIdentity) public payable {\n        require(projectIdentity <= projectsAmount && projectIdentity >= 1, \"Illegal project identity\"); // \n        require(projects[projectIdentity].endTime <= block.timestamp && !projects[projectIdentity].isSuccess, \"The project has not failed\");  // \n        Project storage fundProject = projects[projectIdentity];\n        for(uint i = 1; i <= fundProject.fundersAmount; i++) {\n            if(fundProject.funders[i].identity == /*payable(*/msg.sender/*)*/) {\n                fundProject.funders[i].identity.transfer(fundProject.funders[i].amount);\n                fundProject.funders[i].amount = 0;\n                fundProject.raised -= fundProject.funders[i].amount;\n            }\n        }\n    }\n\n    // \n    function requestWithdrawal(uint projectIdentity, string memory purpose, uint amount) public {\n        require(projectIdentity <= projectsAmount && projectIdentity >= 1, \"Illegal project identity\"); // \n        require(projects[projectIdentity].isSuccess, \"The project has not succeeded\");  // \n        require(amount <= projects[projectIdentity].raised, \"Raised money is not enough\");  // \n        require(/*payable(*/msg.sender/*)*/ == projects[projectIdentity].initiator, \"Withdrawer is not the initiator\");  // \n        Project storage fundProject = projects[projectIdentity];\n        fundProject.withdrawalsAmount += 1;\n        fundProject.raised -= amount;\n        fundProject.withdrawals[fundProject.withdrawalsAmount].purpose = purpose;\n        fundProject.withdrawals[fundProject.withdrawalsAmount].amount = amount;\n        fundProject.withdrawals[fundProject.withdrawalsAmount].agree = 0;\n        fundProject.withdrawals[fundProject.withdrawalsAmount].disagree = 0;\n        fundProject.withdrawals[fundProject.withdrawalsAmount].isEnd = false; \n    }\n\n    // \n    function checkHalfAgreed(uint projectIdentity, uint withdrawalIdentity) public {\n        require(projectIdentity <= projectsAmount && projectIdentity >= 1, \"Illegal project identity\"); // \n        require(withdrawalIdentity <= projects[projectIdentity].withdrawalsAmount && withdrawalIdentity >= 1, \"Illegal withdrawal identity\"); // \n        if(projects[projectIdentity].withdrawals[withdrawalIdentity].agree >= projects[projectIdentity].target / 2) {\n            projects[projectIdentity].withdrawals[withdrawalIdentity].isEnd = true;\n            projects[projectIdentity].initiator.transfer(projects[projectIdentity].withdrawals[withdrawalIdentity].amount);\n        }\n        if(projects[projectIdentity].withdrawals[withdrawalIdentity].disagree >= projects[projectIdentity].target / 2) {\n            projects[projectIdentity].raised += projects[projectIdentity].withdrawals[withdrawalIdentity].amount;\n            projects[projectIdentity].withdrawals[withdrawalIdentity].isEnd = true;\n        }\n    }\n\n    // \n    function vote(uint projectIdentity, uint withdrawalIdentity, bool isAgree) public {\n        require(projectIdentity <= projectsAmount && projectIdentity >= 1, \"Illegal project identity\"); // \n        require(withdrawalIdentity <= projects[projectIdentity].withdrawalsAmount && withdrawalIdentity >= 1, \"Illegal withdrawal identity\"); // \n        require(!projects[projectIdentity].withdrawals[withdrawalIdentity].isEnd, \"Withdrawal request is closed\");   // \n        for(uint i = 1; i <= projects[projectIdentity].fundersAmount; i++) {\n            if(projects[projectIdentity].funders[i].identity == /*payable(*/msg.sender/*)*/) {\n                // \n                if(projects[projectIdentity].withdrawals[withdrawalIdentity].votes[i] == 0) {\n                    if(isAgree) {\n                        projects[projectIdentity].withdrawals[withdrawalIdentity].agree += projects[projectIdentity].funders[i].amount;\n                        projects[projectIdentity].withdrawals[withdrawalIdentity].votes[i] = 1;\n                    }\n                    else {\n                        projects[projectIdentity].withdrawals[withdrawalIdentity].disagree += projects[projectIdentity].funders[i].amount;\n                        projects[projectIdentity].withdrawals[withdrawalIdentity].votes[i] = 2;\n                    }\n                }\n                // \n                else if(projects[projectIdentity].withdrawals[withdrawalIdentity].votes[i] == 1) {\n                    if(!isAgree) {\n                        projects[projectIdentity].withdrawals[withdrawalIdentity].agree -= projects[projectIdentity].funders[i].amount;\n                        projects[projectIdentity].withdrawals[withdrawalIdentity].disagree += projects[projectIdentity].funders[i].amount;\n                        projects[projectIdentity].withdrawals[withdrawalIdentity].votes[i] = 2;\n                    }                   \n                }\n                // \n                else if(projects[projectIdentity].withdrawals[withdrawalIdentity].votes[i] == 2) {\n                    if(isAgree) {\n                        projects[projectIdentity].withdrawals[withdrawalIdentity].disagree -= projects[projectIdentity].funders[i].amount;\n                        projects[projectIdentity].withdrawals[withdrawalIdentity].agree += projects[projectIdentity].funders[i].amount;\n                        projects[projectIdentity].withdrawals[withdrawalIdentity].votes[i] = 1;\n                    }     \n                }\n            }\n        }\n        checkHalfAgreed(projectIdentity, withdrawalIdentity);\n    }\n\n    // \n    function getWithdrawalsAmount(uint projectIdentity) public view returns(uint) {\n        require(projectIdentity <= projectsAmount && projectIdentity >= 1, \"Illegal project identity\"); // \n        return projects[projectIdentity].withdrawalsAmount;\n    }\n\n    // \n    function getMyWithdrawalVote(uint projectIdentity, uint withdrawalIdentity, address identity) public view returns(string memory, uint, uint, uint, bool, uint) {\n        require(projectIdentity <= projectsAmount && projectIdentity >= 1, \"Illegal project identity\"); // \n        require(withdrawalIdentity <= projects[projectIdentity].withdrawalsAmount && withdrawalIdentity >= 1, \"Illegal withdrawal identity\"); // \n        Withdrawal storage fundWithdrawal = projects[projectIdentity].withdrawals[withdrawalIdentity];\n        uint fundVote = 0;\n        for(uint i = 1; i <= projects[projectIdentity].fundersAmount; i++) {\n            if(projects[projectIdentity].funders[i].identity == identity) {\n                fundVote = projects[projectIdentity].withdrawals[withdrawalIdentity].votes[i];\n                break;\n            }\n        }\n        return (fundWithdrawal.purpose, fundWithdrawal.amount, fundWithdrawal.agree, fundWithdrawal.disagree, fundWithdrawal.isEnd, fundVote);\n    }\n\n    function getBalance() public view returns(uint) {\n        return address(this).balance;\n    }\n\n    //  \n    function getMyFund(address identity, uint projectIdentity) public view returns(uint) {\n        uint res = 0;\n        for(uint i = 1; i <= projects[projectIdentity].fundersAmount; i++) {\n            if(projects[projectIdentity].funders[i].identity == identity) {\n                res = projects[projectIdentity].funders[i].amount;\n                break;\n            }\n        }\n        return res;\n    } \n}",
  "sourcePath": "C:/Users/zyx17/Desktop/blockchainCourse/zangyixiao/finalwork/crowdfunding/contracts/CrowdFunding.sol",
  "compiler": {
    "name": "solc",
    "version": "0.5.16+commit.9c3226ce.Emscripten.clang"
  },
  "schemaVersion": "3.3.3",
  "updatedAt": "2021-01-16T07:29:08.183Z",
  "networkType": "ethereum",
  "devdoc": {
    "methods": {}
  },
  "userdoc": {
    "methods": {}
  }
}