{
  "contractName": "ZC",
  "abi": [
    {
      "constant": true,
      "inputs": [],
      "name": "recipientId",
      "outputs": [
        {
          "internalType": "uint256",
          "name": "",
          "type": "uint256"
        }
      ],
      "payable": false,
      "stateMutability": "view",
      "type": "function"
    },
    {
      "constant": false,
      "inputs": [
        {
          "internalType": "address payable",
          "name": "_address",
          "type": "address"
        },
        {
          "internalType": "uint256",
          "name": "_goal",
          "type": "uint256"
        }
      ],
      "name": "create_crowdfunding",
      "outputs": [],
      "payable": false,
      "stateMutability": "nonpayable",
      "type": "function"
    },
    {
      "constant": false,
      "inputs": [
        {
          "internalType": "address",
          "name": "Newaddress",
          "type": "address"
        },
        {
          "internalType": "uint256",
          "name": "_recipientId",
          "type": "uint256"
        }
      ],
      "name": "contribute",
      "outputs": [],
      "payable": true,
      "stateMutability": "payable",
      "type": "function"
    },
    {
      "constant": false,
      "inputs": [
        {
          "internalType": "uint256",
          "name": "_recipientId",
          "type": "uint256"
        }
      ],
      "name": "Iscompelte",
      "outputs": [
        {
          "internalType": "bool",
          "name": "",
          "type": "bool"
        }
      ],
      "payable": false,
      "stateMutability": "nonpayable",
      "type": "function"
    }
  ],
  "bytecode": "0x608060405234801561001057600080fd5b506103f5806100206000396000f3fe60806040526004361061003f5760003560e01c80638418cd99146100445780638f32650b14610092578063e93346b2146100ed578063fc07e57114610118575b600080fd5b6100906004803603604081101561005a57600080fd5b81019080803573ffffffffffffffffffffffffffffffffffffffff1690602001909291908035906020019092919050505061016b565b005b34801561009e57600080fd5b506100eb600480360360408110156100b557600080fd5b81019080803573ffffffffffffffffffffffffffffffffffffffff16906020019092919080359060200190929190505050610245565b005b3480156100f957600080fd5b5061010261030f565b6040518082815260200191505060405180910390f35b34801561012457600080fd5b506101516004803603602081101561013b57600080fd5b8101908080359060200190929190505050610315565b604051808215151515815260200191505060405180910390f35b6000600160008381526020019081526020016000209050348160020160008282540192505081905550806003016000815480929190600101919050555060405180604001604052808473ffffffffffffffffffffffffffffffffffffffff168152602001348152508160040160008360030154815260200190815260200160002060008201518160000160006101000a81548173ffffffffffffffffffffffffffffffffffffffff021916908373ffffffffffffffffffffffffffffffffffffffff16021790555060208201518160010155905050505050565b600080815480929190600101919050555060405180608001604052808373ffffffffffffffffffffffffffffffffffffffff168152602001828152602001600081526020016000815250600160008054815260200190815260200160002060008201518160000160006101000a81548173ffffffffffffffffffffffffffffffffffffffff021916908373ffffffffffffffffffffffffffffffffffffffff1602179055506020820151816001015560408201518160020155606082015181600301559050505050565b60005481565b60008060016000848152602001908152602001600020905080600101548160020154106103b5578060000160009054906101000a900473ffffffffffffffffffffffffffffffffffffffff1673ffffffffffffffffffffffffffffffffffffffff166108fc82600201549081150290604051600060405180830381858888f193505050501580156103aa573d6000803e3d6000fd5b5060019150506103bb565b60009150505b91905056fea265627a7a72315820d63c55df847e4130582234503b6b4d124f8b80396c5a556fd98d789bf035cfad64736f6c63430005100032",
  "source": "pragma solidity >=0.4.17 <0.9.0;\r\n\r\ncontract ZC{\r\n    \r\n    //捐赠者对象\r\n    struct Contributor{\r\n        address contributor_address; //捐赠者地址\r\n        uint contributor_money; //捐赠金额\r\n    }\r\n    \r\n    //接收者对象\r\n    struct Recipient{\r\n        address payable recipient_address; //接收者地址\r\n        uint goal; //筹资金额目标\r\n        uint amount; //当前筹资金额\r\n        uint contributor_amount; //捐赠者数量\r\n        mapping(uint => Contributor) map; //通过id与捐赠者关联\r\n    }\r\n    \r\n    uint public recipientId; //接受者id\r\n    mapping(uint => Recipient) recipient_map; //通过id将接受者信息关联\r\n    \r\n    // 发起一个众筹事件\r\n    function create_crowdfunding(address payable _address,uint _goal) public {\r\n        // 将接受者id加1\r\n        recipientId++;\r\n        // 创建接受者对象，并通过id与其绑定\r\n        recipient_map[recipientId] = Recipient(_address,_goal,0,0);\r\n        \r\n    }\r\n    \r\n    //发起捐赠    \r\n    function contribute(address Newaddress,uint _recipientId) public  payable{\r\n        // 通过id获取接受者对象\r\n        Recipient storage _recipient = recipient_map[_recipientId];\r\n        // 当前接受者金额加上获赠的金额\r\n        _recipient.amount += msg.value;\r\n        //捐赠人数加1\r\n        _recipient.contributor_amount++;\r\n        // 将接受者id与捐赠者绑定在一起\r\n        _recipient.map[ _recipient.contributor_amount] = Contributor(Newaddress,msg.value);\r\n        \r\n    }\r\n    \r\n    // 判断众筹任务是否完成\r\n    function Iscompelte(uint _recipientId)public returns(bool){\r\n         // 通过id获取接受者对象\r\n        Recipient storage _recipient = recipient_map[_recipientId];\r\n        // 判断筹集资金是否达到与其目标\r\n        if(_recipient.amount >= _recipient.goal){\r\n            //将众筹到的资金转移到接受者合约地址\r\n            _recipient.recipient_address.transfer(_recipient.amount);\r\n            return true;\r\n        }\r\n            return false;\r\n        \r\n    }\r\n  \r\n    \r\n}\r\n\r\n\r\ncontract Data{\r\n\r\n  string public data;\r\n\r\n  constructor()public{\r\n    data = \"init data\";\r\n  }\r\n  function setData(string memory str) public payable{\r\n    data = str;\r\n  }\r\n\r\n  function getData() public view returns (string memory) {\r\n    return data;\r\n  }\r\n}",
  "sourcePath": "C:/Users/Administrator/lottery/contracts/ZC.sol",
  "compiler": {
    "name": "solc",
    "version": "0.5.16+commit.9c3226ce.Emscripten.clang"
  },
  "schemaVersion": "3.3.3",
  "updatedAt": "2021-01-17T06:18:33.382Z",
  "devdoc": {
    "methods": {}
  },
  "userdoc": {
    "methods": {}
  }
}