{
  "contractName": "Funding",
  "abi": [
    {
      "constant": true,
      "inputs": [
        {
          "internalType": "uint256",
          "name": "",
          "type": "uint256"
        }
      ],
      "name": "campaigns",
      "outputs": [
        {
          "internalType": "string",
          "name": "projectName",
          "type": "string"
        },
        {
          "internalType": "string",
          "name": "projectDescription",
          "type": "string"
        },
        {
          "internalType": "address payable",
          "name": "manager",
          "type": "address"
        },
        {
          "internalType": "uint256",
          "name": "targetMoney",
          "type": "uint256"
        },
        {
          "internalType": "uint256",
          "name": "durTime",
          "type": "uint256"
        },
        {
          "internalType": "uint256",
          "name": "startTime",
          "type": "uint256"
        },
        {
          "internalType": "uint256",
          "name": "endTime",
          "type": "uint256"
        },
        {
          "internalType": "uint256",
          "name": "collectedMoney",
          "type": "uint256"
        },
        {
          "internalType": "uint256",
          "name": "numFunders",
          "type": "uint256"
        },
        {
          "internalType": "uint256",
          "name": "state",
          "type": "uint256"
        }
      ],
      "payable": false,
      "stateMutability": "view",
      "type": "function"
    },
    {
      "constant": true,
      "inputs": [],
      "name": "numCampaigns",
      "outputs": [
        {
          "internalType": "uint256",
          "name": "",
          "type": "uint256"
        }
      ],
      "payable": false,
      "stateMutability": "view",
      "type": "function"
    },
    {
      "constant": true,
      "inputs": [
        {
          "internalType": "uint256",
          "name": "",
          "type": "uint256"
        }
      ],
      "name": "uses",
      "outputs": [
        {
          "internalType": "string",
          "name": "useDescription",
          "type": "string"
        },
        {
          "internalType": "uint256",
          "name": "amount",
          "type": "uint256"
        },
        {
          "internalType": "uint256",
          "name": "agreeAmount",
          "type": "uint256"
        },
        {
          "internalType": "uint256",
          "name": "disagreeAmount",
          "type": "uint256"
        },
        {
          "internalType": "uint256",
          "name": "numVote",
          "type": "uint256"
        }
      ],
      "payable": false,
      "stateMutability": "view",
      "type": "function"
    },
    {
      "constant": false,
      "inputs": [
        {
          "internalType": "string",
          "name": "name",
          "type": "string"
        },
        {
          "internalType": "string",
          "name": "desc",
          "type": "string"
        },
        {
          "internalType": "address payable",
          "name": "manager",
          "type": "address"
        },
        {
          "internalType": "uint256",
          "name": "target",
          "type": "uint256"
        },
        {
          "internalType": "uint256",
          "name": "dur",
          "type": "uint256"
        }
      ],
      "name": "newCampaign",
      "outputs": [
        {
          "internalType": "uint256",
          "name": "",
          "type": "uint256"
        }
      ],
      "payable": false,
      "stateMutability": "nonpayable",
      "type": "function"
    },
    {
      "constant": false,
      "inputs": [
        {
          "internalType": "uint256",
          "name": "campaignID",
          "type": "uint256"
        }
      ],
      "name": "contribute",
      "outputs": [],
      "payable": true,
      "stateMutability": "payable",
      "type": "function"
    },
    {
      "constant": false,
      "inputs": [
        {
          "internalType": "uint256",
          "name": "campaignID",
          "type": "uint256"
        },
        {
          "internalType": "uint256",
          "name": "amount",
          "type": "uint256"
        },
        {
          "internalType": "string",
          "name": "desc",
          "type": "string"
        }
      ],
      "name": "setUse",
      "outputs": [],
      "payable": false,
      "stateMutability": "nonpayable",
      "type": "function"
    },
    {
      "constant": false,
      "inputs": [
        {
          "internalType": "uint256",
          "name": "campaignID",
          "type": "uint256"
        },
        {
          "internalType": "bool",
          "name": "agree",
          "type": "bool"
        }
      ],
      "name": "agreeUse",
      "outputs": [],
      "payable": false,
      "stateMutability": "nonpayable",
      "type": "function"
    },
    {
      "constant": true,
      "inputs": [
        {
          "internalType": "uint256",
          "name": "campaignID",
          "type": "uint256"
        }
      ],
      "name": "getInvestors",
      "outputs": [
        {
          "internalType": "address payable[]",
          "name": "",
          "type": "address[]"
        }
      ],
      "payable": false,
      "stateMutability": "view",
      "type": "function"
    },
    {
      "constant": true,
      "inputs": [
        {
          "internalType": "uint256",
          "name": "campaignID",
          "type": "uint256"
        }
      ],
      "name": "getVotes",
      "outputs": [
        {
          "internalType": "uint256[]",
          "name": "",
          "type": "uint256[]"
        }
      ],
      "payable": false,
      "stateMutability": "view",
      "type": "function"
    },
    {
      "constant": false,
      "inputs": [
        {
          "internalType": "uint256",
          "name": "campaignID",
          "type": "uint256"
        }
      ],
      "name": "refund",
      "outputs": [],
      "payable": false,
      "stateMutability": "nonpayable",
      "type": "function"
    }
  ],
  "bytecode": "0x608060405234801561001057600080fd5b50611919806100206000396000f3fe6080604052600436106100915760003560e01c80637cdcbd5d116100595780637cdcbd5d14610196578063863ee503146101d7578063b7b1d13014610214578063c1cbbca71461023d578063ff9810991461025957610091565b80631139de5514610096578063141961bc146100d3578063278ecde1146101195780632c0f7b6f14610142578063489b05f51461016d575b600080fd5b3480156100a257600080fd5b506100bd60048036036100b8919081019061137f565b610296565b6040516100ca91906115ac565b60405180910390f35b3480156100df57600080fd5b506100fa60048036036100f5919081019061137f565b610346565b6040516101109a999897969594939291906115f0565b60405180910390f35b34801561012557600080fd5b50610140600480360361013b919081019061137f565b6104ea565b005b34801561014e57600080fd5b506101576105be565b60405161016491906116f4565b60405180910390f35b34801561017957600080fd5b50610194600480360361018f91908101906113a8565b6105c4565b005b3480156101a257600080fd5b506101bd60048036036101b8919081019061137f565b610876565b6040516101ce95949392919061169a565b60405180910390f35b3480156101e357600080fd5b506101fe60048036036101f991908101906112d8565b610944565b60405161020b91906116f4565b60405180910390f35b34801561022057600080fd5b5061023b600480360361023691908101906113e4565b610bfc565b005b6102576004803603610252919081019061137f565b610d36565b005b34801561026557600080fd5b50610280600480360361027b919081019061137f565b610f15565b60405161028d91906115ce565b60405180910390f35b60606000600160008481526020019081526020016000209050600081600a0190508080548060200260200160405190810160405280929190818152602001828054801561033857602002820191906000526020600020905b8160009054906101000a900473ffffffffffffffffffffffffffffffffffffffff1673ffffffffffffffffffffffffffffffffffffffff16815260200190600101908083116102ee575b505050505092505050919050565b6001602052806000526040600020600091509050806000018054600181600116156101000203166002900480601f0160208091040260200160405190810160405280929190818152602001828054600181600116156101000203166002900480156103f25780601f106103c7576101008083540402835291602001916103f2565b820191906000526020600020905b8154815290600101906020018083116103d557829003601f168201915b505050505090806001018054600181600116156101000203166002900480601f0160208091040260200160405190810160405280929190818152602001828054600181600116156101000203166002900480156104905780601f1061046557610100808354040283529160200191610490565b820191906000526020600020905b81548152906001019060200180831161047357829003601f168201915b5050505050908060020160009054906101000a900473ffffffffffffffffffffffffffffffffffffffff1690806003015490806004015490806005015490806006015490806007015490806008015490806009015490508a565b600060016000838152602001908152602001600020905060008090505b81600801548110156105b95781600a01818154811061052257fe5b9060005260206000200160009054906101000a900473ffffffffffffffffffffffffffffffffffffffff1673ffffffffffffffffffffffffffffffffffffffff166108fc83600b01838154811061057557fe5b90600052602060002001549081150290604051600060405180830381858888f193505050501580156105ab573d6000803e3d6000fd5b508080600101915050610507565b505050565b60005481565b6000600160008481526020019081526020016000209050600060026000858152602001908152602001600020905060005484108015610604575060008410155b61060d57600080fd5b600482600901541461061e57600080fd5b60008090505b826008015481101561086f5782600a01818154811061063f57fe5b9060005260206000200160009054906101000a900473ffffffffffffffffffffffffffffffffffffffff1673ffffffffffffffffffffffffffffffffffffffff163373ffffffffffffffffffffffffffffffffffffffff1614156108625760008260050182815481106106ae57fe5b9060005260206000200154146106c357600080fd5b60008260050182815481106106d457fe5b9060005260206000200154141561086157816004016000815480929190600101919050555060011515841515141561075557600182600501828154811061071757fe5b906000526020600020018190555082600b01818154811061073457fe5b906000526020600020015482600201600082825401925050819055506107a0565b600282600501828154811061076657fe5b906000526020600020018190555082600b01818154811061078357fe5b906000526020600020015482600301600082825401925050819055505b60028360070154816107ae57fe5b0482600201541061083357600283600901819055508260020160009054906101000a900473ffffffffffffffffffffffffffffffffffffffff1673ffffffffffffffffffffffffffffffffffffffff166108fc83600101549081150290604051600060405180830381858888f19350505050158015610831573d6000803e3d6000fd5b505b600283600701548161084157fe5b04826003015410610860576001836009018190555061085f856104ea565b5b5b5b8080600101915050610624565b5050505050565b6002602052806000526040600020600091509050806000018054600181600116156101000203166002900480601f0160208091040260200160405190810160405280929190818152602001828054600181600116156101000203166002900480156109225780601f106108f757610100808354040283529160200191610922565b820191906000526020600020905b81548152906001019060200180831161090557829003601f168201915b5050505050908060010154908060020154908060030154908060040154905085565b600080821161095257600080fd5b6000806000815480929190600101919050559050606080610971610f8f565b6040518061018001604052808b81526020018a81526020018973ffffffffffffffffffffffffffffffffffffffff168152602001670de0b6b3a7640000890281526020018781526020014281526020016201518088024201815260200160008152602001600081526020016000815260200184815260200183815250905080600160008681526020019081526020016000206000820151816000019080519060200190610a1f929190611006565b506020820151816001019080519060200190610a3c929190611006565b5060408201518160020160006101000a81548173ffffffffffffffffffffffffffffffffffffffff021916908373ffffffffffffffffffffffffffffffffffffffff160217905550606082015181600301556080820151816004015560a0820151816005015560c0820151816006015560e082015181600701556101008201518160080155610120820151816009015561014082015181600a019080519060200190610ae9929190611086565b5061016082015181600b019080519060200190610b07929190611110565b5090505060606040518060c001604052806040518060400160405280601b81526020017f506c656173652073657420557365204465736372697074696f6e2e000000000081525081526020016000815260200160008152602001600081526020016000815260200182815250600260008781526020019081526020016000206000820151816000019080519060200190610ba2929190611006565b506020820151816001015560408201518160020155606082015181600301556080820151816004015560a0820151816005019080519060200190610be7929190611110565b50905050849550505050505095945050505050565b60005483108015610c0e575060008310155b610c1757600080fd5b6003600160008581526020019081526020016000206009015414610c3a57600080fd5b3373ffffffffffffffffffffffffffffffffffffffff166001600085815260200190815260200160002060020160009054906101000a900473ffffffffffffffffffffffffffffffffffffffff1673ffffffffffffffffffffffffffffffffffffffff1614610ca857600080fd5b8160016000858152602001908152602001600020600301541015610ccb57600080fd5b6000600160008581526020019081526020016000209050600060026000868152602001908152602001600020905082816000019080519060200190610d1192919061115d565b50670de0b6b3a764000084028160010181905550600482600901819055505050505050565b60005481108015610d48575060008110155b610d5157600080fd5b600034118015610d8f575060016000828152602001908152602001600020600701546001600083815260200190815260200160002060030154033411155b610d9857600080fd5b42600160008381526020019081526020016000206006015411610dba57600080fd5b6000600160008381526020019081526020016000206009015414610ddd57600080fd5b60006001600083815260200190815260200160002090506000600260008481526020019081526020016000209050806005016000908060018154018082558091505090600182039060005260206000200160009091929091909150555081600a013390806001815401808255809150509060018203906000526020600020016000909192909190916101000a81548173ffffffffffffffffffffffffffffffffffffffff021916908373ffffffffffffffffffffffffffffffffffffffff16021790555050816008016000815480929190600101919050555081600b013490806001815401808255809150509060018203906000526020600020016000909192909190915055503482600701600082825401925050819055508160030154826007015410610f1057600382600901819055505b505050565b60606000600260008481526020019081526020016000209050600081600501905080805480602002602001604051908101604052809291908181526020018280548015610f8157602002820191906000526020600020905b815481526020019060010190808311610f6d575b505050505092505050919050565b6040518061018001604052806060815260200160608152602001600073ffffffffffffffffffffffffffffffffffffffff1681526020016000815260200160008152602001600081526020016000815260200160008152602001600081526020016000815260200160608152602001606081525090565b828054600181600116156101000203166002900490600052602060002090601f016020900481019282601f1061104757805160ff1916838001178555611075565b82800160010185558215611075579182015b82811115611074578251825591602001919060010190611059565b5b50905061108291906111dd565b5090565b8280548282559060005260206000209081019282156110ff579160200282015b828111156110fe5782518260006101000a81548173ffffffffffffffffffffffffffffffffffffffff021916908373ffffffffffffffffffffffffffffffffffffffff160217905550916020019190600101906110a6565b5b50905061110c9190611202565b5090565b82805482825590600052602060002090810192821561114c579160200282015b8281111561114b578251825591602001919060010190611130565b5b50905061115991906111dd565b5090565b828054600181600116156101000203166002900490600052602060002090601f016020900481019282601f1061119e57805160ff19168380011785556111cc565b828001600101855582156111cc579182015b828111156111cb5782518255916020019190600101906111b0565b5b5090506111d991906111dd565b5090565b6111ff91905b808211156111fb5760008160009055506001016111e3565b5090565b90565b61124291905b8082111561123e57600081816101000a81549073ffffffffffffffffffffffffffffffffffffffff021916905550600101611208565b5090565b90565b60008135905061125481611891565b92915050565b600081359050611269816118a8565b92915050565b600082601f83011261128057600080fd5b813561129361128e8261173c565b61170f565b915080825260208301602083018583830111156112af57600080fd5b6112ba83828461183e565b50505092915050565b6000813590506112d2816118bf565b92915050565b600080600080600060a086880312156112f057600080fd5b600086013567ffffffffffffffff81111561130a57600080fd5b6113168882890161126f565b955050602086013567ffffffffffffffff81111561133357600080fd5b61133f8882890161126f565b945050604061135088828901611245565b9350506060611361888289016112c3565b9250506080611372888289016112c3565b9150509295509295909350565b60006020828403121561139157600080fd5b600061139f848285016112c3565b91505092915050565b600080604083850312156113bb57600080fd5b60006113c9858286016112c3565b92505060206113da8582860161125a565b9150509250929050565b6000806000606084860312156113f957600080fd5b6000611407868287016112c3565b9350506020611418868287016112c3565b925050604084013567ffffffffffffffff81111561143557600080fd5b6114418682870161126f565b9150509250925092565b6000611457838361147b565b60208301905092915050565b600061146f838361158e565b60208301905092915050565b611484816117f6565b82525050565b611493816117f6565b82525050565b60006114a482611788565b6114ae81856117c3565b93506114b983611768565b8060005b838110156114ea5781516114d1888261144b565b97506114dc836117a9565b9250506001810190506114bd565b5085935050505092915050565b600061150282611793565b61150c81856117d4565b935061151783611778565b8060005b8381101561154857815161152f8882611463565b975061153a836117b6565b92505060018101905061151b565b5085935050505092915050565b60006115608261179e565b61156a81856117e5565b935061157a81856020860161184d565b61158381611880565b840191505092915050565b61159781611834565b82525050565b6115a681611834565b82525050565b600060208201905081810360008301526115c68184611499565b905092915050565b600060208201905081810360008301526115e881846114f7565b905092915050565b600061014082019050818103600083015261160b818d611555565b9050818103602083015261161f818c611555565b905061162e604083018b61148a565b61163b606083018a61159d565b611648608083018961159d565b61165560a083018861159d565b61166260c083018761159d565b61166f60e083018661159d565b61167d61010083018561159d565b61168b61012083018461159d565b9b9a5050505050505050505050565b600060a08201905081810360008301526116b48188611555565b90506116c3602083018761159d565b6116d0604083018661159d565b6116dd606083018561159d565b6116ea608083018461159d565b9695505050505050565b6000602082019050611709600083018461159d565b92915050565b6000604051905081810181811067ffffffffffffffff8211171561173257600080fd5b8060405250919050565b600067ffffffffffffffff82111561175357600080fd5b601f19601f8301169050602081019050919050565b6000819050602082019050919050565b6000819050602082019050919050565b600081519050919050565b600081519050919050565b600081519050919050565b6000602082019050919050565b6000602082019050919050565b600082825260208201905092915050565b600082825260208201905092915050565b600082825260208201905092915050565b600061180182611814565b9050919050565b60008115159050919050565b600073ffffffffffffffffffffffffffffffffffffffff82169050919050565b6000819050919050565b82818337600083830152505050565b60005b8381101561186b578082015181840152602081019050611850565b8381111561187a576000848401525b50505050565b6000601f19601f8301169050919050565b61189a816117f6565b81146118a557600080fd5b50565b6118b181611808565b81146118bc57600080fd5b50565b6118c881611834565b81146118d357600080fd5b5056fea365627a7a7231582012eaf425a92dce109bf4e3ec44947311e4a57d5d758cdaa97811c5bc234616d36c6578706572696d656e74616cf564736f6c63430005100040",
  "source": "pragma solidity >=0.4.22 <0.9.0;\r\npragma experimental ABIEncoderV2;\r\n\r\ncontract Funding {\r\n\r\n    // \r\n    struct Use {\r\n        string useDescription;              // \r\n        uint   amount;                      // \r\n        uint   agreeAmount;                 // \r\n        uint   disagreeAmount;              // \r\n        uint   numVote;                     // \r\n        uint[] agree;                       // \r\n        // 0 \r\n        // 1 \r\n        // 2 \r\n    }\r\n\r\n    // \r\n    struct Campaign {\r\n        // \r\n        string projectName;                 // \r\n        string projectDescription;          // \r\n        address payable manager;            // \r\n        uint targetMoney;                   // \r\n        uint durTime;                       // \r\n\r\n        uint startTime;                     // \r\n        uint endTime;                       // \r\n        uint collectedMoney;                // \r\n        uint numFunders;                    // \r\n\r\n        uint state;                         /**\r\n                                             * \r\n                                             * 0\r\n                                             * 1\r\n                                             * 2\r\n                                             * 3\r\n                                             * 4\r\n                                             */\r\n\r\n        address payable[] funders;                  // \r\n        uint[]    amount;                   // \r\n    }\r\n\r\n    uint public numCampaigns;                      // \r\n    mapping (uint => Campaign) public campaigns;   // \r\n    mapping (uint => Use) public uses;             // Use\r\n\r\n    function newCampaign(string memory name, string memory desc, address payable manager, uint target, uint dur) public\r\n    returns (uint) {\r\n        require(dur > 0);\r\n        // campaignID \r\n        uint campaignID = numCampaigns++;\r\n\r\n        address payable[] memory funders;\r\n        uint[] memory amount;\r\n        Campaign memory c = Campaign({\r\n        projectName: name,\r\n        projectDescription: desc,\r\n        manager: manager,\r\n        targetMoney: target * 1 ether,\r\n        durTime: dur,\r\n        startTime: now,\r\n        endTime: now + dur * 1 days,\r\n        collectedMoney: 0 * 1 ether,\r\n        numFunders: 0,\r\n        state: 0,\r\n        funders: funders,\r\n        amount: amount\r\n        });\r\n        campaigns[campaignID] = c;\r\n\r\n        uint[] memory agree;\r\n        uses[campaignID] = Use({\r\n        useDescription: \"Please set Use Description.\",\r\n        amount: 0,\r\n        agreeAmount: 0,\r\n        disagreeAmount: 0,\r\n        numVote: 0,\r\n        agree: agree\r\n        });\r\n        return campaignID;\r\n    }\r\n\r\n    function contribute(uint campaignID) public payable {\r\n        // ID\r\n        require(campaignID < numCampaigns && campaignID >= 0);\r\n        // 0\r\n        require(msg.value > 0 && msg.value <= campaigns[campaignID].targetMoney - campaigns[campaignID].collectedMoney);\r\n        // \r\n        require(campaigns[campaignID].endTime > now);\r\n        // \r\n        require(campaigns[campaignID].state == 0);\r\n\r\n        Campaign storage c = campaigns[campaignID];\r\n        Use storage u = uses[campaignID];\r\n        // \r\n        u.agree.push(0);    // \r\n        // \r\n        c.funders.push(msg.sender);\r\n        c.numFunders++;\r\n        c.amount.push(msg.value);\r\n        // \r\n        c.collectedMoney += msg.value;\r\n\r\n        // \r\n        if(c.collectedMoney >= c.targetMoney)\r\n            c.state = 3;\r\n\r\n    }\r\n\r\n    function setUse(uint campaignID, uint amount, string memory desc) public {\r\n        require(campaignID < numCampaigns && campaignID >= 0);\r\n        require(campaigns[campaignID].state == 3);\r\n        require(campaigns[campaignID].manager == msg.sender); // \r\n        require(campaigns[campaignID].targetMoney >= amount); // \r\n\r\n        Campaign storage c = campaigns[campaignID];\r\n        Use storage u = uses[campaignID];\r\n        // use\r\n        u.useDescription = desc;\r\n        u.amount = amount * 1 ether;\r\n        // \r\n        c.state = 4;\r\n    }\r\n\r\n    function agreeUse(uint campaignID, bool agree) public {\r\n        Campaign storage c = campaigns[campaignID];\r\n        Use storage u = uses[campaignID];\r\n\r\n        require(campaignID < numCampaigns && campaignID >= 0);\r\n        require(c.state == 4);\r\n\r\n        for(uint i = 0; i < c.numFunders; i++) {\r\n            // \r\n            if(msg.sender == c.funders[i]) {\r\n                require(u.agree[i] == 0);\r\n\r\n                if(u.agree[i] == 0) {\r\n                    u.numVote++;\r\n                    // \r\n                    if(agree == true) {\r\n                        u.agree[i] = 1;\r\n                        u.agreeAmount += c.amount[i];\r\n                    }\r\n                    // \r\n                    else {\r\n                        u.agree[i] = 2;\r\n                        u.disagreeAmount += c.amount[i];\r\n                    }\r\n\r\n                    // \r\n                    if(u.agreeAmount >= c.collectedMoney / 2) {\r\n                        c.state = 2;\r\n                        // \r\n                        c.manager.transfer(u.amount);\r\n                    }\r\n                    if(u.disagreeAmount >= c.collectedMoney / 2) {\r\n                        c.state = 1;\r\n                        // \r\n                        refund(campaignID);\r\n                    }\r\n                }\r\n            }\r\n        }\r\n    }\r\n\r\n    // \r\n    function getInvestors(uint campaignID) public view returns(address payable[] memory) {\r\n        Campaign storage c = campaigns[campaignID];\r\n        address payable[] storage funders = c.funders;\r\n        return funders;\r\n    }\r\n\r\n    // \r\n    function getVotes(uint campaignID) public view returns(uint[] memory) {\r\n        Use storage u = uses[campaignID];\r\n        uint[] storage agrees = u.agree;\r\n        return agrees;\r\n    }\r\n\r\n    function refund(uint campaignID) public {\r\n        Campaign storage c = campaigns[campaignID];\r\n        for (uint i = 0; i < c.numFunders; i++) {\r\n            c.funders[i].transfer(c.amount[i]);\r\n        }\r\n    }\r\n}\r\n",
  "sourcePath": "F:///Homework/miniICO/miniICO/contracts/contracts/Funding.sol",
  "compiler": {
    "name": "solc",
    "version": "0.5.16+commit.9c3226ce.Emscripten.clang"
  },
  "schemaVersion": "3.3.2",
  "updatedAt": "2021-01-12T12:21:27.049Z",
  "networkType": "ethereum",
  "devdoc": {
    "methods": {}
  },
  "userdoc": {
    "methods": {}
  }
}