{
  "contractName": "Invest",
  "abi": [
    {
      "inputs": [],
      "stateMutability": "nonpayable",
      "type": "constructor"
    },
    {
      "anonymous": false,
      "inputs": [
        {
          "indexed": false,
          "internalType": "uint256",
          "name": "num",
          "type": "uint256"
        }
      ],
      "name": "here",
      "type": "event"
    },
    {
      "anonymous": false,
      "inputs": [
        {
          "indexed": false,
          "internalType": "string",
          "name": "name",
          "type": "string"
        },
        {
          "indexed": false,
          "internalType": "uint256",
          "name": "num",
          "type": "uint256"
        }
      ],
      "name": "new_f",
      "type": "event"
    },
    {
      "inputs": [
        {
          "internalType": "uint256",
          "name": "",
          "type": "uint256"
        }
      ],
      "name": "investments",
      "outputs": [
        {
          "internalType": "string",
          "name": "name",
          "type": "string"
        },
        {
          "internalType": "address payable",
          "name": "raiser",
          "type": "address"
        },
        {
          "internalType": "uint256",
          "name": "investorsize",
          "type": "uint256"
        },
        {
          "internalType": "string",
          "name": "description",
          "type": "string"
        },
        {
          "internalType": "uint256",
          "name": "target_amount",
          "type": "uint256"
        },
        {
          "internalType": "uint256",
          "name": "due",
          "type": "uint256"
        },
        {
          "internalType": "uint256",
          "name": "current_amount",
          "type": "uint256"
        },
        {
          "internalType": "uint256",
          "name": "total_amount",
          "type": "uint256"
        },
        {
          "internalType": "bool",
          "name": "isClosed",
          "type": "bool"
        },
        {
          "internalType": "bool",
          "name": "isPassed",
          "type": "bool"
        },
        {
          "internalType": "uint256",
          "name": "proposal_size",
          "type": "uint256"
        }
      ],
      "stateMutability": "view",
      "type": "function"
    },
    {
      "inputs": [],
      "name": "investments_count",
      "outputs": [
        {
          "internalType": "uint256",
          "name": "",
          "type": "uint256"
        }
      ],
      "stateMutability": "view",
      "type": "function"
    },
    {
      "inputs": [],
      "name": "manager",
      "outputs": [
        {
          "internalType": "address payable",
          "name": "",
          "type": "address"
        }
      ],
      "stateMutability": "view",
      "type": "function"
    },
    {
      "inputs": [
        {
          "internalType": "uint256",
          "name": "",
          "type": "uint256"
        }
      ],
      "name": "players",
      "outputs": [
        {
          "internalType": "address payable",
          "name": "",
          "type": "address"
        }
      ],
      "stateMutability": "view",
      "type": "function"
    },
    {
      "inputs": [],
      "name": "round",
      "outputs": [
        {
          "internalType": "uint256",
          "name": "",
          "type": "uint256"
        }
      ],
      "stateMutability": "view",
      "type": "function"
    },
    {
      "inputs": [],
      "name": "winner",
      "outputs": [
        {
          "internalType": "address payable",
          "name": "",
          "type": "address"
        }
      ],
      "stateMutability": "view",
      "type": "function"
    },
    {
      "inputs": [],
      "name": "update_state",
      "outputs": [],
      "stateMutability": "nonpayable",
      "type": "function"
    },
    {
      "inputs": [
        {
          "internalType": "string",
          "name": "name",
          "type": "string"
        },
        {
          "internalType": "string",
          "name": "description",
          "type": "string"
        },
        {
          "internalType": "uint256",
          "name": "due",
          "type": "uint256"
        },
        {
          "internalType": "uint256",
          "name": "target_amount",
          "type": "uint256"
        }
      ],
      "name": "new_fund",
      "outputs": [],
      "stateMutability": "nonpayable",
      "type": "function"
    },
    {
      "inputs": [
        {
          "internalType": "string",
          "name": "name",
          "type": "string"
        },
        {
          "internalType": "string",
          "name": "description",
          "type": "string"
        },
        {
          "internalType": "uint256",
          "name": "amount",
          "type": "uint256"
        },
        {
          "internalType": "uint256",
          "name": "fund_index",
          "type": "uint256"
        }
      ],
      "name": "new_proposal",
      "outputs": [],
      "stateMutability": "nonpayable",
      "type": "function"
    },
    {
      "inputs": [
        {
          "internalType": "uint256",
          "name": "fund_index",
          "type": "uint256"
        }
      ],
      "name": "invest",
      "outputs": [],
      "stateMutability": "payable",
      "type": "function"
    },
    {
      "inputs": [],
      "name": "get_fund_number",
      "outputs": [
        {
          "internalType": "uint256",
          "name": "",
          "type": "uint256"
        }
      ],
      "stateMutability": "view",
      "type": "function"
    },
    {
      "inputs": [
        {
          "internalType": "uint256",
          "name": "fund_index",
          "type": "uint256"
        }
      ],
      "name": "get_fund_info",
      "outputs": [
        {
          "internalType": "string",
          "name": "",
          "type": "string"
        },
        {
          "internalType": "string",
          "name": "",
          "type": "string"
        },
        {
          "internalType": "uint256",
          "name": "",
          "type": "uint256"
        },
        {
          "internalType": "uint256",
          "name": "",
          "type": "uint256"
        },
        {
          "internalType": "uint256",
          "name": "",
          "type": "uint256"
        },
        {
          "internalType": "uint256",
          "name": "",
          "type": "uint256"
        },
        {
          "internalType": "string",
          "name": "",
          "type": "string"
        },
        {
          "internalType": "string",
          "name": "",
          "type": "string"
        },
        {
          "internalType": "address payable",
          "name": "",
          "type": "address"
        }
      ],
      "stateMutability": "view",
      "type": "function"
    },
    {
      "inputs": [
        {
          "internalType": "uint256",
          "name": "fund_index",
          "type": "uint256"
        }
      ],
      "name": "get_proposal_number",
      "outputs": [
        {
          "internalType": "uint256",
          "name": "",
          "type": "uint256"
        }
      ],
      "stateMutability": "view",
      "type": "function"
    },
    {
      "inputs": [
        {
          "internalType": "uint256",
          "name": "fund_index",
          "type": "uint256"
        },
        {
          "internalType": "uint256",
          "name": "proposal_index",
          "type": "uint256"
        }
      ],
      "name": "get_proposal_info",
      "outputs": [
        {
          "internalType": "string",
          "name": "",
          "type": "string"
        },
        {
          "internalType": "string",
          "name": "",
          "type": "string"
        },
        {
          "internalType": "uint256",
          "name": "",
          "type": "uint256"
        },
        {
          "internalType": "uint256",
          "name": "",
          "type": "uint256"
        },
        {
          "internalType": "uint256",
          "name": "",
          "type": "uint256"
        },
        {
          "internalType": "string",
          "name": "",
          "type": "string"
        },
        {
          "internalType": "string",
          "name": "",
          "type": "string"
        }
      ],
      "stateMutability": "view",
      "type": "function"
    },
    {
      "inputs": [
        {
          "internalType": "uint256",
          "name": "fund_index",
          "type": "uint256"
        }
      ],
      "name": "get_investor_number",
      "outputs": [
        {
          "internalType": "uint256",
          "name": "",
          "type": "uint256"
        }
      ],
      "stateMutability": "view",
      "type": "function"
    },
    {
      "inputs": [
        {
          "internalType": "uint256",
          "name": "fund_index",
          "type": "uint256"
        }
      ],
      "name": "get_weight",
      "outputs": [
        {
          "internalType": "uint256",
          "name": "",
          "type": "uint256"
        }
      ],
      "stateMutability": "view",
      "type": "function"
    },
    {
      "inputs": [
        {
          "internalType": "uint256",
          "name": "fund_index",
          "type": "uint256"
        },
        {
          "internalType": "uint256",
          "name": "proposal_index",
          "type": "uint256"
        },
        {
          "internalType": "bool",
          "name": "vote",
          "type": "bool"
        }
      ],
      "name": "vote_for_proposal",
      "outputs": [],
      "stateMutability": "nonpayable",
      "type": "function"
    },
    {
      "inputs": [
        {
          "internalType": "uint256",
          "name": "fund_index",
          "type": "uint256"
        },
        {
          "internalType": "uint256",
          "name": "proposal_index",
          "type": "uint256"
        }
      ],
      "name": "proposal_pass",
      "outputs": [],
      "stateMutability": "nonpayable",
      "type": "function"
    },
    {
      "inputs": [
        {
          "internalType": "uint256",
          "name": "fund_index",
          "type": "uint256"
        },
        {
          "internalType": "uint256",
          "name": "proposal_index",
          "type": "uint256"
        }
      ],
      "name": "is_voted",
      "outputs": [
        {
          "internalType": "bool",
          "name": "",
          "type": "bool"
        }
      ],
      "stateMutability": "view",
      "type": "function"
    },
    {
      "inputs": [],
      "name": "getBalance",
      "outputs": [
        {
          "internalType": "uint256",
          "name": "",
          "type": "uint256"
        }
      ],
      "stateMutability": "view",
      "type": "function"
    }
  ],
  "bytecode": "0x608060405234801561001057600080fd5b5033600260006101000a81548173ffffffffffffffffffffffffffffffffffffffff021916908373ffffffffffffffffffffffffffffffffffffffff16021790555060006001819055506124fa806100696000396000f3fe60806040526004361061011f5760003560e01c80637e8d791c116100a0578063d6cbdcd811610064578063d6cbdcd8146103cc578063dfbf53ae14610409578063f0ed72d614610434578063f71d96cb14610479578063fd345c8a146104b65761011f565b80637e8d791c146102f95780638d9036b114610324578063a340fc8214610361578063d223dab21461038c578063d27f7ba5146103b55761011f565b80632afcf480116100e75780632afcf480146102095780633f814b3414610225578063481c6a751461024e5780635b957422146102795780637d7d7a18146102bc5761011f565b8063056a4c651461012457806312065fe01461014d578063146ca5311461017857806316c33dbc146101a357806322f85d54146101e0575b600080fd5b34801561013057600080fd5b5061014b60048036038101906101469190611edb565b6104fd565b005b34801561015957600080fd5b506101626106e0565b60405161016f91906123d3565b60405180910390f35b34801561018457600080fd5b5061018d6106e8565b60405161019a91906123d3565b60405180910390f35b3480156101af57600080fd5b506101ca60048036038101906101c59190611f76565b6106ee565b6040516101d791906123d3565b60405180910390f35b3480156101ec57600080fd5b5061020760048036038101906102029190611f9f565b61070d565b005b610223600480360381019061021e9190611f76565b6108a6565b005b34801561023157600080fd5b5061024c60048036038101906102479190611edb565b6109bc565b005b34801561025a57600080fd5b50610263610ace565b6040516102709190612150565b60405180910390f35b34801561028557600080fd5b506102a0600480360381019061029b9190611f9f565b610af4565b6040516102b3979695949392919061223f565b60405180910390f35b3480156102c857600080fd5b506102e360048036038101906102de9190611f76565b610e20565b6040516102f091906123d3565b60405180910390f35b34801561030557600080fd5b5061030e610e3f565b60405161031b91906123d3565b60405180910390f35b34801561033057600080fd5b5061034b60048036038101906103469190611f76565b610e49565b60405161035891906123d3565b60405180910390f35b34801561036d57600080fd5b50610376610eaf565b60405161038391906123d3565b60405180910390f35b34801561039857600080fd5b506103b360048036038101906103ae9190611fdb565b610eb5565b005b3480156103c157600080fd5b506103ca61100e565b005b3480156103d857600080fd5b506103f360048036038101906103ee9190611f9f565b6110d2565b604051610400919061216b565b60405180910390f35b34801561041557600080fd5b5061041e611206565b60405161042b9190612150565b60405180910390f35b34801561044057600080fd5b5061045b60048036038101906104569190611f76565b61122c565b604051610470999897969594939291906122ca565b60405180910390f35b34801561048557600080fd5b506104a0600480360381019061049b9190611f76565b6116a7565b6040516104ad9190612150565b60405180910390f35b3480156104c257600080fd5b506104dd60048036038101906104d89190611f76565b6116e6565b6040516104f49b9a99989796959493929190612186565b60405180910390f35b803373ffffffffffffffffffffffffffffffffffffffff1660008083815260200190815260200160002060010160009054906101000a900473ffffffffffffffffffffffffffffffffffffffff1673ffffffffffffffffffffffffffffffffffffffff16146105a1576040517f08c379a0000000000000000000000000000000000000000000000000000000008152600401610598906123b3565b60405180910390fd5b60006105ac836118aa565b9050878782600a01600084600b0154815260200190815260200160002060000191906105d9929190611dbc565b50858582600a01600084600b015481526020019081526020016000206001019190610605929190611dbc565b508381600a01600083600b0154815260200190815260200160002060020181905550600081600a01600083600b0154815260200190815260200160002060040181905550600081600a01600083600b0154815260200190815260200160002060030181905550600081600a01600083600b0154815260200190815260200160002060070160006101000a81548160ff021916908315150217905550600081600a01600083600b015481526020019081526020016000206006018190555080600b01600081548092919060010191905055505050505050505050565b600047905090565b60045481565b6000806000838152602001908152602001600020600b01549050919050565b813373ffffffffffffffffffffffffffffffffffffffff1660008083815260200190815260200160002060010160009054906101000a900473ffffffffffffffffffffffffffffffffffffffff1673ffffffffffffffffffffffffffffffffffffffff16146107b1576040517f08c379a00000000000000000000000000000000000000000000000000000000081526004016107a8906123b3565b60405180910390fd5b60006107bc846118aa565b905060006107ca8585611918565b90508060070160009054906101000a900460ff16806107f057506107ee8585611a03565b155b156107fc5750506108a1565b8160010160009054906101000a900473ffffffffffffffffffffffffffffffffffffffff1673ffffffffffffffffffffffffffffffffffffffff166108fc82600201549081150290604051600060405180830381858888f1935050505015801561086a573d6000803e3d6000fd5b508060020154826007016000828254039250508190555060018160070160006101000a81548160ff02191690831515021790555050505b505050565b80600080828152602001908152602001600020600601544211156108c957600080fd5b60006108d4836118aa565b905034816007016000828254019250508190555034816008016000828254019250508190555061090383611a51565b61099c57338160020160008360030154815260200190815260200160002060000160006101000a81548173ffffffffffffffffffffffffffffffffffffffff021916908373ffffffffffffffffffffffffffffffffffffffff16021790555034816002016000836003015481526020019081526020016000206001018190555080600301600081548092919060010191905055506109b7565b346109a684611b15565b600101600082825401925050819055505b505050565b60008060006001548152602001908152602001600020905086868260000191906109e7929190611dbc565b50338160010160006101000a81548173ffffffffffffffffffffffffffffffffffffffff021916908373ffffffffffffffffffffffffffffffffffffffff1602179055508484826004019190610a3e929190611dbc565b5082816006018190555081816005018190555060008160090160006101000a81548160ff02191690831515021790555060008160090160016101000a81548160ff021916908315150217905550600081600701819055506000816008018190555060008160030181905550600081600b018190555060016000815480929190600101919050555050505050505050565b600260009054906101000a900473ffffffffffffffffffffffffffffffffffffffff1681565b60608060008060006060806000610b0b8a8a611918565b9050606080610b198c611a51565b610b5a576040518060400160405280600281526020017f2d2d0000000000000000000000000000000000000000000000000000000000008152509050610be0565b610b648c8c6110d2565b15610ba6576040518060400160405280600581526020017f566f7465640000000000000000000000000000000000000000000000000000008152509050610bdf565b6040518060400160405280600981526020017f4e6f7420766f746564000000000000000000000000000000000000000000000081525090505b5b610bea8c8c611a03565b15610c2c576040518060400160405280600681526020017f50617373656400000000000000000000000000000000000000000000000000008152509150610cb2565b610c368c8c611c44565b15610c78576040518060400160405280600681526020017f4661696c656400000000000000000000000000000000000000000000000000008152509150610cb1565b6040518060400160405280600781526020017f4f6e676f696e670000000000000000000000000000000000000000000000000081525091505b5b82600001836001018460020154856004015486600301548686868054600181600116156101000203166002900480601f016020809104026020016040519081016040528092919081815260200182805460018160011615610100020316600290048015610d605780601f10610d3557610100808354040283529160200191610d60565b820191906000526020600020905b815481529060010190602001808311610d4357829003601f168201915b50505050509650858054600181600116156101000203166002900480601f016020809104026020016040519081016040528092919081815260200182805460018160011615610100020316600290048015610dfc5780601f10610dd157610100808354040283529160200191610dfc565b820191906000526020600020905b815481529060010190602001808311610ddf57829003601f168201915b50505050509550995099509950995099509950995050505092959891949750929550565b6000806000838152602001908152602001600020600301549050919050565b6000600154905090565b600081610e5581611a51565b610e94576040517f08c379a0000000000000000000000000000000000000000000000000000000008152600401610e8b90612393565b60405180910390fd5b6000610e9f84611b15565b9050806001015492505050919050565b60015481565b82610ebf81611a51565b610efe576040517f08c379a0000000000000000000000000000000000000000000000000000000008152600401610ef590612393565b60405180910390fd5b6000610f0985611b15565b90506000610f178686611918565b9050610f2386866110d2565b15610f2f575050611008565b338160050160008360060154815260200190815260200160002060000160006101000a81548173ffffffffffffffffffffffffffffffffffffffff021916908373ffffffffffffffffffffffffffffffffffffffff160217905550838160050160008360060154815260200190815260200160002060000160146101000a81548160ff021916908315150217905550806006016000815480929190600101919050555081600101548160040160008282540192505081905550831561100557816001015481600301600082825401925050819055505b50505b50505050565b60005b6001548110156110cf576000611026826118aa565b90508060090160009054906101000a900460ff1615801561105657508060090160019054906101000a900460ff16155b8015611069575080600501548160070154105b80156110785750428160060154105b156110c15760018160090160006101000a81548160ff02191690831515021790555060008160090160016101000a81548160ff0219169083151502179055506110c082611c97565b5b508080600101915050611011565b50565b6000826110de81611a51565b61111d576040517f08c379a000000000000000000000000000000000000000000000000000000000815260040161111490612393565b60405180910390fd5b60005b600080868152602001908152602001600020600a016000858152602001908152602001600020600601548110156111f957600080868152602001908152602001600020600a016000858152602001908152602001600020600501600082815260200190815260200160002060000160009054906101000a900473ffffffffffffffffffffffffffffffffffffffff1673ffffffffffffffffffffffffffffffffffffffff163373ffffffffffffffffffffffffffffffffffffffff1614156111ec5760019250506111ff565b8080600101915050611120565b50600091505b5092915050565b600560009054906101000a900473ffffffffffffffffffffffffffffffffffffffff1681565b606080600080600080606080600060608060006112488d6118aa565b90508060090160009054906101000a900460ff16801561127757508060090160019054906101000a900460ff16155b156112b9576040518060400160405280600681526020017f4661696c6564000000000000000000000000000000000000000000000000000081525092506113f0565b8060090160009054906101000a900460ff1680156112e557508060090160019054906101000a900460ff165b80156112f5575060008160070154115b15611337576040518060400160405280600981526020017f537563636565646564000000000000000000000000000000000000000000000081525092506113ef565b8060090160009054906101000a900460ff16801561136357508060090160019054906101000a900460ff165b8015611373575060008160070154145b156113b5576040518060400160405280600981526020017f436f6d706c65746564000000000000000000000000000000000000000000000081525092506113ee565b6040518060400160405280600781526020017f4f6e676f696e670000000000000000000000000000000000000000000000000081525092505b5b5b6113f98d611a51565b1561143b576040518060400160405280600881526020017f496e766573746f72000000000000000000000000000000000000000000000000815250915061150a565b8060010160009054906101000a900473ffffffffffffffffffffffffffffffffffffffff1673ffffffffffffffffffffffffffffffffffffffff163373ffffffffffffffffffffffffffffffffffffffff1614156114d0576040518060400160405280600681526020017f52616973657200000000000000000000000000000000000000000000000000008152509150611509565b6040518060400160405280600681526020017f4e6f726d616c000000000000000000000000000000000000000000000000000081525091505b5b8060000181600401826005015483600601548460080154856007015488888860010160009054906101000a900473ffffffffffffffffffffffffffffffffffffffff16888054600181600116156101000203166002900480601f0160208091040260200160405190810160405280929190818152602001828054600181600116156101000203166002900480156115e25780601f106115b7576101008083540402835291602001916115e2565b820191906000526020600020905b8154815290600101906020018083116115c557829003601f168201915b50505050509850878054600181600116156101000203166002900480601f01602080910402602001604051908101604052809291908181526020018280546001816001161561010002031660029004801561167e5780601f106116535761010080835404028352916020019161167e565b820191906000526020600020905b81548152906001019060200180831161166157829003601f168201915b505050505097509b509b509b509b509b509b509b509b509b505050509193959799909294969850565b600381815481106116b757600080fd5b906000526020600020016000915054906101000a900473ffffffffffffffffffffffffffffffffffffffff1681565b6000602052806000526040600020600091509050806000018054600181600116156101000203166002900480601f0160208091040260200160405190810160405280929190818152602001828054600181600116156101000203166002900480156117925780601f1061176757610100808354040283529160200191611792565b820191906000526020600020905b81548152906001019060200180831161177557829003601f168201915b5050505050908060010160009054906101000a900473ffffffffffffffffffffffffffffffffffffffff1690806003015490806004018054600181600116156101000203166002900480601f01602080910402602001604051908101604052809291908181526020018280546001816001161561010002031660029004801561185c5780601f106118315761010080835404028352916020019161185c565b820191906000526020600020905b81548152906001019060200180831161183f57829003601f168201915b5050505050908060050154908060060154908060070154908060080154908060090160009054906101000a900460ff16908060090160019054906101000a900460ff169080600b015490508b565b600081600081101580156118bf575060015481105b6118fe576040517f08c379a00000000000000000000000000000000000000000000000000000000081526004016118f590612373565b60405180910390fd5b600080848152602001908152602001600020915050919050565b6000826000811015801561192d575060015481105b61196c576040517f08c379a000000000000000000000000000000000000000000000000000000000815260040161196390612373565b60405180910390fd5b8383600081101580156119935750600080838152602001908152602001600020600b015481105b6119d2576040517f08c379a00000000000000000000000000000000000000000000000000000000081526004016119c990612373565b60405180910390fd5b600080878152602001908152602001600020600a016000868152602001908152602001600020935050505092915050565b600080611a108484611918565b90506000611a1d856118aa565b90506002816008015481611a2d57fe5b0482600301541115611a4457600192505050611a4b565b6000925050505b92915050565b600080600090505b60008084815260200190815260200160002060030154811015611b0a57600080848152602001908152602001600020600201600082815260200190815260200160002060000160009054906101000a900473ffffffffffffffffffffffffffffffffffffffff1673ffffffffffffffffffffffffffffffffffffffff163373ffffffffffffffffffffffffffffffffffffffff161415611afd576001915050611b10565b8080600101915050611a59565b50600090505b919050565b600081611b2181611a51565b611b60576040517f08c379a0000000000000000000000000000000000000000000000000000000008152600401611b5790612393565b60405180910390fd5b60005b60008085815260200190815260200160002060030154811015611c3857600080858152602001908152602001600020600201600082815260200190815260200160002060000160009054906101000a900473ffffffffffffffffffffffffffffffffffffffff1673ffffffffffffffffffffffffffffffffffffffff163373ffffffffffffffffffffffffffffffffffffffff161415611c2b576000808581526020019081526020016000206002016000828152602001908152602001600020925050611c3e565b8080600101915050611b63565b50600080fd5b50919050565b600080611c518484611918565b90506000611c5e856118aa565b90506002816008015481611c6e57fe5b04826003015483600401540310611c8a57600192505050611c91565b6000925050505b92915050565b6000611ca2826118aa565b90508060090160009054906101000a900460ff168015611cd157508060090160019054906101000a900460ff16155b611cda57600080fd5b60005b8160030154811015611db75781600201600082815260200190815260200160002060000160009054906101000a900473ffffffffffffffffffffffffffffffffffffffff1673ffffffffffffffffffffffffffffffffffffffff166108fc836002016000848152602001908152602001600020600101549081150290604051600060405180830381858888f19350505050158015611d7f573d6000803e3d6000fd5b508160020160008281526020019081526020016000206001015482600701600082825403925050819055508080600101915050611cdd565b505050565b828054600181600116156101000203166002900490600052602060002090601f016020900481019282611df25760008555611e39565b82601f10611e0b57803560ff1916838001178555611e39565b82800160010185558215611e39579182015b82811115611e38578235825591602001919060010190611e1d565b5b509050611e469190611e4a565b5090565b5b80821115611e63576000816000905550600101611e4b565b5090565b600081359050611e7681612496565b92915050565b60008083601f840112611e8e57600080fd5b8235905067ffffffffffffffff811115611ea757600080fd5b602083019150836001820283011115611ebf57600080fd5b9250929050565b600081359050611ed5816124ad565b92915050565b60008060008060008060808789031215611ef457600080fd5b600087013567ffffffffffffffff811115611f0e57600080fd5b611f1a89828a01611e7c565b9650965050602087013567ffffffffffffffff811115611f3957600080fd5b611f4589828a01611e7c565b94509450506040611f5889828a01611ec6565b9250506060611f6989828a01611ec6565b9150509295509295509295565b600060208284031215611f8857600080fd5b6000611f9684828501611ec6565b91505092915050565b60008060408385031215611fb257600080fd5b6000611fc085828601611ec6565b9250506020611fd185828601611ec6565b9150509250929050565b600080600060608486031215611ff057600080fd5b6000611ffe86828701611ec6565b935050602061200f86828701611ec6565b925050604061202086828701611e67565b9150509250925092565b6120338161240a565b82525050565b6120428161241c565b82525050565b6000612053826123ee565b61205d81856123f9565b935061206d818560208601612452565b61207681612485565b840191505092915050565b600061208e6013836123f9565b91507f496e646578206f7574206f662072616e67652e000000000000000000000000006000830152602082019050919050565b60006120ce601b836123f9565b91507f4f6e6c7920696e766573746f722063616e2063616c6c207468697300000000006000830152602082019050919050565b600061210e6019836123f9565b91507f4f6e6c79207261697365722063616e2063616c6c2074686973000000000000006000830152602082019050919050565b61214a81612448565b82525050565b6000602082019050612165600083018461202a565b92915050565b60006020820190506121806000830184612039565b92915050565b60006101608201905081810360008301526121a1818e612048565b90506121b0602083018d61202a565b6121bd604083018c612141565b81810360608301526121cf818b612048565b90506121de608083018a612141565b6121eb60a0830189612141565b6121f860c0830188612141565b61220560e0830187612141565b612213610100830186612039565b612221610120830185612039565b61222f610140830184612141565b9c9b505050505050505050505050565b600060e0820190508181036000830152612259818a612048565b9050818103602083015261226d8189612048565b905061227c6040830188612141565b6122896060830187612141565b6122966080830186612141565b81810360a08301526122a88185612048565b905081810360c08301526122bc8184612048565b905098975050505050505050565b60006101208201905081810360008301526122e5818c612048565b905081810360208301526122f9818b612048565b9050612308604083018a612141565b6123156060830189612141565b6123226080830188612141565b61232f60a0830187612141565b81810360c08301526123418186612048565b905081810360e08301526123558185612048565b905061236561010083018461202a565b9a9950505050505050505050565b6000602082019050818103600083015261238c81612081565b9050919050565b600060208201905081810360008301526123ac816120c1565b9050919050565b600060208201905081810360008301526123cc81612101565b9050919050565b60006020820190506123e86000830184612141565b92915050565b600081519050919050565b600082825260208201905092915050565b600061241582612428565b9050919050565b60008115159050919050565b600073ffffffffffffffffffffffffffffffffffffffff82169050919050565b6000819050919050565b60005b83811015612470578082015181840152602081019050612455565b8381111561247f576000848401525b50505050565b6000601f19601f8301169050919050565b61249f8161241c565b81146124aa57600080fd5b50565b6124b681612448565b81146124c157600080fd5b5056fea2646970667358221220be087d0151ab073de40a8adc94ac17dd8e482cfba7bd261cdaaf4352fb4cddef64736f6c63430007060033",
  "immutableReferences": {},
  "source": "// SPDX-License-Identifier: GPL3.0\r\npragma solidity ^0.7.0;\r\npragma experimental ABIEncoderV2;\r\ncontract Invest {\r\n    \r\n     struct Investor{\r\n        address payable addr;\r\n        uint256 weight;\r\n\r\n    }\r\n    struct Investment{\r\n        string name;\r\n        address payable raiser;\r\n        mapping(uint=>Investor)investor;\r\n        uint investorsize;\r\n        //Investor[]  investor ;\r\n        string description;\r\n        uint256 target_amount ;\r\n        uint due;\r\n        uint256 current_amount;\r\n        uint256 total_amount;\r\n        bool isClosed;\r\n        bool isPassed;\r\n        mapping(uint=>Proposal) proposals;\r\n        uint proposal_size;\r\n    }\r\n\r\n    struct Investorvote{\r\n        address payable addr;\r\n        bool opinion;\r\n    }\r\n    \r\n\r\n    struct Proposal{\r\n        string title;\r\n        string description;\r\n        uint256 amount;\r\n        uint256 votes;\r\n        uint256 voted;\r\n        mapping(uint=>Investorvote) voted_investor;\r\n        uint voted_count;\r\n        bool isClosed;\r\n    }\r\n\r\n   function  getdate() internal view returns(uint){\r\n       uint time=block.timestamp;\r\n        return(time);\r\n   }\r\n\r\n   \r\n    mapping(uint=>Investment) public investments;\r\n    uint public investments_count;\r\n    //Investment[] public investments;\r\n\r\n    address payable public manager;\r\n    address payable[] public players;\r\n    uint256 public round;\r\n    address payable public winner;\r\n\r\n    constructor()  {\r\n        manager = msg.sender;\r\n        investments_count=0;\r\n    }\r\n\r\n    function update_state() public{\r\n        for(uint i=0;i<investments_count;i++){\r\n            Investment storage fund=get_fund(i);\r\n            if(!fund.isClosed&&!fund.isPassed&&(fund.current_amount<fund.target_amount)&&fund.due<block.timestamp){\r\n                fund.isClosed=true;\r\n                fund.isPassed=false;\r\n                refund(i);/*call refund*/\r\n                \r\n            }\r\n        }\r\n    }\r\n\r\n    function refund(uint fund_index) internal{\r\n        Investment storage fund=get_fund(fund_index);\r\n        require(fund.isClosed&&(!fund.isPassed));\r\n        for(uint i=0;i<fund.investorsize;i++){\r\n            fund.investor[i].addr.transfer(fund.investor[i].weight);\r\n            fund.current_amount-=fund.investor[i].weight;\r\n        } \r\n    }\r\n\r\n    event new_f(string  name,uint num);\r\n    event here(uint num);\r\n    function new_fund(string calldata name, string calldata description,uint due, uint256 target_amount) public {\r\n            Investment storage fund=investments[investments_count];\r\n            fund.name=name;\r\n            \r\n            fund.raiser=msg.sender;\r\n            fund.description=description;\r\n            fund.due=due;\r\n            fund.target_amount=target_amount;\r\n            fund.isClosed=false;\r\n            fund.isPassed=false;\r\n            fund.current_amount=0;\r\n            fund.total_amount=0;\r\n            fund.investorsize=0;\r\n            fund.proposal_size=0;    \r\n            investments_count++;\r\n\r\n    }\r\n\r\n    function new_proposal(string calldata name,string calldata description,uint256 amount,uint fund_index)public onlyRaiser(fund_index){\r\n            Investment storage fund=get_fund(fund_index);\r\n            \r\n            fund.proposals[fund.proposal_size].title=name;\r\n            fund.proposals[fund.proposal_size].description=description;\r\n            fund.proposals[fund.proposal_size].amount=amount;\r\n            fund.proposals[fund.proposal_size].voted=0;\r\n            fund.proposals[fund.proposal_size].votes=0;\r\n            fund.proposals[fund.proposal_size].isClosed=false;\r\n            fund.proposals[fund.proposal_size].voted_count=0;\r\n            fund.proposal_size++;\r\n            //push(Proposal({title:name,description:description,amount:amount,voted:0,votes:0,isClosed:false}));\r\n    }\r\n\r\n    function invest(uint fund_index) public payable fund_available(fund_index){\r\n        Investment storage fund=get_fund(fund_index);\r\n        fund.current_amount+=msg.value;\r\n        fund.total_amount+=msg.value;\r\n        if(!isInvestor(fund_index)){\r\n            fund.investor[fund.investorsize].addr=msg.sender;\r\n            fund.investor[fund.investorsize].weight=msg.value;\r\n            fund.investorsize++;\r\n            //push(Investor({addr:msg.sender,weight:msg.value}));\r\n        }else{\r\n            get_investor(fund_index).weight+=msg.value;\r\n        }\r\n    }\r\n\r\n    function get_fund_number()public view returns(uint){\r\n        return investments_count;\r\n    }\r\n\r\n    function get_fund_info(uint fund_index)public view returns(string memory,string memory,uint256,uint,uint256,uint256,string memory,string memory,address payable){\r\n        string memory status;\r\n        string memory role;\r\n        Investment storage fund=get_fund(fund_index);\r\n        if(fund.isClosed&&(!fund.isPassed)){\r\n            status=\"Failed\";\r\n        }else if(fund.isClosed&&fund.isPassed&&fund.current_amount>0){\r\n            status=\"Succeeded\";\r\n        }else if(fund.isClosed&&fund.isPassed&&fund.current_amount==0){\r\n            status=\"Completed\";\r\n        }else {\r\n            status=\"Ongoing\";\r\n        }\r\n        if(isInvestor(fund_index)){\r\n            role=\"Investor\";\r\n        }else if(msg.sender==fund.raiser){\r\n            role=\"Raiser\";\r\n        }else{\r\n            role=\"Normal\";\r\n        }\r\n        return(fund.name,fund.description,fund.target_amount,fund.due,fund.total_amount,fund.current_amount,status,role,fund.raiser);\r\n    }\r\n\r\n    function get_proposal_number(uint fund_index) public view returns(uint) {\r\n        return investments[fund_index].proposal_size;\r\n    }\r\n\r\n    function get_proposal_info(uint fund_index,uint proposal_index) public view returns(string memory,string memory,uint256,uint256,uint256,string memory,string memory) {\r\n        Proposal storage prop=get_proposal(fund_index, proposal_index);\r\n        string memory status;\r\n        string memory opinion;\r\n        if(!isInvestor(fund_index)){\r\n            opinion=\"--\";\r\n        }else if(is_voted(fund_index, proposal_index)){\r\n            opinion=\"Voted\";\r\n        }else{\r\n            opinion=\"Not voted\";\r\n        }\r\n        if(is_proposal_pass(fund_index,proposal_index)){\r\n            status=\"Passed\";\r\n        }else if(is_proposal_failed(fund_index,proposal_index)){\r\n            status=\"Failed\";\r\n        }else{\r\n            status=\"Ongoing\";\r\n        }\r\n        return(prop.title,prop.description,prop.amount,prop.voted,prop.votes,status,opinion);\r\n    }\r\n\r\n    function get_investor_number(uint fund_index) public view returns(uint){\r\n        return investments[fund_index].investorsize;\r\n    }\r\n\r\n    function get_weight(uint fund_index) public view onlyInvestor(fund_index) returns(uint256){\r\n            Investor storage inv=get_investor(fund_index);\r\n            return inv.weight;\r\n    }\r\n\r\n    function isInvestor(uint fund_index) internal view returns (bool){\r\n        for (uint index = 0; index < investments[fund_index].investorsize; index++) {\r\n            if(msg.sender==investments[fund_index].investor[index].addr) {\r\n                return true;   \r\n            }\r\n        }\r\n        return false;\r\n    }\r\n\r\n    modifier fund_available(uint fund_index){\r\n        require(block.timestamp<=investments[fund_index].due);\r\n        _;\r\n    }\r\n\r\n    modifier onlyInvestor(uint fund_index) {\r\n        require(\r\n            isInvestor(fund_index),\"Only investor can call this\"\r\n        );\r\n    _;\r\n    }\r\n\r\n    modifier onlyRaiser(uint fund_index){\r\n        require(investments[fund_index].raiser==msg.sender,\"Only raiser can call this\");\r\n        _;\r\n    }\r\n\r\n    function get_investor(uint fund_index) internal view onlyInvestor(fund_index) returns(Investor storage){\r\n        for (uint index = 0; index < investments[fund_index].investorsize; index++) {\r\n            if(msg.sender==investments[fund_index].investor[index].addr) {\r\n                return investments[fund_index].investor[index];   \r\n            }\r\n        }\r\n        revert();\r\n    }\r\n\r\n    modifier inrange_fund(uint fund_index){\r\n        require(fund_index>=0&&fund_index<investments_count,\"Index out of range.\");\r\n        _;\r\n    }\r\n\r\n    modifier inrange_proposal(uint fund_index,uint proposal_index){\r\n        require(proposal_index>=0&&proposal_index<investments[fund_index].proposal_size,\"Index out of range.\");\r\n        _;\r\n    }\r\n\r\n    function get_fund(uint fund_index) internal view inrange_fund(fund_index) returns(Investment storage){\r\n        return investments[fund_index];\r\n    }\r\n\r\n    function get_proposal(uint fund_index,uint proposal_index) internal view inrange_fund(fund_index) inrange_proposal(fund_index,proposal_index) returns(Proposal storage){\r\n        return investments[fund_index].proposals[proposal_index];\r\n    }\r\n\r\n\r\n    function vote_for_proposal(uint fund_index,uint proposal_index,bool vote) public onlyInvestor(fund_index) {\r\n            Investor storage investor=get_investor(fund_index);\r\n            Proposal storage prop=get_proposal(fund_index, proposal_index);\r\n            if(is_voted(fund_index, proposal_index))\r\n                return;\r\n            prop.voted_investor[prop.voted_count].addr=msg.sender;\r\n            prop.voted_investor[prop.voted_count].opinion=vote;\r\n            prop.voted_count++;\r\n            //prop.investor_opinion.push(vote);\r\n            prop.voted+=investor.weight;\r\n            if(vote){\r\n                prop.votes+=investor.weight;\r\n            }\r\n            \r\n    }\r\n\r\n    function proposal_pass(uint fund_index,uint proposal_index) public onlyRaiser(fund_index)  {\r\n        Investment storage fund=get_fund(fund_index);\r\n        Proposal storage prop=get_proposal(fund_index, proposal_index);\r\n        if(prop.isClosed||(!is_proposal_pass(fund_index,proposal_index)))\r\n            return;\r\n        \r\n        fund.raiser.transfer(prop.amount);\r\n        fund.current_amount-=prop.amount;\r\n        prop.isClosed=true;\r\n\r\n    }\r\n\r\n    function is_proposal_failed(uint fund_index,uint proposal_index) internal view returns(bool){\r\n        Proposal storage prop=get_proposal(fund_index, proposal_index);\r\n        Investment storage fund=get_fund(fund_index);\r\n        if(prop.voted-prop.votes>=fund.total_amount/2){//\r\n            \r\n            return true;\r\n        }else{\r\n            return false;\r\n        }\r\n    }\r\n\r\n    function is_proposal_pass(uint fund_index,uint proposal_index) internal view returns(bool) {\r\n        Proposal storage prop=get_proposal(fund_index, proposal_index);\r\n        Investment storage fund=get_fund(fund_index);\r\n        if(prop.votes>fund.total_amount/2){\r\n            return true;\r\n        }else{\r\n            return false;\r\n        }\r\n\r\n    }\r\n\r\n    function is_voted(uint fund_index,uint proposal_index) public view onlyInvestor(fund_index) returns(bool){\r\n        for(uint i=0;i<investments[fund_index].proposals[proposal_index].voted_count;i++){\r\n                if(msg.sender==investments[fund_index].proposals[proposal_index].voted_investor[i].addr){//see if the investor has already voted\r\n                    return true;\r\n                }\r\n            }\r\n            return false;\r\n    }\r\n    modifier onlyManager{\r\n        require(msg.sender == manager);\r\n        _;\r\n    }\r\n    function getBalance() public view returns (uint256){\r\n        return address(this).balance;\r\n    }\r\n\r\n}",
  "sourcePath": "D:/Bprogram/InvestGroup/groupinvest/contracts/Invest.sol",
  "compiler": {
    "name": "solc",
    "version": "0.7.6+commit.7338295f.Emscripten.clang"
  },
  "schemaVersion": "3.3.3",
  "updatedAt": "2021-01-17T02:47:57.185Z",
  "devdoc": {
    "kind": "dev",
    "methods": {},
    "version": 1
  },
  "userdoc": {
    "kind": "user",
    "methods": {},
    "version": 1
  }
}