{
  "contractName": "FundingFactory",
  "abi": [
    {
      "inputs": [],
      "payable": false,
      "stateMutability": "nonpayable",
      "type": "constructor"
    },
    {
      "constant": false,
      "inputs": [
        {
          "name": "_name",
          "type": "string"
        },
        {
          "name": "_money",
          "type": "uint256"
        },
        {
          "name": "_txt",
          "type": "string"
        },
        {
          "name": "_endtime",
          "type": "uint256"
        }
      ],
      "name": "createFunding",
      "outputs": [],
      "payable": false,
      "stateMutability": "nonpayable",
      "type": "function"
    },
    {
      "constant": true,
      "inputs": [],
      "name": "getAllFundings",
      "outputs": [
        {
          "name": "",
          "type": "address[]"
        }
      ],
      "payable": false,
      "stateMutability": "view",
      "type": "function"
    },
    {
      "constant": true,
      "inputs": [],
      "name": "getCreatorFunding",
      "outputs": [
        {
          "name": "",
          "type": "address[]"
        }
      ],
      "payable": false,
      "stateMutability": "view",
      "type": "function"
    },
    {
      "constant": true,
      "inputs": [],
      "name": "getSupportorFunding",
      "outputs": [
        {
          "name": "",
          "type": "address[]"
        }
      ],
      "payable": false,
      "stateMutability": "view",
      "type": "function"
    }
  ],
  "bytecode": "0x608060405234801561001057600080fd5b50336000806101000a81548173ffffffffffffffffffffffffffffffffffffffff021916908373ffffffffffffffffffffffffffffffffffffffff1602179055506100596100bb565b604051809103906000f080158015610075573d6000803e3d6000fd5b50600360006101000a81548173ffffffffffffffffffffffffffffffffffffffff021916908373ffffffffffffffffffffffffffffffffffffffff1602179055506100cb565b6040516104c380611aea83390190565b611a10806100da6000396000f300608060405260043610610062576000357c0100000000000000000000000000000000000000000000000000000000900463ffffffff16806372a3143c14610067578063a0c47091146100d3578063a498a5a914610196578063f2f1037414610202575b600080fd5b34801561007357600080fd5b5061007c61026e565b6040518080602001828103825283818151815260200191508051906020019060200280838360005b838110156100bf5780820151818401526020810190506100a4565b505050509050019250505060405180910390f35b3480156100df57600080fd5b50610194600480360381019080803590602001908201803590602001908080601f016020809104026020016040519081016040528093929190818152602001838380828437820191505050505050919291929080359060200190929190803590602001908201803590602001908080601f0160208091040260200160405190810160405280939291908181526020018383808284378201915050505050509192919290803590602001909291905050506102fc565b005b3480156101a257600080fd5b506101ab61062b565b6040518080602001828103825283818151815260200191508051906020019060200280838360005b838110156101ee5780820151818401526020810190506101d3565b505050509050019250505060405180910390f35b34801561020e57600080fd5b506102176106f6565b6040518080602001828103825283818151815260200191508051906020019060200280838360005b8381101561025a57808201518184015260208101905061023f565b505050509050019250505060405180910390f35b606060018054806020026020016040519081016040528092919081815260200182805480156102f257602002820191906000526020600020905b8160009054906101000a900473ffffffffffffffffffffffffffffffffffffffff1673ffffffffffffffffffffffffffffffffffffffff16815260200190600101908083116102a8575b5050505050905090565b60008483858461030a61084b565b808060200180602001858152602001848152602001838103835287818151815260200191508051906020019080838360005b8381101561035757808201518184015260208101905061033c565b50505050905090810190601f1680156103845780820380516001836020036101000a031916815260200191505b50838103825286818151815260200191508051906020019080838360005b838110156103bd5780820151818401526020810190506103a2565b50505050905090810190601f1680156103ea5780820380516001836020036101000a031916815260200191505b509650505050505050604051809103906000f08015801561040f573d6000803e3d6000fd5b5090508073ffffffffffffffffffffffffffffffffffffffff16632c2bd4df33600360009054906101000a900473ffffffffffffffffffffffffffffffffffffffff166040518363ffffffff167c0100000000000000000000000000000000000000000000000000000000028152600401808373ffffffffffffffffffffffffffffffffffffffff1673ffffffffffffffffffffffffffffffffffffffff1681526020018273ffffffffffffffffffffffffffffffffffffffff1673ffffffffffffffffffffffffffffffffffffffff16815260200192505050600060405180830381600087803b15801561050357600080fd5b505af1158015610517573d6000803e3d6000fd5b5050505060018190806001815401808255809150509060018203906000526020600020016000909192909190916101000a81548173ffffffffffffffffffffffffffffffffffffffff021916908373ffffffffffffffffffffffffffffffffffffffff16021790555050600260003373ffffffffffffffffffffffffffffffffffffffff1673ffffffffffffffffffffffffffffffffffffffff1681526020019081526020016000208190806001815401808255809150509060018203906000526020600020016000909192909190916101000a81548173ffffffffffffffffffffffffffffffffffffffff021916908373ffffffffffffffffffffffffffffffffffffffff160217905550505050505050565b6060600260003373ffffffffffffffffffffffffffffffffffffffff1673ffffffffffffffffffffffffffffffffffffffff1681526020019081526020016000208054806020026020016040519081016040528092919081815260200182805480156106ec57602002820191906000526020600020905b8160009054906101000a900473ffffffffffffffffffffffffffffffffffffffff1673ffffffffffffffffffffffffffffffffffffffff16815260200190600101908083116106a2575b5050505050905090565b6060600360009054906101000a900473ffffffffffffffffffffffffffffffffffffffff1673ffffffffffffffffffffffffffffffffffffffff16634ca765a7336040518263ffffffff167c0100000000000000000000000000000000000000000000000000000000028152600401808273ffffffffffffffffffffffffffffffffffffffff1673ffffffffffffffffffffffffffffffffffffffff168152602001915050600060405180830381600087803b1580156107b557600080fd5b505af11580156107c9573d6000803e3d6000fd5b505050506040513d6000823e3d601f19601f8201168201806040525060208110156107f357600080fd5b81019080805164010000000081111561080b57600080fd5b8281019050602081018481111561082157600080fd5b815185602082028301116401000000008211171561083e57600080fd5b5050929190505050905090565b6040516111898061085c83390190560060806040523480156200001157600080fd5b5060405162001189380380620011898339810180604052810190808051820192919060200180518201929190602001805190602001909291908051906020019092919050505083600290805190602001906200006f929190620000d6565b50826001908051906020019062000088929190620000d6565b50670de0b6b3a7640000820260038190555060006005819055506000600660006101000a81548160ff0219169083151502179055506000600781905550806004819055505050505062000185565b828054600181600116156101000203166002900490600052602060002090601f016020900481019282601f106200011957805160ff19168380011785556200014a565b828001600101855582156200014a579182015b82811115620001495782518255916020019190600101906200012c565b5b5090506200015991906200015d565b5090565b6200018291905b808211156200017e57600081600090555060010162000164565b5090565b90565b610ff480620001956000396000f3006080604052600436106100a4576000357c0100000000000000000000000000000000000000000000000000000000900463ffffffff1680632c2bd4df146100a95780633fad18341461010c5780634b084d491461013757806363d4dd3b146101665780637c610a7a146101935780638a9cfd55146101be578063b2f5a54c14610251578063c58343ef146102bd578063d7d1bbdb146103c0578063e8b5e51f146103ed575b600080fd5b3480156100b557600080fd5b5061010a600480360381019080803573ffffffffffffffffffffffffffffffffffffffff169060200190929190803573ffffffffffffffffffffffffffffffffffffffff16906020019092919050505061040b565b005b34801561011857600080fd5b50610121610490565b6040518082815260200191505060405180910390f35b34801561014357600080fd5b5061014c61049d565b604051808215151515815260200191505060405180910390f35b34801561017257600080fd5b50610191600480360381019080803590602001909291905050506104ea565b005b34801561019f57600080fd5b506101a861063d565b6040518082815260200191505060405180910390f35b3480156101ca57600080fd5b5061024f600480360381019080803590602001908201803590602001908080601f016020809104026020016040519081016040528093929190818152602001838380828437820191505050505050919291929080359060200190929190803573ffffffffffffffffffffffffffffffffffffffff169060200190929190505050610649565b005b34801561025d57600080fd5b506102666107f0565b6040518080602001828103825283818151815260200191508051906020019060200280838360005b838110156102a957808201518184015260208101905061028e565b505050509050019250505060405180910390f35b3480156102c957600080fd5b506102e8600480360381019080803590602001909291905050506108ce565b60405180878152602001806020018681526020018573ffffffffffffffffffffffffffffffffffffffff1673ffffffffffffffffffffffffffffffffffffffff16815260200184815260200183600281111561034057fe5b60ff168152602001828103825287818151815260200191508051906020019080838360005b83811015610380578082015181840152602081019050610365565b50505050905090810190601f1680156103ad5780820380516001836020036101000a031916815260200191505b5097505050505050505060405180910390f35b3480156103cc57600080fd5b506103eb60048036038101908080359060200190929190505050610a85565b005b6103f5610bc5565b6040518082815260200191505060405180910390f35b816000806101000a81548173ffffffffffffffffffffffffffffffffffffffff021916908373ffffffffffffffffffffffffffffffffffffffff16021790555080600960006101000a81548173ffffffffffffffffffffffffffffffffffffffff021916908373ffffffffffffffffffffffffffffffffffffffff1602179055505050565b6000600a80549050905090565b6000426004541015806104b4575060035460055410155b156104d5576000600660006101000a81548160ff0219169083151502179055505b600660009054906101000a900460ff16905090565b60008060009054906101000a900473ffffffffffffffffffffffffffffffffffffffff1673ffffffffffffffffffffffffffffffffffffffff163373ffffffffffffffffffffffffffffffffffffffff1614151561054757600080fd5b600a8281548110151561055657fe5b9060005260206000209060070201905080600201543073ffffffffffffffffffffffffffffffffffffffff16311015151561059057600080fd5b60328160040154101515156105a457600080fd5b8060030160009054906101000a900473ffffffffffffffffffffffffffffffffffffffff1673ffffffffffffffffffffffffffffffffffffffff166108fc82600201549081150290604051600060405180830381858888f19350505050158015610612573d6000803e3d6000fd5b5060028160050160006101000a81548160ff0219169083600281111561063457fe5b02179055505050565b60004260045403905090565b610651610ecb565b6000809054906101000a900473ffffffffffffffffffffffffffffffffffffffff1673ffffffffffffffffffffffffffffffffffffffff163373ffffffffffffffffffffffffffffffffffffffff161415156106ac57600080fd5b60c060405190810160405280600a805490508152602001858152602001670de0b6b3a7640000850281526020018373ffffffffffffffffffffffffffffffffffffffff168152602001600081526020016000600281111561070957fe5b8152509050600a8190806001815401808255809150509060018203906000526020600020906007020160009091929091909150600082015181600001556020820151816001019080519060200190610762929190610f23565b506040820151816002015560608201518160030160006101000a81548173ffffffffffffffffffffffffffffffffffffffff021916908373ffffffffffffffffffffffffffffffffffffffff1602179055506080820151816004015560a08201518160050160006101000a81548160ff021916908360028111156107e257fe5b021790555050505050505050565b60608060006007546040519080825280602002602001820160405280156108265781602001602082028038833980820191505090505b509150600090505b6007548110156108c6576008600082815260200190815260200160002060000160009054906101000a900473ffffffffffffffffffffffffffffffffffffffff16828281518110151561087d57fe5b9060200190602002019073ffffffffffffffffffffffffffffffffffffffff16908173ffffffffffffffffffffffffffffffffffffffff1681525050808060010191505061082e565b819250505090565b600060606000806000806108e0610ecb565b600a888154811015156108ef57fe5b906000526020600020906007020160c0604051908101604052908160008201548152602001600182018054600181600116156101000203166002900480601f0160208091040260200160405190810160405280929190818152602001828054600181600116156101000203166002900480156109ac5780601f10610981576101008083540402835291602001916109ac565b820191906000526020600020905b81548152906001019060200180831161098f57829003601f168201915b50505050508152602001600282015481526020016003820160009054906101000a900473ffffffffffffffffffffffffffffffffffffffff1673ffffffffffffffffffffffffffffffffffffffff1673ffffffffffffffffffffffffffffffffffffffff168152602001600482015481526020016005820160009054906101000a900460ff166002811115610a3d57fe5b6002811115610a4857fe5b815250509050806000015181602001518260400151836060015184608001518560a001518494509650965096509650965096505091939550919395565b600080600a83815481101515610a9757fe5b90600052602060002090600702019150600090505b600754811015610bc0573373ffffffffffffffffffffffffffffffffffffffff166008600083815260200190815260200160002060000160009054906101000a900473ffffffffffffffffffffffffffffffffffffffff1673ffffffffffffffffffffffffffffffffffffffff161415610bb3576003546064600860008481526020019081526020016000206001015402811515610b4657fe5b04826004016000828254019250508190555060018260060160003373ffffffffffffffffffffffffffffffffffffffff1673ffffffffffffffffffffffffffffffffffffffff16815260200190815260200160002060006101000a81548160ff0219169083151502179055505b8080600101915050610aac565b505050565b6000806000600660009054906101000a900460ff16151515610be657600080fd5b600454421015610eaa573460056000828254019250508190555060009150600090505b600754811015610cb3573373ffffffffffffffffffffffffffffffffffffffff166008600083815260200190815260200160002060000160009054906101000a900473ffffffffffffffffffffffffffffffffffffffff1673ffffffffffffffffffffffffffffffffffffffff161415610ca657346008600083815260200190815260200160002060010160008282540192505081905550600191505b8080600101915050610c09565b600015158215151415610e6c5760408051908101604052803373ffffffffffffffffffffffffffffffffffffffff16815260200134815250600860006007600081548092919060010191905055815260200190815260200160002060008201518160000160006101000a81548173ffffffffffffffffffffffffffffffffffffffff021916908373ffffffffffffffffffffffffffffffffffffffff16021790555060208201518160010155905050600960009054906101000a900473ffffffffffffffffffffffffffffffffffffffff1673ffffffffffffffffffffffffffffffffffffffff16630b59d31933306040518363ffffffff167c0100000000000000000000000000000000000000000000000000000000028152600401808373ffffffffffffffffffffffffffffffffffffffff1673ffffffffffffffffffffffffffffffffffffffff1681526020018273ffffffffffffffffffffffffffffffffffffffff1673ffffffffffffffffffffffffffffffffffffffff16815260200192505050600060405180830381600087803b158015610e5357600080fd5b505af1158015610e67573d6000803e3d6000fd5b505050505b670de0b6b3a7640000600354026005541015610e89576000610e8c565b60015b600660006101000a81548160ff021916908315150217905550610ec6565b6001600660006101000a81548160ff0219169083151502179055505b505090565b60c060405190810160405280600081526020016060815260200160008152602001600073ffffffffffffffffffffffffffffffffffffffff1681526020016000815260200160006002811115610f1d57fe5b81525090565b828054600181600116156101000203166002900490600052602060002090601f016020900481019282601f10610f6457805160ff1916838001178555610f92565b82800160010185558215610f92579182015b82811115610f91578251825591602001919060010190610f76565b5b509050610f9f9190610fa3565b5090565b610fc591905b80821115610fc1576000816000905550600101610fa9565b5090565b905600a165627a7a7230582008d63f43e94c0c406da49ab46c9f15461afc1a7516c2358e9392e0e99a987c8f0029a165627a7a72305820b6068dc5f3a1dc9376e3596210146a68672c90348f7f23b98eb8db2f590a15a50029608060405234801561001057600080fd5b506104a3806100206000396000f300608060405260043610610057576000357c0100000000000000000000000000000000000000000000000000000000900463ffffffff1680630b59d3191461005c5780634ca765a7146100bf578063806e48a314610157575b600080fd5b34801561006857600080fd5b506100bd600480360381019080803573ffffffffffffffffffffffffffffffffffffffff169060200190929190803573ffffffffffffffffffffffffffffffffffffffff1690602001909291905050506101d2565b005b3480156100cb57600080fd5b50610100600480360381019080803573ffffffffffffffffffffffffffffffffffffffff16906020019092919050505061028f565b6040518080602001828103825283818151815260200191508051906020019060200280838360005b83811015610143578082015181840152602081019050610128565b505050509050019250505060405180910390f35b34801561016357600080fd5b506101b8600480360381019080803573ffffffffffffffffffffffffffffffffffffffff169060200190929190803573ffffffffffffffffffffffffffffffffffffffff16906020019092919050505061035b565b604051808215151515815260200191505060405180910390f35b600015156101e0838361035b565b1515141561028b576000808373ffffffffffffffffffffffffffffffffffffffff1673ffffffffffffffffffffffffffffffffffffffff1681526020019081526020016000208190806001815401808255809150509060018203906000526020600020016000909192909190916101000a81548173ffffffffffffffffffffffffffffffffffffffff021916908373ffffffffffffffffffffffffffffffffffffffff160217905550505b5050565b60606000808373ffffffffffffffffffffffffffffffffffffffff1673ffffffffffffffffffffffffffffffffffffffff16815260200190815260200160002080548060200260200160405190810160405280929190818152602001828054801561034f57602002820191906000526020600020905b8160009054906101000a900473ffffffffffffffffffffffffffffffffffffffff1673ffffffffffffffffffffffffffffffffffffffff1681526020019060010190808311610305575b50505050509050919050565b600080600090505b6000808573ffffffffffffffffffffffffffffffffffffffff1673ffffffffffffffffffffffffffffffffffffffff1681526020019081526020016000208054905081101561046b578273ffffffffffffffffffffffffffffffffffffffff166000808673ffffffffffffffffffffffffffffffffffffffff1673ffffffffffffffffffffffffffffffffffffffff1681526020019081526020016000208281548110151561040e57fe5b9060005260206000200160009054906101000a900473ffffffffffffffffffffffffffffffffffffffff1673ffffffffffffffffffffffffffffffffffffffff16141561045e5760019150610470565b8080600101915050610363565b600091505b50929150505600a165627a7a72305820c9a2233c9881b2cc94cfb6c3061d1a1c3925e1e90892163faa089a3a94a1028b0029",
  "source": "pragma solidity ^0.4.24;\r\ncontract Funding {\r\n    address admin;// funding owner\r\n    string txt;// funding description\r\n    string project; // project name\r\n    uint money; // money need to raise\r\n    uint endtime; // funding end time\r\n    uint raise; // money now raised\r\n    bool finished;// if funding finished\r\n    uint number; // inverstor numbers\r\n    mapping(uint => Record) records;// each inverstors\r\n    \r\n    struct Record {// investor imformation\r\n        address investor; // inverstor address\r\n        uint coin; // investor money\r\n    }\r\n    SupportFunding supportFunding;//used for record investors and fund address pairs\r\n    \r\n    constructor(string _project, string _txt, uint _money, uint _endtime) public {\r\n        project = _project;\r\n        txt = _txt;\r\n        money = _money * 10**18;//transform to wei\r\n        raise = 0;\r\n        finished = false;\r\n        number=0;\r\n        endtime = _endtime;\r\n    }\r\n    function createFund (address creator,SupportFunding _supportFunding) public{// add information\r\n        admin = creator;\r\n        supportFunding = _supportFunding;\r\n    }\r\n    modifier onlyManager { // add restriction\r\n        require(msg.sender == admin);\r\n        _;\r\n    }\r\n\r\n    function getInvestors() public view returns(address[]) {//get all investor\r\n        address[] memory investors = new address[](number);\r\n        uint i;\r\n        for(i=0;i<number;i++){\r\n            investors[i] = records[i].investor;\r\n        }\r\n        return investors;\r\n    }\r\n\r\n    function checkEnd() public returns(bool){//check end condition\r\n        if(endtime >= now || raise >= money){//time and money condition\r\n            finished=false;\r\n        }\r\n        return finished;\r\n    }\r\n\r\n    function getLeftTime() public view returns(uint) {//check left time\r\n        return endtime - now;\r\n    }\r\n\r\n    function invest() public payable returns(uint) {\r\n        require(!finished);\r\n        if(now<endtime){// the funding has not reach endtime\r\n            raise += msg.value;\r\n            bool flag = false;\r\n            for(uint i = 0;i<number; i++){\r\n                if(records[i].investor==msg.sender){//check if the investor already has invested\r\n                    records[i].coin+=msg.value;//if already has records, then change the invest money\r\n                    flag=true;\r\n                }\r\n            }\r\n            if(flag==false){//if has not invested, add new records\r\n                records[number++] = Record(msg.sender, msg.value);  \r\n                supportFunding.setFunding(msg.sender, this);\r\n            }\r\n            finished = raise >= money * 1 ether ? true : false; //check if funding finished\r\n        }\r\n        else{\r\n            finished = true;\r\n        }\r\n    }\r\n  \r\n    enum RequestStates {//requerst states\r\n        Voting, Approved, Completed\r\n    }\r\n\r\n    struct Request {\r\n        uint rid;//index of request\r\n        string purpose;// request purpose\r\n        uint cost;// request asked money\r\n        address seller; // transfrom money to this address\r\n        uint approveCount;// use 100 count to represent all and calculate each investors'count\r\n        RequestStates states; // now states\r\n        mapping(address=>bool) isVotedMap; // check if the investor has already voted\r\n    }\r\n\r\n    Request[] requests;//all requests for fundings\r\n    \r\n    function createRequest(string _purpose, uint _cost, address _seller) onlyManager public {\r\n        Request memory req = Request({\r\n            rid : requests.length,\r\n            purpose : _purpose,\r\n            cost : _cost * 10**18,//transform to wei\r\n            seller : _seller,\r\n            approveCount : 0,\r\n            states : RequestStates.Voting\r\n        });\r\n        requests.push(req);\r\n    }\r\n    \r\n\r\n    function approveRequest(uint i) public {\r\n        Request storage req = requests[i];\r\n        for(uint j=0;j<number;j++){\r\n            if(records[j].investor==msg.sender){//check if this person already invest\r\n                // transform to 100 count as invest money shares\r\n                req.approveCount+=(uint)(records[j].coin*100/money);\r\n                req.isVotedMap[msg.sender] = true;\r\n            }\r\n        }\r\n    }\r\n \r\n    function payRequest(uint256 i) onlyManager public {\r\n        Request storage req = requests[i];\r\n        require(address(this).balance >= req.cost);//if money is enough\r\n        require(req.approveCount >= 50);//if more than 50% investor agrees\r\n        req.seller.transfer(req.cost);//pay the bill\r\n        req.states = RequestStates.Completed;//change state\r\n    }\r\n        \r\n    function getRequestCount() public view returns(uint) {\r\n        return requests.length;\r\n    }\r\n        \r\n    function getRequest(uint256 i) public view returns(uint,string, uint, address, uint, RequestStates) {\r\n        Request memory req = requests[i];\r\n        return (req.rid, req.purpose, req.cost, req.seller, req.approveCount, req.states);\r\n    }\r\n}\r\ncontract SupportFunding {//all fundings supported by one address\r\n    mapping(address=>address[]) supportMap;\r\n    function setFunding(address _supportor, address _funding) public {//add a pair in maps\r\n        if(checkFundings(_supportor, _funding)==false){//one fund will not be added twice\r\n            supportMap[_supportor].push(_funding);\r\n        }\r\n    }\r\n    function getFundings(address _supportor) public view returns(address[]) {//get all funds supported by address\r\n        return supportMap[_supportor];\r\n    }\r\n    function checkFundings(address _supportor, address _funding) public view returns (bool){//check if the address already support the fund\r\n        for(uint i = 0 ;i<supportMap[_supportor].length;i++){\r\n            if(supportMap[_supportor][i]==_funding){\r\n                return true;//address already support this fund\r\n            }\r\n        }\r\n        return false;\r\n    }\r\n}\r\ncontract FundingFactory {\r\n    address manager;\r\n    address[] Funds;//records all funds\r\n    mapping(address=>address[]) creatorFundings;//all fundings created by one address\r\n    SupportFunding support;//all fundings supported by one address\r\n    \r\n    constructor() public {\r\n        manager = msg.sender;\r\n        support = new SupportFunding();\r\n    }\r\n    \r\n    function createFunding(string _name, uint _money, string _txt, uint _endtime) public {\r\n        Funding funding = new Funding(_name, _txt, _money, _endtime);\r\n        funding.createFund(msg.sender,support);//send support for fund to maintain\r\n        Funds.push(funding);\r\n        creatorFundings[msg.sender].push(funding);\r\n    }\r\n    \r\n    function getAllFundings() public view returns(address[]) {//get all funds\r\n        return Funds;\r\n    }\r\n        \r\n    function getCreatorFunding() public view returns(address[]) {//get all funds created by address\r\n        return creatorFundings[msg.sender];\r\n    }\r\n     \r\n    function getSupportorFunding() public view returns(address[]) {//get all funds supported by address\r\n        return support.getFundings(msg.sender);\r\n    }\r\n}",
  "sourcePath": "C:/Users/Dell/Desktop/myfund/contracts/Funding.sol",
  "compiler": {
    "name": "solc",
    "version": "0.4.26+commit.4563c3fc.Emscripten.clang"
  },
  "schemaVersion": "3.3.3",
  "updatedAt": "2021-01-14T10:10:02.832Z",
  "devdoc": {
    "methods": {}
  },
  "userdoc": {
    "methods": {}
  }
}