{
  "contractName": "FundManager",
  "abi": [
    {
      "constant": true,
      "inputs": [
        {
          "internalType": "uint256",
          "name": "",
          "type": "uint256"
        }
      ],
      "name": "fundList",
      "outputs": [
        {
          "internalType": "address",
          "name": "",
          "type": "address"
        }
      ],
      "payable": false,
      "stateMutability": "view",
      "type": "function"
    },
    {
      "constant": true,
      "inputs": [],
      "name": "fundNum",
      "outputs": [
        {
          "internalType": "uint256",
          "name": "",
          "type": "uint256"
        }
      ],
      "payable": false,
      "stateMutability": "view",
      "type": "function"
    },
    {
      "constant": true,
      "inputs": [],
      "name": "getFundList",
      "outputs": [
        {
          "internalType": "address[]",
          "name": "",
          "type": "address[]"
        }
      ],
      "payable": false,
      "stateMutability": "view",
      "type": "function"
    },
    {
      "constant": false,
      "inputs": [
        {
          "internalType": "address payable",
          "name": "client",
          "type": "address"
        },
        {
          "internalType": "string",
          "name": "_projectName",
          "type": "string"
        },
        {
          "internalType": "string",
          "name": "_details",
          "type": "string"
        },
        {
          "internalType": "uint256",
          "name": "_raiseTime",
          "type": "uint256"
        },
        {
          "internalType": "uint256",
          "name": "_goalAmount",
          "type": "uint256"
        }
      ],
      "name": "newFunding",
      "outputs": [
        {
          "internalType": "address",
          "name": "",
          "type": "address"
        }
      ],
      "payable": true,
      "stateMutability": "payable",
      "type": "function"
    },
    {
      "constant": false,
      "inputs": [
        {
          "internalType": "address",
          "name": "client",
          "type": "address"
        },
        {
          "internalType": "address",
          "name": "project",
          "type": "address"
        }
      ],
      "name": "addInvestedProject",
      "outputs": [],
      "payable": false,
      "stateMutability": "nonpayable",
      "type": "function"
    },
    {
      "constant": false,
      "inputs": [
        {
          "internalType": "address",
          "name": "client",
          "type": "address"
        },
        {
          "internalType": "address",
          "name": "project",
          "type": "address"
        }
      ],
      "name": "addStartedProject",
      "outputs": [],
      "payable": false,
      "stateMutability": "nonpayable",
      "type": "function"
    },
    {
      "constant": true,
      "inputs": [
        {
          "internalType": "address",
          "name": "client",
          "type": "address"
        }
      ],
      "name": "getStartedProject",
      "outputs": [
        {
          "internalType": "uint256[]",
          "name": "",
          "type": "uint256[]"
        }
      ],
      "payable": false,
      "stateMutability": "view",
      "type": "function"
    },
    {
      "constant": true,
      "inputs": [
        {
          "internalType": "address",
          "name": "client",
          "type": "address"
        }
      ],
      "name": "getInvestedProject",
      "outputs": [
        {
          "internalType": "uint256[]",
          "name": "",
          "type": "uint256[]"
        }
      ],
      "payable": false,
      "stateMutability": "view",
      "type": "function"
    }
  ],
  "bytecode": "0x60806040526000805534801561001457600080fd5b50612829806100246000396000f3fe60806040526004361061007b5760003560e01c806371a016431161004e57806371a016431461023d5780638f74935f146102a9578063cd5c527b1461046f578063e084082e146104e05761007b565b80630b262d0214610080578063400f6a22146100fb5780635968fb901461016c5780636fd0ea7114610212575b600080fd5b34801561008c57600080fd5b506100b9600480360360208110156100a357600080fd5b8101908080359060200190929190505050610586565b604051808273ffffffffffffffffffffffffffffffffffffffff1673ffffffffffffffffffffffffffffffffffffffff16815260200191505060405180910390f35b34801561010757600080fd5b5061016a6004803603604081101561011e57600080fd5b81019080803573ffffffffffffffffffffffffffffffffffffffff169060200190929190803573ffffffffffffffffffffffffffffffffffffffff1690602001909291905050506105c2565b005b34801561017857600080fd5b506101bb6004803603602081101561018f57600080fd5b81019080803573ffffffffffffffffffffffffffffffffffffffff16906020019092919050505061066e565b6040518080602001828103825283818151815260200191508051906020019060200280838360005b838110156101fe5780820151818401526020810190506101e3565b505050509050019250505060405180910390f35b34801561021e57600080fd5b50610227610705565b6040518082815260200191505060405180910390f35b34801561024957600080fd5b5061025261070b565b6040518080602001828103825283818151815260200191508051906020019060200280838360005b8381101561029557808201518184015260208101905061027a565b505050509050019250505060405180910390f35b61042d600480360360a08110156102bf57600080fd5b81019080803573ffffffffffffffffffffffffffffffffffffffff169060200190929190803590602001906401000000008111156102fc57600080fd5b82018360208201111561030e57600080fd5b8035906020019184600183028401116401000000008311171561033057600080fd5b91908080601f016020809104026020016040519081016040528093929190818152602001838380828437600081840152601f19601f8201169050808301925050505050505091929192908035906020019064010000000081111561039357600080fd5b8201836020820111156103a557600080fd5b803590602001918460018302840111640100000000831117156103c757600080fd5b91908080601f016020809104026020016040519081016040528093929190818152602001838380828437600081840152601f19601f8201169050808301925050505050505091929192908035906020019092919080359060200190929190505050610799565b604051808273ffffffffffffffffffffffffffffffffffffffff1673ffffffffffffffffffffffffffffffffffffffff16815260200191505060405180910390f35b34801561047b57600080fd5b506104de6004803603604081101561049257600080fd5b81019080803573ffffffffffffffffffffffffffffffffffffffff169060200190929190803573ffffffffffffffffffffffffffffffffffffffff169060200190929190505050610a1c565b005b3480156104ec57600080fd5b5061052f6004803603602081101561050357600080fd5b81019080803573ffffffffffffffffffffffffffffffffffffffff169060200190929190505050610ac8565b6040518080602001828103825283818151815260200191508051906020019060200280838360005b83811015610572578082015181840152602081019050610557565b505050509050019250505060405180910390f35b6001818154811061059357fe5b906000526020600020016000915054906101000a900473ffffffffffffffffffffffffffffffffffffffff1681565b600460008373ffffffffffffffffffffffffffffffffffffffff1673ffffffffffffffffffffffffffffffffffffffff168152602001908152602001600020600260008373ffffffffffffffffffffffffffffffffffffffff1673ffffffffffffffffffffffffffffffffffffffff1681526020019081526020016000205490806001815401808255809150509060018203906000526020600020016000909192909190915055505050565b6060600360008373ffffffffffffffffffffffffffffffffffffffff1673ffffffffffffffffffffffffffffffffffffffff1681526020019081526020016000208054806020026020016040519081016040528092919081815260200182805480156106f957602002820191906000526020600020905b8154815260200190600101908083116106e5575b50505050509050919050565b60005481565b6060600180548060200260200160405190810160405280929190818152602001828054801561078f57602002820191906000526020600020905b8160009054906101000a900473ffffffffffffffffffffffffffffffffffffffff1673ffffffffffffffffffffffffffffffffffffffff1681526020019060010190808311610745575b5050505050905090565b6000806040516107a890610b5f565b604051809103906000f0801580156107c4573d6000803e3d6000fd5b5090508073ffffffffffffffffffffffffffffffffffffffff1663e49db9b333888888886040518663ffffffff1660e01b8152600401808673ffffffffffffffffffffffffffffffffffffffff1673ffffffffffffffffffffffffffffffffffffffff1681526020018060200180602001858152602001848152602001838103835287818151815260200191508051906020019080838360005b8381101561087957808201518184015260208101905061085e565b50505050905090810190601f1680156108a65780820380516001836020036101000a031916815260200191505b50838103825286818151815260200191508051906020019080838360005b838110156108df5780820151818401526020810190506108c4565b50505050905090810190601f16801561090c5780820380516001836020036101000a031916815260200191505b50975050505050505050600060405180830381600087803b15801561093057600080fd5b505af1158015610944573d6000803e3d6000fd5b5050505060018190806001815401808255809150509060018203906000526020600020016000909192909190916101000a81548173ffffffffffffffffffffffffffffffffffffffff021916908373ffffffffffffffffffffffffffffffffffffffff16021790555050600054600260008373ffffffffffffffffffffffffffffffffffffffff1673ffffffffffffffffffffffffffffffffffffffff168152602001908152602001600020819055506109fe87826105c2565b60008081548092919060010191905055508091505095945050505050565b600360008373ffffffffffffffffffffffffffffffffffffffff1673ffffffffffffffffffffffffffffffffffffffff168152602001908152602001600020600260008373ffffffffffffffffffffffffffffffffffffffff1673ffffffffffffffffffffffffffffffffffffffff1681526020019081526020016000205490806001815401808255809150509060018203906000526020600020016000909192909190915055505050565b6060600460008373ffffffffffffffffffffffffffffffffffffffff1673ffffffffffffffffffffffffffffffffffffffff168152602001908152602001600020805480602002602001604051908101604052809291908181526020018280548015610b5357602002820191906000526020600020905b815481526020019060010190808311610b3f575b50505050509050919050565b611c8880610b6d8339019056fe60806040523480156200001157600080fd5b5033600560006101000a81548173ffffffffffffffffffffffffffffffffffffffff021916908373ffffffffffffffffffffffffffffffffffffffff1602179055506040518060400160405280600481526020017f4e6f6e650000000000000000000000000000000000000000000000000000000081525060079080519060200190620000a092919062000116565b506040518060400160405280600481526020017f4e6f6e650000000000000000000000000000000000000000000000000000000081525060089080519060200190620000ee92919062000116565b50603c4201600981905550670de0b6b3a7640000600a819055506000600b81905550620001c5565b828054600181600116156101000203166002900490600052602060002090601f016020900481019282601f106200015957805160ff19168380011785556200018a565b828001600101855582156200018a579182015b82811115620001895782518255916020019190600101906200016c565b5b5090506200019991906200019d565b5090565b620001c291905b80821115620001be576000816000905550600101620001a4565b5090565b90565b611ab380620001d56000396000f3fe6080604052600436106101815760003560e01c8063b97a7d24116100d1578063e7caed911161008a578063f5a8492f11610064578063f5a8492f14610a0a578063fb4e27e514610a61578063fbbf93a014610adc578063fbf9af0114610b6c57610181565b8063e7caed91146109be578063ed88c68e146109d5578063efb98bcf146109df57610181565b8063b97a7d241461070c578063b9e2bea014610737578063d009c53f146107c7578063d3eb6f61146107f2578063d9276a4914610821578063e49db9b31461083857610181565b80634eb90fc81161013e5780638fbb38ff116101185780638fbb38ff146105e8578063ab9c7fa41461063b578063ac62f56614610666578063ad1d6eb1146106e157610181565b80634eb90fc8146105025780635f74bbde1461056b5780636c85c506146105b957610181565b806312065fe01461018657806315c17d3e146101b157806317d7de7c146102085780631dd28c551461029857806338cc48311461036a5780633d7403a3146103c1575b600080fd5b34801561019257600080fd5b5061019b610b97565b6040518082815260200191505060405180910390f35b3480156101bd57600080fd5b506101c6610b9f565b604051808273ffffffffffffffffffffffffffffffffffffffff1673ffffffffffffffffffffffffffffffffffffffff16815260200191505060405180910390f35b34801561021457600080fd5b5061021d610bc9565b6040518080602001828103825283818151815260200191508051906020019080838360005b8381101561025d578082015181840152602081019050610242565b50505050905090810190601f16801561028a5780820380516001836020036101000a031916815260200191505b509250505060405180910390f35b3480156102a457600080fd5b50610368600480360360408110156102bb57600080fd5b81019080803590602001906401000000008111156102d857600080fd5b8201836020820111156102ea57600080fd5b8035906020019184600183028401116401000000008311171561030c57600080fd5b91908080601f016020809104026020016040519081016040528093929190818152602001838380828437600081840152601f19601f82011690508083019250505050505050919291929080359060200190929190505050610c6b565b005b34801561037657600080fd5b5061037f610e17565b604051808273ffffffffffffffffffffffffffffffffffffffff1673ffffffffffffffffffffffffffffffffffffffff16815260200191505060405180910390f35b3480156103cd57600080fd5b50610487600480360360208110156103e457600080fd5b810190808035906020019064010000000081111561040157600080fd5b82018360208201111561041357600080fd5b8035906020019184600183028401116401000000008311171561043557600080fd5b91908080601f016020809104026020016040519081016040528093929190818152602001838380828437600081840152601f19601f820116905080830192505050505050509192919290505050610e1f565b6040518080602001828103825283818151815260200191508051906020019080838360005b838110156104c75780820151818401526020810190506104ac565b50505050905090810190601f1680156104f45780820380516001836020036101000a031916815260200191505b509250505060405180910390f35b34801561050e57600080fd5b506105516004803603602081101561052557600080fd5b81019080803573ffffffffffffffffffffffffffffffffffffffff169060200190929190505050610f0e565b604051808215151515815260200191505060405180910390f35b6105b76004803603604081101561058157600080fd5b81019080803573ffffffffffffffffffffffffffffffffffffffff16906020019092919080359060200190929190505050610fad565b005b3480156105c557600080fd5b506105ce6112c0565b604051808215151515815260200191505060405180910390f35b3480156105f457600080fd5b506106216004803603602081101561060b57600080fd5b81019080803590602001909291905050506112cd565b604051808215151515815260200191505060405180910390f35b34801561064757600080fd5b506106506112fe565b6040518082815260200191505060405180910390f35b34801561067257600080fd5b5061069f6004803603602081101561068957600080fd5b8101908080359060200190929190505050611308565b604051808273ffffffffffffffffffffffffffffffffffffffff1673ffffffffffffffffffffffffffffffffffffffff16815260200191505060405180910390f35b3480156106ed57600080fd5b506106f6611344565b6040518082815260200191505060405180910390f35b34801561071857600080fd5b5061072161134e565b6040518082815260200191505060405180910390f35b34801561074357600080fd5b5061074c611358565b6040518080602001828103825283818151815260200191508051906020019080838360005b8381101561078c578082015181840152602081019050610771565b50505050905090810190601f1680156107b95780820380516001836020036101000a031916815260200191505b509250505060405180910390f35b3480156107d357600080fd5b506107dc6113fa565b6040518082815260200191505060405180910390f35b3480156107fe57600080fd5b50610807611404565b604051808215151515815260200191505060405180910390f35b34801561082d57600080fd5b50610836611411565b005b6109bc600480360360a081101561084e57600080fd5b81019080803573ffffffffffffffffffffffffffffffffffffffff1690602001909291908035906020019064010000000081111561088b57600080fd5b82018360208201111561089d57600080fd5b803590602001918460018302840111640100000000831117156108bf57600080fd5b91908080601f016020809104026020016040519081016040528093929190818152602001838380828437600081840152601f19601f8201169050808301925050505050505091929192908035906020019064010000000081111561092257600080fd5b82018360208201111561093457600080fd5b8035906020019184600183028401116401000000008311171561095657600080fd5b91908080601f016020809104026020016040519081016040528093929190818152602001838380828437600081840152601f19601f820116905080830192505050505050509192919290803590602001909291908035906020019092919050505061141d565b005b3480156109ca57600080fd5b506109d36114a3565b005b6109dd6114b6565b005b3480156109eb57600080fd5b506109f46117dd565b6040518082815260200191505060405180910390f35b348015610a1657600080fd5b50610a1f6117fd565b604051808273ffffffffffffffffffffffffffffffffffffffff1673ffffffffffffffffffffffffffffffffffffffff16815260200191505060405180910390f35b348015610a6d57600080fd5b50610a9a60048036036020811015610a8457600080fd5b8101908080359060200190929190505050611823565b604051808273ffffffffffffffffffffffffffffffffffffffff1673ffffffffffffffffffffffffffffffffffffffff16815260200191505060405180910390f35b348015610ae857600080fd5b50610af16118db565b6040518080602001828103825283818151815260200191508051906020019080838360005b83811015610b31578082015181840152602081019050610b16565b50505050905090810190601f168015610b5e5780820380516001836020036101000a031916815260200191505b509250505060405180910390f35b348015610b7857600080fd5b50610b8161197d565b6040518082815260200191505060405180910390f35b600047905090565b6000600560009054906101000a900473ffffffffffffffffffffffffffffffffffffffff16905090565b606060078054600181600116156101000203166002900480601f016020809104026020016040519081016040528092919081815260200182805460018160011615610100020316600290048015610c615780601f10610c3657610100808354040283529160200191610c61565b820191906000526020600020905b815481529060010190602001808311610c4457829003601f168201915b5050505050905090565b600560009054906101000a900473ffffffffffffffffffffffffffffffffffffffff1673ffffffffffffffffffffffffffffffffffffffff163373ffffffffffffffffffffffffffffffffffffffff1614610d11576040517f08c379a0000000000000000000000000000000000000000000000000000000008152600401808060200182810382526021815260200180611a2d6021913960400191505060405180910390fd5b47811115610d87576040517f08c379a00000000000000000000000000000000000000000000000000000000081526004018080602001828103825260168152602001807f42616c616e6365206973206e6f7420656e6f756768210000000000000000000081525060200191505060405180910390fd5b8160009080519060200190610d9d929190611987565b508060018190555060006002819055506000600381905550600060048190555060008090505b600b54811015610e12576000600f8281548110610ddc57fe5b90600052602060002090602091828204019190066101000a81548160ff0219169083151502179055508080600101915050610dc3565b505050565b600030905090565b6060600560009054906101000a900473ffffffffffffffffffffffffffffffffffffffff1673ffffffffffffffffffffffffffffffffffffffff163373ffffffffffffffffffffffffffffffffffffffff161415610e93578160089080519060200190610e8d929190611987565b50610ed0565b6040518060400160405280600881526020017f72656a65637465640000000000000000000000000000000000000000000000008152509050610f09565b6040518060400160405280600881526020017f616363657074656400000000000000000000000000000000000000000000000081525090505b919050565b600080600090505b600b54811015610fa2578273ffffffffffffffffffffffffffffffffffffffff16600c8281548110610f4457fe5b9060005260206000200160009054906101000a900473ffffffffffffffffffffffffffffffffffffffff1673ffffffffffffffffffffffffffffffffffffffff161415610f95576001915050610fa8565b8080600101915050610f16565b50600090505b919050565b610fb682610f0e565b61100b576040517f08c379a0000000000000000000000000000000000000000000000000000000008152600401808060200182810382526031815260200180611a4e6031913960400191505060405180910390fd5b600f600d60008473ffffffffffffffffffffffffffffffffffffffff1673ffffffffffffffffffffffffffffffffffffffff168152602001908152602001600020548154811061105757fe5b90600052602060002090602091828204019190069054906101000a900460ff16156110ea576040517f08c379a000000000000000000000000000000000000000000000000000000000815260040180806020018281038252600f8152602001807f596f75206861766520766f74656421000000000000000000000000000000000081525060200191505060405180910390fd5b600181141561114757600e60003373ffffffffffffffffffffffffffffffffffffffff1673ffffffffffffffffffffffffffffffffffffffff168152602001908152602001600020546002600082825401925050819055506111a1565b60028114156111a057600e60003373ffffffffffffffffffffffffffffffffffffffff1673ffffffffffffffffffffffffffffffffffffffff168152602001908152602001600020546003600082825401925050819055505b5b6001600f600d60008573ffffffffffffffffffffffffffffffffffffffff1673ffffffffffffffffffffffffffffffffffffffff16815260200190815260200160002054815481106111ef57fe5b90600052602060002090602091828204019190066101000a81548160ff021916908315150217905550600a54600280540211156112a457600560009054906101000a900473ffffffffffffffffffffffffffffffffffffffff1673ffffffffffffffffffffffffffffffffffffffff166108fc670de0b6b3a7640000600154029081150290604051600060405180830381858888f1935050505015801561129a573d6000803e3d6000fd5b5060016004819055505b600a5460026003540211156112bc5760026004819055505b5050565b6000600954421015905090565b600f81815481106112da57fe5b9060005260206000209060209182820401919006915054906101000a900460ff1681565b6000600454905090565b600c818154811061131557fe5b906000526020600020016000915054906101000a900473ffffffffffffffffffffffffffffffffffffffff1681565b6000600154905090565b6000600a54905090565b606060008054600181600116156101000203166002900480601f0160208091040260200160405190810160405280929190818152602001828054600181600116156101000203166002900480156113f05780601f106113c5576101008083540402835291602001916113f0565b820191906000526020600020905b8154815290600101906020018083116113d357829003601f168201915b5050505050905090565b6000600b54905090565b6000600a54471015905090565b600f4201600981905550565b84600560006101000a81548173ffffffffffffffffffffffffffffffffffffffff021916908373ffffffffffffffffffffffffffffffffffffffff1602179055508360079080519060200190611474929190611987565b50826008908051906020019061148b929190611987565b5081420160098190555080600a819055505050505050565b600f600960008282540192505081905550565b60095442111561152e576040517f08c379a00000000000000000000000000000000000000000000000000000000081526004018080602001828103825260158152602001807f546869732066756e64696e67206973206f76657221000000000000000000000081525060200191505060405180910390fd5b600034116115a4576040517f08c379a000000000000000000000000000000000000000000000000000000000815260040180806020018281038252601d8152602001807f506c65617365206174206c656173742073656e6420612070656e6e792100000081525060200191505060405180910390fd5b60006001905060008090505b600b54811015611688573373ffffffffffffffffffffffffffffffffffffffff16600c82815481106115de57fe5b9060005260206000200160009054906101000a900473ffffffffffffffffffffffffffffffffffffffff1673ffffffffffffffffffffffffffffffffffffffff16141561167b5734600e60003373ffffffffffffffffffffffffffffffffffffffff1673ffffffffffffffffffffffffffffffffffffffff1681526020019081526020016000206000828254019250508190555060009150611688565b80806001019150506115b0565b5080156117da57600c3390806001815401808255809150509060018203906000526020600020016000909192909190916101000a81548173ffffffffffffffffffffffffffffffffffffffff021916908373ffffffffffffffffffffffffffffffffffffffff16021790555050600b54600d60003373ffffffffffffffffffffffffffffffffffffffff1673ffffffffffffffffffffffffffffffffffffffff1681526020019081526020016000208190555034600e60003373ffffffffffffffffffffffffffffffffffffffff1673ffffffffffffffffffffffffffffffffffffffff16815260200190815260200160002081905550600b60008154809291906001019190505550600f6000908060018154018082558091505090600182039060005260206000209060209182820401919006909192909190916101000a81548160ff021916908315150217905550505b50565b60004260095411156117f557426009540390506117fa565b600090505b90565b600560009054906101000a900473ffffffffffffffffffffffffffffffffffffffff1681565b6000600b54821061189c576040517f08c379a00000000000000000000000000000000000000000000000000000000081526004018080602001828103825260198152602001807f57726f6e6720696e64657820666f7220646f6e61746f7273210000000000000081525060200191505060405180910390fd5b600c82815481106118a957fe5b9060005260206000200160009054906101000a900473ffffffffffffffffffffffffffffffffffffffff169050919050565b606060088054600181600116156101000203166002900480601f0160208091040260200160405190810160405280929190818152602001828054600181600116156101000203166002900480156119735780601f1061194857610100808354040283529160200191611973565b820191906000526020600020905b81548152906001019060200180831161195657829003601f168201915b5050505050905090565b6000600954905090565b828054600181600116156101000203166002900490600052602060002090601f016020900481019282601f106119c857805160ff19168380011785556119f6565b828001600101855582156119f6579182015b828111156119f55782518255916020019190600101906119da565b5b509050611a039190611a07565b5090565b611a2991905b80821115611a25576000816000905550600101611a0d565b5090565b9056fe7468652070726f706f736572206d75737420626520746865207374617274657221596f75207368616c6c206e6f7420766f7465206265636175736520796f7520617265206e6f74206120646f6e61746f7221a265627a7a72315820db53c749306c6d226471a60f51947bc7870ae7f1049ecf3c5a7b685c8a9b8b0364736f6c63430005100032a265627a7a723158208cda1c3213a7efb152f381a342d11431c0b8673a1741d4f517fe4c370d65aebf64736f6c63430005100032",
  "source": "// SPDX-License-Identifier: MIT\r\npragma solidity >=0.4.22 <0.8.0;\r\n\r\nimport \"./Funding.sol\";\r\n\r\ncontract FundManager{\r\n\r\n    uint public fundNum = 0;\r\n    address[] public fundList;\r\n    mapping(address => uint) addressID;\r\n    mapping(address => uint[]) investedID;\r\n    mapping(address => uint[]) startedID;\r\n\r\n    function getFundList() view public returns (address[] memory){\r\n        return fundList;\r\n    }\r\n\r\n    function newFunding(\r\n    // 0xF81D1aF547cFF9e2a2A842475D9C10fbf865cDfc, \"name\", \"this is a project\", 120, 100000\r\n        address payable client,\r\n        string memory _projectName,\r\n        string memory _details,\r\n        uint _raiseTime,\r\n        uint _goalAmount\r\n    ) public payable returns (address){\r\n        // require(msg.value > 0,\"send a penny?\");\r\n        Funding f = new Funding();\r\n        f.init( msg.sender, _projectName, _details, _raiseTime, _goalAmount);\r\n        fundList.push(address(f));\r\n        addressID[address(f)] = fundNum;\r\n        addStartedProject(client, address(f));\r\n        fundNum++;\r\n        return address(f);\r\n    }\r\n    function addInvestedProject(address client, address project)public{\r\n        investedID[client].push(addressID[project]);\r\n    }\r\n    function addStartedProject(address client, address project)public{\r\n        startedID[client].push(addressID[project]);\r\n    }\r\n    \r\n    function getStartedProject(address client) view public returns (uint[] memory){\r\n        return startedID[client];\r\n    }\r\n    \r\n    function getInvestedProject(address client) view public returns (uint[] memory){\r\n        return investedID[client];\r\n    }\r\n    \r\n}",
  "sourcePath": "C:/Users/Eternal/blockchainCourse/chengshizhuo/finalWork/contracts/fundManager.sol",
  "compiler": {
    "name": "solc",
    "version": "0.5.16+commit.9c3226ce.Emscripten.clang"
  },
  "schemaVersion": "3.3.3",
  "updatedAt": "2021-01-14T09:54:19.183Z",
  "networkType": "ethereum",
  "devdoc": {
    "methods": {}
  },
  "userdoc": {
    "methods": {}
  }
}