{
  "contractName": "CrowdFunding",
  "abi": [
    {
      "inputs": [],
      "payable": false,
      "stateMutability": "nonpayable",
      "type": "constructor"
    },
    {
      "constant": true,
      "inputs": [],
      "name": "organizer",
      "outputs": [
        {
          "internalType": "address",
          "name": "",
          "type": "address"
        }
      ],
      "payable": false,
      "stateMutability": "view",
      "type": "function"
    },
    {
      "constant": true,
      "inputs": [],
      "name": "projectCount",
      "outputs": [
        {
          "internalType": "uint256",
          "name": "",
          "type": "uint256"
        }
      ],
      "payable": false,
      "stateMutability": "view",
      "type": "function"
    },
    {
      "constant": true,
      "inputs": [
        {
          "internalType": "uint256",
          "name": "",
          "type": "uint256"
        }
      ],
      "name": "projects",
      "outputs": [
        {
          "internalType": "uint256",
          "name": "proID",
          "type": "uint256"
        },
        {
          "internalType": "address",
          "name": "initiator",
          "type": "address"
        },
        {
          "internalType": "string",
          "name": "title",
          "type": "string"
        },
        {
          "internalType": "string",
          "name": "description",
          "type": "string"
        },
        {
          "internalType": "uint256",
          "name": "goal",
          "type": "uint256"
        },
        {
          "internalType": "uint256",
          "name": "currentAmount",
          "type": "uint256"
        },
        {
          "internalType": "uint256",
          "name": "totalAmount",
          "type": "uint256"
        },
        {
          "internalType": "uint256",
          "name": "startTime",
          "type": "uint256"
        },
        {
          "internalType": "uint256",
          "name": "endTime",
          "type": "uint256"
        },
        {
          "internalType": "uint256",
          "name": "invCount",
          "type": "uint256"
        },
        {
          "internalType": "uint256",
          "name": "reqCount",
          "type": "uint256"
        }
      ],
      "payable": false,
      "stateMutability": "view",
      "type": "function"
    },
    {
      "constant": true,
      "inputs": [
        {
          "internalType": "address",
          "name": "",
          "type": "address"
        },
        {
          "internalType": "uint256",
          "name": "",
          "type": "uint256"
        },
        {
          "internalType": "uint256",
          "name": "",
          "type": "uint256"
        }
      ],
      "name": "relations",
      "outputs": [
        {
          "internalType": "uint256",
          "name": "",
          "type": "uint256"
        }
      ],
      "payable": false,
      "stateMutability": "view",
      "type": "function"
    },
    {
      "constant": true,
      "inputs": [],
      "name": "Login",
      "outputs": [
        {
          "internalType": "address",
          "name": "",
          "type": "address"
        }
      ],
      "payable": false,
      "stateMutability": "view",
      "type": "function"
    },
    {
      "constant": true,
      "inputs": [],
      "name": "GetRelatedProjects",
      "outputs": [
        {
          "internalType": "uint256[]",
          "name": "",
          "type": "uint256[]"
        },
        {
          "internalType": "uint256[]",
          "name": "",
          "type": "uint256[]"
        }
      ],
      "payable": false,
      "stateMutability": "view",
      "type": "function"
    },
    {
      "constant": true,
      "inputs": [
        {
          "internalType": "uint256",
          "name": "proID",
          "type": "uint256"
        },
        {
          "internalType": "uint256",
          "name": "invID",
          "type": "uint256"
        }
      ],
      "name": "GetInvestment",
      "outputs": [
        {
          "internalType": "address",
          "name": "",
          "type": "address"
        },
        {
          "internalType": "uint256",
          "name": "",
          "type": "uint256"
        },
        {
          "internalType": "uint256",
          "name": "",
          "type": "uint256"
        }
      ],
      "payable": false,
      "stateMutability": "view",
      "type": "function"
    },
    {
      "constant": true,
      "inputs": [
        {
          "internalType": "uint256",
          "name": "proID",
          "type": "uint256"
        },
        {
          "internalType": "uint256",
          "name": "reqID",
          "type": "uint256"
        }
      ],
      "name": "GetRequest",
      "outputs": [
        {
          "internalType": "string",
          "name": "",
          "type": "string"
        },
        {
          "internalType": "uint256",
          "name": "",
          "type": "uint256"
        },
        {
          "internalType": "uint256",
          "name": "",
          "type": "uint256"
        },
        {
          "internalType": "uint256[]",
          "name": "",
          "type": "uint256[]"
        }
      ],
      "payable": false,
      "stateMutability": "view",
      "type": "function"
    },
    {
      "constant": false,
      "inputs": [
        {
          "internalType": "string",
          "name": "title",
          "type": "string"
        },
        {
          "internalType": "string",
          "name": "description",
          "type": "string"
        },
        {
          "internalType": "uint256",
          "name": "goal",
          "type": "uint256"
        },
        {
          "internalType": "uint256",
          "name": "duration",
          "type": "uint256"
        }
      ],
      "name": "CreateProject",
      "outputs": [],
      "payable": false,
      "stateMutability": "nonpayable",
      "type": "function"
    },
    {
      "constant": true,
      "inputs": [
        {
          "internalType": "uint256",
          "name": "proID",
          "type": "uint256"
        }
      ],
      "name": "HasEnded",
      "outputs": [
        {
          "internalType": "bool",
          "name": "",
          "type": "bool"
        }
      ],
      "payable": false,
      "stateMutability": "view",
      "type": "function"
    },
    {
      "constant": true,
      "inputs": [
        {
          "internalType": "uint256",
          "name": "proID",
          "type": "uint256"
        }
      ],
      "name": "HasSuccess",
      "outputs": [
        {
          "internalType": "bool",
          "name": "",
          "type": "bool"
        }
      ],
      "payable": false,
      "stateMutability": "view",
      "type": "function"
    },
    {
      "constant": false,
      "inputs": [
        {
          "internalType": "uint256",
          "name": "proID",
          "type": "uint256"
        }
      ],
      "name": "Invest",
      "outputs": [],
      "payable": true,
      "stateMutability": "payable",
      "type": "function"
    },
    {
      "constant": false,
      "inputs": [
        {
          "internalType": "uint256",
          "name": "proID",
          "type": "uint256"
        }
      ],
      "name": "Withdraw",
      "outputs": [
        {
          "internalType": "bool",
          "name": "",
          "type": "bool"
        }
      ],
      "payable": false,
      "stateMutability": "nonpayable",
      "type": "function"
    },
    {
      "constant": false,
      "inputs": [
        {
          "internalType": "uint256",
          "name": "proID",
          "type": "uint256"
        },
        {
          "internalType": "string",
          "name": "description",
          "type": "string"
        },
        {
          "internalType": "uint256",
          "name": "amount",
          "type": "uint256"
        }
      ],
      "name": "CreateRequest",
      "outputs": [],
      "payable": false,
      "stateMutability": "nonpayable",
      "type": "function"
    },
    {
      "constant": false,
      "inputs": [
        {
          "internalType": "uint256",
          "name": "proID",
          "type": "uint256"
        },
        {
          "internalType": "uint256",
          "name": "reqID",
          "type": "uint256"
        }
      ],
      "name": "GrantSupport",
      "outputs": [],
      "payable": false,
      "stateMutability": "nonpayable",
      "type": "function"
    },
    {
      "constant": true,
      "inputs": [
        {
          "internalType": "uint256",
          "name": "proID",
          "type": "uint256"
        },
        {
          "internalType": "uint256",
          "name": "reqID",
          "type": "uint256"
        }
      ],
      "name": "HasEnoughSupport",
      "outputs": [
        {
          "internalType": "bool",
          "name": "",
          "type": "bool"
        }
      ],
      "payable": false,
      "stateMutability": "view",
      "type": "function"
    },
    {
      "constant": true,
      "inputs": [
        {
          "internalType": "uint256",
          "name": "proID",
          "type": "uint256"
        },
        {
          "internalType": "uint256",
          "name": "reqID",
          "type": "uint256"
        }
      ],
      "name": "GetSupportRate",
      "outputs": [
        {
          "internalType": "uint256",
          "name": "",
          "type": "uint256"
        }
      ],
      "payable": false,
      "stateMutability": "view",
      "type": "function"
    },
    {
      "constant": false,
      "inputs": [
        {
          "internalType": "uint256",
          "name": "proID",
          "type": "uint256"
        },
        {
          "internalType": "uint256",
          "name": "reqID",
          "type": "uint256"
        }
      ],
      "name": "Collect",
      "outputs": [
        {
          "internalType": "bool",
          "name": "",
          "type": "bool"
        }
      ],
      "payable": false,
      "stateMutability": "nonpayable",
      "type": "function"
    }
  ],
  "bytecode": "0x608060405234801561001057600080fd5b50336000806101000a81548173ffffffffffffffffffffffffffffffffffffffff021916908373ffffffffffffffffffffffffffffffffffffffff160217905550600060018190555061226a806100686000396000f3fe6080604052600436106101095760003560e01c80635b6b431d116100955780638ce77393116100645780638ce77393146108c55780639ef9f9eb14610922578063a09b7ae414610a36578063bf9bbfc914610a64578063f00ac1da14610abd57610109565b80635b6b431d146107355780635e5e148c1461078857806361203265146107db5780636ddf808b1461083257610109565b80633690361d116100dc5780633690361d1461051357806336fbad26146105ef5780633b81f2fe1461061a57806344ac423a1461065f57806353b86770146106bc57610109565b8063053b31851461010e578063098e7f3f14610161578063107046bd146102d4578063249a09121461045f575b600080fd5b34801561011a57600080fd5b506101476004803603602081101561013157600080fd5b8101908080359060200190929190505050610b14565b604051808215151515815260200191505060405180910390f35b34801561016d57600080fd5b506102d26004803603608081101561018457600080fd5b81019080803590602001906401000000008111156101a157600080fd5b8201836020820111156101b357600080fd5b803590602001918460018302840111640100000000831117156101d557600080fd5b91908080601f016020809104026020016040519081016040528093929190818152602001838380828437600081840152601f19601f8201169050808301925050505050505091929192908035906020019064010000000081111561023857600080fd5b82018360208201111561024a57600080fd5b8035906020019184600183028401116401000000008311171561026c57600080fd5b91908080601f016020809104026020016040519081016040528093929190818152602001838380828437600081840152601f19601f8201169050808301925050505050505091929192908035906020019092919080359060200190929190505050610b4b565b005b3480156102e057600080fd5b5061030d600480360360208110156102f757600080fd5b8101908080359060200190929190505050610d3f565b604051808c81526020018b73ffffffffffffffffffffffffffffffffffffffff1673ffffffffffffffffffffffffffffffffffffffff16815260200180602001806020018a815260200189815260200188815260200187815260200186815260200185815260200184815260200183810383528c818151815260200191508051906020019080838360005b838110156103b3578082015181840152602081019050610398565b50505050905090810190601f1680156103e05780820380516001836020036101000a031916815260200191505b5083810382528b818151815260200191508051906020019080838360005b838110156104195780820151818401526020810190506103fe565b50505050905090810190601f1680156104465780820380516001836020036101000a031916815260200191505b509d505050505050505050505050505060405180910390f35b34801561046b57600080fd5b50610474610eee565b604051808060200180602001838103835285818151815260200191508051906020019060200280838360005b838110156104bb5780820151818401526020810190506104a0565b50505050905001838103825284818151815260200191508051906020019060200280838360005b838110156104fd5780820151818401526020810190506104e2565b5050505090500194505050505060405180910390f35b34801561051f57600080fd5b506105ed6004803603606081101561053657600080fd5b81019080803590602001909291908035906020019064010000000081111561055d57600080fd5b82018360208201111561056f57600080fd5b8035906020019184600183028401116401000000008311171561059157600080fd5b91908080601f016020809104026020016040519081016040528093929190818152602001838380828437600081840152601f19601f82011690508083019250505050505050919291929080359060200190929190505050611037565b005b3480156105fb57600080fd5b50610604611343565b6040518082815260200191505060405180910390f35b34801561062657600080fd5b5061065d6004803603604081101561063d57600080fd5b810190808035906020019092919080359060200190929190505050611349565b005b34801561066b57600080fd5b506106a26004803603604081101561068257600080fd5b81019080803590602001909291908035906020019092919050505061158c565b604051808215151515815260200191505060405180910390f35b3480156106c857600080fd5b5061071f600480360360608110156106df57600080fd5b81019080803573ffffffffffffffffffffffffffffffffffffffff1690602001909291908035906020019092919080359060200190929190505050611849565b6040518082815260200191505060405180910390f35b34801561074157600080fd5b5061076e6004803603602081101561075857600080fd5b8101908080359060200190929190505050611885565b604051808215151515815260200191505060405180910390f35b34801561079457600080fd5b506107c1600480360360208110156107ab57600080fd5b8101908080359060200190929190505050611ae4565b604051808215151515815260200191505060405180910390f35b3480156107e757600080fd5b506107f0611b1d565b604051808273ffffffffffffffffffffffffffffffffffffffff1673ffffffffffffffffffffffffffffffffffffffff16815260200191505060405180910390f35b34801561083e57600080fd5b506108756004803603604081101561085557600080fd5b810190808035906020019092919080359060200190929190505050611b42565b604051808473ffffffffffffffffffffffffffffffffffffffff1673ffffffffffffffffffffffffffffffffffffffff168152602001838152602001828152602001935050505060405180910390f35b3480156108d157600080fd5b50610908600480360360408110156108e857600080fd5b810190808035906020019092919080359060200190929190505050611bdb565b604051808215151515815260200191505060405180910390f35b34801561092e57600080fd5b506109656004803603604081101561094557600080fd5b810190808035906020019092919080359060200190929190505050611c78565b604051808060200185815260200184815260200180602001838103835287818151815260200191508051906020019080838360005b838110156109b557808201518184015260208101905061099a565b50505050905090810190601f1680156109e25780820380516001836020036101000a031916815260200191505b50838103825284818151815260200191508051906020019060200280838360005b83811015610a1e578082015181840152602081019050610a03565b50505050905001965050505050505060405180910390f35b610a6260048036036020811015610a4c57600080fd5b8101908080359060200190929190505050611dea565b005b348015610a7057600080fd5b50610aa760048036036040811015610a8757600080fd5b810190808035906020019092919080359060200190929190505050612097565b6040518082815260200191505060405180910390f35b348015610ac957600080fd5b50610ad261213b565b604051808273ffffffffffffffffffffffffffffffffffffffff1673ffffffffffffffffffffffffffffffffffffffff16815260200191505060405180910390f35b600060028260648110610b2357fe5b6101cd02016004015460028360648110610b3957fe5b6101cd02016006015410159050919050565b600082118015610b5b5750600081115b610bcd576040517f08c379a00000000000000000000000000000000000000000000000000000000081526004018080602001828103825260108152602001807f496e76616c696420417267756d656e740000000000000000000000000000000081525060200191505060405180910390fd5b6000600260015460648110610bde57fe5b6101cd0201905060016000815480929190600101919050558160000181905550338160010160006101000a81548173ffffffffffffffffffffffffffffffffffffffff021916908373ffffffffffffffffffffffffffffffffffffffff16021790555084816002019080519060200190610c59929190612143565b5083816003019080519060200190610c72929190612143565b5082816004018190555060008160050181905550600081600601819055504281600701819055508181600701540181600801819055506000816009018190555060008161019a018190555061b41660003373ffffffffffffffffffffffffffffffffffffffff1673ffffffffffffffffffffffffffffffffffffffff168152602001908152602001600020600060028110610d0957fe5b01816000015490806001815401808255809150509060018203906000526020600020016000909192909190915055505050505050565b60028160648110610d4c57fe5b6101cd02016000915090508060000154908060010160009054906101000a900473ffffffffffffffffffffffffffffffffffffffff1690806002018054600181600116156101000203166002900480601f016020809104026020016040519081016040528092919081815260200182805460018160011615610100020316600290048015610e1b5780601f10610df057610100808354040283529160200191610e1b565b820191906000526020600020905b815481529060010190602001808311610dfe57829003601f168201915b505050505090806003018054600181600116156101000203166002900480601f016020809104026020016040519081016040528092919081815260200182805460018160011615610100020316600290048015610eb95780601f10610e8e57610100808354040283529160200191610eb9565b820191906000526020600020905b815481529060010190602001808311610e9c57829003601f168201915b5050505050908060040154908060050154908060060154908060070154908060080154908060090154908061019a015490508b565b60608061b41660003373ffffffffffffffffffffffffffffffffffffffff1673ffffffffffffffffffffffffffffffffffffffff168152602001908152602001600020600060028110610f3d57fe5b0161b41660003373ffffffffffffffffffffffffffffffffffffffff1673ffffffffffffffffffffffffffffffffffffffff168152602001908152602001600020600160028110610f8a57fe5b0181805480602002602001604051908101604052809291908181526020018280548015610fd657602002820191906000526020600020905b815481526020019060010190808311610fc2575b505050505091508080548060200260200160405190810160405280929190818152602001828054801561102857602002820191906000526020600020905b815481526020019060010190808311611014575b50505050509050915091509091565b61104083610b14565b801561104c5750600081115b6110be576040517f08c379a000000000000000000000000000000000000000000000000000000000815260040180806020018281038252600e8152602001807f496e76616c696420416374696f6e00000000000000000000000000000000000081525060200191505060405180910390fd5b6000600284606481106110cd57fe5b6101cd020190503373ffffffffffffffffffffffffffffffffffffffff168160010160009054906101000a900473ffffffffffffffffffffffffffffffffffffffff1673ffffffffffffffffffffffffffffffffffffffff1614611199576040517f08c379a000000000000000000000000000000000000000000000000000000000815260040180806020018281038252600f8152602001807f496e76616c6964204163636f756e74000000000000000000000000000000000081525060200191505060405180910390fd5b600a8161019a015410611214576040517f08c379a00000000000000000000000000000000000000000000000000000000081526004018080602001828103825260108152602001807f546f206d7563682072657175657374730000000000000000000000000000000081525060200191505060405180910390fd5b818160050154101561128e576040517f08c379a00000000000000000000000000000000000000000000000000000000081526004018080602001828103825260148152602001807f496e73756666696369656e742042616c616e636500000000000000000000000081525060200191505060405180910390fd5b60008161019b018261019a0154600a81106112a557fe5b6005020190508161019a016000815480929190600101919050558160000181905550838160010190805190602001906112df929190612143565b508281600201819055506000816003018190555060006040519080825280602002602001820160405280156113235781602001602082028038833980820191505090505b5081600401908051906020019061133b9291906121c3565b505050505050565b60015481565b60006002836064811061135857fe5b6101cd02019050600080905060008090505b82600901548110156113f6573373ffffffffffffffffffffffffffffffffffffffff1683600a01826064811061139c57fe5b6004020160010160009054906101000a900473ffffffffffffffffffffffffffffffffffffffff1673ffffffffffffffffffffffffffffffffffffffff1614156113e957600191506113f6565b808060010191505061136a565b81611469576040517f08c379a000000000000000000000000000000000000000000000000000000000815260040180806020018281038252601e8152602001807f556e61626c6520746f2046696e6420596f757220496e766573746d656e74000081525060200191505060405180910390fd5b60008361019b0185600a811061147b57fe5b6005020190506001925060008090505b81600301548110156114ce57828260040182815481106114a757fe5b906000526020600020015414156114c157600093506114ce565b808060010191505061148b565b5082611542576040517f08c379a000000000000000000000000000000000000000000000000000000000815260040180806020018281038252601a8152602001807f596f75206861766520616c726561647920737570706f7274656400000000000081525060200191505060405180910390fd5b806004018290806001815401808255809150509060018203906000526020600020016000909192909190915055508060030160008154809291906001019190505550505050505050565b6000806002846064811061159c57fe5b6101cd020190503373ffffffffffffffffffffffffffffffffffffffff168160010160009054906101000a900473ffffffffffffffffffffffffffffffffffffffff1673ffffffffffffffffffffffffffffffffffffffff1614611668576040517f08c379a000000000000000000000000000000000000000000000000000000000815260040180806020018281038252600f8152602001807f496e76616c6964204163636f756e74000000000000000000000000000000000081525060200191505060405180910390fd5b6116728484611bdb565b6116e4576040517f08c379a000000000000000000000000000000000000000000000000000000000815260040180806020018281038252601a8152602001807f446f6e2774206861766520656e6f75676820737570706f72742100000000000081525060200191505060405180910390fd5b8061019b0183600a81106116f457fe5b600502016002015481600501541015611775576040517f08c379a000000000000000000000000000000000000000000000000000000000815260040180806020018281038252601a8152602001807f446f6e2774206861766520656e6f7567682062616c616e63652100000000000081525060200191505060405180910390fd5b60008161019b0184600a811061178757fe5b60050201600201549050600081111561183c5760008261019b0185600a81106117ac57fe5b60050201600201819055508082600501600082825403925050819055503373ffffffffffffffffffffffffffffffffffffffff166108fc829081150290604051600060405180830381858888f1935050505061183b57808261019b0185600a811061181357fe5b6005020160020181905550808260050160008282540192505081905550600092505050611843565b5b6001925050505b92915050565b61b416602052826000526040600020826002811061186357fe5b01818154811061186f57fe5b9060005260206000200160009250925050505481565b600061189082611ae4565b80156118a257506118a082610b14565b155b611914576040517f08c379a000000000000000000000000000000000000000000000000000000000815260040180806020018281038252600e8152602001807f496e76616c696420416374696f6e00000000000000000000000000000000000081525060200191505060405180910390fd5b60006002836064811061192357fe5b6101cd02019050600080905060008090505b82600901548110156119c1573373ffffffffffffffffffffffffffffffffffffffff1683600a01826064811061196757fe5b6004020160010160009054906101000a900473ffffffffffffffffffffffffffffffffffffffff1673ffffffffffffffffffffffffffffffffffffffff1614156119b457600191506119c1565b8080600101915050611935565b81611a34576040517f08c379a000000000000000000000000000000000000000000000000000000000815260040180806020018281038252601e8152602001807f556e61626c6520746f2046696e6420596f757220496e766573746d656e74000081525060200191505060405180910390fd5b600083600a018260648110611a4557fe5b600402016002015490506000811115611ad657600084600a018360648110611a6957fe5b60040201600201819055503373ffffffffffffffffffffffffffffffffffffffff166108fc829081150290604051600060405180830381858888f19350505050611ad5578084600a018360648110611abd57fe5b60040201600201819055506000945050505050611adf565b5b60019450505050505b919050565b6000611aef82610b14565b15611afd5760019050611b18565b4260028360648110611b0b57fe5b6101cd0201600801541090505b919050565b6000809054906101000a900473ffffffffffffffffffffffffffffffffffffffff1681565b60008060006001548510611b5557600080fd5b60028560648110611b6257fe5b6101cd0201600901548410611b7657600080fd5b600060028660648110611b8557fe5b6101cd0201600a018560648110611b9857fe5b6004020190508060010160009054906101000a900473ffffffffffffffffffffffffffffffffffffffff1681600201548260030154935093509350509250925092565b60008060028460648110611beb57fe5b6101cd0201905060008161019b0184600a8110611c0457fe5b600502019050600080905060008090505b8260030154811015611c625783600a01836004018281548110611c3457fe5b906000526020600020015460648110611c4957fe5b6004020160020154820191508080600101915050611c15565b5082600601546002820211935050505092915050565b606060008060606001548610611c8d57600080fd5b60028660648110611c9a57fe5b6101cd020161019a01548510611caf57600080fd5b600060028760648110611cbe57fe5b6101cd020161019b0186600a8110611cd257fe5b600502019050806001018160020154826003015483600401838054600181600116156101000203166002900480601f016020809104026020016040519081016040528092919081815260200182805460018160011615610100020316600290048015611d7f5780601f10611d5457610100808354040283529160200191611d7f565b820191906000526020600020905b815481529060010190602001808311611d6257829003601f168201915b5050505050935080805480602002602001604051908101604052809291908181526020018280548015611dd157602002820191906000526020600020905b815481526020019060010190808311611dbd575b5050505050905094509450945094505092959194509250565b611df381611ae4565b15611e66576040517f08c379a00000000000000000000000000000000000000000000000000000000081526004018080602001828103825260158152602001807f5468652050726f6a6563742048617320456e646564000000000000000000000081525060200191505060405180910390fd5b600060028260648110611e7557fe5b6101cd02019050600080905060008090505b8260090154811015611f13573373ffffffffffffffffffffffffffffffffffffffff1683600a018260648110611eb957fe5b6004020160010160009054906101000a900473ffffffffffffffffffffffffffffffffffffffff1673ffffffffffffffffffffffffffffffffffffffff161415611f065760019150611f13565b8080600101915050611e87565b8115611f5d573483600a018260648110611f2957fe5b60040201600201600082825401925050819055504283600a018260648110611f4d57fe5b6004020160030181905550612072565b6064836009015410611f6e57600080fd5b600083600a01846009015460648110611f8357fe5b600402019050836009016000815480929190600101919050558160000181905550338160010160006101000a81548173ffffffffffffffffffffffffffffffffffffffff021916908373ffffffffffffffffffffffffffffffffffffffff16021790555034816002018190555042816003018190555061b41660003373ffffffffffffffffffffffffffffffffffffffff1673ffffffffffffffffffffffffffffffffffffffff16815260200190815260200160002060016002811061204557fe5b01859080600181540180825580915050906001820390600052602060002001600090919290919091505550505b3483600601600082825401925050819055508260060154836005018190555050505050565b600080600284606481106120a757fe5b6101cd0201905060008161019b0184600a81106120c057fe5b600502019050600080905060008090505b826003015481101561211e5783600a018360040182815481106120f057fe5b90600052602060002001546064811061210557fe5b60040201600201548201915080806001019150506120d1565b508260060154606482028161212f57fe5b04935050505092915050565b600033905090565b828054600181600116156101000203166002900490600052602060002090601f016020900481019282601f1061218457805160ff19168380011785556121b2565b828001600101855582156121b2579182015b828111156121b1578251825591602001919060010190612196565b5b5090506121bf9190612210565b5090565b8280548282559060005260206000209081019282156121ff579160200282015b828111156121fe5782518255916020019190600101906121e3565b5b50905061220c9190612210565b5090565b61223291905b8082111561222e576000816000905550600101612216565b5090565b9056fea265627a7a723158207fc695902b342b2378a441aa9d5c0cbc41ac00beeb44e741385fd7e3cbd7585564736f6c63430005100032",
  "source": "// SPDX-License-Identifier: MIT\r\npragma solidity >=0.4.0 <0.7.5;\r\n\r\ncontract CrowdFunding {\r\n    address public organizer;\r\n\r\n    struct Investment {\r\n        uint invID;\r\n        address investor;\r\n        uint amount;\r\n        uint time;\r\n    }\r\n\r\n    struct Request{\r\n        uint reqID;\r\n        string description;\r\n        uint amount;\r\n        uint supportCount;\r\n        uint[] supporters;\r\n    }\r\n\r\n    struct Project {\r\n        uint proID;\r\n        address initiator;\r\n        string title;\r\n        string description;\r\n        uint goal;\r\n        uint currentAmount;\r\n        uint totalAmount;\r\n        uint startTime;\r\n        uint endTime;\r\n        uint invCount;\r\n        Investment[100] investments;\r\n        uint reqCount;\r\n        Request[10] requests;\r\n    }\r\n\r\n    uint public projectCount;\r\n    Project[100] public projects;\r\n    mapping(address => uint[][2]) public relations;\r\n\r\n    constructor() public {\r\n        organizer = msg.sender;\r\n        projectCount = 0;\r\n    }\r\n\r\n    function Login() public view returns(address){\r\n        return msg.sender;\r\n    }\r\n\r\n    function GetRelatedProjects() public view returns(uint[] memory, uint[] memory){\r\n        return (relations[msg.sender][0], relations[msg.sender][1]);\r\n    }\r\n\r\n    function GetInvestment(uint proID, uint invID) public view returns(address, uint, uint){\r\n        require(proID < projectCount);\r\n        require(invID < projects[proID].invCount);\r\n        Investment storage inv = projects[proID].investments[invID];\r\n        return (inv.investor, inv.amount, inv.time);\r\n    }\r\n\r\n    function GetRequest(uint proID, uint reqID) public view returns(string memory, uint, uint, uint[] memory){\r\n        require(proID < projectCount);\r\n        require(reqID < projects[proID].reqCount);\r\n        Request storage req = projects[proID].requests[reqID];\r\n        return (req.description, req.amount, req.supportCount, req.supporters);\r\n    }\r\n\r\n    function CreateProject(string memory title, string memory description, uint goal, uint duration) public {\r\n        require(goal > 0 && duration > 0, \"Invalid Argument\");\r\n        Project storage pro = projects[projectCount];\r\n        pro.proID = projectCount++;\r\n        pro.initiator = msg.sender;\r\n        pro.title = title;\r\n        pro.description = description;\r\n        pro.goal = goal;\r\n        pro.currentAmount = 0;\r\n        pro.totalAmount = 0;\r\n        pro.startTime = block.timestamp;\r\n        pro.endTime = pro.startTime + duration;\r\n        pro.invCount = 0;\r\n        pro.reqCount = 0;\r\n\r\n        relations[msg.sender][0].push(pro.proID);\r\n    }\r\n\r\n    function HasEnded(uint proID) public view returns(bool){\r\n        if(HasSuccess(proID)){\r\n            return true;\r\n        }\r\n        return projects[proID].endTime < block.timestamp;\r\n    }\r\n\r\n    function HasSuccess(uint proID) public view returns(bool){\r\n        return projects[proID].totalAmount >= projects[proID].goal;\r\n    }\r\n\r\n    function Invest(uint proID) public payable{\r\n        require(!HasEnded(proID), \"The Project Has Ended\");\r\n\r\n        Project storage pro = projects[proID];\r\n        //Check if sender has invested\r\n        bool flag = false;\r\n        uint i;\r\n        for(i = 0; i < pro.invCount; i++){\r\n            if(pro.investments[i].investor == msg.sender){\r\n                flag = true;\r\n                break;\r\n            }\r\n        }\r\n\r\n        if(flag){\r\n            //The sender has invested, add to it\r\n            pro.investments[i].amount += msg.value;\r\n            pro.investments[i].time = block.timestamp;\r\n        }\r\n        else{\r\n            //New Investment\r\n            require(pro.invCount < 100);\r\n            Investment storage inv = pro.investments[pro.invCount];\r\n            inv.invID = pro.invCount++;\r\n            inv.investor = msg.sender;\r\n            inv.amount = msg.value;\r\n            inv.time = block.timestamp;\r\n\r\n            relations[msg.sender][1].push(proID);\r\n        }\r\n\r\n        pro.totalAmount += msg.value;\r\n        pro.currentAmount = pro.totalAmount;\r\n    }\r\n\r\n    function Withdraw(uint proID) public returns(bool){\r\n        require(HasEnded(proID) && !HasSuccess(proID), \"Invalid Action\");\r\n        Project storage pro = projects[proID];\r\n        \r\n        //Check if sender has invested\r\n        bool flag = false;\r\n        uint i;\r\n        for(i = 0; i < pro.invCount; i++){\r\n            if(pro.investments[i].investor == msg.sender){\r\n                flag = true;\r\n                break;\r\n            }\r\n        }\r\n        require(flag, \"Unable to Find Your Investment\");\r\n\r\n        uint amount = pro.investments[i].amount;\r\n        if(amount > 0){\r\n            pro.investments[i].amount = 0;\r\n            if(!msg.sender.send(amount)){\r\n                pro.investments[i].amount = amount;\r\n                return false;\r\n            }\r\n        }\r\n        return true;\r\n    }\r\n\r\n    function CreateRequest(uint proID, string memory description, uint amount) public {\r\n        require(HasSuccess(proID) && amount > 0, \"Invalid Action\");\r\n        Project storage pro = projects[proID];\r\n        require(pro.initiator == msg.sender, \"Invalid Account\");\r\n        require(pro.reqCount < 10, \"To much requests\");\r\n        require(pro.currentAmount >= amount, \"Insufficient Balance\");\r\n\r\n        //New Request\r\n        Request storage req = pro.requests[pro.reqCount];\r\n        req.reqID = pro.reqCount++;\r\n        req.description = description;\r\n        req.amount = amount;\r\n        req.supportCount = 0;\r\n        req.supporters = new uint[](0);\r\n    }\r\n\r\n    function GrantSupport(uint proID, uint reqID) public {\r\n        //Check if sender has invested\r\n        Project storage pro = projects[proID];\r\n        bool flag = false;\r\n        uint i;\r\n        for(i = 0; i < pro.invCount; i++){\r\n            if(pro.investments[i].investor == msg.sender){\r\n                flag = true;\r\n                break;\r\n            }\r\n        }\r\n        require(flag, \"Unable to Find Your Investment\");\r\n\r\n        Request storage req = pro.requests[reqID];\r\n        //Check if sender has supported\r\n        flag = true;\r\n        for(uint j = 0; j < req.supportCount; j++){\r\n            if(req.supporters[j] == i){\r\n                flag = false;\r\n                break;\r\n            }\r\n        }\r\n        require(flag, \"You have already supported\");\r\n\r\n        //Support\r\n        req.supporters.push(i);\r\n        req.supportCount++;\r\n    }\r\n\r\n    function HasEnoughSupport(uint proID, uint reqID) public view returns(bool) {\r\n        Project storage pro = projects[proID];\r\n        Request storage req = pro.requests[reqID];\r\n        uint supportAmount = 0;\r\n        for(uint i = 0; i < req.supportCount; i++){\r\n            supportAmount += pro.investments[req.supporters[i]].amount;\r\n        }\r\n        return supportAmount * 2 > pro.totalAmount;\r\n    }\r\n\r\n    function GetSupportRate(uint proID, uint reqID) public view returns(uint) {\r\n        Project storage pro = projects[proID];\r\n        Request storage req = pro.requests[reqID];\r\n        uint supportAmount = 0;\r\n        for(uint i = 0; i < req.supportCount; i++){\r\n            supportAmount += pro.investments[req.supporters[i]].amount;\r\n        }\r\n        return supportAmount * 100 / pro.totalAmount;\r\n    }\r\n\r\n    function Collect(uint proID, uint reqID) public returns(bool){\r\n        Project storage pro = projects[proID];\r\n        require(pro.initiator == msg.sender, \"Invalid Account\");\r\n        require(HasEnoughSupport(proID, reqID), \"Don't have enough support!\");\r\n        require(pro.currentAmount >= pro.requests[reqID].amount, \"Don't have enough balance!\");\r\n\r\n        uint amount = pro.requests[reqID].amount;\r\n        if(amount > 0) {\r\n            pro.requests[reqID].amount = 0;\r\n            pro.currentAmount -= amount;\r\n            if(!msg.sender.send(amount)){\r\n                pro.requests[reqID].amount = amount;\r\n                pro.currentAmount += amount;\r\n                return false;\r\n            }\r\n        }\r\n        return true;\r\n    }\r\n}\r\n",
  "sourcePath": "C:/Users/Stefan Chao/Desktop/courses/qkl/Projects/CrowdFunding/contracts/CrowdFunding.sol",
  "compiler": {
    "name": "solc",
    "version": "0.5.16+commit.9c3226ce.Emscripten.clang"
  },
  "schemaVersion": "3.3.3",
  "updatedAt": "2020-12-29T11:28:28.959Z",
  "networkType": "ethereum",
  "devdoc": {
    "methods": {}
  },
  "userdoc": {
    "methods": {}
  }
}