{
  "contractName": "CrowdFunding",
  "abi": [
    {
      "constant": true,
      "inputs": [
        {
          "internalType": "uint256",
          "name": "",
          "type": "uint256"
        }
      ],
      "name": "allfunds",
      "outputs": [
        {
          "internalType": "uint256",
          "name": "proID",
          "type": "uint256"
        },
        {
          "internalType": "address",
          "name": "initiator",
          "type": "address"
        },
        {
          "internalType": "string",
          "name": "title",
          "type": "string"
        },
        {
          "internalType": "string",
          "name": "description",
          "type": "string"
        },
        {
          "internalType": "uint256",
          "name": "goal",
          "type": "uint256"
        },
        {
          "internalType": "uint256",
          "name": "currentAmount",
          "type": "uint256"
        },
        {
          "internalType": "uint256",
          "name": "totalAmount",
          "type": "uint256"
        },
        {
          "internalType": "uint256",
          "name": "startTime",
          "type": "uint256"
        },
        {
          "internalType": "uint256",
          "name": "endTime",
          "type": "uint256"
        },
        {
          "internalType": "uint256",
          "name": "invCount",
          "type": "uint256"
        },
        {
          "internalType": "uint256",
          "name": "reqCount",
          "type": "uint256"
        }
      ],
      "payable": false,
      "stateMutability": "view",
      "type": "function"
    },
    {
      "constant": true,
      "inputs": [],
      "name": "fundCount",
      "outputs": [
        {
          "internalType": "uint256",
          "name": "",
          "type": "uint256"
        }
      ],
      "payable": false,
      "stateMutability": "view",
      "type": "function"
    },
    {
      "constant": true,
      "inputs": [
        {
          "internalType": "address",
          "name": "",
          "type": "address"
        },
        {
          "internalType": "uint256",
          "name": "",
          "type": "uint256"
        },
        {
          "internalType": "uint256",
          "name": "",
          "type": "uint256"
        }
      ],
      "name": "relations",
      "outputs": [
        {
          "internalType": "uint256",
          "name": "",
          "type": "uint256"
        }
      ],
      "payable": false,
      "stateMutability": "view",
      "type": "function"
    },
    {
      "constant": true,
      "inputs": [],
      "name": "user",
      "outputs": [
        {
          "internalType": "address",
          "name": "",
          "type": "address"
        }
      ],
      "payable": false,
      "stateMutability": "view",
      "type": "function"
    },
    {
      "constant": false,
      "inputs": [
        {
          "internalType": "string",
          "name": "title",
          "type": "string"
        },
        {
          "internalType": "string",
          "name": "description",
          "type": "string"
        },
        {
          "internalType": "uint256",
          "name": "goal",
          "type": "uint256"
        },
        {
          "internalType": "uint256",
          "name": "duration",
          "type": "uint256"
        }
      ],
      "name": "NewProject",
      "outputs": [],
      "payable": false,
      "stateMutability": "nonpayable",
      "type": "function"
    },
    {
      "constant": false,
      "inputs": [
        {
          "internalType": "uint256",
          "name": "proID",
          "type": "uint256"
        }
      ],
      "name": "NewInvest",
      "outputs": [],
      "payable": true,
      "stateMutability": "payable",
      "type": "function"
    },
    {
      "constant": false,
      "inputs": [
        {
          "internalType": "uint256",
          "name": "proID",
          "type": "uint256"
        },
        {
          "internalType": "string",
          "name": "description",
          "type": "string"
        },
        {
          "internalType": "uint256",
          "name": "amount",
          "type": "uint256"
        }
      ],
      "name": "NewRequest",
      "outputs": [],
      "payable": false,
      "stateMutability": "nonpayable",
      "type": "function"
    },
    {
      "constant": false,
      "inputs": [
        {
          "internalType": "uint256",
          "name": "proID",
          "type": "uint256"
        },
        {
          "internalType": "uint256",
          "name": "reqID",
          "type": "uint256"
        }
      ],
      "name": "SupportRequest",
      "outputs": [],
      "payable": false,
      "stateMutability": "nonpayable",
      "type": "function"
    },
    {
      "constant": true,
      "inputs": [],
      "name": "GetMyFunds",
      "outputs": [
        {
          "internalType": "uint256[]",
          "name": "",
          "type": "uint256[]"
        },
        {
          "internalType": "uint256[]",
          "name": "",
          "type": "uint256[]"
        }
      ],
      "payable": false,
      "stateMutability": "view",
      "type": "function"
    },
    {
      "constant": true,
      "inputs": [
        {
          "internalType": "uint256",
          "name": "proID",
          "type": "uint256"
        }
      ],
      "name": "ifEnd",
      "outputs": [
        {
          "internalType": "bool",
          "name": "",
          "type": "bool"
        }
      ],
      "payable": false,
      "stateMutability": "view",
      "type": "function"
    },
    {
      "constant": true,
      "inputs": [
        {
          "internalType": "uint256",
          "name": "proID",
          "type": "uint256"
        }
      ],
      "name": "ifSuccess",
      "outputs": [
        {
          "internalType": "bool",
          "name": "",
          "type": "bool"
        }
      ],
      "payable": false,
      "stateMutability": "view",
      "type": "function"
    },
    {
      "constant": true,
      "inputs": [
        {
          "internalType": "uint256",
          "name": "proID",
          "type": "uint256"
        },
        {
          "internalType": "uint256",
          "name": "reqID",
          "type": "uint256"
        }
      ],
      "name": "ifSupportEnough",
      "outputs": [
        {
          "internalType": "bool",
          "name": "",
          "type": "bool"
        }
      ],
      "payable": false,
      "stateMutability": "view",
      "type": "function"
    }
  ],
  "bytecode": "0x608060405234801561001057600080fd5b50611629806100206000396000f3fe6080604052600436106100a75760003560e01c806379268d341161006457806379268d34146104615780637b811047146104be578063911008ea14610503578063a8b9213114610531578063be08a071146106a4578063e2dea2b214610758576100a7565b80630d77d1a0146100ac5780631adfd50d146100ff5780633f936ff51461028a5780634ed495e7146102b55780634f8632ba1461039157806353b86770146103e8575b600080fd5b3480156100b857600080fd5b506100e5600480360360208110156100cf57600080fd5b81019080803590602001909291905050506107ab565b604051808215151515815260200191505060405180910390f35b34801561010b57600080fd5b506101386004803603602081101561012257600080fd5b81019080803590602001909291905050506107e0565b604051808c81526020018b73ffffffffffffffffffffffffffffffffffffffff1673ffffffffffffffffffffffffffffffffffffffff16815260200180602001806020018a815260200189815260200188815260200187815260200186815260200185815260200184815260200183810383528c818151815260200191508051906020019080838360005b838110156101de5780820151818401526020810190506101c3565b50505050905090810190601f16801561020b5780820380516001836020036101000a031916815260200191505b5083810382528b818151815260200191508051906020019080838360005b83811015610244578082015181840152602081019050610229565b50505050905090810190601f1680156102715780820380516001836020036101000a031916815260200191505b509d505050505050505050505050505060405180910390f35b34801561029657600080fd5b5061029f61098d565b6040518082815260200191505060405180910390f35b3480156102c157600080fd5b5061038f600480360360608110156102d857600080fd5b8101908080359060200190929190803590602001906401000000008111156102ff57600080fd5b82018360208201111561031157600080fd5b8035906020019184600183028401116401000000008311171561033357600080fd5b91908080601f016020809104026020016040519081016040528093929190818152602001838380828437600081840152601f19601f82011690508083019250505050505050919291929080359060200190929190505050610993565b005b34801561039d57600080fd5b506103a6610ba6565b604051808273ffffffffffffffffffffffffffffffffffffffff1673ffffffffffffffffffffffffffffffffffffffff16815260200191505060405180910390f35b3480156103f457600080fd5b5061044b6004803603606081101561040b57600080fd5b81019080803573ffffffffffffffffffffffffffffffffffffffff1690602001909291908035906020019092919080359060200190929190505050610bcb565b6040518082815260200191505060405180910390f35b34801561046d57600080fd5b506104a46004803603604081101561048457600080fd5b810190808035906020019092919080359060200190929190505050610c07565b604051808215151515815260200191505060405180910390f35b3480156104ca57600080fd5b50610501600480360360408110156104e157600080fd5b810190808035906020019092919080359060200190929190505050610ca2565b005b61052f6004803603602081101561051957600080fd5b8101908080359060200190929190505050610ee3565b005b34801561053d57600080fd5b506106a26004803603608081101561055457600080fd5b810190808035906020019064010000000081111561057157600080fd5b82018360208201111561058357600080fd5b803590602001918460018302840111640100000000831117156105a557600080fd5b91908080601f016020809104026020016040519081016040528093929190818152602001838380828437600081840152601f19601f8201169050808301925050505050505091929192908035906020019064010000000081111561060857600080fd5b82018360208201111561061a57600080fd5b8035906020019184600183028401116401000000008311171561063c57600080fd5b91908080601f016020809104026020016040519081016040528093929190818152602001838380828437600081840152601f19601f820116905080830192505050505050509192919290803590602001909291908035906020019092919050505061118f565b005b3480156106b057600080fd5b506106b9611381565b604051808060200180602001838103835285818151815260200191508051906020019060200280838360005b838110156107005780820151818401526020810190506106e5565b50505050905001838103825284818151815260200191508051906020019060200280838360005b83811015610742578082015181840152602081019050610727565b5050505090500194505050505060405180910390f35b34801561076457600080fd5b506107916004803603602081101561077b57600080fd5b81019080803590602001909291905050506114ca565b604051808215151515815260200191505060405180910390f35b6000600282600a81106107ba57fe5b6065020160040154600283600a81106107cf57fe5b606502016006015410159050919050565b600281600a81106107ed57fe5b606502016000915090508060000154908060010160009054906101000a900473ffffffffffffffffffffffffffffffffffffffff1690806002018054600181600116156101000203166002900480601f0160208091040260200160405190810160405280929190818152602001828054600181600116156101000203166002900480156108bb5780601f10610890576101008083540402835291602001916108bb565b820191906000526020600020905b81548152906001019060200180831161089e57829003601f168201915b505050505090806003018054600181600116156101000203166002900480601f0160208091040260200160405190810160405280929190818152602001828054600181600116156101000203166002900480156109595780601f1061092e57610100808354040283529160200191610959565b820191906000526020600020905b81548152906001019060200180831161093c57829003601f168201915b50505050509080600401549080600501549080600601549080600701549080600801549080600901549080600a015490508b565b60015481565b61099c836107ab565b80156109a85750600081115b610a1a576040517f08c379a000000000000000000000000000000000000000000000000000000000815260040180806020018281038252600e8152602001807f496e76616c696420416374696f6e00000000000000000000000000000000000081525060200191505060405180910390fd5b6000600284600a8110610a2957fe5b6065020190503373ffffffffffffffffffffffffffffffffffffffff168160010160009054906101000a900473ffffffffffffffffffffffffffffffffffffffff1673ffffffffffffffffffffffffffffffffffffffff1614610af4576040517f08c379a000000000000000000000000000000000000000000000000000000000815260040180806020018281038252600f8152602001807f496e76616c6964204163636f756e74000000000000000000000000000000000081525060200191505060405180910390fd5b60008160330182600a0154600a8110610b0957fe5b60050201905081600a01600081548092919060010191905055816000018190555083816001019080519060200190610b42929190611502565b50828160020181905550600081600301819055506000604051908082528060200260200182016040528015610b865781602001602082028038833980820191505090505b50816004019080519060200190610b9e929190611582565b505050505050565b6000809054906101000a900473ffffffffffffffffffffffffffffffffffffffff1681565b6103f46020528260005260406000208260028110610be557fe5b018181548110610bf157fe5b9060005260206000200160009250925050505481565b600080600284600a8110610c1757fe5b60650201905060008160330184600a8110610c2e57fe5b600502019050600080905060008090505b8260030154811015610c8c5783600b01836004018281548110610c5e57fe5b9060005260206000200154600a8110610c7357fe5b6004020160020154820191508080600101915050610c3f565b5082600601546002820211935050505092915050565b6000600283600a8110610cb157fe5b606502019050600080905060008090505b8260090154811015610d4e573373ffffffffffffffffffffffffffffffffffffffff1683600b0182600a8110610cf457fe5b6004020160010160009054906101000a900473ffffffffffffffffffffffffffffffffffffffff1673ffffffffffffffffffffffffffffffffffffffff161415610d415760019150610d4e565b8080600101915050610cc2565b81610dc1576040517f08c379a000000000000000000000000000000000000000000000000000000000815260040180806020018281038252601e8152602001807f556e61626c6520746f2046696e6420596f757220496e766573746d656e74000081525060200191505060405180910390fd5b60008360330185600a8110610dd257fe5b6005020190506001925060008090505b8160030154811015610e255782826004018281548110610dfe57fe5b90600052602060002001541415610e185760009350610e25565b8080600101915050610de2565b5082610e99576040517f08c379a000000000000000000000000000000000000000000000000000000000815260040180806020018281038252601a8152602001807f596f75206861766520616c726561647920737570706f7274656400000000000081525060200191505060405180910390fd5b806004018290806001815401808255809150509060018203906000526020600020016000909192909190915055508060030160008154809291906001019190505550505050505050565b610eec816114ca565b15610f5f576040517f08c379a00000000000000000000000000000000000000000000000000000000081526004018080602001828103825260128152602001807f5468652046756e642048617320456e646564000000000000000000000000000081525060200191505060405180910390fd5b6000600282600a8110610f6e57fe5b606502019050600080905060008090505b826009015481101561100b573373ffffffffffffffffffffffffffffffffffffffff1683600b0182600a8110610fb157fe5b6004020160010160009054906101000a900473ffffffffffffffffffffffffffffffffffffffff1673ffffffffffffffffffffffffffffffffffffffff161415610ffe576001915061100b565b8080600101915050610f7f565b8115611055573483600b0182600a811061102157fe5b60040201600201600082825401925050819055504283600b0182600a811061104557fe5b600402016003018190555061116a565b606483600901541061106657600080fd5b600083600b018460090154600a811061107b57fe5b600402019050836009016000815480929190600101919050558160000181905550338160010160006101000a81548173ffffffffffffffffffffffffffffffffffffffff021916908373ffffffffffffffffffffffffffffffffffffffff1602179055503481600201819055504281600301819055506103f460003373ffffffffffffffffffffffffffffffffffffffff1673ffffffffffffffffffffffffffffffffffffffff16815260200190815260200160002060016002811061113d57fe5b01859080600181540180825580915050906001820390600052602060002001600090919290919091505550505b3483600601600082825401925050819055508260060154836005018190555050505050565b60008211801561119f5750600081115b611211576040517f08c379a000000000000000000000000000000000000000000000000000000000815260040180806020018281038252600b8152602001807f496e707574204572726f7200000000000000000000000000000000000000000081525060200191505060405180910390fd5b60006002600154600a811061122257fe5b60650201905060016000815480929190600101919050558160000181905550338160010160006101000a81548173ffffffffffffffffffffffffffffffffffffffff021916908373ffffffffffffffffffffffffffffffffffffffff1602179055508481600201908051906020019061129c929190611502565b50838160030190805190602001906112b5929190611502565b50828160040181905550600081600501819055506000816006018190555042816007018190555081816007015401816008018190555060008160090181905550600081600a01819055506103f460003373ffffffffffffffffffffffffffffffffffffffff1673ffffffffffffffffffffffffffffffffffffffff16815260200190815260200160002060006002811061134b57fe5b01816000015490806001815401808255809150509060018203906000526020600020016000909192909190915055505050505050565b6060806103f460003373ffffffffffffffffffffffffffffffffffffffff1673ffffffffffffffffffffffffffffffffffffffff1681526020019081526020016000206000600281106113d057fe5b016103f460003373ffffffffffffffffffffffffffffffffffffffff1673ffffffffffffffffffffffffffffffffffffffff16815260200190815260200160002060016002811061141d57fe5b018180548060200260200160405190810160405280929190818152602001828054801561146957602002820191906000526020600020905b815481526020019060010190808311611455575b50505050509150808054806020026020016040519081016040528092919081815260200182805480156114bb57602002820191906000526020600020905b8154815260200190600101908083116114a7575b50505050509050915091509091565b60006114d5826107ab565b156114e357600190506114fd565b42600283600a81106114f157fe5b60650201600801541090505b919050565b828054600181600116156101000203166002900490600052602060002090601f016020900481019282601f1061154357805160ff1916838001178555611571565b82800160010185558215611571579182015b82811115611570578251825591602001919060010190611555565b5b50905061157e91906115cf565b5090565b8280548282559060005260206000209081019282156115be579160200282015b828111156115bd5782518255916020019190600101906115a2565b5b5090506115cb91906115cf565b5090565b6115f191905b808211156115ed5760008160009055506001016115d5565b5090565b9056fea265627a7a723158204dc00cd1157c821119358d90a4db5642289706b0f6966ab5018cf11c590d3c0964736f6c63430005100032",
  "source": "// SPDX-License-Identifier: MIT\r\npragma solidity >=0.4.0 <0.7.5;\r\n\r\n// 众筹合约\r\ncontract CrowdFunding {\r\n    // 数据结构：\r\n\r\n    // 当前用户\r\n    address public user;\r\n\r\n    // 一个众筹项目\r\n    struct Fund {\r\n        uint proID;         // 项目ID\r\n        address initiator;  // 发起人\r\n        string title;       // 项目名\r\n        string description; // 项目描述\r\n        uint goal;          // 众筹目标金额\r\n        uint currentAmount; // 当前金额\r\n        uint totalAmount;   // 总金额\r\n        uint startTime;     // 发起时间\r\n        uint endTime;       // 截止时间\r\n        uint invCount;      // 投资人数\r\n        uint reqCount;      // 请求数\r\n        Investment[10] investments;    // 具体投资数据结构\r\n        Request[10] requests;          // 具体请求数据结构\r\n    }\r\n\r\n    // 一笔投资\r\n    struct Investment {\r\n        uint invID;         // 投资号（针对每个项目）\r\n        address investor;   // 投资人\r\n        uint amount;        // 投资数额\r\n        uint time;          // 投资时间\r\n    }\r\n\r\n    // 一次请求\r\n    struct Request{\r\n        uint reqID;         // 请求号（针对每个项目）\r\n        string description; // 请求描述\r\n        uint amount;        // 请求数额\r\n        uint supportCount;  // 支持人数\r\n        uint[] supporters;  // 支持人对应的投资号\r\n    }\r\n\r\n    uint public fundCount;      // 总众筹项目的数量\r\n    Fund[10] public allfunds;   // 所有众筹项目组成的数组\r\n    mapping(address => uint[][2]) public relations; // 用户address->相关众筹项目、相关投资\r\n\r\n    // 新建众筹项目\r\n    function NewProject(string memory title, string memory description, uint goal, uint duration) public {\r\n        require(goal > 0 && duration > 0, \"Input Error\");\r\n        Fund storage pro = allfunds[fundCount];\r\n        pro.proID = fundCount++;\r\n        pro.initiator = msg.sender;\r\n        pro.title = title;\r\n        pro.description = description;\r\n        pro.goal = goal;\r\n        pro.currentAmount = 0;\r\n        pro.totalAmount = 0;\r\n        pro.startTime = block.timestamp;\r\n        pro.endTime = pro.startTime + duration;\r\n        pro.invCount = 0;\r\n        pro.reqCount = 0;\r\n\r\n        // 将项目加入到relation[0]中\r\n        relations[msg.sender][0].push(pro.proID);\r\n    }\r\n\r\n    // 新建投资\r\n    function NewInvest(uint proID) public payable{\r\n        require(!ifEnd(proID), \"The Fund Has Ended\");\r\n\r\n        Fund storage pro = allfunds[proID];\r\n        //Check if sender has invested\r\n        bool flag = false;\r\n        uint i;\r\n        for(i = 0; i < pro.invCount; i++){\r\n            if(pro.investments[i].investor == msg.sender){\r\n                flag = true;\r\n                break;\r\n            }\r\n        }\r\n\r\n        if(flag){\r\n            //The sender has invested, add to it\r\n            pro.investments[i].amount += msg.value;\r\n            pro.investments[i].time = block.timestamp;\r\n        }\r\n        else{\r\n            //New Investment\r\n            require(pro.invCount < 100);\r\n            Investment storage inv = pro.investments[pro.invCount];\r\n            inv.invID = pro.invCount++;\r\n            inv.investor = msg.sender;\r\n            inv.amount = msg.value;\r\n            inv.time = block.timestamp;\r\n\r\n            relations[msg.sender][1].push(proID);\r\n        }\r\n\r\n        pro.totalAmount += msg.value;\r\n        pro.currentAmount = pro.totalAmount;\r\n    }\r\n\r\n    // 发起请求，只有在成功筹款下才可以\r\n    function NewRequest(uint proID, string memory description, uint amount) public {\r\n        require(ifSuccess(proID) && amount > 0, \"Invalid Action\");\r\n        Fund storage pro = allfunds[proID];\r\n        require(pro.initiator == msg.sender, \"Invalid Account\");\r\n\r\n        // New Request\r\n        Request storage req = pro.requests[pro.reqCount];\r\n        req.reqID = pro.reqCount++;\r\n        req.description = description;\r\n        req.amount = amount;\r\n        req.supportCount = 0;\r\n        req.supporters = new uint[](0);\r\n    }\r\n\r\n   // 投资者支持筹款人请求\r\n    function SupportRequest(uint proID, uint reqID) public {\r\n        Fund storage pro = allfunds[proID];\r\n        bool flag = false;\r\n        uint i;\r\n        for(i = 0; i < pro.invCount; i++){\r\n            if(pro.investments[i].investor == msg.sender){\r\n                flag = true;\r\n                break;\r\n            }\r\n        }\r\n        require(flag, \"Unable to Find Your Investment\");\r\n\r\n        Request storage req = pro.requests[reqID];\r\n        // Check if sender has supported\r\n        flag = true;\r\n        for(uint j = 0; j < req.supportCount; j++){\r\n            if(req.supporters[j] == i){\r\n                flag = false;\r\n                break;\r\n            }\r\n        }\r\n        require(flag, \"You have already supported\");\r\n\r\n        // Support\r\n        req.supporters.push(i);\r\n        req.supportCount++;\r\n    }\r\n\r\n    // 获取该用户发起的众筹项目\r\n    function GetMyFunds() public view returns(uint[] memory, uint[] memory){\r\n        return (relations[msg.sender][0], relations[msg.sender][1]);\r\n    }\r\n    \r\n    // 项目是否结束\r\n    function ifEnd(uint proID) public view returns(bool){\r\n        if(ifSuccess(proID)){\r\n            return true;\r\n        }\r\n        return allfunds[proID].endTime < block.timestamp;\r\n    }\r\n\r\n    // 项目是否成功\r\n    function ifSuccess(uint proID) public view returns(bool){\r\n        return allfunds[proID].totalAmount >= allfunds[proID].goal;\r\n    }\r\n\r\n    // 判断支持是否足够 - 有bug\r\n    function ifSupportEnough(uint proID, uint reqID) public view returns(bool) {\r\n        Fund storage pro = allfunds[proID];\r\n        Request storage req = pro.requests[reqID];\r\n        uint supportAmount = 0;\r\n        for(uint i = 0; i < req.supportCount; i++){\r\n            supportAmount += pro.investments[req.supporters[i]].amount;\r\n        }\r\n        return supportAmount * 2 > pro.totalAmount;\r\n    }\r\n\r\n}\r\n",
  "sourcePath": "D:/MyDocuments/ZJUstudy/2020-2021-1/区块链与数字货币/blockchainCourse/yuruohan/finalWork/contracts/CrowdFunding.sol",
  "compiler": {
    "name": "solc",
    "version": "0.5.16+commit.9c3226ce.Emscripten.clang"
  },
  "schemaVersion": "3.3.3",
  "updatedAt": "2021-01-15T02:42:26.179Z",
  "networkType": "ethereum",
  "devdoc": {
    "methods": {}
  },
  "userdoc": {
    "methods": {}
  }
}