{
  "contractName": "Crowdfunding",
  "abi": [
    {
      "constant": true,
      "inputs": [
        {
          "internalType": "uint256",
          "name": "",
          "type": "uint256"
        }
      ],
      "name": "allFundings",
      "outputs": [
        {
          "internalType": "address payable",
          "name": "sponsor",
          "type": "address"
        },
        {
          "internalType": "string",
          "name": "title",
          "type": "string"
        },
        {
          "internalType": "string",
          "name": "detail",
          "type": "string"
        },
        {
          "internalType": "uint256",
          "name": "targetMoney",
          "type": "uint256"
        },
        {
          "internalType": "uint256",
          "name": "tempMoney",
          "type": "uint256"
        },
        {
          "internalType": "uint256",
          "name": "totalMoney",
          "type": "uint256"
        },
        {
          "internalType": "uint256",
          "name": "endTime",
          "type": "uint256"
        },
        {
          "internalType": "uint256",
          "name": "totalInvestors",
          "type": "uint256"
        },
        {
          "internalType": "bool",
          "name": "isSuccess",
          "type": "bool"
        }
      ],
      "payable": false,
      "stateMutability": "view",
      "type": "function"
    },
    {
      "constant": true,
      "inputs": [],
      "name": "totalFunding",
      "outputs": [
        {
          "internalType": "uint256",
          "name": "",
          "type": "uint256"
        }
      ],
      "payable": false,
      "stateMutability": "view",
      "type": "function"
    },
    {
      "constant": false,
      "inputs": [
        {
          "internalType": "address payable",
          "name": "_sponsor",
          "type": "address"
        },
        {
          "internalType": "string",
          "name": "_title",
          "type": "string"
        },
        {
          "internalType": "string",
          "name": "_detail",
          "type": "string"
        },
        {
          "internalType": "uint256",
          "name": "_targetMoney",
          "type": "uint256"
        },
        {
          "internalType": "uint256",
          "name": "_endTime",
          "type": "uint256"
        }
      ],
      "name": "newFunding",
      "outputs": [
        {
          "internalType": "uint256",
          "name": "",
          "type": "uint256"
        }
      ],
      "payable": false,
      "stateMutability": "nonpayable",
      "type": "function"
    },
    {
      "constant": false,
      "inputs": [
        {
          "internalType": "uint256",
          "name": "index",
          "type": "uint256"
        }
      ],
      "name": "invest",
      "outputs": [],
      "payable": true,
      "stateMutability": "payable",
      "type": "function"
    },
    {
      "constant": false,
      "inputs": [
        {
          "internalType": "uint256",
          "name": "index",
          "type": "uint256"
        }
      ],
      "name": "refund",
      "outputs": [],
      "payable": false,
      "stateMutability": "nonpayable",
      "type": "function"
    },
    {
      "constant": false,
      "inputs": [
        {
          "internalType": "uint256",
          "name": "index",
          "type": "uint256"
        },
        {
          "internalType": "string",
          "name": "_purpose",
          "type": "string"
        },
        {
          "internalType": "uint256",
          "name": "_cost",
          "type": "uint256"
        },
        {
          "internalType": "address payable",
          "name": "_shopAddress",
          "type": "address"
        }
      ],
      "name": "newRequest",
      "outputs": [],
      "payable": false,
      "stateMutability": "nonpayable",
      "type": "function"
    },
    {
      "constant": false,
      "inputs": [
        {
          "internalType": "uint256",
          "name": "index",
          "type": "uint256"
        },
        {
          "internalType": "uint256",
          "name": "requestID",
          "type": "uint256"
        },
        {
          "internalType": "bool",
          "name": "agree",
          "type": "bool"
        }
      ],
      "name": "approveRequest",
      "outputs": [],
      "payable": false,
      "stateMutability": "nonpayable",
      "type": "function"
    },
    {
      "constant": false,
      "inputs": [
        {
          "internalType": "uint256",
          "name": "index",
          "type": "uint256"
        },
        {
          "internalType": "uint256",
          "name": "requestID",
          "type": "uint256"
        }
      ],
      "name": "finishRequest",
      "outputs": [],
      "payable": false,
      "stateMutability": "nonpayable",
      "type": "function"
    },
    {
      "constant": true,
      "inputs": [
        {
          "internalType": "uint256",
          "name": "index",
          "type": "uint256"
        }
      ],
      "name": "getTempMoney",
      "outputs": [
        {
          "internalType": "uint256",
          "name": "",
          "type": "uint256"
        }
      ],
      "payable": false,
      "stateMutability": "view",
      "type": "function"
    },
    {
      "constant": true,
      "inputs": [
        {
          "internalType": "uint256",
          "name": "index",
          "type": "uint256"
        }
      ],
      "name": "getInvestors",
      "outputs": [
        {
          "internalType": "address payable[]",
          "name": "",
          "type": "address[]"
        }
      ],
      "payable": false,
      "stateMutability": "view",
      "type": "function"
    },
    {
      "constant": true,
      "inputs": [
        {
          "internalType": "uint256",
          "name": "index",
          "type": "uint256"
        }
      ],
      "name": "getInvestorsCount",
      "outputs": [
        {
          "internalType": "uint256",
          "name": "",
          "type": "uint256"
        }
      ],
      "payable": false,
      "stateMutability": "view",
      "type": "function"
    },
    {
      "constant": true,
      "inputs": [
        {
          "internalType": "uint256",
          "name": "index",
          "type": "uint256"
        }
      ],
      "name": "getRemainTime",
      "outputs": [
        {
          "internalType": "uint256",
          "name": "",
          "type": "uint256"
        }
      ],
      "payable": false,
      "stateMutability": "view",
      "type": "function"
    },
    {
      "constant": true,
      "inputs": [
        {
          "internalType": "uint256",
          "name": "index",
          "type": "uint256"
        }
      ],
      "name": "getRequestsCount",
      "outputs": [
        {
          "internalType": "uint256",
          "name": "",
          "type": "uint256"
        }
      ],
      "payable": false,
      "stateMutability": "view",
      "type": "function"
    },
    {
      "constant": true,
      "inputs": [
        {
          "internalType": "uint256",
          "name": "index",
          "type": "uint256"
        },
        {
          "internalType": "uint256",
          "name": "requestID",
          "type": "uint256"
        }
      ],
      "name": "getRequest",
      "outputs": [
        {
          "internalType": "string",
          "name": "",
          "type": "string"
        },
        {
          "internalType": "uint256",
          "name": "",
          "type": "uint256"
        },
        {
          "internalType": "address payable",
          "name": "",
          "type": "address"
        },
        {
          "internalType": "uint256",
          "name": "",
          "type": "uint256"
        },
        {
          "internalType": "uint256",
          "name": "",
          "type": "uint256"
        },
        {
          "internalType": "uint256",
          "name": "",
          "type": "uint256"
        },
        {
          "internalType": "uint256",
          "name": "",
          "type": "uint256"
        }
      ],
      "payable": false,
      "stateMutability": "view",
      "type": "function"
    }
  ],
  "bytecode": "0x60806040526000805534801561001457600080fd5b5061190b806100246000396000f3fe6080604052600436106100dd5760003560e01c80637a3985b41161007f5780639a5e5b77116100595780639a5e5b771461074b578063a6dfee091461079a578063c89ea13714610896578063fe47a8a7146108e5576100dd565b80637a3985b4146103d25780638f74935f1461042357806395ecea1f146105ca576100dd565b80633d565f01116100bb5780633d565f01146101db5780635e71def0146102205780636a0289071461026f5780636e8f8d6914610383576100dd565b80631139de55146100e2578063278ecde1146101725780632afcf480146101ad575b600080fd5b3480156100ee57600080fd5b5061011b6004803603602081101561010557600080fd5b8101908080359060200190929190505050610910565b6040518080602001828103825283818151815260200191508051906020019060200280838360005b8381101561015e578082015181840152602081019050610143565b505050509050019250505060405180910390f35b34801561017e57600080fd5b506101ab6004803603602081101561019557600080fd5b81019080803590602001909291905050506109c2565b005b6101d9600480360360208110156101c357600080fd5b8101908080359060200190929190505050610b3b565b005b3480156101e757600080fd5b5061021e600480360360408110156101fe57600080fd5b810190808035906020019092919080359060200190929190505050610ca0565b005b34801561022c57600080fd5b506102596004803603602081101561024357600080fd5b8101908080359060200190929190505050610db5565b6040518082815260200191505060405180910390f35b34801561027b57600080fd5b506102b26004803603604081101561029257600080fd5b810190808035906020019092919080359060200190929190505050610e01565b60405180806020018881526020018773ffffffffffffffffffffffffffffffffffffffff1673ffffffffffffffffffffffffffffffffffffffff168152602001868152602001858152602001848152602001838152602001828103825289818151815260200191508051906020019080838360005b83811015610342578082015181840152602081019050610327565b50505050905090810190601f16801561036f5780820380516001836020036101000a031916815260200191505b509850505050505050505060405180910390f35b34801561038f57600080fd5b506103bc600480360360208110156103a657600080fd5b8101908080359060200190929190505050610f89565b6040518082815260200191505060405180910390f35b3480156103de57600080fd5b50610421600480360360608110156103f557600080fd5b810190808035906020019092919080359060200190929190803515159060200190929190505050610fb6565b005b34801561042f57600080fd5b506105b4600480360360a081101561044657600080fd5b81019080803573ffffffffffffffffffffffffffffffffffffffff1690602001909291908035906020019064010000000081111561048357600080fd5b82018360208201111561049557600080fd5b803590602001918460018302840111640100000000831117156104b757600080fd5b91908080601f016020809104026020016040519081016040528093929190818152602001838380828437600081840152601f19601f8201169050808301925050505050505091929192908035906020019064010000000081111561051a57600080fd5b82018360208201111561052c57600080fd5b8035906020019184600183028401116401000000008311171561054e57600080fd5b91908080601f016020809104026020016040519081016040528093929190818152602001838380828437600081840152601f19601f8201169050808301925050505050505091929192908035906020019092919080359060200190929190505050611226565b6040518082815260200191505060405180910390f35b3480156105d657600080fd5b50610603600480360360208110156105ed57600080fd5b8101908080359060200190929190505050611337565b604051808a73ffffffffffffffffffffffffffffffffffffffff1673ffffffffffffffffffffffffffffffffffffffff16815260200180602001806020018981526020018881526020018781526020018681526020018581526020018415151515815260200183810383528b818151815260200191508051906020019080838360005b838110156106a1578082015181840152602081019050610686565b50505050905090810190601f1680156106ce5780820380516001836020036101000a031916815260200191505b5083810382528a818151815260200191508051906020019080838360005b838110156107075780820151818401526020810190506106ec565b50505050905090810190601f1680156107345780820380516001836020036101000a031916815260200191505b509b50505050505050505050505060405180910390f35b34801561075757600080fd5b506107846004803603602081101561076e57600080fd5b81019080803590602001909291905050506114ef565b6040518082815260200191505060405180910390f35b3480156107a657600080fd5b50610894600480360360808110156107bd57600080fd5b8101908080359060200190929190803590602001906401000000008111156107e457600080fd5b8201836020820111156107f657600080fd5b8035906020019184600183028401116401000000008311171561081857600080fd5b91908080601f016020809104026020016040519081016040528093929190818152602001838380828437600081840152601f19601f82011690508083019250505050505050919291929080359060200190929190803573ffffffffffffffffffffffffffffffffffffffff16906020019092919050505061151f565b005b3480156108a257600080fd5b506108cf600480360360208110156108b957600080fd5b8101908080359060200190929190505050611732565b6040518082815260200191505060405180910390f35b3480156108f157600080fd5b506108fa61175f565b6040518082815260200191505060405180910390f35b606060006001838154811061092157fe5b90600052602060002090600c02019050806009018054806020026020016040519081016040528092919081815260200182805480156109b557602002820191906000526020600020905b8160009054906101000a900473ffffffffffffffffffffffffffffffffffffffff1673ffffffffffffffffffffffffffffffffffffffff168152602001906001019080831161096b575b5050505050915050919050565b60001515600182815481106109d357fe5b90600052602060002090600c020160080160009054906101000a900460ff161515146109fe57600080fd5b600060018281548110610a0d57fe5b90600052602060002090600c0201905060008090505b8160070154811015610b3657816009018181548110610a3e57fe5b9060005260206000200160009054906101000a900473ffffffffffffffffffffffffffffffffffffffff1673ffffffffffffffffffffffffffffffffffffffff166108fc83600a016000856009018581548110610a9757fe5b9060005260206000200160009054906101000a900473ffffffffffffffffffffffffffffffffffffffff1673ffffffffffffffffffffffffffffffffffffffff1673ffffffffffffffffffffffffffffffffffffffff168152602001908152602001600020549081150290604051600060405180830381858888f19350505050158015610b28573d6000803e3d6000fd5b508080600101915050610a23565b505050565b60003411610b4857600080fd5b4260018281548110610b5657fe5b90600052602060002090600c02016006015411610b7257600080fd5b600060018281548110610b8157fe5b90600052602060002090600c020190503481600401600082825401925050819055503381600901826007015481548110610bb757fe5b9060005260206000200160006101000a81548173ffffffffffffffffffffffffffffffffffffffff021916908373ffffffffffffffffffffffffffffffffffffffff1602179055503481600a0160003373ffffffffffffffffffffffffffffffffffffffff1673ffffffffffffffffffffffffffffffffffffffff1681526020019081526020016000206000828254019250508190555080600701600081548092919060010191905055508060030154816004015410610c9c5760018160080160006101000a81548160ff021916908315150217905550806004015481600501819055505b5050565b600060018381548110610caf57fe5b90600052602060002090600c02019050600081600b018381548110610cd057fe5b9060005260206000209060070201905060018481548110610ced57fe5b90600052602060002090600c02016004015481600101541115610d0f57600080fd5b6001816006015414610d2057600080fd5b8060020160009054906101000a900473ffffffffffffffffffffffffffffffffffffffff1673ffffffffffffffffffffffffffffffffffffffff166108fc82600101549081150290604051600060405180830381858888f19350505050158015610d8e573d6000803e3d6000fd5b50600381600601819055508060010154826004016000828254039250508190555050505050565b60008060018381548110610dc557fe5b90600052602060002090600c020190506018603c804284600601540381610de857fe5b0481610df057fe5b0481610df857fe5b04915050919050565b6060600080600080600080600060018a81548110610e1b57fe5b90600052602060002090600c02019050600081600b018a81548110610e3c57fe5b9060005260206000209060070201905060008160050160003373ffffffffffffffffffffffffffffffffffffffff1673ffffffffffffffffffffffffffffffffffffffff1681526020019081526020016000205490508160000182600101548360020160009054906101000a900473ffffffffffffffffffffffffffffffffffffffff1683856003015486600401548760060154868054600181600116156101000203166002900480601f016020809104026020016040519081016040528092919081815260200182805460018160011615610100020316600290048015610f655780601f10610f3a57610100808354040283529160200191610f65565b820191906000526020600020905b815481529060010190602001808311610f4857829003601f168201915b50505050509650995099509950995099509950995050505092959891949750929550565b60008060018381548110610f9957fe5b90600052602060002090600c020190508060070154915050919050565b600060018481548110610fc557fe5b90600052602060002090600c02019050600081600a0160003373ffffffffffffffffffffffffffffffffffffffff1673ffffffffffffffffffffffffffffffffffffffff16815260200190815260200160002054141561102457600080fd5b600081600b01848154811061103557fe5b9060005260206000209060070201905060008160050160003373ffffffffffffffffffffffffffffffffffffffff1673ffffffffffffffffffffffffffffffffffffffff168152602001908152602001600020541461109357600080fd5b60008160060154146110a457600080fd5b82156111475781600a0160003373ffffffffffffffffffffffffffffffffffffffff1673ffffffffffffffffffffffffffffffffffffffff16815260200190815260200160002054816003016000828254019250508190555060018160050160003373ffffffffffffffffffffffffffffffffffffffff1673ffffffffffffffffffffffffffffffffffffffff16815260200190815260200160002050506111e0565b81600a0160003373ffffffffffffffffffffffffffffffffffffffff1673ffffffffffffffffffffffffffffffffffffffff16815260200190815260200160002054816004016000828254019250508190555060028160050160003373ffffffffffffffffffffffffffffffffffffffff1673ffffffffffffffffffffffffffffffffffffffff16815260200190815260200160002050505b8160050154600282600301540210611201576001816006018190555061121f565b816005015460028260040154021061121e57600281600601819055505b5b5050505050565b600042821161123457600080fd5b600060016000548154811061124557fe5b90600052602060002090600c02019050868160000160006101000a81548173ffffffffffffffffffffffffffffffffffffffff021916908373ffffffffffffffffffffffffffffffffffffffff160217905550858160010190805190602001906112b0929190611765565b50848160020190805190602001906112c9929190611765565b5083816003018190555060008160040181905550600081600501819055508281600601819055506000816007018190555060008160080160006101000a81548160ff021916908315150217905550600080815480929190600101919050555060005491505095945050505050565b6001818154811061134457fe5b90600052602060002090600c02016000915090508060000160009054906101000a900473ffffffffffffffffffffffffffffffffffffffff1690806001018054600181600116156101000203166002900480601f0160208091040260200160405190810160405280929190818152602001828054600181600116156101000203166002900480156114165780601f106113eb57610100808354040283529160200191611416565b820191906000526020600020905b8154815290600101906020018083116113f957829003601f168201915b505050505090806002018054600181600116156101000203166002900480601f0160208091040260200160405190810160405280929190818152602001828054600181600116156101000203166002900480156114b45780601f10611489576101008083540402835291602001916114b4565b820191906000526020600020905b81548152906001019060200180831161149757829003601f168201915b5050505050908060030154908060040154908060050154908060060154908060070154908060080160009054906101000a900460ff16905089565b600080600183815481106114ff57fe5b90600052602060002090600c0201905080600b0180549050915050919050565b600115156001858154811061153057fe5b90600052602060002090600c020160080160009054906101000a900460ff1615151461155b57600080fd5b6001848154811061156857fe5b90600052602060002090600c02016004015482111561158657600080fd5b6001848154811061159357fe5b90600052602060002090600c020160000160009054906101000a900473ffffffffffffffffffffffffffffffffffffffff1673ffffffffffffffffffffffffffffffffffffffff163373ffffffffffffffffffffffffffffffffffffffff16146115fc57600080fd5b6116046117e5565b6040518060c001604052808581526020018481526020018373ffffffffffffffffffffffffffffffffffffffff16815260200160008152602001600081526020016000815250905060006001868154811061165b57fe5b90600052602060002090600c0201905080600b01829080600181540180825580915050906001820390600052602060002090600702016000909192909190915060008201518160000190805190602001906116b7929190611831565b506020820151816001015560408201518160020160006101000a81548173ffffffffffffffffffffffffffffffffffffffff021916908373ffffffffffffffffffffffffffffffffffffffff160217905550606082015181600301556080820151816004015560a08201518160060155505050505050505050565b6000806001838154811061174257fe5b90600052602060002090600c020190508060040154915050919050565b60005481565b828054600181600116156101000203166002900490600052602060002090601f016020900481019282601f106117a657805160ff19168380011785556117d4565b828001600101855582156117d4579182015b828111156117d35782518255916020019190600101906117b8565b5b5090506117e191906118b1565b5090565b6040518060c001604052806060815260200160008152602001600073ffffffffffffffffffffffffffffffffffffffff1681526020016000815260200160008152602001600081525090565b828054600181600116156101000203166002900490600052602060002090601f016020900481019282601f1061187257805160ff19168380011785556118a0565b828001600101855582156118a0579182015b8281111561189f578251825591602001919060010190611884565b5b5090506118ad91906118b1565b5090565b6118d391905b808211156118cf5760008160009055506001016118b7565b5090565b9056fea265627a7a7231582015007fa004b976c25f816ef497bcf01d638eebc546d43ac57cf976ba6001093064736f6c63430005100032",
  "source": "// SPDX-License-Identifier: MIT\r\npragma solidity >=0.4.21 <0.7.0;\r\n\r\ncontract Crowdfunding {\r\n    uint public totalFunding = 0;\r\n    Funding[] public allFundings; // \r\n    \r\n    // \r\n    struct Funding{\r\n        address payable sponsor;  // \r\n        string title;    // \r\n        string detail;   // \r\n        uint targetMoney;// \r\n        uint tempMoney;  // \r\n        uint totalMoney; // \r\n        uint endTime;    // \r\n        uint totalInvestors; // \r\n        bool isSuccess;  // \r\n        address payable[]  investors;  // \r\n        mapping(address => uint) investments; // \r\n        Request[] requests;\r\n    }\r\n\r\n    // \r\n    struct Request {\r\n        string purpose;  // \r\n        uint cost;      // \r\n        address payable shopAddress; // \r\n        uint agreeMoney; // \r\n        uint disagreeMoney; // \r\n        mapping(address => uint) investorVoted; //0: 12\r\n        uint status; /////0,1,2,3\r\n    }\r\n\r\n    // \r\n    function newFunding(address payable _sponsor, string memory _title, string memory _detail, uint _targetMoney, uint _endTime)public returns(uint){\r\n        // \r\n        require(_endTime > block.timestamp);\r\n        Funding storage f = allFundings[totalFunding];\r\n        f.sponsor = _sponsor;\r\n        f.title = _title;\r\n        f.detail = _detail;\r\n        f.targetMoney = _targetMoney;\r\n        f.tempMoney = 0;\r\n        f.totalMoney = 0;\r\n        f.endTime = _endTime;\r\n        f.totalInvestors = 0;\r\n        f.isSuccess = false;\r\n        totalFunding++;\r\n        return totalFunding;\r\n    }\r\n    \r\n    // \r\n    function invest(uint index) payable public {\r\n        // 0\r\n        require(msg.value > 0);\r\n        // \r\n        require(allFundings[index].endTime > block.timestamp);\r\n\r\n        Funding storage f = allFundings[index];\r\n        f.tempMoney += msg.value;\r\n        f.investors[f.totalInvestors] = msg.sender;\r\n        f.investments[msg.sender] += msg.value;\r\n        f.totalInvestors ++;\r\n        // \r\n        if(f.tempMoney >= f.targetMoney){\r\n            f.isSuccess = true;\r\n            f.totalMoney = f.tempMoney;\r\n        }\r\n    }\r\n\r\n    // \r\n    function refund(uint index) public{\r\n        // \r\n        require(allFundings[index].isSuccess == false);\r\n\r\n        Funding storage f = allFundings[index];\r\n        for(uint i=0; i < f.totalInvestors; i++){\r\n            f.investors[i].transfer(f.investments[f.investors[i]]);  // \r\n        }\r\n    }\r\n\r\n    // \r\n    function newRequest(uint index, string memory _purpose, uint _cost, address payable _shopAddress) public{\r\n        require(allFundings[index].isSuccess == true);\r\n        // \r\n        require(_cost <= allFundings[index].tempMoney);\r\n        // \r\n        require(msg.sender == allFundings[index].sponsor);\r\n\r\n        Request memory req = Request ({\r\n            purpose:_purpose,\r\n            cost:_cost,\r\n            shopAddress: _shopAddress,\r\n            agreeMoney:0,\r\n            disagreeMoney:0,\r\n            status:0\r\n        });\r\n        Funding storage f = allFundings[index];\r\n        f.requests.push(req);\r\n    }\r\n\r\n    // \r\n    function approveRequest(uint index, uint requestID, bool agree) public {\r\n        Funding storage f = allFundings[index];\r\n        require(f.investments[msg.sender] != 0);  // \r\n        Request storage req = f.requests[requestID];\r\n        require(req.investorVoted[msg.sender] == 0); // \r\n        require(req.status == 0); // \r\n\r\n        if(agree){\r\n            req.agreeMoney += f.investments[msg.sender];\r\n            req.investorVoted[msg.sender] == 1;\r\n        }\r\n        else{\r\n            req.disagreeMoney += f.investments[msg.sender];\r\n            req.investorVoted[msg.sender] == 2;\r\n        }\r\n\r\n        // 50%\r\n        if(req.agreeMoney*2 >= f.totalMoney){\r\n            req.status = 1;\r\n        }\r\n        // 50%\r\n        else if (req.disagreeMoney*2 >= f.totalMoney){\r\n            req.status = 2;\r\n        }\r\n    }\r\n\r\n    // \r\n    function finishRequest(uint index, uint requestID) public{\r\n        Funding storage f = allFundings[index];\r\n        Request storage req = f.requests[requestID];\r\n        // \r\n        require(req.cost <= allFundings[index].tempMoney);\r\n        require(req.status == 1);\r\n        // \r\n        req.shopAddress.transfer(req.cost);\r\n        // \r\n        req.status = 3;\r\n        // \r\n        f.tempMoney -= req.cost;\r\n    }\r\n\r\n    // \r\n    function getTempMoney(uint index) public view returns (uint) {\r\n        Funding storage f = allFundings[index];\r\n        return f.tempMoney;\r\n    }\r\n\r\n    // \r\n    function getInvestors(uint index) public view returns(address payable[] memory){\r\n        Funding storage f = allFundings[index];\r\n        return f.investors;\r\n    }\r\n\r\n    // \r\n    function getInvestorsCount(uint index) public view returns (uint) {\r\n        Funding storage f = allFundings[index];\r\n        return f.totalInvestors;\r\n    }\r\n\r\n    // \r\n    function getRemainTime(uint index) public view returns (uint) {\r\n        Funding storage f = allFundings[index];\r\n        return (f.endTime-now)/60/60/24;\r\n    }\r\n\r\n    // \r\n    function getRequestsCount(uint index) public view returns (uint) {\r\n        Funding storage f = allFundings[index];\r\n        return f.requests.length;\r\n    }\r\n\r\n    // \r\n    function getRequest(uint index, uint requestID)public view returns(string memory,uint,address payable,uint,uint,uint,uint) {\r\n        Funding storage f = allFundings[index];\r\n        Request storage req = f.requests[requestID];\r\n\r\n        uint isVoted = req.investorVoted[msg.sender];\r\n        return (req.purpose, req.cost, req.shopAddress, isVoted, req.agreeMoney, req.disagreeMoney, req.status);\r\n    }\r\n}",
  "sourcePath": "C:/Users/Sophy/Desktop//blockchainCourse/wangchenlu/finalWork/contracts/Crowdfunding.sol",
  "compiler": {
    "name": "solc",
    "version": "0.5.16+commit.9c3226ce.Emscripten.clang"
  },
  "schemaVersion": "3.3.3",
  "updatedAt": "2021-01-09T02:31:44.774Z",
  "networkType": "ethereum",
  "devdoc": {
    "methods": {}
  },
  "userdoc": {
    "methods": {}
  }
}