{
  "contractName": "Crowdfunding",
  "abi": [
    {
      "constant": true,
      "inputs": [
        {
          "internalType": "uint256",
          "name": "",
          "type": "uint256"
        }
      ],
      "name": "globalProjList",
      "outputs": [
        {
          "internalType": "uint256",
          "name": "need",
          "type": "uint256"
        },
        {
          "internalType": "uint256",
          "name": "curFund",
          "type": "uint256"
        },
        {
          "internalType": "uint256",
          "name": "deadLine",
          "type": "uint256"
        },
        {
          "internalType": "uint256",
          "name": "fundListLen",
          "type": "uint256"
        },
        {
          "internalType": "uint256",
          "name": "useListLen",
          "type": "uint256"
        },
        {
          "internalType": "bool",
          "name": "isFinished",
          "type": "bool"
        },
        {
          "internalType": "address payable",
          "name": "caller",
          "type": "address"
        },
        {
          "internalType": "string",
          "name": "name",
          "type": "string"
        },
        {
          "internalType": "string",
          "name": "info",
          "type": "string"
        }
      ],
      "payable": false,
      "stateMutability": "view",
      "type": "function"
    },
    {
      "constant": true,
      "inputs": [],
      "name": "globalProjListLen",
      "outputs": [
        {
          "internalType": "uint256",
          "name": "",
          "type": "uint256"
        }
      ],
      "payable": false,
      "stateMutability": "view",
      "type": "function"
    },
    {
      "constant": false,
      "inputs": [
        {
          "internalType": "address payable",
          "name": "caller",
          "type": "address"
        },
        {
          "internalType": "string",
          "name": "name",
          "type": "string"
        },
        {
          "internalType": "string",
          "name": "info",
          "type": "string"
        },
        {
          "internalType": "uint256",
          "name": "need",
          "type": "uint256"
        },
        {
          "internalType": "uint256",
          "name": "ddl",
          "type": "uint256"
        }
      ],
      "name": "createProject",
      "outputs": [],
      "payable": false,
      "stateMutability": "nonpayable",
      "type": "function"
    },
    {
      "constant": false,
      "inputs": [
        {
          "internalType": "uint256",
          "name": "idx",
          "type": "uint256"
        }
      ],
      "name": "fund",
      "outputs": [],
      "payable": true,
      "stateMutability": "payable",
      "type": "function"
    },
    {
      "constant": false,
      "inputs": [
        {
          "internalType": "uint256",
          "name": "idx",
          "type": "uint256"
        }
      ],
      "name": "withdraw",
      "outputs": [],
      "payable": true,
      "stateMutability": "payable",
      "type": "function"
    },
    {
      "constant": false,
      "inputs": [
        {
          "internalType": "uint256",
          "name": "idx",
          "type": "uint256"
        },
        {
          "internalType": "uint256",
          "name": "money",
          "type": "uint256"
        },
        {
          "internalType": "string",
          "name": "reason",
          "type": "string"
        }
      ],
      "name": "createUse",
      "outputs": [],
      "payable": false,
      "stateMutability": "nonpayable",
      "type": "function"
    },
    {
      "constant": false,
      "inputs": [
        {
          "internalType": "uint256",
          "name": "idx",
          "type": "uint256"
        },
        {
          "internalType": "uint256",
          "name": "uidx",
          "type": "uint256"
        },
        {
          "internalType": "bool",
          "name": "agree",
          "type": "bool"
        }
      ],
      "name": "agreeUse",
      "outputs": [],
      "payable": false,
      "stateMutability": "nonpayable",
      "type": "function"
    }
  ],
  "bytecode": "0x608060405234801561001057600080fd5b50610f7d806100206000396000f3fe6080604052600436106100705760003560e01c80635d43fa451161004e5780635d43fa45146101d0578063954d729a14610363578063ca1d209d146104e4578063fd6722d31461051257610070565b80632810053e146100755780632e1a7d4d1461015157806357531ea21461017f575b600080fd5b34801561008157600080fd5b5061014f6004803603606081101561009857600080fd5b810190808035906020019092919080359060200190929190803590602001906401000000008111156100c957600080fd5b8201836020820111156100db57600080fd5b803590602001918460018302840111640100000000831117156100fd57600080fd5b91908080601f016020809104026020016040519081016040528093929190818152602001838380828437600081840152601f19601f82011690508083019250505050505050919291929050505061053d565b005b61017d6004803603602081101561016757600080fd5b81019080803590602001909291905050506106cb565b005b34801561018b57600080fd5b506101ce600480360360608110156101a257600080fd5b81019080803590602001909291908035906020019092919080351515906020019092919050505061089e565b005b3480156101dc57600080fd5b50610361600480360360a08110156101f357600080fd5b81019080803573ffffffffffffffffffffffffffffffffffffffff1690602001909291908035906020019064010000000081111561023057600080fd5b82018360208201111561024257600080fd5b8035906020019184600183028401116401000000008311171561026457600080fd5b91908080601f016020809104026020016040519081016040528093929190818152602001838380828437600081840152601f19601f820116905080830192505050505050509192919290803590602001906401000000008111156102c757600080fd5b8201836020820111156102d957600080fd5b803590602001918460018302840111640100000000831117156102fb57600080fd5b91908080601f016020809104026020016040519081016040528093929190818152602001838380828437600081840152601f19601f8201169050808301925050505050505091929192908035906020019092919080359060200190929190505050610a8d565b005b34801561036f57600080fd5b5061039c6004803603602081101561038657600080fd5b8101908080359060200190929190505050610b98565b604051808a8152602001898152602001888152602001878152602001868152602001851515151581526020018473ffffffffffffffffffffffffffffffffffffffff1673ffffffffffffffffffffffffffffffffffffffff1681526020018060200180602001838103835285818151815260200191508051906020019080838360005b8381101561043a57808201518184015260208101905061041f565b50505050905090810190601f1680156104675780820380516001836020036101000a031916815260200191505b50838103825284818151815260200191508051906020019080838360005b838110156104a0578082015181840152602081019050610485565b50505050905090810190601f1680156104cd5780820380516001836020036101000a031916815260200191505b509b50505050505050505050505060405180910390f35b610510600480360360208110156104fa57600080fd5b8101908080359060200190929190505050610d43565b005b34801561051e57600080fd5b50610527610e9d565b6040518082815260200191505060405180910390f35b6001831015801561055057506001548311155b61055957600080fd5b60008084815260200190815260200160002060050160009054906101000a900460ff1661058557600080fd5b6000821180156105aa5750600080848152602001908152602001600020600101548211155b6105b357600080fd5b60008084815260200190815260200160002060050160019054906101000a900473ffffffffffffffffffffffffffffffffffffffff1673ffffffffffffffffffffffffffffffffffffffff163373ffffffffffffffffffffffffffffffffffffffff161461062057600080fd5b6000806000858152602001908152602001600020905060018160040160008282540192505081905550600081600901600083600401548152602001908152602001600020905083816000018190555082816003019080519060200190610687929190610ea3565b508160000154816001018190555060008160020160006101000a81548160ff0219169083151502179055508382600101600082825403925050819055505050505050565b600181101580156106de57506001548111155b6106e757600080fd5b60008082815260200190815260200160002060050160009054906101000a900460ff161561071457600080fd5b600080600083815260200190815260200160002090506000600190505b81600301548111610899573373ffffffffffffffffffffffffffffffffffffffff1682600801600083815260200190815260200160002060010160009054906101000a900473ffffffffffffffffffffffffffffffffffffffff1673ffffffffffffffffffffffffffffffffffffffff16141561088c5781600801600082815260200190815260200160002060010160009054906101000a900473ffffffffffffffffffffffffffffffffffffffff1673ffffffffffffffffffffffffffffffffffffffff166108fc836008016000848152602001908152602001600020600001549081150290604051600060405180830381858888f1935050505015801561083e573d6000803e3d6000fd5b50816008016000828152602001908152602001600020600001548260010160008282540392505081905550600082600801600083815260200190815260200160002060000181905550610899565b8080600101915050610731565b505050565b600183101580156108b157506001548311155b6108ba57600080fd5b600182101580156108e05750600080848152602001908152602001600020600401548211155b6108e957600080fd5b600080848152602001908152602001600020600901600083815260200190815260200160002060020160009054906101000a900460ff161561092a57600080fd5b600080600085815260200190815260200160002090506000600190505b8160040154811015610a86573373ffffffffffffffffffffffffffffffffffffffff1682600801600083815260200190815260200160002060010160009054906101000a900473ffffffffffffffffffffffffffffffffffffffff1673ffffffffffffffffffffffffffffffffffffffff161415610a7957600082600901600086815260200190815260200160002090508315610a0d57826008016000838152602001908152602001600020600001548160010160008282540192505081905550610a38565b8260080160008381526020019081526020016000206000015481600101600082825403925050819055505b6002600384600001540281610a4957fe5b0481600101541115610a735760018160020160006101000a81548160ff0219169083151502179055505b50610a86565b8080600101915050610947565b5050505050565b60008211610a9a57600080fd5b428111610aa657600080fd5b6001806000828254019250508190555060008060006001548152602001908152602001600020905082816000018190555060008160010181905550818160020181905550600081600301819055506000816004018190555060008160050160006101000a81548160ff021916908315150217905550858160050160016101000a81548173ffffffffffffffffffffffffffffffffffffffff021916908373ffffffffffffffffffffffffffffffffffffffff16021790555084816006019080519060200190610b76929190610ea3565b5083816007019080519060200190610b8f929190610ea3565b50505050505050565b60006020528060005260406000206000915090508060000154908060010154908060020154908060030154908060040154908060050160009054906101000a900460ff16908060050160019054906101000a900473ffffffffffffffffffffffffffffffffffffffff1690806006018054600181600116156101000203166002900480601f016020809104026020016040519081016040528092919081815260200182805460018160011615610100020316600290048015610c9b5780601f10610c7057610100808354040283529160200191610c9b565b820191906000526020600020905b815481529060010190602001808311610c7e57829003601f168201915b505050505090806007018054600181600116156101000203166002900480601f016020809104026020016040519081016040528092919081815260200182805460018160011615610100020316600290048015610d395780601f10610d0e57610100808354040283529160200191610d39565b820191906000526020600020905b815481529060010190602001808311610d1c57829003601f168201915b5050505050905089565b60018110158015610d5657506001548111155b610d5f57600080fd5b60003411610d6c57600080fd5b600080828152602001908152602001600020600201544210610d8d57600080fd5b60008082815260200190815260200160002060050160009054906101000a900460ff1615610dba57600080fd5b60008060008381526020019081526020016000209050348160010160008282540192505081905550600181600301600082825401925050819055506000816008016000836003015481526020019081526020016000209050338160010160006101000a81548173ffffffffffffffffffffffffffffffffffffffff021916908373ffffffffffffffffffffffffffffffffffffffff1602179055503481600001819055508160000154826001015410610e985760018260050160006101000a81548160ff021916908315150217905550816001015482600001819055505b505050565b60015481565b828054600181600116156101000203166002900490600052602060002090601f016020900481019282601f10610ee457805160ff1916838001178555610f12565b82800160010185558215610f12579182015b82811115610f11578251825591602001919060010190610ef6565b5b509050610f1f9190610f23565b5090565b610f4591905b80821115610f41576000816000905550600101610f29565b5090565b9056fea265627a7a72315820521064efe8e978d50501ff68143cbf102c148bc1471f62f2bb6393379c903d2c64736f6c63430005100032",
  "source": "// SPDX-License-Identifier: MIT\r\npragma solidity >=0.4.22 <0.9.0;\r\n\r\ncontract Crowdfunding {\r\n    // 投资记录\r\n    struct Fund {\r\n        uint256 money; // 投资数额\r\n        address payable funderAddr; // 投资人地址\r\n    }\r\n\r\n    // 使用记录\r\n    struct Use {\r\n        uint256 money; // 提取数额\r\n        uint256 agreeMoney; // 初始值为筹款总数，同意票将增加其值，否定票将减少其值\r\n        bool isFinished; // true表示成功\r\n        string reason; // 使用资金申请理由\r\n    }\r\n    // 众筹项目\r\n    struct Project {\r\n        uint256 need; // 需要筹集的总金额，若筹款成功且筹款大于原始need，need将被更新\r\n        uint256 curFund; // 当前筹集的金额\r\n        uint256 deadLine; // 项目结束时间\r\n        uint256 fundListLen; // 出资记录数\r\n        uint256 useListLen; // 使用记录数\r\n        bool isFinished; // true表示众筹已完成，false表示未完成\r\n        address payable caller; // 项目召集发起人\r\n        string name; // 项目名称\r\n        string info; // 项目简介\r\n        mapping(uint256 => Fund) fundList;\r\n        mapping(uint256 => Use) useList;\r\n    }\r\n\r\n    mapping(uint256 => Project) public globalProjList;\r\n    uint256 public globalProjListLen; // 众筹项目总数量\r\n\r\n    function createProject(\r\n        address payable caller,\r\n        string memory name,\r\n        string memory info,\r\n        uint256 need,\r\n        uint256 ddl\r\n    ) public {\r\n        // 约束条件：申请钱数大于0\r\n        require(need > 0);\r\n        // 约束条件：截止日期在未来\r\n        require(ddl > block.timestamp);\r\n\r\n        globalProjListLen += 1;\r\n        Project storage p = globalProjList[globalProjListLen];\r\n        p.need = need;\r\n        p.curFund = 0;\r\n        p.deadLine = ddl;\r\n        p.fundListLen = 0;\r\n        p.useListLen = 0;\r\n        p.isFinished = false;\r\n        p.caller = caller;\r\n        p.name = name;\r\n        p.info = info;\r\n    }\r\n\r\n    function fund(uint256 idx) public payable {\r\n        // 约束条件：idx合法，该众筹项目存在\r\n        require(idx >= 1 && idx <= globalProjListLen);\r\n        // 约束条件：投资必须大于0，允许超额\r\n        require(msg.value > 0);\r\n        // 约束条件：项目必须未截止\r\n        require(block.timestamp < globalProjList[idx].deadLine);\r\n        // 约束条件：项目必须未完成\r\n        require(!globalProjList[idx].isFinished);\r\n\r\n        Project storage p = globalProjList[idx];\r\n        p.curFund += msg.value;\r\n        p.fundListLen += 1;\r\n        Fund storage f = p.fundList[p.fundListLen];\r\n        f.funderAddr = msg.sender;\r\n        f.money = msg.value;\r\n\r\n        // 判断是否完成筹资\r\n        if (p.curFund >= p.need) {\r\n            p.isFinished = true;\r\n            p.need = p.curFund; // 更新need为历史最大值\r\n        }\r\n    }\r\n\r\n    function withdraw(uint256 idx) public payable {\r\n        // 约束条件：idx合法，该众筹项目存在\r\n        require(idx >= 1 && idx <= globalProjListLen);\r\n        // 约束条件：项目必须未完成\r\n        require(!globalProjList[idx].isFinished);\r\n\r\n        Project storage p = globalProjList[idx];\r\n        for (uint256 i = 1; i <= p.fundListLen; i++) {\r\n            if (p.fundList[i].funderAddr == msg.sender) {\r\n                p.fundList[i].funderAddr.transfer(p.fundList[i].money);\r\n                p.curFund -= p.fundList[i].money;\r\n                p.fundList[i].money = 0;\r\n                break;\r\n            }\r\n        }\r\n    }\r\n\r\n    function createUse(\r\n        uint256 idx,\r\n        uint256 money,\r\n        string memory reason\r\n    ) public {\r\n        // 约束条件：idx合法\r\n        require(idx >= 1 && idx <= globalProjListLen);\r\n        // 约束条件：项目已完成\r\n        require(globalProjList[idx].isFinished);\r\n        // 约束条件：申请金额大于0，小于等于余额\r\n        require(money > 0 && money <= globalProjList[idx].curFund);\r\n        // 约束条件：申请人是发起人\r\n        require(msg.sender == globalProjList[idx].caller);\r\n\r\n        Project storage p = globalProjList[idx];\r\n        p.useListLen += 1;\r\n        Use storage u = p.useList[p.useListLen];\r\n        u.money = money;\r\n        u.reason = reason;\r\n        u.agreeMoney = p.need; // 初始值为need，同意票将增加其值，否定票将减少其值\r\n        u.isFinished = false;\r\n\r\n        p.curFund -= money;\r\n    }\r\n\r\n    function agreeUse(\r\n        uint256 idx,\r\n        uint256 uidx,\r\n        bool agree\r\n    ) public {\r\n        // 约束条件：idx合法\r\n        require(idx >= 1 && idx <= globalProjListLen);\r\n        // 约束条件：uidx合法\r\n        require(uidx >= 1 && uidx <= globalProjList[idx].useListLen);\r\n        // 约束条件：使用请求未批准\r\n        require(!globalProjList[idx].useList[uidx].isFinished);\r\n\r\n        Project storage p = globalProjList[idx];\r\n        for (uint256 fidx = 1; fidx < p.useListLen; fidx++) {\r\n            // 资助者才能投票\r\n            if (p.fundList[fidx].funderAddr == msg.sender) {\r\n                Use storage u = p.useList[uidx];\r\n                if (agree) {\r\n                    u.agreeMoney += p.fundList[fidx].money;\r\n                } else {\r\n                    u.agreeMoney -= p.fundList[fidx].money;\r\n                }\r\n\r\n                // 检查是否已经合格\r\n                if (u.agreeMoney > (p.need * 3) / 2) u.isFinished = true;\r\n                break;\r\n            }\r\n        }\r\n    }\r\n}\r\n",
  "sourcePath": "D:/Work/repos/blockchainCourse/xukeyue/finalWork/contracts/CrowdFunding.sol",
  "compiler": {
    "name": "solc",
    "version": "0.5.16+commit.9c3226ce.Emscripten.clang"
  },
  "schemaVersion": "3.3.3",
  "updatedAt": "2021-01-11T17:16:40.160Z",
  "networkType": "ethereum",
  "devdoc": {
    "methods": {}
  },
  "userdoc": {
    "methods": {}
  }
}