{
  "contractName": "Crowdfunding",
  "abi": [
    {
      "inputs": [
        {
          "internalType": "string",
          "name": "_projAbstract",
          "type": "string"
        },
        {
          "internalType": "string",
          "name": "_projectDescription",
          "type": "string"
        },
        {
          "internalType": "uint256",
          "name": "_startTime",
          "type": "uint256"
        },
        {
          "internalType": "uint256",
          "name": "_endTime",
          "type": "uint256"
        },
        {
          "internalType": "uint256",
          "name": "_riseAmount",
          "type": "uint256"
        }
      ],
      "payable": false,
      "stateMutability": "nonpayable",
      "type": "constructor"
    },
    {
      "constant": true,
      "inputs": [],
      "name": "owner",
      "outputs": [
        {
          "internalType": "address",
          "name": "",
          "type": "address"
        }
      ],
      "payable": false,
      "stateMutability": "view",
      "type": "function"
    },
    {
      "constant": false,
      "inputs": [
        {
          "internalType": "uint256",
          "name": "amount",
          "type": "uint256"
        },
        {
          "internalType": "address",
          "name": "addr",
          "type": "address"
        }
      ],
      "name": "Parcipate",
      "outputs": [],
      "payable": true,
      "stateMutability": "payable",
      "type": "function"
    },
    {
      "constant": true,
      "inputs": [],
      "name": "ProjectStatus",
      "outputs": [
        {
          "internalType": "bool",
          "name": "",
          "type": "bool"
        }
      ],
      "payable": false,
      "stateMutability": "view",
      "type": "function"
    },
    {
      "constant": true,
      "inputs": [],
      "name": "GetProjectInfo",
      "outputs": [
        {
          "internalType": "address",
          "name": "",
          "type": "address"
        },
        {
          "internalType": "string",
          "name": "",
          "type": "string"
        },
        {
          "internalType": "string",
          "name": "",
          "type": "string"
        },
        {
          "internalType": "uint256",
          "name": "",
          "type": "uint256"
        },
        {
          "internalType": "uint256",
          "name": "",
          "type": "uint256"
        },
        {
          "internalType": "uint256",
          "name": "",
          "type": "uint256"
        },
        {
          "internalType": "uint256",
          "name": "",
          "type": "uint256"
        },
        {
          "internalType": "bool",
          "name": "",
          "type": "bool"
        },
        {
          "internalType": "address[]",
          "name": "",
          "type": "address[]"
        },
        {
          "internalType": "uint256[]",
          "name": "",
          "type": "uint256[]"
        }
      ],
      "payable": false,
      "stateMutability": "view",
      "type": "function"
    },
    {
      "constant": false,
      "inputs": [
        {
          "internalType": "string",
          "name": "title",
          "type": "string"
        }
      ],
      "name": "CreateBallot",
      "outputs": [],
      "payable": false,
      "stateMutability": "nonpayable",
      "type": "function"
    },
    {
      "constant": false,
      "inputs": [
        {
          "internalType": "address",
          "name": "addr",
          "type": "address"
        }
      ],
      "name": "AgreeBallot",
      "outputs": [],
      "payable": false,
      "stateMutability": "nonpayable",
      "type": "function"
    },
    {
      "constant": false,
      "inputs": [
        {
          "internalType": "address",
          "name": "addr",
          "type": "address"
        }
      ],
      "name": "DisagreeBallot",
      "outputs": [],
      "payable": false,
      "stateMutability": "nonpayable",
      "type": "function"
    },
    {
      "constant": true,
      "inputs": [],
      "name": "GetBallotStatus",
      "outputs": [
        {
          "internalType": "string",
          "name": "",
          "type": "string"
        },
        {
          "internalType": "uint256",
          "name": "",
          "type": "uint256"
        },
        {
          "internalType": "uint256",
          "name": "",
          "type": "uint256"
        },
        {
          "internalType": "uint256",
          "name": "",
          "type": "uint256"
        }
      ],
      "payable": false,
      "stateMutability": "view",
      "type": "function"
    }
  ],
  "bytecode": "0x60806040526000600760006101000a81548160ff0219169083151502179055503480156200002c57600080fd5b50604051620011f7380380620011f7833981810160405260a08110156200005257600080fd5b81019080805160405193929190846401000000008211156200007357600080fd5b838201915060208201858111156200008a57600080fd5b8251866001820283011164010000000082111715620000a857600080fd5b8083526020830192505050908051906020019080838360005b83811015620000de578082015181840152602081019050620000c1565b50505050905090810190601f1680156200010c5780820380516001836020036101000a031916815260200191505b50604052602001805160405193929190846401000000008211156200013057600080fd5b838201915060208201858111156200014757600080fd5b82518660018202830111640100000000821117156200016557600080fd5b8083526020830192505050908051906020019080838360005b838110156200019b5780820151818401526020810190506200017e565b50505050905090810190601f168015620001c95780820380516001836020036101000a031916815260200191505b50604052602001805190602001909291908051906020019092919080519060200190929190505050336000806101000a81548173ffffffffffffffffffffffffffffffffffffffff021916908373ffffffffffffffffffffffffffffffffffffffff1602179055508460019080519060200190620002499291906200028b565b508360029080519060200190620002629291906200028b565b50826003819055508160048190555080600581905550600060068190555050505050506200033a565b828054600181600116156101000203166002900490600052602060002090601f016020900481019282601f10620002ce57805160ff1916838001178555620002ff565b82800160010185558215620002ff579182015b82811115620002fe578251825591602001919060010190620002e1565b5b5090506200030e919062000312565b5090565b6200033791905b808211156200033357600081600090555060010162000319565b5090565b90565b610ead806200034a6000396000f3fe60806040526004361061007b5760003560e01c80638da5cb5b1161004e5780638da5cb5b146104245780639ec586621461047b578063f87dd472146104c9578063ff4bd355146104f85761007b565b8063017e0f6f146100805780631f2060b21461014857806338babe3e146101ed5780633958e0321461023e575b600080fd5b34801561008c57600080fd5b50610146600480360360208110156100a357600080fd5b81019080803590602001906401000000008111156100c057600080fd5b8201836020820111156100d257600080fd5b803590602001918460018302840111640100000000831117156100f457600080fd5b91908080601f016020809104026020016040519081016040528093929190818152602001838380828437600081840152601f19601f820116905080830192505050505050509192919290505050610549565b005b34801561015457600080fd5b5061015d610563565b6040518080602001858152602001848152602001838152602001828103825286818151815260200191508051906020019080838360005b838110156101af578082015181840152602081019050610194565b50505050905090810190601f1680156101dc5780820380516001836020036101000a031916815260200191505b509550505050505060405180910390f35b3480156101f957600080fd5b5061023c6004803603602081101561021057600080fd5b81019080803573ffffffffffffffffffffffffffffffffffffffff16906020019092919050505061061f565b005b34801561024a57600080fd5b506102536106ff565b604051808b73ffffffffffffffffffffffffffffffffffffffff1673ffffffffffffffffffffffffffffffffffffffff16815260200180602001806020018a815260200189815260200188815260200187815260200186151515158152602001806020018060200185810385528e818151815260200191508051906020019080838360005b838110156102f35780820151818401526020810190506102d8565b50505050905090810190601f1680156103205780820380516001836020036101000a031916815260200191505b5085810384528d818151815260200191508051906020019080838360005b8381101561035957808201518184015260208101905061033e565b50505050905090810190601f1680156103865780820380516001836020036101000a031916815260200191505b50858103835287818151815260200191508051906020019060200280838360005b838110156103c25780820151818401526020810190506103a7565b50505050905001858103825286818151815260200191508051906020019060200280838360005b838110156104045780820151818401526020810190506103e9565b505050509050019e50505050505050505050505050505060405180910390f35b34801561043057600080fd5b50610439610987565b604051808273ffffffffffffffffffffffffffffffffffffffff1673ffffffffffffffffffffffffffffffffffffffff16815260200191505060405180910390f35b6104c76004803603604081101561049157600080fd5b8101908080359060200190929190803573ffffffffffffffffffffffffffffffffffffffff1690602001909291905050506109ac565b005b3480156104d557600080fd5b506104de610cbd565b604051808215151515815260200191505060405180910390f35b34801561050457600080fd5b506105476004803603602081101561051b57600080fd5b81019080803573ffffffffffffffffffffffffffffffffffffffff169060200190929190505050610cd4565b005b80600a908051906020019061055f929190610dd3565b5050565b60606000806000600a600b54600c54600654838054600181600116156101000203166002900480601f01602080910402602001604051908101604052809291908181526020018280546001816001161561010002031660029004801561060a5780601f106105df5761010080835404028352916020019161060a565b820191906000526020600020905b8154815290600101906020018083116105ed57829003601f168201915b50505050509350935093509350935090919293565b6000600e60008373ffffffffffffffffffffffffffffffffffffffff1673ffffffffffffffffffffffffffffffffffffffff1681526020019081526020016000205414156106fc57600d60008273ffffffffffffffffffffffffffffffffffffffff1673ffffffffffffffffffffffffffffffffffffffff16815260200190815260200160002054600b600082825401925050819055506001600e60008373ffffffffffffffffffffffffffffffffffffffff1673ffffffffffffffffffffffffffffffffffffffff168152602001908152602001600020819055505b50565b600060608060008060008060006060806000809054906101000a900473ffffffffffffffffffffffffffffffffffffffff1660016002600354600454600554600654600760009054906101000a900460ff1660086009888054600181600116156101000203166002900480601f0160208091040260200160405190810160405280929190818152602001828054600181600116156101000203166002900480156107ea5780601f106107bf576101008083540402835291602001916107ea565b820191906000526020600020905b8154815290600101906020018083116107cd57829003601f168201915b50505050509850878054600181600116156101000203166002900480601f0160208091040260200160405190810160405280929190818152602001828054600181600116156101000203166002900480156108865780601f1061085b57610100808354040283529160200191610886565b820191906000526020600020905b81548152906001019060200180831161086957829003601f168201915b505050505097508180548060200260200160405190810160405280929190818152602001828054801561090e57602002820191906000526020600020905b8160009054906101000a900473ffffffffffffffffffffffffffffffffffffffff1673ffffffffffffffffffffffffffffffffffffffff16815260200190600101908083116108c4575b505050505091508080548060200260200160405190810160405280929190818152602001828054801561096057602002820191906000526020600020905b81548152602001906001019080831161094c575b50505050509050995099509950995099509950995099509950995090919293949596979899565b6000809054906101000a900473ffffffffffffffffffffffffffffffffffffffff1681565b81600660008282540192505081905550600554600654106109e3576001600760006101000a81548160ff0219169083151502179055505b60008090505b600880549050811015610b9c578173ffffffffffffffffffffffffffffffffffffffff1660088281548110610a1a57fe5b9060005260206000200160009054906101000a900473ffffffffffffffffffffffffffffffffffffffff1673ffffffffffffffffffffffffffffffffffffffff161415610b8f576000600e60008473ffffffffffffffffffffffffffffffffffffffff1673ffffffffffffffffffffffffffffffffffffffff1681526020019081526020016000205414610b17576000600e60008473ffffffffffffffffffffffffffffffffffffffff1673ffffffffffffffffffffffffffffffffffffffff168152602001908152602001600020541215610b055782600c60008282540192505081905550610b16565b82600b600082825401925050819055505b5b82600d60008473ffffffffffffffffffffffffffffffffffffffff1673ffffffffffffffffffffffffffffffffffffffff168152602001908152602001600020600082825401925050819055508260098281548110610b7257fe5b906000526020600020016000828254019250508190555050610cb9565b80806001019150506109e9565b5060088190806001815401808255809150509060018203906000526020600020016000909192909190916101000a81548173ffffffffffffffffffffffffffffffffffffffff021916908373ffffffffffffffffffffffffffffffffffffffff1602179055505060098290806001815401808255809150509060018203906000526020600020016000909192909190915055506000600e60008373ffffffffffffffffffffffffffffffffffffffff1673ffffffffffffffffffffffffffffffffffffffff1681526020019081526020016000208190555081600d60008373ffffffffffffffffffffffffffffffffffffffff1673ffffffffffffffffffffffffffffffffffffffff168152602001908152602001600020819055505b5050565b6000600760009054906101000a900460ff16905090565b6000600e60008373ffffffffffffffffffffffffffffffffffffffff1673ffffffffffffffffffffffffffffffffffffffff168152602001908152602001600020541415610dd057600d60008273ffffffffffffffffffffffffffffffffffffffff1673ffffffffffffffffffffffffffffffffffffffff16815260200190815260200160002054600c600082825401925050819055507fffffffffffffffffffffffffffffffffffffffffffffffffffffffffffffffff600e60008373ffffffffffffffffffffffffffffffffffffffff1673ffffffffffffffffffffffffffffffffffffffff168152602001908152602001600020819055505b50565b828054600181600116156101000203166002900490600052602060002090601f016020900481019282601f10610e1457805160ff1916838001178555610e42565b82800160010185558215610e42579182015b82811115610e41578251825591602001919060010190610e26565b5b509050610e4f9190610e53565b5090565b610e7591905b80821115610e71576000816000905550600101610e59565b5090565b9056fea265627a7a72315820e235034ed3b29dd23e107d3362542ec51889f109dae3ceebd18f031094d9641864736f6c63430005100032",
  "source": "// SPDX-License-Identifier: MIT\npragma solidity >=0.4.22 <0.9.0;\n\ncontract Crowdfunding {\n    address public owner;\n    string projectAbstract;\n    string projectDescription;\n    uint startTime;\n    uint endTime;\n    uint riseAmount;\n    uint currentAmount;\n    bool isFinished = false;\n    address[] participants;\n    uint[] amounts;\n\n    string BallotTitle;\n    uint AgreeAmount; \n    uint DisagreeAmount;\n    mapping(address => uint) ballotAbility;\n    mapping(address => int) balloted; // 没有投过票：0 反对：-1 同意：1\n\n    // 构造函数 初始化众筹项目\n    constructor(string memory _projAbstract, string memory _projectDescription, uint _startTime,\n                uint _endTime, uint _riseAmount) public {\n        owner = msg.sender;\n        projectAbstract = _projAbstract;\n        projectDescription = _projectDescription;\n        startTime = _startTime;\n        endTime = _endTime;\n        riseAmount = _riseAmount;\n        currentAmount = 0;\n    }\n\n    // 处理用户的投资行为\n    function Parcipate(uint amount, address addr) public payable {\n        // 判断此次投资之后众筹项目的状态\n        currentAmount += amount;\n        if(currentAmount >= riseAmount) {\n            isFinished = true;\n        }\n\n        // 如果用户已经不是首次投资\n        for(uint i = 0; i < participants.length; i++) {\n            if(participants[i] == addr) {\n                // 如果已经进行过投票，更新用户投票的权值\n                if(balloted[addr] != 0) {\n                    if(balloted[addr] < 0) {\n                        DisagreeAmount += amount;\n                    }\n                    else {\n                        AgreeAmount += amount;\n                    }\n                }\n                ballotAbility[addr] += amount;\n                amounts[i] += amount;\n                return;\n            }\n        }\n\n        // 如果用户是首次投资\n        // 初始化用户状态\n        participants.push(addr);\n        amounts.push(amount);\n        balloted[addr] = 0;\n        ballotAbility[addr] = amount;\n    }\n\n    function ProjectStatus() public view returns(bool) {\n        return isFinished;\n    }\n\n    // 获取项目的基本信息\n    function GetProjectInfo() \n    public view returns(address, string memory, string memory, uint, uint, uint, uint, bool, address[] memory, uint[] memory) {\n        return (owner,projectAbstract,projectDescription,startTime,\n        endTime,riseAmount,currentAmount,isFinished,participants,amounts);\n    }\n\n    // 创建投票请求\n    function CreateBallot(string memory title) public {\n        BallotTitle = title;\n    }\n\n    // 处理投资人的同意请求\n    function AgreeBallot(address addr) public {\n        if(balloted[addr] == 0) {\n            AgreeAmount += ballotAbility[addr];\n            balloted[addr] = 1;\n        }\n    }\n\n    // 处理投资人的否决请求\n    function DisagreeBallot(address addr) public {\n        if(balloted[addr] == 0) {\n            DisagreeAmount += ballotAbility[addr];\n            balloted[addr] = -1;\n        }\n    }\n\n    function GetBallotStatus() public view returns(string memory, uint, uint, uint){\n        return (BallotTitle, AgreeAmount, DisagreeAmount, currentAmount);\n    }\n}",
  "sourcePath": "/home/leslie/blockchainCourse/guozejun/finalwork/contracts/Crowdfunding.sol",
  "compiler": {
    "name": "solc",
    "version": "0.5.16+commit.9c3226ce.Emscripten.clang"
  },
  "schemaVersion": "3.3.3",
  "updatedAt": "2021-01-07T10:24:05.161Z",
  "devdoc": {
    "methods": {}
  },
  "userdoc": {
    "methods": {}
  }
}