{
  "contractName": "CrowdFunding",
  "abi": [
    {
      "constant": true,
      "inputs": [
        {
          "internalType": "uint256",
          "name": "",
          "type": "uint256"
        }
      ],
      "name": "fundings",
      "outputs": [
        {
          "internalType": "address payable",
          "name": "initiator",
          "type": "address"
        },
        {
          "internalType": "string",
          "name": "title",
          "type": "string"
        },
        {
          "internalType": "string",
          "name": "info",
          "type": "string"
        },
        {
          "internalType": "uint256",
          "name": "goal",
          "type": "uint256"
        },
        {
          "internalType": "uint256",
          "name": "endTime",
          "type": "uint256"
        },
        {
          "internalType": "bool",
          "name": "success",
          "type": "bool"
        },
        {
          "internalType": "uint256",
          "name": "amount",
          "type": "uint256"
        },
        {
          "internalType": "uint256",
          "name": "numFunders",
          "type": "uint256"
        },
        {
          "internalType": "uint256",
          "name": "numUses",
          "type": "uint256"
        }
      ],
      "payable": false,
      "stateMutability": "view",
      "type": "function"
    },
    {
      "constant": true,
      "inputs": [],
      "name": "numFundings",
      "outputs": [
        {
          "internalType": "uint256",
          "name": "",
          "type": "uint256"
        }
      ],
      "payable": false,
      "stateMutability": "view",
      "type": "function"
    },
    {
      "constant": true,
      "inputs": [],
      "name": "owner",
      "outputs": [
        {
          "internalType": "address",
          "name": "",
          "type": "address"
        }
      ],
      "payable": false,
      "stateMutability": "view",
      "type": "function"
    },
    {
      "constant": false,
      "inputs": [
        {
          "internalType": "uint256",
          "name": "amount",
          "type": "uint256"
        },
        {
          "internalType": "address",
          "name": "addr",
          "type": "address"
        }
      ],
      "name": "Parcipate",
      "outputs": [],
      "payable": true,
      "stateMutability": "payable",
      "type": "function"
    },
    {
      "constant": true,
      "inputs": [],
      "name": "ProjectStatus",
      "outputs": [
        {
          "internalType": "bool",
          "name": "",
          "type": "bool"
        }
      ],
      "payable": false,
      "stateMutability": "view",
      "type": "function"
    },
    {
      "constant": false,
      "inputs": [
        {
          "internalType": "string",
          "name": "title",
          "type": "string"
        }
      ],
      "name": "CreateBallot",
      "outputs": [],
      "payable": false,
      "stateMutability": "nonpayable",
      "type": "function"
    },
    {
      "constant": false,
      "inputs": [
        {
          "internalType": "address",
          "name": "addr",
          "type": "address"
        }
      ],
      "name": "AgreeBallot",
      "outputs": [],
      "payable": false,
      "stateMutability": "nonpayable",
      "type": "function"
    },
    {
      "constant": false,
      "inputs": [
        {
          "internalType": "address",
          "name": "addr",
          "type": "address"
        }
      ],
      "name": "DisagreeBallot",
      "outputs": [],
      "payable": false,
      "stateMutability": "nonpayable",
      "type": "function"
    },
    {
      "constant": true,
      "inputs": [],
      "name": "GetBallotStatus",
      "outputs": [
        {
          "internalType": "string",
          "name": "",
          "type": "string"
        },
        {
          "internalType": "uint256",
          "name": "",
          "type": "uint256"
        },
        {
          "internalType": "uint256",
          "name": "",
          "type": "uint256"
        },
        {
          "internalType": "uint256",
          "name": "",
          "type": "uint256"
        }
      ],
      "payable": false,
      "stateMutability": "view",
      "type": "function"
    },
    {
      "constant": false,
      "inputs": [
        {
          "internalType": "address payable",
          "name": "initiator",
          "type": "address"
        },
        {
          "internalType": "string",
          "name": "title",
          "type": "string"
        },
        {
          "internalType": "string",
          "name": "info",
          "type": "string"
        },
        {
          "internalType": "uint256",
          "name": "goal",
          "type": "uint256"
        },
        {
          "internalType": "uint256",
          "name": "endTime",
          "type": "uint256"
        }
      ],
      "name": "newFunding",
      "outputs": [
        {
          "internalType": "uint256",
          "name": "",
          "type": "uint256"
        }
      ],
      "payable": false,
      "stateMutability": "nonpayable",
      "type": "function"
    },
    {
      "constant": false,
      "inputs": [
        {
          "internalType": "uint256",
          "name": "ID",
          "type": "uint256"
        }
      ],
      "name": "contribute",
      "outputs": [],
      "payable": true,
      "stateMutability": "payable",
      "type": "function"
    },
    {
      "constant": false,
      "inputs": [
        {
          "internalType": "uint256",
          "name": "ID",
          "type": "uint256"
        }
      ],
      "name": "contribute12",
      "outputs": [],
      "payable": true,
      "stateMutability": "payable",
      "type": "function"
    },
    {
      "constant": false,
      "inputs": [
        {
          "internalType": "uint256",
          "name": "ID",
          "type": "uint256"
        }
      ],
      "name": "returnMoney",
      "outputs": [],
      "payable": false,
      "stateMutability": "nonpayable",
      "type": "function"
    },
    {
      "constant": false,
      "inputs": [
        {
          "internalType": "uint256",
          "name": "ID",
          "type": "uint256"
        }
      ],
      "name": "returnMoney12",
      "outputs": [],
      "payable": false,
      "stateMutability": "nonpayable",
      "type": "function"
    },
    {
      "constant": false,
      "inputs": [
        {
          "internalType": "uint256",
          "name": "ID",
          "type": "uint256"
        }
      ],
      "name": "contribute13",
      "outputs": [],
      "payable": true,
      "stateMutability": "payable",
      "type": "function"
    },
    {
      "constant": false,
      "inputs": [
        {
          "internalType": "uint256",
          "name": "ID",
          "type": "uint256"
        },
        {
          "internalType": "uint256",
          "name": "goal",
          "type": "uint256"
        },
        {
          "internalType": "string",
          "name": "info",
          "type": "string"
        }
      ],
      "name": "newUse",
      "outputs": [],
      "payable": false,
      "stateMutability": "nonpayable",
      "type": "function"
    },
    {
      "constant": false,
      "inputs": [
        {
          "internalType": "uint256",
          "name": "ID",
          "type": "uint256"
        }
      ],
      "name": "returnMoney13",
      "outputs": [],
      "payable": false,
      "stateMutability": "nonpayable",
      "type": "function"
    },
    {
      "constant": false,
      "inputs": [
        {
          "internalType": "uint256",
          "name": "ID",
          "type": "uint256"
        },
        {
          "internalType": "uint256",
          "name": "useID",
          "type": "uint256"
        },
        {
          "internalType": "bool",
          "name": "agree",
          "type": "bool"
        }
      ],
      "name": "agreeUse",
      "outputs": [],
      "payable": false,
      "stateMutability": "nonpayable",
      "type": "function"
    },
    {
      "constant": false,
      "inputs": [
        {
          "internalType": "uint256",
          "name": "ID",
          "type": "uint256"
        }
      ],
      "name": "test12",
      "outputs": [],
      "payable": true,
      "stateMutability": "payable",
      "type": "function"
    },
    {
      "constant": false,
      "inputs": [
        {
          "internalType": "uint256",
          "name": "ID",
          "type": "uint256"
        },
        {
          "internalType": "uint256",
          "name": "useID",
          "type": "uint256"
        }
      ],
      "name": "checkUse",
      "outputs": [],
      "payable": false,
      "stateMutability": "nonpayable",
      "type": "function"
    },
    {
      "constant": false,
      "inputs": [
        {
          "internalType": "uint256",
          "name": "ID",
          "type": "uint256"
        },
        {
          "internalType": "uint256",
          "name": "useID",
          "type": "uint256"
        }
      ],
      "name": "checkUse12",
      "outputs": [],
      "payable": false,
      "stateMutability": "nonpayable",
      "type": "function"
    },
    {
      "constant": true,
      "inputs": [
        {
          "internalType": "uint256",
          "name": "ID",
          "type": "uint256"
        }
      ],
      "name": "getUseLength",
      "outputs": [
        {
          "internalType": "uint256",
          "name": "",
          "type": "uint256"
        }
      ],
      "payable": false,
      "stateMutability": "view",
      "type": "function"
    },
    {
      "constant": false,
      "inputs": [
        {
          "internalType": "uint256",
          "name": "ID",
          "type": "uint256"
        }
      ],
      "name": "test5",
      "outputs": [],
      "payable": true,
      "stateMutability": "payable",
      "type": "function"
    },
    {
      "constant": true,
      "inputs": [
        {
          "internalType": "uint256",
          "name": "ID",
          "type": "uint256"
        },
        {
          "internalType": "uint256",
          "name": "useID",
          "type": "uint256"
        },
        {
          "internalType": "address",
          "name": "addr",
          "type": "address"
        }
      ],
      "name": "getUse",
      "outputs": [
        {
          "internalType": "string",
          "name": "",
          "type": "string"
        },
        {
          "internalType": "uint256",
          "name": "",
          "type": "uint256"
        },
        {
          "internalType": "uint256",
          "name": "",
          "type": "uint256"
        },
        {
          "internalType": "uint256",
          "name": "",
          "type": "uint256"
        },
        {
          "internalType": "bool",
          "name": "",
          "type": "bool"
        },
        {
          "internalType": "uint256",
          "name": "",
          "type": "uint256"
        }
      ],
      "payable": false,
      "stateMutability": "view",
      "type": "function"
    },
    {
      "constant": false,
      "inputs": [
        {
          "internalType": "uint256",
          "name": "ID",
          "type": "uint256"
        }
      ],
      "name": "test4",
      "outputs": [],
      "payable": true,
      "stateMutability": "payable",
      "type": "function"
    },
    {
      "constant": true,
      "inputs": [],
      "name": "getBalance",
      "outputs": [
        {
          "internalType": "uint256",
          "name": "",
          "type": "uint256"
        }
      ],
      "payable": false,
      "stateMutability": "view",
      "type": "function"
    },
    {
      "constant": false,
      "inputs": [
        {
          "internalType": "uint256",
          "name": "ID",
          "type": "uint256"
        }
      ],
      "name": "test3",
      "outputs": [],
      "payable": true,
      "stateMutability": "payable",
      "type": "function"
    },
    {
      "constant": true,
      "inputs": [
        {
          "internalType": "address",
          "name": "addr",
          "type": "address"
        },
        {
          "internalType": "uint256",
          "name": "ID",
          "type": "uint256"
        }
      ],
      "name": "getMyFundings",
      "outputs": [
        {
          "internalType": "uint256",
          "name": "",
          "type": "uint256"
        }
      ],
      "payable": false,
      "stateMutability": "view",
      "type": "function"
    }
  ],
  "bytecode": "0x60806040526000600660006101000a81548160ff02191690831515021790555034801561002b57600080fd5b5061376a8061003b6000396000f3fe6080604052600436106101b75760003560e01c80638931e78d116100ec578063c70a2d791161008a578063ee40f60d11610064578063ee40f60d14610bd7578063f7adc48f14610cdc578063f87dd47214610d0a578063ff4bd35514610d39576101b7565b8063c70a2d79146109f0578063d13cb1fb14610a1b578063eb6b55a414610b9c576101b7565b80638f74935f116100c65780638f74935f1461079f5780639ec5866214610946578063bfd67d8b14610994578063c1cbbca7146109c2576101b7565b80638931e78d146106d55780638a23e047146107035780638da5cb5b14610748576101b7565b80633785fc1a1161015957806351d523fb1161013357806351d523fb146105a257806357531ea2146105e7578063716f7147146106385780637e123eeb146106a7576101b7565b80633785fc1a146104c757806338babe3e146105025780633c69834914610553576101b7565b8063164b2fb311610195578063164b2fb3146102dd578063184857c0146103b95780631f2060b2146103e75780633703e3f41461048c576101b7565b8063017e0f6f146101bc57806312065fe01461028457806314c1987a146102af575b600080fd5b3480156101c857600080fd5b50610282600480360360208110156101df57600080fd5b81019080803590602001906401000000008111156101fc57600080fd5b82018360208201111561020e57600080fd5b8035906020019184600183028401116401000000008311171561023057600080fd5b91908080601f016020809104026020016040519081016040528093929190818152602001838380828437600081840152601f19601f820116905080830192505050505050509192919290505050610d8a565b005b34801561029057600080fd5b50610299610da4565b6040518082815260200191505060405180910390f35b6102db600480360360208110156102c557600080fd5b8101908080359060200190929190505050610dac565b005b3480156102e957600080fd5b506103b76004803603606081101561030057600080fd5b8101908080359060200190929190803590602001909291908035906020019064010000000081111561033157600080fd5b82018360208201111561034357600080fd5b8035906020019184600183028401116401000000008311171561036557600080fd5b91908080601f016020809104026020016040519081016040528093929190818152602001838380828437600081840152601f19601f820116905080830192505050505050509192919290505050610f36565b005b6103e5600480360360208110156103cf57600080fd5b810190808035906020019092919050505061111e565b005b3480156103f357600080fd5b506103fc6112a8565b6040518080602001858152602001848152602001838152602001828103825286818151815260200191508051906020019080838360005b8381101561044e578082015181840152602081019050610433565b50505050905090810190601f16801561047b5780820380516001836020036101000a031916815260200191505b509550505050505060405180910390f35b34801561049857600080fd5b506104c5600480360360208110156104af57600080fd5b8101908080359060200190929190505050611364565b005b3480156104d357600080fd5b50610500600480360360208110156104ea57600080fd5b81019080803590602001909291905050506115f7565b005b34801561050e57600080fd5b506105516004803603602081101561052557600080fd5b81019080803573ffffffffffffffffffffffffffffffffffffffff1690602001909291905050506117ce565b005b34801561055f57600080fd5b5061058c6004803603602081101561057657600080fd5b81019080803590602001909291905050506118ae565b6040518082815260200191505060405180910390f35b3480156105ae57600080fd5b506105e5600480360360408110156105c557600080fd5b8101908080359060200190929190803590602001909291905050506118ea565b005b3480156105f357600080fd5b506106366004803603606081101561060a57600080fd5b810190808035906020019092919080359060200190929190803515159060200190929190505050611b81565b005b34801561064457600080fd5b506106916004803603604081101561065b57600080fd5b81019080803573ffffffffffffffffffffffffffffffffffffffff16906020019092919080359060200190929190505050611f7a565b6040518082815260200191505060405180910390f35b6106d3600480360360208110156106bd57600080fd5b810190808035906020019092919050505061206b565b005b610701600480360360208110156106eb57600080fd5b81019080803590602001909291905050506121f5565b005b34801561070f57600080fd5b506107466004803603604081101561072657600080fd5b81019080803590602001909291908035906020019092919050505061237f565b005b34801561075457600080fd5b5061075d612616565b604051808273ffffffffffffffffffffffffffffffffffffffff1673ffffffffffffffffffffffffffffffffffffffff16815260200191505060405180910390f35b3480156107ab57600080fd5b50610930600480360360a08110156107c257600080fd5b81019080803573ffffffffffffffffffffffffffffffffffffffff169060200190929190803590602001906401000000008111156107ff57600080fd5b82018360208201111561081157600080fd5b8035906020019184600183028401116401000000008311171561083357600080fd5b91908080601f016020809104026020016040519081016040528093929190818152602001838380828437600081840152601f19601f8201169050808301925050505050505091929192908035906020019064010000000081111561089657600080fd5b8201836020820111156108a857600080fd5b803590602001918460018302840111640100000000831117156108ca57600080fd5b91908080601f016020809104026020016040519081016040528093929190818152602001838380828437600081840152601f19601f820116905080830192505050505050509192919290803590602001909291908035906020019092919050505061263b565b6040518082815260200191505060405180910390f35b6109926004803603604081101561095c57600080fd5b8101908080359060200190929190803573ffffffffffffffffffffffffffffffffffffffff16906020019092919050505061273f565b005b6109c0600480360360208110156109aa57600080fd5b8101908080359060200190929190505050612a50565b005b6109ee600480360360208110156109d857600080fd5b8101908080359060200190929190505050612bda565b005b3480156109fc57600080fd5b50610a05612d57565b6040518082815260200191505060405180910390f35b348015610a2757600080fd5b50610a5460048036036020811015610a3e57600080fd5b8101908080359060200190929190505050612d5d565b604051808a73ffffffffffffffffffffffffffffffffffffffff1673ffffffffffffffffffffffffffffffffffffffff16815260200180602001806020018981526020018881526020018715151515815260200186815260200185815260200184815260200183810383528b818151815260200191508051906020019080838360005b83811015610af2578082015181840152602081019050610ad7565b50505050905090810190601f168015610b1f5780820380516001836020036101000a031916815260200191505b5083810382528a818151815260200191508051906020019080838360005b83811015610b58578082015181840152602081019050610b3d565b50505050905090810190601f168015610b855780820380516001836020036101000a031916815260200191505b509b50505050505050505050505060405180910390f35b348015610ba857600080fd5b50610bd560048036036020811015610bbf57600080fd5b8101908080359060200190929190505050612f08565b005b348015610be357600080fd5b50610c3a60048036036060811015610bfa57600080fd5b810190808035906020019092919080359060200190929190803573ffffffffffffffffffffffffffffffffffffffff16906020019092919050505061319b565b604051808060200187815260200186815260200185815260200184151515158152602001838152602001828103825288818151815260200191508051906020019080838360005b83811015610c9c578082015181840152602081019050610c81565b50505050905090810190601f168015610cc95780820380516001836020036101000a031916815260200191505b5097505050505050505060405180910390f35b610d0860048036036020811015610cf257600080fd5b81019080803590602001909291905050506133f0565b005b348015610d1657600080fd5b50610d1f61357a565b604051808215151515815260200191505060405180910390f35b348015610d4557600080fd5b50610d8860048036036020811015610d5c57600080fd5b81019080803573ffffffffffffffffffffffffffffffffffffffff169060200190929190505050613591565b005b8060099080519060200190610da0929190613690565b5050565b600047905090565b42600f60008381526020019081526020016000206004015411610dce57600080fd5b6000600f6000838152602001908152602001600020905034816006016000828254019250508190555060018160070154018160070181905550338160090160008360070154815260200190815260200160002060000160006101000a81548173ffffffffffffffffffffffffffffffffffffffff021916908373ffffffffffffffffffffffffffffffffffffffff1602179055503481600901600083600701548152602001908152602001600020600101819055508060030154816006015410158160050160006101000a81548160ff021916908315150217905550348160060160008282540192505081905550600181600701540181600701819055503481600601600082825401925050819055506001816007015401816007018190555034816006016000828254019250508190555060018160070154018160070181905550348160060160008282540192505081905550600181600701540181600701819055505050565b600e548311158015610f49575060018310155b610f5257600080fd5b60011515600f600085815260200190815260200160002060050160009054906101000a900460ff16151514610f8657600080fd5b600f600084815260200190815260200160002060060154821115610fa957600080fd5b600f600084815260200190815260200160002060000160009054906101000a900473ffffffffffffffffffffffffffffffffffffffff1673ffffffffffffffffffffffffffffffffffffffff163373ffffffffffffffffffffffffffffffffffffffff161461101757600080fd5b6000600f60008581526020019081526020016000209050600181600801540181600801819055508181600a01600083600801548152602001908152602001600020600001908051906020019061106e929190613690565b508281600a0160008360080154815260200190815260200160002060010181905550600081600a0160008360080154815260200190815260200160002060020181905550600081600a0160008360080154815260200190815260200160002060030181905550600081600a0160008360080154815260200190815260200160002060040160006101000a81548160ff02191690831515021790555082816006015403816006018190555050505050565b42600f6000838152602001908152602001600020600401541161114057600080fd5b6000600f6000838152602001908152602001600020905034816006016000828254019250508190555060018160070154018160070181905550338160090160008360070154815260200190815260200160002060000160006101000a81548173ffffffffffffffffffffffffffffffffffffffff021916908373ffffffffffffffffffffffffffffffffffffffff1602179055503481600901600083600701548152602001908152602001600020600101819055508060030154816006015410158160050160006101000a81548160ff021916908315150217905550348160060160008282540192505081905550600181600701540181600701819055503481600601600082825401925050819055506001816007015401816007018190555034816006016000828254019250508190555060018160070154018160070181905550348160060160008282540192505081905550600181600701540181600701819055505050565b606060008060006009600a54600b54600554838054600181600116156101000203166002900480601f01602080910402602001604051908101604052809291908181526020018280546001816001161561010002031660029004801561134f5780601f106113245761010080835404028352916020019161134f565b820191906000526020600020905b81548152906001019060200180831161133257829003601f168201915b50505050509350935093509350935090919293565b600e548111158015611377575060018110155b61138057600080fd5b6000600f600083815260200190815260200160002090506000600190505b816007015481116115f2573373ffffffffffffffffffffffffffffffffffffffff1682600901600083815260200190815260200160002060000160009054906101000a900473ffffffffffffffffffffffffffffffffffffffff1673ffffffffffffffffffffffffffffffffffffffff1614156115e55781600901600082815260200190815260200160002060000160009054906101000a900473ffffffffffffffffffffffffffffffffffffffff1673ffffffffffffffffffffffffffffffffffffffff166108fc836009016000848152602001908152602001600020600101549081150290604051600060405180830381858888f193505050501580156114ab573d6000803e3d6000fd5b506000826009016000838152602001908152602001600020600101819055506001826009016000838152602001908152602001600020600101819055506002826009016000838152602001908152602001600020600101819055506003826009016000838152602001908152602001600020600101819055506004826009016000838152602001908152602001600020600101819055506005826009016000838152602001908152602001600020600101819055506006826009016000838152602001908152602001600020600101819055506007826009016000838152602001908152602001600020600101819055506000826009016000838152602001908152602001600020600101819055508160090160008281526020019081526020016000206001015482600601600082825403925050819055505b808060010191505061139e565b505050565b600e54811115801561160a575060018110155b61161357600080fd5b60001515600f600083815260200190815260200160002060050160009054906101000a900460ff1615151461164757600080fd5b6000600f600083815260200190815260200160002090506000600190505b816007015481116117c9573373ffffffffffffffffffffffffffffffffffffffff1682600901600083815260200190815260200160002060000160009054906101000a900473ffffffffffffffffffffffffffffffffffffffff1673ffffffffffffffffffffffffffffffffffffffff1614156117bc5781600901600082815260200190815260200160002060000160009054906101000a900473ffffffffffffffffffffffffffffffffffffffff1673ffffffffffffffffffffffffffffffffffffffff166108fc836009016000848152602001908152602001600020600101549081150290604051600060405180830381858888f19350505050158015611772573d6000803e3d6000fd5b506000826009016000838152602001908152602001600020600101819055508160090160008281526020019081526020016000206001015482600601600082825403925050819055505b8080600101915050611665565b505050565b6000600d60008373ffffffffffffffffffffffffffffffffffffffff1673ffffffffffffffffffffffffffffffffffffffff1681526020019081526020016000205414156118ab57600c60008273ffffffffffffffffffffffffffffffffffffffff1673ffffffffffffffffffffffffffffffffffffffff16815260200190815260200160002054600a600082825401925050819055506001600d60008373ffffffffffffffffffffffffffffffffffffffff1673ffffffffffffffffffffffffffffffffffffffff168152602001908152602001600020819055505b50565b6000600e5482111580156118c3575060018210155b6118cc57600080fd5b600f6000838152602001908152602001600020600801549050919050565b600e5482111580156118fd575060018210155b61190657600080fd5b60001515600f6000848152602001908152602001600020600a01600083815260200190815260200160002060040160009054906101000a900460ff1615151461194e57600080fd5b6002600f6000848152602001908152602001600020600301548161196e57fe5b04600f6000848152602001908152602001600020600a0160008381526020019081526020016000206002015410611a8a576001600f6000848152602001908152602001600020600a01600083815260200190815260200160002060040160006101000a81548160ff021916908315150217905550600f600083815260200190815260200160002060000160009054906101000a900473ffffffffffffffffffffffffffffffffffffffff1673ffffffffffffffffffffffffffffffffffffffff166108fc600f6000858152602001908152602001600020600a016000848152602001908152602001600020600101549081150290604051600060405180830381858888f19350505050158015611a88573d6000803e3d6000fd5b505b6002600f60008481526020019081526020016000206003015481611aaa57fe5b04600f6000848152602001908152602001600020600a016000838152602001908152602001600020600301541115611b7d57600f6000838152602001908152602001600020600a01600082815260200190815260200160002060010154600f60008481526020019081526020016000206006015401600f6000848152602001908152602001600020600601819055506001600f6000848152602001908152602001600020600a01600083815260200190815260200160002060040160006101000a81548160ff0219169083151502179055505b5050565b600e548311158015611b94575060018310155b611b9d57600080fd5b600f6000848152602001908152602001600020600801548211158015611bc4575060018210155b611bcd57600080fd5b60001515600f6000858152602001908152602001600020600a01600084815260200190815260200160002060040160009054906101000a900460ff16151514611c1557600080fd5b6000600190505b600f6000858152602001908152602001600020600701548111611f6a573373ffffffffffffffffffffffffffffffffffffffff16600f6000868152602001908152602001600020600901600083815260200190815260200160002060000160009054906101000a900473ffffffffffffffffffffffffffffffffffffffff1673ffffffffffffffffffffffffffffffffffffffff161415611f5d576001600f6000868152602001908152602001600020600a0160008581526020019081526020016000206005016000838152602001908152602001600020541415611d6257600f6000858152602001908152602001600020600901600082815260200190815260200160002060010154600f6000868152602001908152602001600020600a01600085815260200190815260200160002060020160008282540392505081905550611e0a565b6002600f6000868152602001908152602001600020600a0160008581526020019081526020016000206005016000838152602001908152602001600020541415611e0957600f6000858152602001908152602001600020600901600082815260200190815260200160002060010154600f6000868152602001908152602001600020600a016000858152602001908152602001600020600301600082825403925050819055505b5b8115611eb857600f6000858152602001908152602001600020600901600082815260200190815260200160002060010154600f6000868152602001908152602001600020600a016000858152602001908152602001600020600201600082825401925050819055506001600f6000868152602001908152602001600020600a016000858152602001908152602001600020600501600083815260200190815260200160002081905550611f5c565b600f6000858152602001908152602001600020600901600082815260200190815260200160002060010154600f6000868152602001908152602001600020600a016000858152602001908152602001600020600301600082825401925050819055506002600f6000868152602001908152602001600020600a0160008581526020019081526020016000206005016000838152602001908152602001600020819055505b5b8080600101915050611c1c565b50611f75838361237f565b505050565b600080600090506000600190505b600f6000858152602001908152602001600020600701548111612060578473ffffffffffffffffffffffffffffffffffffffff16600f6000868152602001908152602001600020600901600083815260200190815260200160002060000160009054906101000a900473ffffffffffffffffffffffffffffffffffffffff1673ffffffffffffffffffffffffffffffffffffffff16141561205357600f6000858152602001908152602001600020600901600082815260200190815260200160002060010154820191505b8080600101915050611f88565b508091505092915050565b42600f6000838152602001908152602001600020600401541161208d57600080fd5b6000600f6000838152602001908152602001600020905034816006016000828254019250508190555060018160070154018160070181905550338160090160008360070154815260200190815260200160002060000160006101000a81548173ffffffffffffffffffffffffffffffffffffffff021916908373ffffffffffffffffffffffffffffffffffffffff1602179055503481600901600083600701548152602001908152602001600020600101819055508060030154816006015410158160050160006101000a81548160ff021916908315150217905550348160060160008282540192505081905550600181600701540181600701819055503481600601600082825401925050819055506001816007015401816007018190555034816006016000828254019250508190555060018160070154018160070181905550348160060160008282540192505081905550600181600701540181600701819055505050565b42600f6000838152602001908152602001600020600401541161221757600080fd5b6000600f6000838152602001908152602001600020905034816006016000828254019250508190555060018160070154018160070181905550338160090160008360070154815260200190815260200160002060000160006101000a81548173ffffffffffffffffffffffffffffffffffffffff021916908373ffffffffffffffffffffffffffffffffffffffff1602179055503481600901600083600701548152602001908152602001600020600101819055508060030154816006015410158160050160006101000a81548160ff021916908315150217905550348160060160008282540192505081905550600181600701540181600701819055503481600601600082825401925050819055506001816007015401816007018190555034816006016000828254019250508190555060018160070154018160070181905550348160060160008282540192505081905550600181600701540181600701819055505050565b600e548211158015612392575060018210155b61239b57600080fd5b60001515600f6000848152602001908152602001600020600a01600083815260200190815260200160002060040160009054906101000a900460ff161515146123e357600080fd5b6002600f6000848152602001908152602001600020600301548161240357fe5b04600f6000848152602001908152602001600020600a016000838152602001908152602001600020600201541061251f576001600f6000848152602001908152602001600020600a01600083815260200190815260200160002060040160006101000a81548160ff021916908315150217905550600f600083815260200190815260200160002060000160009054906101000a900473ffffffffffffffffffffffffffffffffffffffff1673ffffffffffffffffffffffffffffffffffffffff166108fc600f6000858152602001908152602001600020600a016000848152602001908152602001600020600101549081150290604051600060405180830381858888f1935050505015801561251d573d6000803e3d6000fd5b505b6002600f6000848152602001908152602001600020600301548161253f57fe5b04600f6000848152602001908152602001600020600a01600083815260200190815260200160002060030154111561261257600f6000838152602001908152602001600020600a01600082815260200190815260200160002060010154600f60008481526020019081526020016000206006015401600f6000848152602001908152602001600020600601819055506001600f6000848152602001908152602001600020600a01600083815260200190815260200160002060040160006101000a81548160ff0219169083151502179055505b5050565b6000809054906101000a900473ffffffffffffffffffffffffffffffffffffffff1681565b600042821161264957600080fd5b6001600e5401600e819055506000600f6000600e5481526020019081526020016000209050868160000160006101000a81548173ffffffffffffffffffffffffffffffffffffffff021916908373ffffffffffffffffffffffffffffffffffffffff160217905550858160010190805190602001906126c9929190613690565b50848160020190805190602001906126e2929190613690565b5083816003018190555082816004018190555060008160050160006101000a81548160ff021916908315150217905550600081600601819055506000816007018190555060008160080181905550600e5491505095945050505050565b8160056000828254019250508190555060045460055410612776576001600660006101000a81548160ff0219169083151502179055505b60008090505b60078054905081101561292f578173ffffffffffffffffffffffffffffffffffffffff16600782815481106127ad57fe5b9060005260206000200160009054906101000a900473ffffffffffffffffffffffffffffffffffffffff1673ffffffffffffffffffffffffffffffffffffffff161415612922576000600d60008473ffffffffffffffffffffffffffffffffffffffff1673ffffffffffffffffffffffffffffffffffffffff16815260200190815260200160002054146128aa576000600d60008473ffffffffffffffffffffffffffffffffffffffff1673ffffffffffffffffffffffffffffffffffffffff1681526020019081526020016000205412156128985782600b600082825401925050819055506128a9565b82600a600082825401925050819055505b5b82600c60008473ffffffffffffffffffffffffffffffffffffffff1673ffffffffffffffffffffffffffffffffffffffff16815260200190815260200160002060008282540192505081905550826008828154811061290557fe5b906000526020600020016000828254019250508190555050612a4c565b808060010191505061277c565b5060078190806001815401808255809150509060018203906000526020600020016000909192909190916101000a81548173ffffffffffffffffffffffffffffffffffffffff021916908373ffffffffffffffffffffffffffffffffffffffff1602179055505060088290806001815401808255809150509060018203906000526020600020016000909192909190915055506000600d60008373ffffffffffffffffffffffffffffffffffffffff1673ffffffffffffffffffffffffffffffffffffffff1681526020019081526020016000208190555081600c60008373ffffffffffffffffffffffffffffffffffffffff1673ffffffffffffffffffffffffffffffffffffffff168152602001908152602001600020819055505b5050565b42600f60008381526020019081526020016000206004015411612a7257600080fd5b6000600f6000838152602001908152602001600020905034816006016000828254019250508190555060018160070154018160070181905550338160090160008360070154815260200190815260200160002060000160006101000a81548173ffffffffffffffffffffffffffffffffffffffff021916908373ffffffffffffffffffffffffffffffffffffffff1602179055503481600901600083600701548152602001908152602001600020600101819055508060030154816006015410158160050160006101000a81548160ff021916908315150217905550348160060160008282540192505081905550600181600701540181600701819055503481600601600082825401925050819055506001816007015401816007018190555034816006016000828254019250508190555060018160070154018160070181905550348160060160008282540192505081905550600181600701540181600701819055505050565b600034118015612c185750600f600082815260200190815260200160002060060154600f600083815260200190815260200160002060030154033411155b612c2157600080fd5b42600f60008381526020019081526020016000206004015411612c4357600080fd5b60001515600f600083815260200190815260200160002060050160009054906101000a900460ff16151514612c7757600080fd5b6000600f6000838152602001908152602001600020905034816006016000828254019250508190555060018160070154018160070181905550338160090160008360070154815260200190815260200160002060000160006101000a81548173ffffffffffffffffffffffffffffffffffffffff021916908373ffffffffffffffffffffffffffffffffffffffff1602179055503481600901600083600701548152602001908152602001600020600101819055508060030154816006015410158160050160006101000a81548160ff0219169083151502179055505050565b600e5481565b600f6020528060005260406000206000915090508060000160009054906101000a900473ffffffffffffffffffffffffffffffffffffffff1690806001018054600181600116156101000203166002900480601f016020809104026020016040519081016040528092919081815260200182805460018160011615610100020316600290048015612e2f5780601f10612e0457610100808354040283529160200191612e2f565b820191906000526020600020905b815481529060010190602001808311612e1257829003601f168201915b505050505090806002018054600181600116156101000203166002900480601f016020809104026020016040519081016040528092919081815260200182805460018160011615610100020316600290048015612ecd5780601f10612ea257610100808354040283529160200191612ecd565b820191906000526020600020905b815481529060010190602001808311612eb057829003601f168201915b5050505050908060030154908060040154908060050160009054906101000a900460ff16908060060154908060070154908060080154905089565b600e548111158015612f1b575060018110155b612f2457600080fd5b6000600f600083815260200190815260200160002090506000600190505b81600701548111613196573373ffffffffffffffffffffffffffffffffffffffff1682600901600083815260200190815260200160002060000160009054906101000a900473ffffffffffffffffffffffffffffffffffffffff1673ffffffffffffffffffffffffffffffffffffffff1614156131895781600901600082815260200190815260200160002060000160009054906101000a900473ffffffffffffffffffffffffffffffffffffffff1673ffffffffffffffffffffffffffffffffffffffff166108fc836009016000848152602001908152602001600020600101549081150290604051600060405180830381858888f1935050505015801561304f573d6000803e3d6000fd5b506000826009016000838152602001908152602001600020600101819055506001826009016000838152602001908152602001600020600101819055506002826009016000838152602001908152602001600020600101819055506003826009016000838152602001908152602001600020600101819055506004826009016000838152602001908152602001600020600101819055506005826009016000838152602001908152602001600020600101819055506006826009016000838152602001908152602001600020600101819055506007826009016000838152602001908152602001600020600101819055506000826009016000838152602001908152602001600020600101819055508160090160008281526020019081526020016000206001015482600601600082825403925050819055505b8080600101915050612f42565b505050565b60606000806000806000600e5489111580156131b8575060018910155b6131c157600080fd5b600f60008a81526020019081526020016000206008015488111580156131e8575060018810155b6131f157600080fd5b6000600f60008b8152602001908152602001600020600a0160008a8152602001908152602001600020905060008090506000600190505b600f60008d8152602001908152602001600020600701548111613313578973ffffffffffffffffffffffffffffffffffffffff16600f60008e8152602001908152602001600020600901600083815260200190815260200160002060000160009054906101000a900473ffffffffffffffffffffffffffffffffffffffff1673ffffffffffffffffffffffffffffffffffffffff16141561330657600f60008d8152602001908152602001600020600a0160008c81526020019081526020016000206005016000828152602001908152602001600020549150613313565b8080600101915050613228565b50816000018260010154836002015484600301548560040160009054906101000a900460ff1685858054600181600116156101000203166002900480601f0160208091040260200160405190810160405280929190818152602001828054600181600116156101000203166002900480156133cf5780601f106133a4576101008083540402835291602001916133cf565b820191906000526020600020905b8154815290600101906020018083116133b257829003601f168201915b50505050509550975097509750975097509750505093975093979195509350565b42600f6000838152602001908152602001600020600401541161341257600080fd5b6000600f6000838152602001908152602001600020905034816006016000828254019250508190555060018160070154018160070181905550338160090160008360070154815260200190815260200160002060000160006101000a81548173ffffffffffffffffffffffffffffffffffffffff021916908373ffffffffffffffffffffffffffffffffffffffff1602179055503481600901600083600701548152602001908152602001600020600101819055508060030154816006015410158160050160006101000a81548160ff021916908315150217905550348160060160008282540192505081905550600181600701540181600701819055503481600601600082825401925050819055506001816007015401816007018190555034816006016000828254019250508190555060018160070154018160070181905550348160060160008282540192505081905550600181600701540181600701819055505050565b6000600660009054906101000a900460ff16905090565b6000600d60008373ffffffffffffffffffffffffffffffffffffffff1673ffffffffffffffffffffffffffffffffffffffff16815260200190815260200160002054141561368d57600c60008273ffffffffffffffffffffffffffffffffffffffff1673ffffffffffffffffffffffffffffffffffffffff16815260200190815260200160002054600b600082825401925050819055507fffffffffffffffffffffffffffffffffffffffffffffffffffffffffffffffff600d60008373ffffffffffffffffffffffffffffffffffffffff1673ffffffffffffffffffffffffffffffffffffffff168152602001908152602001600020819055505b50565b828054600181600116156101000203166002900490600052602060002090601f016020900481019282601f106136d157805160ff19168380011785556136ff565b828001600101855582156136ff579182015b828111156136fe5782518255916020019190600101906136e3565b5b50905061370c9190613710565b5090565b61373291905b8082111561372e576000816000905550600101613716565b5090565b9056fea265627a7a723158209a550b30bdd8844f6aeb55720ac5cc97fd5239342ce66bd911f54d06ee7954c164736f6c63430005100032",
  "source": "// SPDX-License-Identifier: MIT\npragma solidity >=0.4.22 <0.9.0;\n\ncontract CrowdFunding {\n    address public owner;\n    string projectAbstract;\n    string projectDescription;\n    uint256 startTime;\n    uint256 riseAmount;\n    uint256 currentAmount;\n    bool isFinished = false;\n    address[] participants;\n    uint256[] amounts;\n\n    string BallotTitle;\n    uint256 AgreeAmount;\n    uint256 DisagreeAmount;\n    mapping(address => uint256) ballotAbility;\n    mapping(address => int256) balloted;\n\n    struct Manager {\n        string name;\n        uint256 id;\n        uint256 age;\n        string work;\n    }\n\n    struct Funder {\n        address payable addr;\n        uint256 amount;\n    }\n\n    struct Use {\n        string info;\n        uint256 goal;\n        uint256 agreeAmount;\n        uint256 disagree;\n        bool over;\n        mapping(uint256 => uint256) agree;\n    }\n\n    struct Use1 {\n        string info1;\n        uint256 goal1;\n        uint256 agreeAmount1;\n        uint256 disagree1;\n        bool over1;\n        mapping(uint256 => uint256) agree1;\n    }\n\n    struct Use2 {\n        string info1;\n        uint256 goal1;\n        uint256 agreeAmount1;\n        uint256 disagree1;\n        bool over1;\n        mapping(uint256 => uint256) agree1;\n    }\n\n    struct Use3 {\n        string info1;\n        uint256 goal1;\n        uint256 agreeAmount1;\n        uint256 disagree1;\n        bool over1;\n        mapping(uint256 => uint256) agree1;\n    }\n\n    struct Funding {\n        address payable initiator;\n        string title;\n        string info;\n        uint256 goal;\n        uint256 endTime;\n        bool success;\n        uint256 amount;\n        uint256 numFunders;\n        uint256 numUses;\n        mapping(uint256 => Funder) funders;\n        mapping(uint256 => Use) uses;\n    }\n\n    struct Funding1 {\n        string title1;\n        string info1;\n        uint256 goal1;\n        uint256 endTime1;\n        bool success1;\n        uint256 amount1;\n        uint256 numFunders1;\n        uint256 numUses1;\n        mapping(uint256 => Funder) funders1;\n        mapping(uint256 => Use) uses1;\n    }\n\n    struct Manager1 {\n        string name;\n        uint256 id;\n        uint256 age;\n        string work;\n    }\n\n    struct Manager2 {\n        string name;\n        uint256 id;\n        uint256 age;\n        string work;\n    }\n\n    struct Manager3 {\n        string name;\n        uint256 id;\n        uint256 age;\n        string work;\n    }\n\n    uint256 public numFundings;\n    mapping(uint256 => Funding) public fundings;\n\n    function Parcipate(uint256 amount, address addr) public payable {\n        currentAmount += amount;\n        if (currentAmount >= riseAmount) {\n            isFinished = true;\n        }\n\n        for (uint256 i = 0; i < participants.length; i++) {\n            if (participants[i] == addr) {\n                if (balloted[addr] != 0) {\n                    if (balloted[addr] < 0) {\n                        DisagreeAmount += amount;\n                    } else {\n                        AgreeAmount += amount;\n                    }\n                }\n                ballotAbility[addr] += amount;\n                amounts[i] += amount;\n                return;\n            }\n        }\n\n        participants.push(addr);\n        amounts.push(amount);\n        balloted[addr] = 0;\n        ballotAbility[addr] = amount;\n    }\n\n    function ProjectStatus() public view returns (bool) {\n        return isFinished;\n    }\n\n    function CreateBallot(string memory title) public {\n        BallotTitle = title;\n    }\n\n    function AgreeBallot(address addr) public {\n        if (balloted[addr] == 0) {\n            AgreeAmount += ballotAbility[addr];\n            balloted[addr] = 1;\n        }\n    }\n\n    function DisagreeBallot(address addr) public {\n        if (balloted[addr] == 0) {\n            DisagreeAmount += ballotAbility[addr];\n            balloted[addr] = -1;\n        }\n    }\n\n    function GetBallotStatus()\n        public\n        view\n        returns (\n            string memory,\n            uint256,\n            uint256,\n            uint256\n        )\n    {\n        return (BallotTitle, AgreeAmount, DisagreeAmount, currentAmount);\n    }\n\n    function newFunding(\n        address payable initiator,\n        string memory title,\n        string memory info,\n        uint256 goal,\n        uint256 endTime\n    ) public returns (uint256) {\n        require(endTime > block.timestamp);\n\n        numFundings = numFundings + 1;\n        Funding storage f = fundings[numFundings];\n        f.initiator = initiator;\n        f.title = title;\n        f.info = info;\n        f.goal = goal;\n        f.endTime = endTime;\n        f.success = false;\n        f.amount = 0;\n        f.numFunders = 0;\n        f.numUses = 0;\n\n        return numFundings;\n    }\n\n    function contribute(uint256 ID) public payable {\n        require(\n            msg.value > 0 &&\n                msg.value <= fundings[ID].goal - fundings[ID].amount\n        );\n        require(fundings[ID].endTime > block.timestamp);\n        require(fundings[ID].success == false);\n        Funding storage f = fundings[ID];\n        f.amount += msg.value;\n        f.numFunders = f.numFunders + 1;\n        f.funders[f.numFunders].addr = msg.sender;\n        f.funders[f.numFunders].amount = msg.value;\n        f.success = f.amount >= f.goal;\n    }\n\n    function contribute12(uint256 ID) public payable {\n        require(fundings[ID].endTime > block.timestamp);\n        Funding storage f = fundings[ID];\n        f.amount += msg.value;\n        f.numFunders = f.numFunders + 1;\n        f.funders[f.numFunders].addr = msg.sender;\n        f.funders[f.numFunders].amount = msg.value;\n        f.success = f.amount >= f.goal;\n        f.amount += msg.value;\n        f.numFunders = f.numFunders + 1;\n        f.amount += msg.value;\n        f.numFunders = f.numFunders + 1;\n        f.amount += msg.value;\n        f.numFunders = f.numFunders + 1;\n        f.amount += msg.value;\n        f.numFunders = f.numFunders + 1;\n    }\n\n    function returnMoney(uint256 ID) public {\n        require(ID <= numFundings && ID >= 1);\n        require(fundings[ID].success == false);\n\n        Funding storage f = fundings[ID];\n        for (uint256 i = 1; i <= f.numFunders; i++)\n            if (f.funders[i].addr == msg.sender) {\n                f.funders[i].addr.transfer(f.funders[i].amount);\n                f.funders[i].amount = 0;\n                f.amount -= f.funders[i].amount;\n            }\n    }\n\n    function returnMoney12(uint256 ID) public {\n        require(ID <= numFundings && ID >= 1);\n\n        Funding storage f = fundings[ID];\n        for (uint256 i = 1; i <= f.numFunders; i++)\n            if (f.funders[i].addr == msg.sender) {\n                f.funders[i].addr.transfer(f.funders[i].amount);\n                f.funders[i].amount = 0;\n                f.funders[i].amount = 1;\n                f.funders[i].amount = 2;\n                f.funders[i].amount = 3;\n                f.funders[i].amount = 4;\n                f.funders[i].amount = 5;\n                f.funders[i].amount = 6;\n                f.funders[i].amount = 7;\n                f.funders[i].amount = 0;\n                f.amount -= f.funders[i].amount;\n            }\n    }\n\n    function contribute13(uint256 ID) public payable {\n        require(fundings[ID].endTime > block.timestamp);\n        Funding storage f = fundings[ID];\n        f.amount += msg.value;\n        f.numFunders = f.numFunders + 1;\n        f.funders[f.numFunders].addr = msg.sender;\n        f.funders[f.numFunders].amount = msg.value;\n        f.success = f.amount >= f.goal;\n        f.amount += msg.value;\n        f.numFunders = f.numFunders + 1;\n        f.amount += msg.value;\n        f.numFunders = f.numFunders + 1;\n        f.amount += msg.value;\n        f.numFunders = f.numFunders + 1;\n        f.amount += msg.value;\n        f.numFunders = f.numFunders + 1;\n    }\n\n    function newUse(\n        uint256 ID,\n        uint256 goal,\n        string memory info\n    ) public {\n        require(ID <= numFundings && ID >= 1);\n        require(fundings[ID].success == true);\n        require(goal <= fundings[ID].amount);\n        require(msg.sender == fundings[ID].initiator);\n\n        Funding storage f = fundings[ID];\n        f.numUses = f.numUses + 1;\n        f.uses[f.numUses].info = info;\n        f.uses[f.numUses].goal = goal;\n        f.uses[f.numUses].agreeAmount = 0;\n        f.uses[f.numUses].disagree = 0;\n        f.uses[f.numUses].over = false;\n        f.amount = f.amount - goal;\n    }\n\n    function returnMoney13(uint256 ID) public {\n        require(ID <= numFundings && ID >= 1);\n\n        Funding storage f = fundings[ID];\n        for (uint256 i = 1; i <= f.numFunders; i++)\n            if (f.funders[i].addr == msg.sender) {\n                f.funders[i].addr.transfer(f.funders[i].amount);\n                f.funders[i].amount = 0;\n                f.funders[i].amount = 1;\n                f.funders[i].amount = 2;\n                f.funders[i].amount = 3;\n                f.funders[i].amount = 4;\n                f.funders[i].amount = 5;\n                f.funders[i].amount = 6;\n                f.funders[i].amount = 7;\n                f.funders[i].amount = 0;\n                f.amount -= f.funders[i].amount;\n            }\n    }\n\n    function agreeUse(\n        uint256 ID,\n        uint256 useID,\n        bool agree\n    ) public {\n        require(ID <= numFundings && ID >= 1);\n        require(useID <= fundings[ID].numUses && useID >= 1);\n        require(fundings[ID].uses[useID].over == false);\n\n        for (uint256 i = 1; i <= fundings[ID].numFunders; i++)\n            if (fundings[ID].funders[i].addr == msg.sender) {\n                if (fundings[ID].uses[useID].agree[i] == 1) {\n                    fundings[ID].uses[useID].agreeAmount -= fundings[ID]\n                        .funders[i]\n                        .amount;\n                } else if (fundings[ID].uses[useID].agree[i] == 2) {\n                    fundings[ID].uses[useID].disagree -= fundings[ID].funders[i]\n                        .amount;\n                }\n                if (agree) {\n                    fundings[ID].uses[useID].agreeAmount += fundings[ID]\n                        .funders[i]\n                        .amount;\n                    fundings[ID].uses[useID].agree[i] = 1;\n                } else {\n                    fundings[ID].uses[useID].disagree += fundings[ID].funders[i]\n                        .amount;\n                    fundings[ID].uses[useID].agree[i] = 2;\n                }\n            }\n        checkUse(ID, useID);\n    }\n\n    function test12(uint256 ID) public payable {\n        require(fundings[ID].endTime > block.timestamp);\n        Funding storage f = fundings[ID];\n        f.amount += msg.value;\n        f.numFunders = f.numFunders + 1;\n        f.funders[f.numFunders].addr = msg.sender;\n        f.funders[f.numFunders].amount = msg.value;\n        f.success = f.amount >= f.goal;\n        f.amount += msg.value;\n        f.numFunders = f.numFunders + 1;\n        f.amount += msg.value;\n        f.numFunders = f.numFunders + 1;\n        f.amount += msg.value;\n        f.numFunders = f.numFunders + 1;\n        f.amount += msg.value;\n        f.numFunders = f.numFunders + 1;\n    }\n\n    function checkUse(uint256 ID, uint256 useID) public {\n        require(ID <= numFundings && ID >= 1);\n        require(fundings[ID].uses[useID].over == false);\n\n        if (fundings[ID].uses[useID].agreeAmount >= fundings[ID].goal / 2) {\n            fundings[ID].uses[useID].over = true;\n            fundings[ID].initiator.transfer(fundings[ID].uses[useID].goal);\n        }\n        if (fundings[ID].uses[useID].disagree > fundings[ID].goal / 2) {\n            fundings[ID].amount =\n                fundings[ID].amount +\n                fundings[ID].uses[useID].goal;\n            fundings[ID].uses[useID].over = true;\n        }\n    }\n\n    function checkUse12(uint256 ID, uint256 useID) public {\n        require(ID <= numFundings && ID >= 1);\n        require(fundings[ID].uses[useID].over == false);\n\n        if (fundings[ID].uses[useID].agreeAmount >= fundings[ID].goal / 2) {\n            fundings[ID].uses[useID].over = true;\n            fundings[ID].initiator.transfer(fundings[ID].uses[useID].goal);\n        }\n        if (fundings[ID].uses[useID].disagree > fundings[ID].goal / 2) {\n            fundings[ID].amount =\n                fundings[ID].amount +\n                fundings[ID].uses[useID].goal;\n            fundings[ID].uses[useID].over = true;\n        }\n    }\n\n    function getUseLength(uint256 ID) public view returns (uint256) {\n        require(ID <= numFundings && ID >= 1);\n\n        return fundings[ID].numUses;\n    }\n\n    function test5(uint256 ID) public payable {\n        require(fundings[ID].endTime > block.timestamp);\n        Funding storage f = fundings[ID];\n        f.amount += msg.value;\n        f.numFunders = f.numFunders + 1;\n        f.funders[f.numFunders].addr = msg.sender;\n        f.funders[f.numFunders].amount = msg.value;\n        f.success = f.amount >= f.goal;\n        f.amount += msg.value;\n        f.numFunders = f.numFunders + 1;\n        f.amount += msg.value;\n        f.numFunders = f.numFunders + 1;\n        f.amount += msg.value;\n        f.numFunders = f.numFunders + 1;\n        f.amount += msg.value;\n        f.numFunders = f.numFunders + 1;\n    }\n\n    function getUse(\n        uint256 ID,\n        uint256 useID,\n        address addr\n    )\n        public\n        view\n        returns (\n            string memory,\n            uint256,\n            uint256,\n            uint256,\n            bool,\n            uint256\n        )\n    {\n        require(ID <= numFundings && ID >= 1);\n        require(useID <= fundings[ID].numUses && useID >= 1);\n\n        Use storage u = fundings[ID].uses[useID];\n        uint256 agree = 0;\n        for (uint256 i = 1; i <= fundings[ID].numFunders; i++)\n            if (fundings[ID].funders[i].addr == addr) {\n                agree = fundings[ID].uses[useID].agree[i];\n                break;\n            }\n        return (u.info, u.goal, u.agreeAmount, u.disagree, u.over, agree);\n    }\n\n    function test4(uint256 ID) public payable {\n        require(fundings[ID].endTime > block.timestamp);\n        Funding storage f = fundings[ID];\n        f.amount += msg.value;\n        f.numFunders = f.numFunders + 1;\n        f.funders[f.numFunders].addr = msg.sender;\n        f.funders[f.numFunders].amount = msg.value;\n        f.success = f.amount >= f.goal;\n        f.amount += msg.value;\n        f.numFunders = f.numFunders + 1;\n        f.amount += msg.value;\n        f.numFunders = f.numFunders + 1;\n        f.amount += msg.value;\n        f.numFunders = f.numFunders + 1;\n        f.amount += msg.value;\n        f.numFunders = f.numFunders + 1;\n    }\n\n    function getBalance() public view returns (uint256) {\n        return address(this).balance;\n    }\n\n    function test3(uint256 ID) public payable {\n        require(fundings[ID].endTime > block.timestamp);\n        Funding storage f = fundings[ID];\n        f.amount += msg.value;\n        f.numFunders = f.numFunders + 1;\n        f.funders[f.numFunders].addr = msg.sender;\n        f.funders[f.numFunders].amount = msg.value;\n        f.success = f.amount >= f.goal;\n        f.amount += msg.value;\n        f.numFunders = f.numFunders + 1;\n        f.amount += msg.value;\n        f.numFunders = f.numFunders + 1;\n        f.amount += msg.value;\n        f.numFunders = f.numFunders + 1;\n        f.amount += msg.value;\n        f.numFunders = f.numFunders + 1;\n    }\n\n    function getMyFundings(address addr, uint256 ID)\n        public\n        view\n        returns (uint256)\n    {\n        uint256 res = 0;\n        for (uint256 i = 1; i <= fundings[ID].numFunders; i++) {\n            if (fundings[ID].funders[i].addr == addr)\n                res += fundings[ID].funders[i].amount;\n        }\n        return res;\n    }\n}\n",
  "sourcePath": "/Users/qiuhaoze/Desktop/finalwork/contracts/CrowdFunding.sol",
  "compiler": {
    "name": "solc",
    "version": "0.5.16+commit.9c3226ce.Emscripten.clang"
  },
  "schemaVersion": "3.3.3",
  "updatedAt": "2021-01-13T05:40:29.720Z",
  "networkType": "ethereum",
  "devdoc": {
    "methods": {}
  },
  "userdoc": {
    "methods": {}
  }
}