{
  "contractName": "Fund",
  "abi": [
    {
      "constant": false,
      "inputs": [
        {
          "internalType": "uint256",
          "name": "fgoal",
          "type": "uint256"
        },
        {
          "internalType": "uint256",
          "name": "fcurrent",
          "type": "uint256"
        },
        {
          "internalType": "bool",
          "name": "success",
          "type": "bool"
        },
        {
          "internalType": "string",
          "name": "fname",
          "type": "string"
        },
        {
          "internalType": "string",
          "name": "cname",
          "type": "string"
        }
      ],
      "name": "deleteFund",
      "outputs": [
        {
          "internalType": "uint256",
          "name": "",
          "type": "uint256"
        }
      ],
      "payable": false,
      "stateMutability": "nonpayable",
      "type": "function"
    }
  ],
  "bytecode": "0x608060405234801561001057600080fd5b5061032f806100206000396000f3fe608060405234801561001057600080fd5b506004361061002b5760003560e01c80639ca671af14610030575b600080fd5b6101a0600480360360a081101561004657600080fd5b8101908080359060200190929190803590602001909291908035151590602001909291908035906020019064010000000081111561008357600080fd5b82018360208201111561009557600080fd5b803590602001918460018302840111640100000000831117156100b757600080fd5b91908080601f016020809104026020016040519081016040528093929190818152602001838380828437600081840152601f19601f8201169050808301925050505050505091929192908035906020019064010000000081111561011a57600080fd5b82018360208201111561012c57600080fd5b8035906020019184600183028401116401000000008311171561014e57600080fd5b91908080601f016020809104026020016040519081016040528093929190818152602001838380828437600081840152601f19601f8201169050808301925050505050505091929192905050506101b6565b6040518082815260200191505060405180910390f35b600042600354116101c657600080fd5b6000600190505b60035481116102485783600860000190805190602001906101ef929190610255565b50866008600501819055508560086006018190555084600860040160006101000a81548160ff021916908315150217905550826008600201908051906020019061023a929190610255565b5080806001019150506101cd565b8091505095945050505050565b828054600181600116156101000203166002900490600052602060002090601f016020900481019282601f1061029657805160ff19168380011785556102c4565b828001600101855582156102c4579182015b828111156102c35782518255916020019190600101906102a8565b5b5090506102d191906102d5565b5090565b6102f791905b808211156102f35760008160009055506001016102db565b5090565b9056fea265627a7a72315820781f17d9005e2290a9b1092982612c773baa27f83cf51f12ec52b1144c95595c64736f6c63430005100032",
  "source": "//SPDX-License-Identifier: MIT\npragma solidity >=0.4.22;\n\n\ncontract CrowdFunding {\n \n  struct Project {\n    address payable initiator;\n    string info;\n    string title;\n    string start_date;\n    string end_date;\n  }\n  \n  struct Funder {\n    address payable addr;\n    uint amount;\n    string Fname;\n    uint amountN;\n  }\n\n  event del_msg(\n    string return_msg,\n    uint count\n  );\n\n  event success_msg(\n    string return_msg,\n    uint count\n  );\n\n  event error_msg(\n    string return_msg,\n    uint c\n  );\n  // 资金使用\n  struct Use {\n    string info;\n    uint goal;\n    uint agreeAmount;\n    uint disagree;\n    bool over;\n    mapping(uint => uint) agree;\n  }\n\n  // 项目结构\n  struct Funding {\n    address payable initiator;\n    string title;\n    string info;\n    bool success;\n    uint amount;\n    uint numFunders;\n    uint numUses;\n    uint current;\n    uint goal;                    \n    uint startTime;\n    uint endTime;\n    mapping(uint => Project) projects;\n    mapping(uint => Funder) funders; \n    mapping(uint => Use) uses;       \n  }\n\n  uint public fundingsCount;                  // 记录项目数量\n  mapping(uint => Funding) public fundings; // 所有的众筹项目\n\n \n \n  function newFunding(address payable a, string memory b, string memory c, uint d, uint e, uint f) public returns(uint) {\n    require(f > block.timestamp);\n\n    fundingsCount = fundingsCount + 1;\n    Funding storage ff = fundings[fundingsCount];\n    ff.initiator = a;\n    ff.title = b;\n    ff.info = c;\n    ff.goal = d;\n    ff.startTime = e;\n    ff.endTime = f;\n    ff.success = false;\n    ff.amount = 0;\n    ff.numFunders = 0;\n    ff.numUses = 0;\n    \n    return fundingsCount;\n  }\n\n  function deleteFunding(address payable a, string memory b, string memory c, uint d, uint e, uint f) public returns(uint) {\n    require(f > block.timestamp);\n\n    fundingsCount--;\n    Funding storage ff = fundings[fundingsCount];\n    ff.initiator = a;\n    ff.title = b;\n    ff.info = c;\n    ff.goal = d;\n    ff.startTime = e;\n    ff.endTime = f;\n    ff.success = false;\n    ff.amount = 0;\n    ff.numFunders = 0;\n    ff.numUses = 0;\n    \n    return fundingsCount;\n  }\n\n  function returnMoney(uint p) public {\n    require(p <= fundingsCount && p >= 1);\n    require(fundings[p].success == false);\n\n    Funding storage f = fundings[p];\n    uint i = 1;\n    while(i <= f.numFunders){\n      if(f.funders[i].addr == msg.sender) {\n        f.funders[i].addr.transfer(f.funders[i].amount);\n        f.funders[i].amount = 0;\n        f.amount -= f.funders[i].amount;\n      }\n      i++;\n    }\n  }\n\nfunction Apply(uint index, uint goal, string memory info) public {\n    require(index <= fundingsCount && index >= 1);\n    require(fundings[index].success == true);\n    require(goal <= fundings[index].amount);\n    require(msg.sender == fundings[index].initiator);\n\n    Funding storage f = fundings[index];\n    f.numUses = f.numUses + 1;\n    f.uses[f.numUses].info = info;\n    f.uses[f.numUses].goal = goal;\n    f.uses[f.numUses].agreeAmount = 0;\n    f.uses[f.numUses].disagree = 0;\n    f.uses[f.numUses].over = false;\n    f.amount = f.amount - goal;\n  }\n\n\n  function giveBack(uint index) public {\n    require(index <= fundingsCount && index >= 1);\n\n    Funding storage f = fundings[index];\n    uint i = 1;\n    while(i <= f.numFunders){\n      if(f.funders[i].addr == msg.sender) {\n        f.funders[i].addr.transfer(f.funders[i].amount);\n        f.funders[i].amount = 0;\n        f.amount -= f.funders[i].amount;\n      }\n      i++;\n    }\n  }\n\n  function contribute(uint index) public payable {\n\n    require(msg.value > 0 && msg.value <= fundings[index].goal - fundings[index].amount);\n    require(fundings[index].endTime > block.timestamp);\n    require(fundings[index].success == false);\n\n    Funding storage f = fundings[index];\n    f.amount += msg.value;\n    f.numFunders = f.numFunders + 1;\n    f.funders[f.numFunders].addr = msg.sender;\n    f.funders[f.numFunders].amount = msg.value;\n    f.success = f.amount >= f.goal;\n  }\n\n  function newUse1(uint index, uint goal, string memory info) public {\n    require(index <= fundingsCount && index >= 1);\n    require(fundings[index].success == true);\n    require(goal <= fundings[index].amount);\n    require(msg.sender == fundings[index].initiator);\n\n    Funding storage f = fundings[index];\n    f.numUses = f.numUses + 1;\n    f.uses[f.numUses].info = info;\n    f.uses[f.numUses].goal = goal;\n    f.uses[f.numUses].agreeAmount = 0;\n    f.uses[f.numUses].disagree = 0;\n    f.uses[f.numUses].over = false;\n    f.amount = f.amount - goal;\n  }\n\n  function agreeUse(uint index, uint useID, bool res) public {\n    require(index <= fundingsCount && index >= 1);\n    require(useID <= fundings[index].numUses && useID >= 1);\n    require(fundings[index].uses[useID].over == false);\n\n    for(uint i=1; i<=fundings[index].numFunders; i++)\n      if(fundings[index].funders[i].addr == msg.sender) {\n        if(fundings[index].uses[useID].agree[i] == 1) {\n          fundings[index].uses[useID].agreeAmount -= fundings[index].funders[i].amount;\n        } else if(fundings[index].uses[useID].agree[i] == 2) {\n          fundings[index].uses[useID].disagree -= fundings[index].funders[i].amount;\n        }\n        if(res) {\n          fundings[index].uses[useID].agreeAmount += fundings[index].funders[i].amount;\n          fundings[index].uses[useID].agree[i] = 1;\n        }\n        else {\n          fundings[index].uses[useID].disagree += fundings[index].funders[i].amount;\n          fundings[index].uses[useID].agree[i] = 2;\n        }\n      }\n    checkUse(index, useID);\n  }\n\n  function checkUse(uint index, uint useID) public {\n    require(index <= fundingsCount && index >= 1);\n    require(fundings[index].uses[useID].over == false);\n\n    if(fundings[index].uses[useID].agreeAmount >= fundings[index].goal / 2) {\n      fundings[index].uses[useID].over = true;\n      fundings[index].initiator.transfer(fundings[index].uses[useID].goal);\n    }\n    if(fundings[index].uses[useID].disagree > fundings[index].goal / 2) {\n      fundings[index].amount = fundings[index].amount + fundings[index].uses[useID].goal;\n      fundings[index].uses[useID].over = true;\n    }\n  }\n\n  function getUseLength(uint index) public view returns (uint) {\n    require(index <= fundingsCount && index >= 1);\n\n    return fundings[index].numUses;\n  }\n\n  function getMyFundings(address addr, uint index) public view returns (uint) {\n      uint mine = 0;\n      uint i=1;\n      while(i<=fundings[index].numFunders){\n        if(fundings[index].funders[i].addr == addr)\n            mine += fundings[index].funders[i].amount;\n        i++;\n      }\n      return mine;\n  } \n\n  function getUse(uint index, uint useID, address addr) public view returns (string memory, uint, uint, uint, bool, uint) {\n    require(index <= fundingsCount && index >= 1);\n    require(useID <= fundings[index].numUses && useID >= 1);\n\n    Use storage u = fundings[index].uses[useID];\n    uint agree = 0;\n    uint i = 1;\n    while( i<=fundings[index].numFunders ){\n        if(fundings[index].funders[i].addr == addr) {\n        agree = fundings[index].uses[useID].agree[i];\n        break;\n      }\n      i++;\n    }\n    return (u.info, u.goal, u.agreeAmount, u.disagree, u.over, agree);\n  }\n\n  function getBalance() public view returns (uint) {\n    return address(this).balance;\n  }\n}\n\n//众筹信息公共操作\ncontract Fund{\n    address payable initiator; //创始人\n    string info;\n    string title;\n    uint goal; //目标金额\n    uint current; //当前金额\n    string start_date;\n    string end_date;\n    address[] all_account; //所有账户\n\n    //账户信息\n    struct account{\n      string account_id;\n      mapping (uint => bool) is_fund;  //记录该账户是否投资\n      uint ammount; //出资\n    }\n\n    //定义使用请求结构\n    struct Use{\n      string info;\n      uint ammount;\n      bool success;\n    }\n\n    //定义fund结构\n    struct crowdFund{\n      string name;\n      string intro;\n      string start;\n      string end;\n      bool success;\n      uint goal;\n      uint current;\n      string account_name;\n      string[] amount_account; //参与该众筹账户\n    }\n\n    crowdFund F;\n\n\n    //删除某个众筹\n    function deleteFund(uint fgoal ,uint fcurrent ,bool success,string memory fname,string memory cname)public returns(uint){\n      require(goal > block.timestamp);\n      uint i = 1;\n      while(i <= goal){\n        F.name = fname;\n        F.goal = fgoal;\n        F.current = fcurrent;\n        F.success = success;\n        F.start = cname;\n        i++;\n      }\n      return i;\n    }\n\n\n}",
  "sourcePath": "E:/zju/区块链与数字货币/crowdfund-dapp/contracts/CrowdFunding.sol",
  "compiler": {
    "name": "solc",
    "version": "0.5.16+commit.9c3226ce.Emscripten.clang"
  },
  "schemaVersion": "3.3.3",
  "updatedAt": "2021-01-14T11:20:37.319Z",
  "devdoc": {
    "methods": {}
  },
  "userdoc": {
    "methods": {}
  }
}