{
  "contractName": "Fproject",
  "abi": [
    {
      "inputs": [
        {
          "internalType": "string",
          "name": "_summary",
          "type": "string"
        },
        {
          "internalType": "uint256",
          "name": "_target",
          "type": "uint256"
        },
        {
          "internalType": "uint256",
          "name": "_time",
          "type": "uint256"
        },
        {
          "internalType": "address payable",
          "name": "_host",
          "type": "address"
        },
        {
          "internalType": "address",
          "name": "_manager",
          "type": "address"
        }
      ],
      "stateMutability": "nonpayable",
      "type": "constructor"
    },
    {
      "inputs": [
        {
          "internalType": "address",
          "name": "",
          "type": "address"
        }
      ],
      "name": "amount",
      "outputs": [
        {
          "internalType": "uint256",
          "name": "",
          "type": "uint256"
        }
      ],
      "stateMutability": "view",
      "type": "function"
    },
    {
      "inputs": [
        {
          "internalType": "uint256",
          "name": "",
          "type": "uint256"
        }
      ],
      "name": "list",
      "outputs": [
        {
          "internalType": "address",
          "name": "",
          "type": "address"
        }
      ],
      "stateMutability": "view",
      "type": "function"
    },
    {
      "inputs": [
        {
          "internalType": "address",
          "name": "",
          "type": "address"
        }
      ],
      "name": "votes",
      "outputs": [
        {
          "internalType": "uint256",
          "name": "",
          "type": "uint256"
        }
      ],
      "stateMutability": "view",
      "type": "function"
    },
    {
      "inputs": [
        {
          "internalType": "string",
          "name": "str",
          "type": "string"
        }
      ],
      "name": "updDescription",
      "outputs": [
        {
          "internalType": "string",
          "name": "res",
          "type": "string"
        }
      ],
      "stateMutability": "nonpayable",
      "type": "function"
    },
    {
      "inputs": [],
      "name": "CheckDDL",
      "outputs": [
        {
          "internalType": "bool",
          "name": "",
          "type": "bool"
        }
      ],
      "stateMutability": "view",
      "type": "function"
    },
    {
      "inputs": [],
      "name": "Payfund",
      "outputs": [
        {
          "internalType": "bool",
          "name": "",
          "type": "bool"
        }
      ],
      "stateMutability": "payable",
      "type": "function"
    },
    {
      "inputs": [
        {
          "internalType": "uint256",
          "name": "vtar",
          "type": "uint256"
        },
        {
          "internalType": "string",
          "name": "vstr",
          "type": "string"
        }
      ],
      "name": "Raisevote",
      "outputs": [],
      "stateMutability": "nonpayable",
      "type": "function"
    },
    {
      "inputs": [
        {
          "internalType": "address",
          "name": "from",
          "type": "address"
        },
        {
          "internalType": "uint256",
          "name": "v",
          "type": "uint256"
        }
      ],
      "name": "Checkvote",
      "outputs": [
        {
          "internalType": "bool",
          "name": "",
          "type": "bool"
        }
      ],
      "stateMutability": "nonpayable",
      "type": "function"
    },
    {
      "inputs": [],
      "name": "getSummary",
      "outputs": [
        {
          "internalType": "string",
          "name": "",
          "type": "string"
        }
      ],
      "stateMutability": "view",
      "type": "function"
    },
    {
      "inputs": [],
      "name": "getDescription",
      "outputs": [
        {
          "internalType": "string",
          "name": "",
          "type": "string"
        }
      ],
      "stateMutability": "view",
      "type": "function"
    },
    {
      "inputs": [],
      "name": "getTarget",
      "outputs": [
        {
          "internalType": "uint256",
          "name": "",
          "type": "uint256"
        }
      ],
      "stateMutability": "view",
      "type": "function"
    },
    {
      "inputs": [],
      "name": "getGot",
      "outputs": [
        {
          "internalType": "uint256",
          "name": "",
          "type": "uint256"
        }
      ],
      "stateMutability": "view",
      "type": "function"
    },
    {
      "inputs": [],
      "name": "getDDL",
      "outputs": [
        {
          "internalType": "uint256",
          "name": "",
          "type": "uint256"
        }
      ],
      "stateMutability": "view",
      "type": "function"
    },
    {
      "inputs": [],
      "name": "getHost",
      "outputs": [
        {
          "internalType": "address",
          "name": "",
          "type": "address"
        }
      ],
      "stateMutability": "view",
      "type": "function"
    },
    {
      "inputs": [],
      "name": "getVoteStr",
      "outputs": [
        {
          "internalType": "string",
          "name": "",
          "type": "string"
        }
      ],
      "stateMutability": "view",
      "type": "function"
    },
    {
      "inputs": [],
      "name": "getVoteTarget",
      "outputs": [
        {
          "internalType": "uint256",
          "name": "",
          "type": "uint256"
        }
      ],
      "stateMutability": "view",
      "type": "function"
    },
    {
      "inputs": [],
      "name": "getVoteState",
      "outputs": [
        {
          "internalType": "uint256",
          "name": "",
          "type": "uint256"
        }
      ],
      "stateMutability": "view",
      "type": "function"
    },
    {
      "inputs": [],
      "name": "getBalance",
      "outputs": [
        {
          "internalType": "uint256",
          "name": "",
          "type": "uint256"
        }
      ],
      "stateMutability": "view",
      "type": "function"
    }
  ],
  "bytecode": "0x60806040523480156200001157600080fd5b50604051620015ec380380620015ec833981810160405260a08110156200003757600080fd5b81019080805160405193929190846401000000008211156200005857600080fd5b838201915060208201858111156200006f57600080fd5b82518660018202830111640100000000821117156200008d57600080fd5b8083526020830192505050908051906020019080838360005b83811015620000c3578082015181840152602081019050620000a6565b50505050905090810190601f168015620000f15780820380516001836020036101000a031916815260200191505b506040526020018051906020019092919080519060200190929190805190602001909291908051906020019092919050505084600090805190602001906200013b92919062000273565b5084600190805190602001906200015492919062000273565b5083600281905550824201600481905550600060038190555030600560006101000a81548173ffffffffffffffffffffffffffffffffffffffff021916908373ffffffffffffffffffffffffffffffffffffffff16021790555081600660006101000a81548173ffffffffffffffffffffffffffffffffffffffff021916908373ffffffffffffffffffffffffffffffffffffffff16021790555060405180602001604052806000815250600a90805190602001906200021692919062000273565b506000600c8190555080600760006101000a81548173ffffffffffffffffffffffffffffffffffffffff021916908373ffffffffffffffffffffffffffffffffffffffff1602179055506000600b81905550505050505062000329565b828054600181600116156101000203166002900490600052602060002090601f016020900481019282620002ab5760008555620002f7565b82601f10620002c657805160ff1916838001178555620002f7565b82800160010185558215620002f7579182015b82811115620002f6578251825591602001919060010190620002d9565b5b5090506200030691906200030a565b5090565b5b80821115620003255760008160009055506001016200030b565b5090565b6112b380620003396000396000f3fe6080604052600436106101095760003560e01c806392865c5111610095578063d6b8269711610064578063d6b82697146106b5578063d8bff5a5146106d5578063e234946e1461073a578063f00e6a2a146107ab578063fbf9af01146107d657610109565b806392865c511461056a578063994e45d9146105fa578063ab9c7fa414610625578063b9f0bf661461065057610109565b8063260d9891116100dc578063260d9891146102dc578063340eba74146103095780634051ddac1461044a578063768d6bd5146104da57806380c9419e1461050557610109565b806312065fe01461010e578063175faceb146101395780631a0925411461020b57806320bc44251461029b575b600080fd5b34801561011a57600080fd5b50610123610801565b6040518082815260200191505060405180910390f35b34801561014557600080fd5b506102096004803603604081101561015c57600080fd5b81019080803590602001909291908035906020019064010000000081111561018357600080fd5b82018360208201111561019557600080fd5b803590602001918460018302840111640100000000831117156101b757600080fd5b91908080601f016020809104026020016040519081016040528093929190818152602001838380828437600081840152601f19601f820116905080830192505050505050509192919290505050610809565b005b34801561021757600080fd5b5061022061096d565b6040518080602001828103825283818151815260200191508051906020019080838360005b83811015610260578082015181840152602081019050610245565b50505050905090810190601f16801561028d5780820380516001836020036101000a031916815260200191505b509250505060405180910390f35b3480156102a757600080fd5b506102b0610a0f565b604051808273ffffffffffffffffffffffffffffffffffffffff16815260200191505060405180910390f35b3480156102e857600080fd5b506102f1610a39565b60405180821515815260200191505060405180910390f35b34801561031557600080fd5b506103cf6004803603602081101561032c57600080fd5b810190808035906020019064010000000081111561034957600080fd5b82018360208201111561035b57600080fd5b8035906020019184600183028401116401000000008311171561037d57600080fd5b91908080601f016020809104026020016040519081016040528093929190818152602001838380828437600081840152601f19601f820116905080830192505050505050509192919290505050610a55565b6040518080602001828103825283818151815260200191508051906020019080838360005b8381101561040f5780820151818401526020810190506103f4565b50505050905090810190601f16801561043c5780820380516001836020036101000a031916815260200191505b509250505060405180910390f35b34801561045657600080fd5b5061045f610b44565b6040518080602001828103825283818151815260200191508051906020019080838360005b8381101561049f578082015181840152602081019050610484565b50505050905090810190601f1680156104cc5780820380516001836020036101000a031916815260200191505b509250505060405180910390f35b3480156104e657600080fd5b506104ef610be6565b6040518082815260200191505060405180910390f35b34801561051157600080fd5b5061053e6004803603602081101561052857600080fd5b8101908080359060200190929190505050610bf0565b604051808273ffffffffffffffffffffffffffffffffffffffff16815260200191505060405180910390f35b34801561057657600080fd5b5061057f610c2f565b6040518080602001828103825283818151815260200191508051906020019080838360005b838110156105bf5780820151818401526020810190506105a4565b50505050905090810190601f1680156105ec5780820380516001836020036101000a031916815260200191505b509250505060405180910390f35b34801561060657600080fd5b5061060f610cd1565b6040518082815260200191505060405180910390f35b34801561063157600080fd5b5061063a610cdb565b6040518082815260200191505060405180910390f35b34801561065c57600080fd5b5061069f6004803603602081101561067357600080fd5b81019080803573ffffffffffffffffffffffffffffffffffffffff169060200190929190505050610ce5565b6040518082815260200191505060405180910390f35b6106bd610cfd565b60405180821515815260200191505060405180910390f35b3480156106e157600080fd5b50610724600480360360208110156106f857600080fd5b81019080803573ffffffffffffffffffffffffffffffffffffffff169060200190929190505050610e90565b6040518082815260200191505060405180910390f35b34801561074657600080fd5b506107936004803603604081101561075d57600080fd5b81019080803573ffffffffffffffffffffffffffffffffffffffff16906020019092919080359060200190929190505050610ea8565b60405180821515815260200191505060405180910390f35b3480156107b757600080fd5b506107c06111be565b6040518082815260200191505060405180910390f35b3480156107e257600080fd5b506107eb6111c8565b6040518082815260200191505060405180910390f35b600047905090565b600660009054906101000a900473ffffffffffffffffffffffffffffffffffffffff1673ffffffffffffffffffffffffffffffffffffffff163373ffffffffffffffffffffffffffffffffffffffff161461086357600080fd5b600560009054906101000a900473ffffffffffffffffffffffffffffffffffffffff1673ffffffffffffffffffffffffffffffffffffffff16318211156108a957600080fd5b81600b8190555080600a90805190602001906108c69291906111d2565b5060005b600980549050811015610960576000600d6000600984815481106108ea57fe5b9060005260206000200160009054906101000a900473ffffffffffffffffffffffffffffffffffffffff1673ffffffffffffffffffffffffffffffffffffffff1673ffffffffffffffffffffffffffffffffffffffff1681526020019081526020016000208190555080806001019150506108ca565b506001600c819055505050565b606060018054600181600116156101000203166002900480601f016020809104026020016040519081016040528092919081815260200182805460018160011615610100020316600290048015610a055780601f106109da57610100808354040283529160200191610a05565b820191906000526020600020905b8154815290600101906020018083116109e857829003601f168201915b5050505050905090565b6000600660009054906101000a900473ffffffffffffffffffffffffffffffffffffffff16905090565b60006004544210610a4d5760009050610a52565b600190505b90565b6060600660009054906101000a900473ffffffffffffffffffffffffffffffffffffffff1673ffffffffffffffffffffffffffffffffffffffff163373ffffffffffffffffffffffffffffffffffffffff161415610ac9578160019080519060200190610ac39291906111d2565b50610b06565b6040518060400160405280600881526020017f72656a65637465640000000000000000000000000000000000000000000000008152509050610b3f565b6040518060400160405280600881526020017f616363657074656400000000000000000000000000000000000000000000000081525090505b919050565b606060008054600181600116156101000203166002900480601f016020809104026020016040519081016040528092919081815260200182805460018160011615610100020316600290048015610bdc5780601f10610bb157610100808354040283529160200191610bdc565b820191906000526020600020905b815481529060010190602001808311610bbf57829003601f168201915b5050505050905090565b6000600b54905090565b60098181548110610c0057600080fd5b906000526020600020016000915054906101000a900473ffffffffffffffffffffffffffffffffffffffff1681565b6060600a8054600181600116156101000203166002900480601f016020809104026020016040519081016040528092919081815260200182805460018160011615610100020316600290048015610cc75780601f10610c9c57610100808354040283529160200191610cc7565b820191906000526020600020905b815481529060010190602001808311610caa57829003601f168201915b5050505050905090565b6000600354905090565b6000600c54905090565b60086020528060005260406000206000915090505481565b600060025460035434011115610d1257600080fd5b60011515610d1e610a39565b151514610d2a57600080fd5b346003600082825401925050819055506000600860003373ffffffffffffffffffffffffffffffffffffffff1673ffffffffffffffffffffffffffffffffffffffff168152602001908152602001600020541415610e3b576009339080600181540180825580915050600190039060005260206000200160009091909190916101000a81548173ffffffffffffffffffffffffffffffffffffffff021916908373ffffffffffffffffffffffffffffffffffffffff16021790555034600860003373ffffffffffffffffffffffffffffffffffffffff1673ffffffffffffffffffffffffffffffffffffffff1681526020019081526020016000206000828254019250508190555060019050610e8d565b34600860003373ffffffffffffffffffffffffffffffffffffffff1673ffffffffffffffffffffffffffffffffffffffff16815260200190815260200160002060008282540192505081905550600090505b90565b600d6020528060005260406000206000915090505481565b60006001600c5414610eb957600080fd5b6001821480610ec85750600282145b610ed157600080fd5b81600d60008573ffffffffffffffffffffffffffffffffffffffff1673ffffffffffffffffffffffffffffffffffffffff1681526020019081526020016000208190555060008060005b600980549050811015611130576001600d600060098481548110610f3b57fe5b9060005260206000200160009054906101000a900473ffffffffffffffffffffffffffffffffffffffff1673ffffffffffffffffffffffffffffffffffffffff1673ffffffffffffffffffffffffffffffffffffffff168152602001908152602001600020541415611027576008600060098381548110610fb857fe5b9060005260206000200160009054906101000a900473ffffffffffffffffffffffffffffffffffffffff1673ffffffffffffffffffffffffffffffffffffffff1673ffffffffffffffffffffffffffffffffffffffff1681526020019081526020016000205483019250611123565b6002600d60006009848154811061103a57fe5b9060005260206000200160009054906101000a900473ffffffffffffffffffffffffffffffffffffffff1673ffffffffffffffffffffffffffffffffffffffff1673ffffffffffffffffffffffffffffffffffffffff1681526020019081526020016000205414156111225760086000600983815481106110b757fe5b9060005260206000200160009054906101000a900473ffffffffffffffffffffffffffffffffffffffff1673ffffffffffffffffffffffffffffffffffffffff1673ffffffffffffffffffffffffffffffffffffffff16815260200190815260200160002054820191505b5b8080600101915050610f1b565b5060025460028302106111b1576003600c81905550600660009054906101000a900473ffffffffffffffffffffffffffffffffffffffff1673ffffffffffffffffffffffffffffffffffffffff166108fc670de0b6b3a7640000600b54029081150290604051600060405180830381858888f19350505050925050506111b8565b6000925050505b92915050565b6000600254905090565b6000600454905090565b828054600181600116156101000203166002900490600052602060002090601f016020900481019282611208576000855561124f565b82601f1061122157805160ff191683800117855561124f565b8280016001018555821561124f579182015b8281111561124e578251825591602001919060010190611233565b5b50905061125c9190611260565b5090565b5b80821115611279576000816000905550600101611261565b509056fea2646970667358221220c065e85796172b3a9de70b2f66e7d3dff7d4967ce2c47988b822834aaeab6a3264736f6c63430007040033",
  "immutableReferences": {},
  "source": "pragma solidity >=0.4.24;\r\n\r\ncontract Fproject{\r\n    string summary;//项目简介\r\n    string description;//项目描述\r\n    uint256 private target;//目标金额\r\n    uint256 private got;//已获得金额，当已获得金额等于target时，认为众筹成功\r\n    //此后即使转出金额也不改变got\r\n    uint private ddl;//deadline\r\n    address payable contra;//该合约的地址\r\n    address payable host;//发起人的地址\r\n    address manager;//管理器合约，用于回调\r\n    mapping (address=>uint256) public amount;//记录每个地址转入的金额\r\n    address[] public list;\r\n    string votestr;//投票描述\r\n    uint256 vote_target;\r\n    uint votestate;//投票状态 0为未开始 1为进行中 2为失败 3为成功\r\n    mapping (address=>uint) public votes;\r\n\r\n    constructor(\r\n        string memory _summary,\r\n        uint256 _target,\r\n        uint _time,\r\n        address payable _host,\r\n        address _manager\r\n    )public{\r\n        summary = _summary;\r\n        description = _summary;\r\n        target = _target;\r\n        ddl = block.timestamp + _time;\r\n        got = 0;\r\n        contra = address( uint160(address(this)) );\r\n        host = _host;\r\n        votestr = \"\";\r\n        votestate = 0;\r\n        manager = _manager;\r\n        vote_target = 0;\r\n    }\r\n    //\r\n    function updDescription(string memory str) public returns(string memory res){\r\n        if(msg.sender == host){\r\n            //只有发起人可以更新描述\r\n            description = str;\r\n        }\r\n        else{\r\n            return 'rejected';\r\n        }\r\n        return 'accepted';\r\n    }\r\n    function CheckDDL() view public returns(bool){\r\n        if(block.timestamp >= ddl) return false;\r\n        return true;//返回1表示没有到达DDL\r\n    }\r\n    function Payfund() payable public returns(bool){//返回是否初次付款\r\n        require(msg.value + got <= target);//不能超出需求值\r\n        require(CheckDDL() == true);//DDL不能截止\r\n        got += msg.value;\r\n        if(amount[msg.sender] == 0){\r\n            list.push(msg.sender);\r\n            amount[msg.sender] += msg.value;\r\n            return true;\r\n        }\r\n        amount[msg.sender] += msg.value;\r\n        return false;\r\n    }\r\n\r\n    function Raisevote(uint256 vtar,string memory vstr) public{\r\n        require(msg.sender == host);//必须是众筹发起人发起投票\r\n        require(vtar <= contra.balance);//需求量要小于剩余量\r\n        vote_target = vtar;\r\n        votestr = vstr; //更新投票描述\r\n        for(uint i =0;i<list.length;i++){\r\n            votes[list[i]] = 0;//初始化投票结果\r\n        }\r\n        votestate = 1;//开始投票\r\n        return;\r\n    }\r\n    function Checkvote(address from,uint v) public returns(bool){\r\n        require(votestate==1);\r\n        require(v==1 || v==2);//1为同意，2为拒绝\r\n        votes[from] = v;\r\n        uint256 tmp = 0;\r\n        uint256 tmp2 = 0;\r\n        for(uint i = 0;i<list.length;i++){\r\n            if(votes[list[i]]==1){//同意票\r\n                tmp += amount[list[i]];\r\n            }\r\n            else if(votes[list[i]]==2){//拒绝票\r\n                tmp2 += amount[list[i]];\r\n            }\r\n        }\r\n        if(tmp * 2 >= target){ //通过率一半以上\r\n            votestate = 3;\r\n            return host.send(vote_target * 1e18);//转账\r\n        }\r\n        return false;\r\n    }\r\n    function getSummary() public view returns(string memory){\r\n        return summary;\r\n    }\r\n    function getDescription() public view returns(string memory){\r\n        return description;\r\n    }\r\n    function getTarget() public view returns(uint256){\r\n        return target;\r\n    }\r\n    function getGot() public view returns(uint256){\r\n        return got;\r\n    }\r\n    function getDDL() public view returns(uint){\r\n        return ddl;\r\n    }\r\n    function getHost() public view returns(address){\r\n        return address(host);\r\n    }\r\n    function getVoteStr() public view returns(string memory){\r\n        return votestr;\r\n    }\r\n    function getVoteTarget() public view returns(uint256){\r\n        return vote_target;\r\n    }\r\n    function getVoteState() public view returns(uint){\r\n        return votestate;\r\n    }\r\n    function getBalance() public view returns(uint){\r\n        return address(this).balance;\r\n    }\r\n}",
  "sourcePath": "D:\\DOC\\区块链与数字货币\\workfinal\\contracts\\Fproject.sol",
  "compiler": {
    "name": "solc",
    "version": "0.7.4+commit.3f05b770.Emscripten.clang"
  },
  "schemaVersion": "3.3.3",
  "updatedAt": "2021-01-11T12:54:51.857Z",
  "devdoc": {
    "kind": "dev",
    "methods": {},
    "version": 1
  },
  "userdoc": {
    "kind": "user",
    "methods": {},
    "version": 1
  }
}