{
  "contractName": "mFund",
  "abi": [
    {
      "inputs": [
        {
          "internalType": "uint256",
          "name": "",
          "type": "uint256"
        }
      ],
      "name": "pro",
      "outputs": [
        {
          "internalType": "address",
          "name": "",
          "type": "address"
        }
      ],
      "stateMutability": "view",
      "type": "function",
      "constant": true
    },
    {
      "inputs": [],
      "name": "GetProList",
      "outputs": [
        {
          "internalType": "address[]",
          "name": "",
          "type": "address[]"
        }
      ],
      "stateMutability": "view",
      "type": "function",
      "constant": true
    },
    {
      "inputs": [
        {
          "internalType": "address",
          "name": "from",
          "type": "address"
        }
      ],
      "name": "GetHostIdx",
      "outputs": [
        {
          "internalType": "uint16[]",
          "name": "idx",
          "type": "uint16[]"
        }
      ],
      "stateMutability": "view",
      "type": "function",
      "constant": true
    },
    {
      "inputs": [
        {
          "internalType": "address",
          "name": "from",
          "type": "address"
        }
      ],
      "name": "GetPaidIdx",
      "outputs": [
        {
          "internalType": "uint16[]",
          "name": "idx",
          "type": "uint16[]"
        }
      ],
      "stateMutability": "view",
      "type": "function",
      "constant": true
    },
    {
      "inputs": [
        {
          "internalType": "address",
          "name": "from",
          "type": "address"
        },
        {
          "internalType": "address",
          "name": "proj_addr",
          "type": "address"
        }
      ],
      "name": "AddHostIdx",
      "outputs": [],
      "stateMutability": "nonpayable",
      "type": "function"
    },
    {
      "inputs": [
        {
          "internalType": "address",
          "name": "from",
          "type": "address"
        },
        {
          "internalType": "address",
          "name": "proj_addr",
          "type": "address"
        }
      ],
      "name": "AddPaidIdx",
      "outputs": [],
      "stateMutability": "nonpayable",
      "type": "function"
    },
    {
      "inputs": [
        {
          "internalType": "address payable",
          "name": "from",
          "type": "address"
        },
        {
          "internalType": "string",
          "name": "summary",
          "type": "string"
        },
        {
          "internalType": "uint256",
          "name": "target",
          "type": "uint256"
        },
        {
          "internalType": "uint256",
          "name": "time",
          "type": "uint256"
        }
      ],
      "name": "RaiseProject",
      "outputs": [
        {
          "internalType": "address",
          "name": "",
          "type": "address"
        }
      ],
      "stateMutability": "payable",
      "type": "function",
      "payable": true
    }
  ],
  "bytecode": "0x608060405234801561001057600080fd5b50612084806100206000396000f3fe6080604052600436106100705760003560e01c8063724b2b0c1161004e578063724b2b0c146102a05780637d5d7a2f14610305578063b022448c146103ab578063b3de0e641461041c57610070565b80632823f963146100755780633880916f1461018e5780635c04c2ee14610234575b600080fd5b6101626004803603608081101561008b57600080fd5b81019080803573ffffffffffffffffffffffffffffffffffffffff169060200190929190803590602001906401000000008111156100c857600080fd5b8201836020820111156100da57600080fd5b803590602001918460018302840111640100000000831117156100fc57600080fd5b91908080601f016020809104026020016040519081016040528093929190818152602001838380828437600081840152601f19601f820116905080830192505050505050509192919290803590602001909291908035906020019092919050505061048d565b604051808273ffffffffffffffffffffffffffffffffffffffff16815260200191505060405180910390f35b34801561019a57600080fd5b506101dd600480360360208110156101b157600080fd5b81019080803573ffffffffffffffffffffffffffffffffffffffff16906020019092919050505061065a565b6040518080602001828103825283818151815260200191508051906020019060200280838360005b83811015610220578082015181840152602081019050610205565b505050509050019250505060405180910390f35b34801561024057600080fd5b50610249610719565b6040518080602001828103825283818151815260200191508051906020019060200280838360005b8381101561028c578082015181840152602081019050610271565b505050509050019250505060405180910390f35b3480156102ac57600080fd5b506102d9600480360360208110156102c357600080fd5b81019080803590602001909291905050506107a7565b604051808273ffffffffffffffffffffffffffffffffffffffff16815260200191505060405180910390f35b34801561031157600080fd5b506103546004803603602081101561032857600080fd5b81019080803573ffffffffffffffffffffffffffffffffffffffff1690602001909291905050506107e6565b6040518080602001828103825283818151815260200191508051906020019060200280838360005b8381101561039757808201518184015260208101905061037c565b505050509050019250505060405180910390f35b3480156103b757600080fd5b5061041a600480360360408110156103ce57600080fd5b81019080803573ffffffffffffffffffffffffffffffffffffffff169060200190929190803573ffffffffffffffffffffffffffffffffffffffff1690602001909291905050506108a5565b005b34801561042857600080fd5b5061048b6004803603604081101561043f57600080fd5b81019080803573ffffffffffffffffffffffffffffffffffffffff169060200190929190803573ffffffffffffffffffffffffffffffffffffffff16906020019092919050505061097d565b005b60008084848488306040516104a190610a55565b80806020018681526020018581526020018473ffffffffffffffffffffffffffffffffffffffff1681526020018373ffffffffffffffffffffffffffffffffffffffff168152602001828103825287818151815260200191508051906020019080838360005b83811015610522578082015181840152602081019050610507565b50505050905090810190601f16801561054f5780820380516001836020036101000a031916815260200191505b509650505050505050604051809103906000f080158015610574573d6000803e3d6000fd5b50905060008190506000808054905090506000829080600181540180825580915050600190039060005260206000200160009091909190916101000a81548173ffffffffffffffffffffffffffffffffffffffff021916908373ffffffffffffffffffffffffffffffffffffffff16021790555080600160008473ffffffffffffffffffffffffffffffffffffffff1673ffffffffffffffffffffffffffffffffffffffff16815260200190815260200160002060006101000a81548161ffff021916908361ffff16021790555061064c88836108a5565b819350505050949350505050565b6060600260008373ffffffffffffffffffffffffffffffffffffffff1673ffffffffffffffffffffffffffffffffffffffff16815260200190815260200160002080548060200260200160405190810160405280929190818152602001828054801561070d57602002820191906000526020600020906000905b82829054906101000a900461ffff1661ffff16815260200190600201906020826001010492830192600103820291508084116106d45790505b50505050509050919050565b6060600080548060200260200160405190810160405280929190818152602001828054801561079d57602002820191906000526020600020905b8160009054906101000a900473ffffffffffffffffffffffffffffffffffffffff1673ffffffffffffffffffffffffffffffffffffffff1681526020019060010190808311610753575b5050505050905090565b600081815481106107b757600080fd5b906000526020600020016000915054906101000a900473ffffffffffffffffffffffffffffffffffffffff1681565b6060600360008373ffffffffffffffffffffffffffffffffffffffff1673ffffffffffffffffffffffffffffffffffffffff16815260200190815260200160002080548060200260200160405190810160405280929190818152602001828054801561089957602002820191906000526020600020906000905b82829054906101000a900461ffff1661ffff16815260200190600201906020826001010492830192600103820291508084116108605790505b50505050509050919050565b600360008373ffffffffffffffffffffffffffffffffffffffff1673ffffffffffffffffffffffffffffffffffffffff168152602001908152602001600020600160008373ffffffffffffffffffffffffffffffffffffffff1673ffffffffffffffffffffffffffffffffffffffff16815260200190815260200160002060009054906101000a900461ffff1690806001815401808255809150506001900390600052602060002090601091828204019190066002029091909190916101000a81548161ffff021916908361ffff1602179055505050565b600260008373ffffffffffffffffffffffffffffffffffffffff1673ffffffffffffffffffffffffffffffffffffffff168152602001908152602001600020600160008373ffffffffffffffffffffffffffffffffffffffff1673ffffffffffffffffffffffffffffffffffffffff16815260200190815260200160002060009054906101000a900461ffff1690806001815401808255809150506001900390600052602060002090601091828204019190066002029091909190916101000a81548161ffff021916908361ffff1602179055505050565b6115ec80610a638339019056fe60806040523480156200001157600080fd5b50604051620015ec380380620015ec833981810160405260a08110156200003757600080fd5b81019080805160405193929190846401000000008211156200005857600080fd5b838201915060208201858111156200006f57600080fd5b82518660018202830111640100000000821117156200008d57600080fd5b8083526020830192505050908051906020019080838360005b83811015620000c3578082015181840152602081019050620000a6565b50505050905090810190601f168015620000f15780820380516001836020036101000a031916815260200191505b506040526020018051906020019092919080519060200190929190805190602001909291908051906020019092919050505084600090805190602001906200013b92919062000273565b5084600190805190602001906200015492919062000273565b5083600281905550824201600481905550600060038190555030600560006101000a81548173ffffffffffffffffffffffffffffffffffffffff021916908373ffffffffffffffffffffffffffffffffffffffff16021790555081600660006101000a81548173ffffffffffffffffffffffffffffffffffffffff021916908373ffffffffffffffffffffffffffffffffffffffff16021790555060405180602001604052806000815250600a90805190602001906200021692919062000273565b506000600c8190555080600760006101000a81548173ffffffffffffffffffffffffffffffffffffffff021916908373ffffffffffffffffffffffffffffffffffffffff1602179055506000600b81905550505050505062000329565b828054600181600116156101000203166002900490600052602060002090601f016020900481019282620002ab5760008555620002f7565b82601f10620002c657805160ff1916838001178555620002f7565b82800160010185558215620002f7579182015b82811115620002f6578251825591602001919060010190620002d9565b5b5090506200030691906200030a565b5090565b5b80821115620003255760008160009055506001016200030b565b5090565b6112b380620003396000396000f3fe6080604052600436106101095760003560e01c806392865c5111610095578063d6b8269711610064578063d6b82697146106b5578063d8bff5a5146106d5578063e234946e1461073a578063f00e6a2a146107ab578063fbf9af01146107d657610109565b806392865c511461056a578063994e45d9146105fa578063ab9c7fa414610625578063b9f0bf661461065057610109565b8063260d9891116100dc578063260d9891146102dc578063340eba74146103095780634051ddac1461044a578063768d6bd5146104da57806380c9419e1461050557610109565b806312065fe01461010e578063175faceb146101395780631a0925411461020b57806320bc44251461029b575b600080fd5b34801561011a57600080fd5b50610123610801565b6040518082815260200191505060405180910390f35b34801561014557600080fd5b506102096004803603604081101561015c57600080fd5b81019080803590602001909291908035906020019064010000000081111561018357600080fd5b82018360208201111561019557600080fd5b803590602001918460018302840111640100000000831117156101b757600080fd5b91908080601f016020809104026020016040519081016040528093929190818152602001838380828437600081840152601f19601f820116905080830192505050505050509192919290505050610809565b005b34801561021757600080fd5b5061022061096d565b6040518080602001828103825283818151815260200191508051906020019080838360005b83811015610260578082015181840152602081019050610245565b50505050905090810190601f16801561028d5780820380516001836020036101000a031916815260200191505b509250505060405180910390f35b3480156102a757600080fd5b506102b0610a0f565b604051808273ffffffffffffffffffffffffffffffffffffffff16815260200191505060405180910390f35b3480156102e857600080fd5b506102f1610a39565b60405180821515815260200191505060405180910390f35b34801561031557600080fd5b506103cf6004803603602081101561032c57600080fd5b810190808035906020019064010000000081111561034957600080fd5b82018360208201111561035b57600080fd5b8035906020019184600183028401116401000000008311171561037d57600080fd5b91908080601f016020809104026020016040519081016040528093929190818152602001838380828437600081840152601f19601f820116905080830192505050505050509192919290505050610a55565b6040518080602001828103825283818151815260200191508051906020019080838360005b8381101561040f5780820151818401526020810190506103f4565b50505050905090810190601f16801561043c5780820380516001836020036101000a031916815260200191505b509250505060405180910390f35b34801561045657600080fd5b5061045f610b44565b6040518080602001828103825283818151815260200191508051906020019080838360005b8381101561049f578082015181840152602081019050610484565b50505050905090810190601f1680156104cc5780820380516001836020036101000a031916815260200191505b509250505060405180910390f35b3480156104e657600080fd5b506104ef610be6565b6040518082815260200191505060405180910390f35b34801561051157600080fd5b5061053e6004803603602081101561052857600080fd5b8101908080359060200190929190505050610bf0565b604051808273ffffffffffffffffffffffffffffffffffffffff16815260200191505060405180910390f35b34801561057657600080fd5b5061057f610c2f565b6040518080602001828103825283818151815260200191508051906020019080838360005b838110156105bf5780820151818401526020810190506105a4565b50505050905090810190601f1680156105ec5780820380516001836020036101000a031916815260200191505b509250505060405180910390f35b34801561060657600080fd5b5061060f610cd1565b6040518082815260200191505060405180910390f35b34801561063157600080fd5b5061063a610cdb565b6040518082815260200191505060405180910390f35b34801561065c57600080fd5b5061069f6004803603602081101561067357600080fd5b81019080803573ffffffffffffffffffffffffffffffffffffffff169060200190929190505050610ce5565b6040518082815260200191505060405180910390f35b6106bd610cfd565b60405180821515815260200191505060405180910390f35b3480156106e157600080fd5b50610724600480360360208110156106f857600080fd5b81019080803573ffffffffffffffffffffffffffffffffffffffff169060200190929190505050610e90565b6040518082815260200191505060405180910390f35b34801561074657600080fd5b506107936004803603604081101561075d57600080fd5b81019080803573ffffffffffffffffffffffffffffffffffffffff16906020019092919080359060200190929190505050610ea8565b60405180821515815260200191505060405180910390f35b3480156107b757600080fd5b506107c06111be565b6040518082815260200191505060405180910390f35b3480156107e257600080fd5b506107eb6111c8565b6040518082815260200191505060405180910390f35b600047905090565b600660009054906101000a900473ffffffffffffffffffffffffffffffffffffffff1673ffffffffffffffffffffffffffffffffffffffff163373ffffffffffffffffffffffffffffffffffffffff161461086357600080fd5b600560009054906101000a900473ffffffffffffffffffffffffffffffffffffffff1673ffffffffffffffffffffffffffffffffffffffff16318211156108a957600080fd5b81600b8190555080600a90805190602001906108c69291906111d2565b5060005b600980549050811015610960576000600d6000600984815481106108ea57fe5b9060005260206000200160009054906101000a900473ffffffffffffffffffffffffffffffffffffffff1673ffffffffffffffffffffffffffffffffffffffff1673ffffffffffffffffffffffffffffffffffffffff1681526020019081526020016000208190555080806001019150506108ca565b506001600c819055505050565b606060018054600181600116156101000203166002900480601f016020809104026020016040519081016040528092919081815260200182805460018160011615610100020316600290048015610a055780601f106109da57610100808354040283529160200191610a05565b820191906000526020600020905b8154815290600101906020018083116109e857829003601f168201915b5050505050905090565b6000600660009054906101000a900473ffffffffffffffffffffffffffffffffffffffff16905090565b60006004544210610a4d5760009050610a52565b600190505b90565b6060600660009054906101000a900473ffffffffffffffffffffffffffffffffffffffff1673ffffffffffffffffffffffffffffffffffffffff163373ffffffffffffffffffffffffffffffffffffffff161415610ac9578160019080519060200190610ac39291906111d2565b50610b06565b6040518060400160405280600881526020017f72656a65637465640000000000000000000000000000000000000000000000008152509050610b3f565b6040518060400160405280600881526020017f616363657074656400000000000000000000000000000000000000000000000081525090505b919050565b606060008054600181600116156101000203166002900480601f016020809104026020016040519081016040528092919081815260200182805460018160011615610100020316600290048015610bdc5780601f10610bb157610100808354040283529160200191610bdc565b820191906000526020600020905b815481529060010190602001808311610bbf57829003601f168201915b5050505050905090565b6000600b54905090565b60098181548110610c0057600080fd5b906000526020600020016000915054906101000a900473ffffffffffffffffffffffffffffffffffffffff1681565b6060600a8054600181600116156101000203166002900480601f016020809104026020016040519081016040528092919081815260200182805460018160011615610100020316600290048015610cc75780601f10610c9c57610100808354040283529160200191610cc7565b820191906000526020600020905b815481529060010190602001808311610caa57829003601f168201915b5050505050905090565b6000600354905090565b6000600c54905090565b60086020528060005260406000206000915090505481565b600060025460035434011115610d1257600080fd5b60011515610d1e610a39565b151514610d2a57600080fd5b346003600082825401925050819055506000600860003373ffffffffffffffffffffffffffffffffffffffff1673ffffffffffffffffffffffffffffffffffffffff168152602001908152602001600020541415610e3b576009339080600181540180825580915050600190039060005260206000200160009091909190916101000a81548173ffffffffffffffffffffffffffffffffffffffff021916908373ffffffffffffffffffffffffffffffffffffffff16021790555034600860003373ffffffffffffffffffffffffffffffffffffffff1673ffffffffffffffffffffffffffffffffffffffff1681526020019081526020016000206000828254019250508190555060019050610e8d565b34600860003373ffffffffffffffffffffffffffffffffffffffff1673ffffffffffffffffffffffffffffffffffffffff16815260200190815260200160002060008282540192505081905550600090505b90565b600d6020528060005260406000206000915090505481565b60006001600c5414610eb957600080fd5b6001821480610ec85750600282145b610ed157600080fd5b81600d60008573ffffffffffffffffffffffffffffffffffffffff1673ffffffffffffffffffffffffffffffffffffffff1681526020019081526020016000208190555060008060005b600980549050811015611130576001600d600060098481548110610f3b57fe5b9060005260206000200160009054906101000a900473ffffffffffffffffffffffffffffffffffffffff1673ffffffffffffffffffffffffffffffffffffffff1673ffffffffffffffffffffffffffffffffffffffff168152602001908152602001600020541415611027576008600060098381548110610fb857fe5b9060005260206000200160009054906101000a900473ffffffffffffffffffffffffffffffffffffffff1673ffffffffffffffffffffffffffffffffffffffff1673ffffffffffffffffffffffffffffffffffffffff1681526020019081526020016000205483019250611123565b6002600d60006009848154811061103a57fe5b9060005260206000200160009054906101000a900473ffffffffffffffffffffffffffffffffffffffff1673ffffffffffffffffffffffffffffffffffffffff1673ffffffffffffffffffffffffffffffffffffffff1681526020019081526020016000205414156111225760086000600983815481106110b757fe5b9060005260206000200160009054906101000a900473ffffffffffffffffffffffffffffffffffffffff1673ffffffffffffffffffffffffffffffffffffffff1673ffffffffffffffffffffffffffffffffffffffff16815260200190815260200160002054820191505b5b8080600101915050610f1b565b5060025460028302106111b1576003600c81905550600660009054906101000a900473ffffffffffffffffffffffffffffffffffffffff1673ffffffffffffffffffffffffffffffffffffffff166108fc670de0b6b3a7640000600b54029081150290604051600060405180830381858888f19350505050925050506111b8565b6000925050505b92915050565b6000600254905090565b6000600454905090565b828054600181600116156101000203166002900490600052602060002090601f016020900481019282611208576000855561124f565b82601f1061122157805160ff191683800117855561124f565b8280016001018555821561124f579182015b8281111561124e578251825591602001919060010190611233565b5b50905061125c9190611260565b5090565b5b80821115611279576000816000905550600101611261565b509056fea2646970667358221220c065e85796172b3a9de70b2f66e7d3dff7d4967ce2c47988b822834aaeab6a3264736f6c63430007040033a2646970667358221220ae887d5105a1a4fb0f1d98db88bdcd77579fe7f09b1e067de7073fcec825cbcd64736f6c63430007040033",
  "immutableReferences": {},
  "source": "pragma solidity >=0.4.24;\r\nimport \"./Fproject.sol\";\r\n\r\ncontract mFund{\r\n    address[] public pro;\r\n    mapping (address=>uint16) private addr_index;\r\n    mapping (address=>uint16[]) private paid;\r\n    mapping (address=>uint16[]) private hosting;\r\n    function GetProList()view public returns(address[] memory){\r\n        return pro;\r\n    }\r\n    function GetHostIdx(address from) view public returns (uint16[] memory idx){\r\n        idx = hosting[from];\r\n        return idx;\r\n    }\r\n    function GetPaidIdx(address from) view public returns (uint16[] memory idx){\r\n        idx = paid[from];\r\n        return idx;\r\n    }\r\n    function AddHostIdx(address from,address proj_addr) public{\r\n        hosting[from].push(addr_index[proj_addr]);\r\n    }\r\n    function AddPaidIdx(address from,address proj_addr) public{\r\n        paid[from].push(addr_index[proj_addr]);\r\n    }\r\n    function RaiseProject(address payable from,string memory summary,uint256 target,uint time) payable public returns(address){\r\n        //创建合约\r\n        Fproject newProject = new Fproject(summary,target,time,from,address(this));\r\n        address res = address(newProject);\r\n        //返回生成的合约的地址\r\n        uint16 idx = uint16(pro.length);\r\n        pro.push(res);\r\n        addr_index[res] = idx;\r\n        AddHostIdx(from, res);\r\n        return res;\r\n    }\r\n}",
  "sourcePath": "D:/DOC/区块链与数字货币/workfinal/contracts/mFund.sol",
  "compiler": {
    "name": "solc",
    "version": "0.7.4+commit.3f05b770.Emscripten.clang"
  },
  "schemaVersion": "3.3.3",
  "updatedAt": "2021-01-11T12:54:55.761Z",
  "networkType": "ethereum",
  "devdoc": {
    "kind": "dev",
    "methods": {},
    "version": 1
  },
  "userdoc": {
    "kind": "user",
    "methods": {},
    "version": 1
  }
}