{
  "contractName": "Crowdfunding",
  "abi": [
    {
      "constant": true,
      "inputs": [
        {
          "internalType": "uint256",
          "name": "",
          "type": "uint256"
        }
      ],
      "name": "allFundings",
      "outputs": [
        {
          "internalType": "address payable",
          "name": "sponsor",
          "type": "address"
        },
        {
          "internalType": "string",
          "name": "title",
          "type": "string"
        },
        {
          "internalType": "string",
          "name": "detail",
          "type": "string"
        },
        {
          "internalType": "uint256",
          "name": "targetMoney",
          "type": "uint256"
        },
        {
          "internalType": "uint256",
          "name": "tempMoney",
          "type": "uint256"
        },
        {
          "internalType": "uint256",
          "name": "totalMoney",
          "type": "uint256"
        },
        {
          "internalType": "uint256",
          "name": "endTime",
          "type": "uint256"
        },
        {
          "internalType": "uint256",
          "name": "totalInvestors",
          "type": "uint256"
        },
        {
          "internalType": "uint256",
          "name": "totalRequests",
          "type": "uint256"
        },
        {
          "internalType": "bool",
          "name": "isSuccess",
          "type": "bool"
        }
      ],
      "payable": false,
      "stateMutability": "view",
      "type": "function"
    },
    {
      "constant": true,
      "inputs": [],
      "name": "totalFunding",
      "outputs": [
        {
          "internalType": "uint256",
          "name": "",
          "type": "uint256"
        }
      ],
      "payable": false,
      "stateMutability": "view",
      "type": "function"
    },
    {
      "constant": false,
      "inputs": [
        {
          "internalType": "string",
          "name": "_title",
          "type": "string"
        },
        {
          "internalType": "string",
          "name": "_detail",
          "type": "string"
        },
        {
          "internalType": "uint256",
          "name": "_targetMoney",
          "type": "uint256"
        },
        {
          "internalType": "uint256",
          "name": "_endTime",
          "type": "uint256"
        }
      ],
      "name": "newFunding",
      "outputs": [
        {
          "internalType": "uint256",
          "name": "",
          "type": "uint256"
        }
      ],
      "payable": false,
      "stateMutability": "nonpayable",
      "type": "function"
    },
    {
      "constant": false,
      "inputs": [
        {
          "internalType": "uint256",
          "name": "index",
          "type": "uint256"
        }
      ],
      "name": "invest",
      "outputs": [],
      "payable": true,
      "stateMutability": "payable",
      "type": "function"
    },
    {
      "constant": false,
      "inputs": [
        {
          "internalType": "uint256",
          "name": "index",
          "type": "uint256"
        }
      ],
      "name": "refund",
      "outputs": [],
      "payable": false,
      "stateMutability": "nonpayable",
      "type": "function"
    },
    {
      "constant": false,
      "inputs": [
        {
          "internalType": "uint256",
          "name": "index",
          "type": "uint256"
        },
        {
          "internalType": "string",
          "name": "_purpose",
          "type": "string"
        },
        {
          "internalType": "uint256",
          "name": "_cost",
          "type": "uint256"
        }
      ],
      "name": "newRequest",
      "outputs": [],
      "payable": false,
      "stateMutability": "nonpayable",
      "type": "function"
    },
    {
      "constant": false,
      "inputs": [
        {
          "internalType": "uint256",
          "name": "index",
          "type": "uint256"
        },
        {
          "internalType": "uint256",
          "name": "requestID",
          "type": "uint256"
        },
        {
          "internalType": "bool",
          "name": "agree",
          "type": "bool"
        }
      ],
      "name": "approveRequest",
      "outputs": [],
      "payable": false,
      "stateMutability": "nonpayable",
      "type": "function"
    },
    {
      "constant": false,
      "inputs": [
        {
          "internalType": "uint256",
          "name": "index",
          "type": "uint256"
        },
        {
          "internalType": "uint256",
          "name": "requestID",
          "type": "uint256"
        }
      ],
      "name": "finishRequest",
      "outputs": [],
      "payable": false,
      "stateMutability": "nonpayable",
      "type": "function"
    },
    {
      "constant": true,
      "inputs": [
        {
          "internalType": "uint256",
          "name": "index",
          "type": "uint256"
        }
      ],
      "name": "getRequestsCount",
      "outputs": [
        {
          "internalType": "uint256",
          "name": "",
          "type": "uint256"
        }
      ],
      "payable": false,
      "stateMutability": "view",
      "type": "function"
    },
    {
      "constant": true,
      "inputs": [
        {
          "internalType": "uint256",
          "name": "index",
          "type": "uint256"
        },
        {
          "internalType": "uint256",
          "name": "requestID",
          "type": "uint256"
        },
        {
          "internalType": "address",
          "name": "addr",
          "type": "address"
        }
      ],
      "name": "getRequest",
      "outputs": [
        {
          "internalType": "string",
          "name": "",
          "type": "string"
        },
        {
          "internalType": "uint256",
          "name": "",
          "type": "uint256"
        },
        {
          "internalType": "uint256",
          "name": "",
          "type": "uint256"
        },
        {
          "internalType": "uint256",
          "name": "",
          "type": "uint256"
        },
        {
          "internalType": "uint256",
          "name": "",
          "type": "uint256"
        },
        {
          "internalType": "uint256",
          "name": "",
          "type": "uint256"
        },
        {
          "internalType": "uint256",
          "name": "",
          "type": "uint256"
        }
      ],
      "payable": false,
      "stateMutability": "view",
      "type": "function"
    },
    {
      "constant": true,
      "inputs": [
        {
          "internalType": "uint256",
          "name": "index",
          "type": "uint256"
        },
        {
          "internalType": "address payable",
          "name": "addr",
          "type": "address"
        }
      ],
      "name": "isInvested",
      "outputs": [
        {
          "internalType": "bool",
          "name": "",
          "type": "bool"
        }
      ],
      "payable": false,
      "stateMutability": "view",
      "type": "function"
    }
  ],
  "bytecode": "0x60806040526000805534801561001457600080fd5b50611689806100246000396000f3fe60806040526004361061009c5760003560e01c806373d7fe8a1161006457806373d7fe8a146103335780637a3985b4146103a657806395ecea1f146103f75780639a5e5b771461057f578063a7783233146105ce578063fe47a8a7146107555761009c565b8063278ecde1146100a15780632afcf480146100dc5780633d565f011461010a5780633ea9ed0c1461014f578063596127cf1461022b575b600080fd5b3480156100ad57600080fd5b506100da600480360360208110156100c457600080fd5b8101908080359060200190929190505050610780565b005b610108600480360360208110156100f257600080fd5b81019080803590602001909291905050506108e1565b005b34801561011657600080fd5b5061014d6004803603604081101561012d57600080fd5b810190808035906020019092919080359060200190929190505050610a7d565b005b34801561015b57600080fd5b506102296004803603606081101561017257600080fd5b81019080803590602001909291908035906020019064010000000081111561019957600080fd5b8201836020820111156101ab57600080fd5b803590602001918460018302840111640100000000831117156101cd57600080fd5b91908080601f016020809104026020016040519081016040528093929190818152602001838380828437600081840152601f19601f82011690508083019250505050505050919291929080359060200190929190505050610b7a565b005b34801561023757600080fd5b5061028e6004803603606081101561024e57600080fd5b810190808035906020019092919080359060200190929190803573ffffffffffffffffffffffffffffffffffffffff169060200190929190505050610d18565b6040518080602001888152602001878152602001868152602001858152602001848152602001838152602001828103825289818151815260200191508051906020019080838360005b838110156102f25780820151818401526020810190506102d7565b50505050905090810190601f16801561031f5780820380516001836020036101000a031916815260200191505b509850505050505050505060405180910390f35b34801561033f57600080fd5b5061038c6004803603604081101561035657600080fd5b8101908080359060200190929190803573ffffffffffffffffffffffffffffffffffffffff169060200190929190505050610e71565b604051808215151515815260200191505060405180910390f35b3480156103b257600080fd5b506103f5600480360360608110156103c957600080fd5b810190808035906020019092919080359060200190929190803515159060200190929190505050610f29565b005b34801561040357600080fd5b506104306004803603602081101561041a57600080fd5b81019080803590602001909291905050506111a1565b604051808b73ffffffffffffffffffffffffffffffffffffffff1673ffffffffffffffffffffffffffffffffffffffff16815260200180602001806020018a81526020018981526020018881526020018781526020018681526020018581526020018415151515815260200183810383528c818151815260200191508051906020019080838360005b838110156104d45780820151818401526020810190506104b9565b50505050905090810190601f1680156105015780820380516001836020036101000a031916815260200191505b5083810382528b818151815260200191508051906020019080838360005b8381101561053a57808201518184015260208101905061051f565b50505050905090810190601f1680156105675780820380516001836020036101000a031916815260200191505b509c5050505050505050505050505060405180910390f35b34801561058b57600080fd5b506105b8600480360360208110156105a257600080fd5b8101908080359060200190929190505050611352565b6040518082815260200191505060405180910390f35b3480156105da57600080fd5b5061073f600480360360808110156105f157600080fd5b810190808035906020019064010000000081111561060e57600080fd5b82018360208201111561062057600080fd5b8035906020019184600183028401116401000000008311171561064257600080fd5b91908080601f016020809104026020016040519081016040528093929190818152602001838380828437600081840152601f19601f820116905080830192505050505050509192919290803590602001906401000000008111156106a557600080fd5b8201836020820111156106b757600080fd5b803590602001918460018302840111640100000000831117156106d957600080fd5b91908080601f016020809104026020016040519081016040528093929190818152602001838380828437600081840152601f19601f8201169050808301925050505050505091929192908035906020019092919080359060200190929190505050611377565b6040518082815260200191505060405180910390f35b34801561076157600080fd5b5061076a611508565b6040518082815260200191505060405180910390f35b600015156001600083815260200190815260200160002060090160009054906101000a900460ff161515146107b457600080fd5b600060016000838152602001908152602001600020905060008090505b81600701548110156108dc5781600a01600082815260200190815260200160002060009054906101000a900473ffffffffffffffffffffffffffffffffffffffff1673ffffffffffffffffffffffffffffffffffffffff166108fc83600b01600085600a01600086815260200190815260200160002060009054906101000a900473ffffffffffffffffffffffffffffffffffffffff1673ffffffffffffffffffffffffffffffffffffffff1673ffffffffffffffffffffffffffffffffffffffff168152602001908152602001600020549081150290604051600060405180830381858888f193505050501580156108ce573d6000803e3d6000fd5b5080806001019150506107d1565b505050565b600034116108ee57600080fd5b4260016000838152602001908152602001600020600601541161091057600080fd5b6000600160008381526020019081526020016000209050348160040160008282540192505081905550600081600b0160003373ffffffffffffffffffffffffffffffffffffffff1673ffffffffffffffffffffffffffffffffffffffff1681526020019081526020016000205414156109f0573381600a0160008360070154815260200190815260200160002060006101000a81548173ffffffffffffffffffffffffffffffffffffffff021916908373ffffffffffffffffffffffffffffffffffffffff16021790555080600701600081548092919060010191905055505b3481600b0160003373ffffffffffffffffffffffffffffffffffffffff1673ffffffffffffffffffffffffffffffffffffffff168152602001908152602001600020600082825401925050819055508060030154816004015410610a795760018160090160006101000a81548160ff021916908315150217905550806004015481600501819055505b5050565b6000600160008481526020019081526020016000209050600081600c0160008481526020019081526020016000209050600160008581526020019081526020016000206004015481600101541115610ad457600080fd5b6001816004015414610ae557600080fd5b8160000160009054906101000a900473ffffffffffffffffffffffffffffffffffffffff1673ffffffffffffffffffffffffffffffffffffffff166108fc82600101549081150290604051600060405180830381858888f19350505050158015610b53573d6000803e3d6000fd5b50600381600401819055508060010154826004016000828254039250508190555050505050565b600115156001600085815260200190815260200160002060090160009054906101000a900460ff16151514610bae57600080fd5b6001600084815260200190815260200160002060040154811115610bd157600080fd5b6001600084815260200190815260200160002060000160009054906101000a900473ffffffffffffffffffffffffffffffffffffffff1673ffffffffffffffffffffffffffffffffffffffff163373ffffffffffffffffffffffffffffffffffffffff1614610c3f57600080fd5b610c4761150e565b6040518060c001604052808481526020018381526020016000815260200160008152602001600081526020016000815250905060006001600086815260200190815260200160002090508181600c016000836008015481526020019081526020016000206000820151816000019080519060200190610cc7929190611544565b506020820151816001015560408201518160020155606082015181600301556080820151816004015560a0820151816005015590505080600801600081548092919060010191905055505050505050565b60606000806000806000806000600160008c81526020019081526020016000209050600081600c0160008c8152602001908152602001600020905060008160060160008c73ffffffffffffffffffffffffffffffffffffffff1673ffffffffffffffffffffffffffffffffffffffff168152602001908152602001600020549050816000018260010154828460020154856003015486600401548760050154868054600181600116156101000203166002900480601f016020809104026020016040519081016040528092919081815260200182805460018160011615610100020316600290048015610e4c5780601f10610e2157610100808354040283529160200191610e4c565b820191906000526020600020905b815481529060010190602001808311610e2f57829003601f168201915b5050505050965099509950995099509950995099505050509397509397509397909450565b60008060016000858152602001908152602001600020905060008090505b8160070154811015610f1c5781600a01600082815260200190815260200160002060009054906101000a900473ffffffffffffffffffffffffffffffffffffffff1673ffffffffffffffffffffffffffffffffffffffff168473ffffffffffffffffffffffffffffffffffffffff161415610f0f57600192505050610f23565b8080600101915050610e8f565b5060009150505b92915050565b6000600160008581526020019081526020016000209050600081600b0160003373ffffffffffffffffffffffffffffffffffffffff1673ffffffffffffffffffffffffffffffffffffffff168152602001908152602001600020541415610f8f57600080fd5b600081600c016000858152602001908152602001600020905060008160060160003373ffffffffffffffffffffffffffffffffffffffff1673ffffffffffffffffffffffffffffffffffffffff1681526020019081526020016000205414610ff657600080fd5b600081600401541461100757600080fd5b82156110ac5781600b0160003373ffffffffffffffffffffffffffffffffffffffff1673ffffffffffffffffffffffffffffffffffffffff16815260200190815260200160002054816002016000828254019250508190555060018160060160003373ffffffffffffffffffffffffffffffffffffffff1673ffffffffffffffffffffffffffffffffffffffff16815260200190815260200160002081905550611147565b81600b0160003373ffffffffffffffffffffffffffffffffffffffff1673ffffffffffffffffffffffffffffffffffffffff16815260200190815260200160002054816003016000828254019250508190555060028160060160003373ffffffffffffffffffffffffffffffffffffffff1673ffffffffffffffffffffffffffffffffffffffff168152602001908152602001600020819055505b8060050160008154809291906001019190505550816005015460028260020154021061117c576001816004018190555061119a565b816005015460028260030154021061119957600281600401819055505b5b5050505050565b60016020528060005260406000206000915090508060000160009054906101000a900473ffffffffffffffffffffffffffffffffffffffff1690806001018054600181600116156101000203166002900480601f0160208091040260200160405190810160405280929190818152602001828054600181600116156101000203166002900480156112735780601f1061124857610100808354040283529160200191611273565b820191906000526020600020905b81548152906001019060200180831161125657829003601f168201915b505050505090806002018054600181600116156101000203166002900480601f0160208091040260200160405190810160405280929190818152602001828054600181600116156101000203166002900480156113115780601f106112e657610100808354040283529160200191611311565b820191906000526020600020905b8154815290600101906020018083116112f457829003601f168201915b5050505050908060030154908060040154908060050154908060060154908060070154908060080154908060090160009054906101000a900460ff1690508a565b6000806001600084815260200190815260200160002090508060080154915050919050565b600042821161138557600080fd5b61138d6115c4565b6040518061014001604052803373ffffffffffffffffffffffffffffffffffffffff1681526020018781526020018681526020018581526020016000815260200160008152602001848152602001600081526020016000815260200160001515815250905080600160008054815260200190815260200160002060008201518160000160006101000a81548173ffffffffffffffffffffffffffffffffffffffff021916908373ffffffffffffffffffffffffffffffffffffffff160217905550602082015181600101908051906020019061146a929190611544565b506040820151816002019080519060200190611487929190611544565b50606082015181600301556080820151816004015560a0820151816005015560c0820151816006015560e0820151816007015561010082015181600801556101208201518160090160006101000a81548160ff0219169083151502179055509050506000808154809291906001019190505550600054915050949350505050565b60005481565b6040518060c001604052806060815260200160008152602001600081526020016000815260200160008152602001600081525090565b828054600181600116156101000203166002900490600052602060002090601f016020900481019282601f1061158557805160ff19168380011785556115b3565b828001600101855582156115b3579182015b828111156115b2578251825591602001919060010190611597565b5b5090506115c0919061162f565b5090565b604051806101400160405280600073ffffffffffffffffffffffffffffffffffffffff16815260200160608152602001606081526020016000815260200160008152602001600081526020016000815260200160008152602001600081526020016000151581525090565b61165191905b8082111561164d576000816000905550600101611635565b5090565b9056fea265627a7a72315820042dca01fe888eaa84cbab7784b46ad9766188efb5f2f6b70fb04f8e0677deb664736f6c63430005100032",
  "source": "// SPDX-License-Identifier: MIT\r\npragma solidity >=0.4.21 <0.7.0;\r\n\r\ncontract Crowdfunding {\r\n    uint public totalFunding = 0;\r\n    mapping(uint => Funding) public allFundings; // 所有的众筹项目\r\n    \r\n    // 众筹项目结构\r\n    struct Funding{\r\n        address payable sponsor;  // 发起人\r\n        string title;    // 标题\r\n        string detail;   // 项目描述\r\n        uint targetMoney;// 目标金额\r\n        uint tempMoney;  // 当前可用金额\r\n        uint totalMoney; // 最终总金额\r\n        uint endTime;    // 结束时间\r\n        uint totalInvestors; // 参与众筹人数\r\n        uint totalRequests;  // 发起请求数\r\n        bool isSuccess;  // 是否成功 \r\n        \r\n        mapping(uint => address payable) investors;  // 投资者地址\r\n        mapping(address => uint) investments; // 投资人地址与投资金额映射\r\n        mapping(uint => Request) requests;\r\n    }\r\n\r\n    // 花费请求结构\r\n    struct Request {\r\n        string purpose;  // 请求内容\r\n        uint cost;      // 申请金额\r\n        uint agreeMoney; // 赞同金额\r\n        uint disagreeMoney; // 反对金额\r\n        uint status; //这个申请的当前状态：投票中/已批准/不批准/已执行：0,1,2,3\r\n        uint votes;  // 投票人数\r\n        mapping(address => uint) investorVoted; //投资人投票情况，0: 还没决定，1：同意，2：不同意\r\n    }\r\n\r\n    // 发起新众筹项目\r\n    function newFunding(string memory _title, string memory _detail, uint _targetMoney, uint _endTime)public returns(uint){\r\n        // 结束时间晚于当前时间\r\n        require(_endTime > block.timestamp);\r\n        \r\n        Funding memory f = Funding(msg.sender, _title, _detail, _targetMoney, 0, 0, _endTime, 0, 0, false);\r\n        allFundings[totalFunding] = f;\r\n        totalFunding++;\r\n\r\n        return totalFunding;\r\n    }\r\n    \r\n    // 投资一个项目\r\n    function invest(uint index) payable public {\r\n        // 贡献的钱必须大于0\r\n        require(msg.value > 0);\r\n        // 未结束的众筹\r\n        require(allFundings[index].endTime > block.timestamp);\r\n\r\n        Funding storage f = allFundings[index];\r\n        f.tempMoney += msg.value;\r\n        \r\n        if(f.investments[msg.sender] == 0){\r\n            f.investors[f.totalInvestors] = msg.sender;\r\n            f.totalInvestors++;\r\n        }\r\n\r\n        f.investments[msg.sender] += msg.value;\r\n        \r\n        // 众筹成功，更新最终筹集到的金额\r\n        if(f.tempMoney >= f.targetMoney){\r\n            f.isSuccess = true;\r\n            f.totalMoney = f.tempMoney;\r\n        }\r\n    }\r\n\r\n    // 众筹失败，退款\r\n    function refund(uint index) public{\r\n        // 未完成的众筹\r\n        require(allFundings[index].isSuccess == false);\r\n\r\n        Funding storage f = allFundings[index];\r\n        for(uint i=0; i < f.totalInvestors; i++){\r\n            f.investors[i].transfer(f.investments[f.investors[i]]);  // 给每个账户退款\r\n        }\r\n    }\r\n\r\n    // 发起新请求\r\n    function newRequest(uint index, string memory _purpose, uint _cost) public{\r\n        require(allFundings[index].isSuccess == true);\r\n        // 花费不能超过剩余金额\r\n        require(_cost <= allFundings[index].tempMoney);\r\n        // 众筹发起人\r\n        require(msg.sender == allFundings[index].sponsor);\r\n\r\n        Request memory req = Request (_purpose,_cost,0,0,0,0);\r\n        Funding storage f = allFundings[index];\r\n        f.requests[f.totalRequests] = req;\r\n        f.totalRequests++;\r\n    }\r\n\r\n    // 批准申请\r\n    function approveRequest(uint index, uint requestID, bool agree) public {\r\n        Funding storage f = allFundings[index];\r\n        require(f.investments[msg.sender] != 0);  // 投资过的人\r\n        Request storage req = f.requests[requestID];\r\n        require(req.investorVoted[msg.sender] == 0); // 没有投过票的人\r\n        require(req.status == 0); // 请求处于投票中的状态\r\n\r\n        if(agree){\r\n            req.agreeMoney += f.investments[msg.sender];\r\n            req.investorVoted[msg.sender] = 1;\r\n        }\r\n        else{\r\n            req.disagreeMoney += f.investments[msg.sender];\r\n            req.investorVoted[msg.sender] = 2;\r\n        }\r\n\r\n        req.votes ++;\r\n\r\n        // 支持率达到50%\r\n        if(req.agreeMoney*2 >= f.totalMoney){\r\n            req.status = 1;\r\n        }\r\n        // 反对率达到50%\r\n        else if (req.disagreeMoney*2 >= f.totalMoney){\r\n            req.status = 2;\r\n        }\r\n    }\r\n\r\n    // 当项目被批准，发起人可以选择执行请求\r\n    function finishRequest(uint index, uint requestID) public{\r\n        Funding storage f = allFundings[index];\r\n        Request storage req = f.requests[requestID];\r\n        // 余额充足\r\n        require(req.cost <= allFundings[index].tempMoney);\r\n        require(req.status == 1);\r\n\r\n        f.sponsor.transfer(req.cost);  // 将钱转给发起人\r\n        req.status = 3;  // 请求已执行\r\n        f.tempMoney -= req.cost; // 结算余额\r\n    }\r\n\r\n    // 请求总数\r\n    function getRequestsCount(uint index) public view returns (uint) {\r\n        Funding storage f = allFundings[index];\r\n        return f.totalRequests;\r\n    }\r\n\r\n    // 获取请求详细信息\r\n    function getRequest(uint index, uint requestID, address addr)public view returns(string memory,uint,uint,uint,uint,uint,uint) {\r\n        Funding storage f = allFundings[index];\r\n        Request storage req = f.requests[requestID];\r\n\r\n        uint isVoted = req.investorVoted[addr];\r\n        return (req.purpose, req.cost, isVoted, req.agreeMoney, req.disagreeMoney, req.status,req.votes);\r\n    }\r\n    \r\n    // 是否是投资的项目\r\n    function isInvested(uint index, address payable addr) public view returns(bool){\r\n        Funding storage f = allFundings[index];\r\n        \r\n        for(uint i=0; i<f.totalInvestors; i++){\r\n            if(addr == f.investors[i]){\r\n                return true;\r\n            } \r\n        }\r\n        return false;\r\n    }\r\n}",
  "sourcePath": "C:/Users/Sophy/Desktop/区块链/blockchainCourse/wangchenlu/finalWork/contracts/Crowdfunding.sol",
  "compiler": {
    "name": "solc",
    "version": "0.5.16+commit.9c3226ce.Emscripten.clang"
  },
  "schemaVersion": "3.3.3",
  "updatedAt": "2021-01-11T13:46:58.644Z",
  "networkType": "ethereum",
  "devdoc": {
    "methods": {}
  },
  "userdoc": {
    "methods": {}
  }
}